:020000040800F2
:10000000E0050020450100088D2D0008EF230008C1
:10001000892D00086D0B00081D320008000000004B
:10002000000000000000000000000000D52D0008C6
:10003000710B000800000000AB2D0008D72D000850
:100040005F0100085F0100085F0100085F01000810
:100050005F0100085F0100085F0100085F01000800
:100060005F0100085F0100085F0100085F010008F0
:100070005F0100085F0100085F0100085F010008E0
:100080005F0100085F0100085F0100085F010008D0
:100090005F0100085F0100085F0100085F010008C0
:1000A0005F0100085F0100085F0100085F010008B0
:1000B0005F0100085F0100085F0100085F010008A0
:1000C0005F0100085F0100085F0100085F01000890
:1000D0005F0100080D3200085F0100085F010008A1
:1000E0005F0100085F0100085F0100085F01000870
:1000F0005F0100085F0100085F0100085F01000860
:100100005F0100085F0100085F0100085F0100084F
:100110005F0100085F010008492E00085F01000828
:100120005F0100085F0100085F0100085F0100082F
:10013000DFF80CD000F034FC00480047013900081B
:10014000E00500200648804706480047FEE7FEE736
:10015000FEE7FEE7FEE7FEE7FEE7FEE7FEE7FEE777
:10016000452E000831010008202A04DB203A21FA3C
:1001700002F00021704721FA02F3D040C2F12002C0
:100180009140084319467047D2B201E000F8012BB4
:10019000491EFBD270470022F6E710B513460A4607
:1001A00004461946FFF7F0FF204610BDF0B480EA80
:1001B0000102D40F4200B2EB410F02D202460846C0
:1001C00011464A0042D0C30DDDB2C1F3C752AD1A89
:1001D000202D35DAC1F3160141F4000204B1524278
:1001E000C5F1200602FA06F12A411044B3EBD05FB4
:1001F00023D0C4B1012DA0EBC35009DCF0BC4FF0FB
:10020000004202EAC352DBB200F5000000F0D5BAAA
:10021000400000F1807000EBC350A0F1807040EA14
:10022000D170490009E0490841EAC071A0EBC35010
:1002300000F50000400800EBC350F0BC00F0B4BA79
:100240006142012202EB4101001BF6E7F0BC70475E
:1002500081F00041AAE780F00040A7E780EA0102B0
:1002600010B502F00043400022D04A001FD0010E1A
:1002700001EB1261C0F35600C2F3560240F40000D5
:1002800042F40002A0FB022000047F39140400D0D5
:10029000401C50EA124001D44000491EC2B20C0674
:1002A00004EBD010401C4008802A02D003E000205C
:1002B00010BD20F00100002900DA0020184310BD15
:1002C00030B480EA010202F0004530F0004221F033
:1002D000004013D090B1C30DD40DC2F31601C0F38A
:1002E0001600E41A41F4000140F400027D3491420A
:1002F00001D3641C00E04900002C02DA30BC00206D
:1003000070474FF400000023914201D3891A034340
:1003100040084FEA4101F7D151B1914202D14FF06B
:10032000004105E002D24FF0010101E06FF0010150
:1003300003EBC450284430BC00F036BA2DE9FE4F20
:10034000804681EA0300C00F0C46009021F0004176
:1003500023F00045B8EB0200A94105D240462146F2
:1003600090461C460B46024623F00040104347D0FF
:10037000270DC7F30A00C3F30A510290401A0190F7
:1003800040286BDAC3F3130040F4801B00989246B8
:1003900020B10023D2EB030A63EB0B0B0198594603
:1003A000C0F14002504600F0DEF906460D465046C8
:1003B0005946019A00F0E6F910EB0800614100246B
:1003C00087EA115284EAE7731A4340D0009A62B375
:1003D000019A012A4FEA075215DC001B61EB02016A
:1003E0004FF0004202EA0752CDE90042001C41F5FD
:1003F000801132462B4600F01DFA03B0BDE8F08FA5
:1004000040462146F9E7001B61EB0201001C41F563
:10041000801300185B412018A2F5001747EB030179
:1004200040EAD570B6196D4111E06D084FEA360605
:1004300045EAC0754FEA0752001B61EB0201001C40
:1004400041F5801149084FEA300000195141324608
:100450002B4603B0BDE8F04F00F0DDB90098012253
:1004600040000023D0EB020263EBE07300982146CA
:100470004FEAE074B8EB000061EB0401E9E783F0B8
:1004800000435BE781F0004158E72DE9FE4F81EA28
:10049000030404F0004421F0004100944FF0000BED
:1004A00023F0004350EA01045ED052EA03045BD01B
:1004B000C3F30A54C1F30A552C44A4F2F334019453
:1004C000A0FB0254C1F3130141F48011C3F31303E1
:1004D00043F4801301FB024400FB034E840A970A95
:1004E00044EA815447EA8357A4FB076802958D0AC2
:1004F00005FB07854FEA932C04FB0C542705029D4E
:100500004FEA065847EA1637B5EB08056EEB070CBD
:10051000870E920E47EA811742EA8312A7FB020177
:10052000B6EB0B0164EB00042B0D43EA0C335E18B1
:1005300044EB1C50DA465146E7FB0201C5F31304B5
:100540004FEA0B3343EA14534FEA0432019C43EA67
:100550000603A4F10C040294009CCDE900B400F061
:1005600069F903B0BDE8F08F00200146F9E72DE9F5
:10057000F04D81EA030404F0004B21F000451446DD
:100580004FF0000A23F0004150EA050220D054EA5F
:1005900001021DD0C5F30A570246C5F31303C1F388
:1005A0001300C1F30A5640F4801543F48013A7EBFF
:1005B0000608101BD64608F2FD3873EB050002D37F
:1005C00008F1010801E092185B41B8F1000F03DA6D
:1005D00000200146BDE8F08D00204FF48011064652
:1005E00084460EE0171B73EB050705D3121B63EB64
:1005F000050306434CEA010C49084FEA3000921803
:100600005B4150EA0107EDD152EA030012D082EAC1
:10061000040083EA0501084305D0101BAB4106D254
:100620000122002306E000224FF0004302E06FF0B9
:10063000010253101AEB06004CEB085110EB0A00B4
:1006400041EB0B01BDE8F04D00F0E5B8C10F80EAC9
:10065000E0700844CA079623002100F0AEB800F00D
:10066000004220F00040C10DC0F3160040F400002D
:100670007F2901DA00207047962903DCC1F1960139
:10068000C84001E096398840002AF4D040427047C3
:1006900000F0004230F000400AD0C10D01F5607159
:1006A000C0F3160042EA0151C208400711437047E7
:1006B00000200146704701F0004330B421F00041B2
:1006C00050EA010206D00A0DA2F56072C1F31301CF
:1006D000002A02DC30BC00207047440F44EAC10409
:1006E000C100E01830BC00EBC25000F05DB8000063
:1006F000002801DBC0F10040002901DBC1F100410D
:10070000814270472DE9F05F0546002092469B46E6
:1007100088460646814640241BE028464146474617
:100720002246FFF721FD53465A46C01A914110D385
:1007300011461846224600F016F82D1A67EB0108FC
:100740004F4622460120002100F00DF817EB00096A
:100750004E41201EA4F10104DFDC484631462A4602
:100760004346BDE8F09F202A04DB203A00FA02F15C
:10077000002070479140C2F1200320FA03F319438F
:1007800090407047202A06DBCB17203A41FA02F04E
:1007900043EAE07306E041FA02F3D040C2F12002DE
:1007A00091400843194670470029A8BF7047401C74
:1007B000490008BF20F00100704710B4B0FA80FC77
:1007C00000FA0CF050EA010404BF10BC704749B1B4
:1007D000CCF1200421FA04F411FA0CF118BF012124
:1007E00021430843A3EB0C01CB1D4FEA00614FEA04
:1007F000102042BF002010BC704700EBC3501044D3
:100800000029A4BF10BC7047401C490008BF20F05D
:10081000010010BC704710B5141E73F1000408DA13
:10082000401C41F1000192185B411A4301D120F0B4
:10083000010010BD2DE9F04D92469B4611B1B1FA71
:1008400081F202E0B0FA80F220329046FFF78BFF8F
:1008500004460F4640EA0A0041EA0B0153465A4655
:10086000084313D0114653EA010019D0C8F14002E1
:100870005046FFF779FC05460E465046594642461B
:10088000FFF771FF084305D0012004E020463946F8
:10089000BDE8F08D0020054346EAE0762C4337435F
:1008A0000A986305E40AA0EB08000022FD0A44EA66
:1008B00047540A3002D500200146E9E70105101926
:1008C0006941DDE9084500196941BDE8F04DA2E73D
:1008D00070B521F0004303430CD0C1F30A55002446
:1008E000D5EB040564EB0403D617AD1AB34102DB64
:1008F0000020014670BD201841EB025170BD2DE96A
:10090000F04D00231A461B1A8A4103DB00200146E2
:10091000BDE8F08DC1F30A52C1F3130141F4801513
:100920004FF0000BD10702D100186D41521E002775
:10093000044640F2FF11384601EB620A3E4680460B
:10094000024600204FF48011FFF70EFCC2197141DE
:10095000BB1846EB0100B4EB030C75EB000C04D3A1
:10096000E41A65EB000517460E46241908F101004C
:100970006D4180463428E3DDF91946EB0600091B7A
:10098000A84103D24FF0FF32134601E00022134684
:100990001BEB070046EB0A51BDE8F04DFFF73BBFEC
:1009A000064C074D06E0E06840F0010394E80700BC
:1009B00098471034AC42F6D3FFF7BEFB483A000824
:1009C000683A000810B5044600212046FFF790FE63
:1009D00002D284F0004010BD2046FCE770B5054609
:1009E0000C462146014802F01BFC70BDA901002005
:1009F0002DE9F84F05460E4617469846DDE90AAB45
:100A00000024AA222146641C574842542146641CF3
:100A1000425402222146641C425400222146641C96
:100A2000425400959DF801202146641C42549DF8D3
:100A300000202146641C425400969DF80120214666
:100A4000641C42549DF800202046611CCCB24649EB
:100A50000A5400979DF801202046611CCCB24249FF
:100A60000A549DF800202046611CCCB23E490A542D
:100A7000CDF800809DF801202046611CCCB23A4997
:100A80000A549DF800202046611CCCB236490A5415
:100A9000CDF800A09DF801202046611CCCB232495F
:100AA0000A549DF800202146601CC4B22E484254CE
:100AB000CDF800B09DF801202046611CCCB22A4937
:100AC0000A549DF800202146601CC4B226484254B6
:100AD0000C9800909DF801202046611CCCB2224960
:100AE0000A549DF800202046611CCCB21E490A54CD
:100AF0000D9800909DF801202046611CCCB21A4947
:100B00000A549DF800202046611CCCB216490A54B4
:100B10000E9800909DF801202146601CC4B2124836
:100B200042549DF800202046611CCCB20E490A5464
:100B3000201FC8704FF00009002006E00A49095C38
:100B4000494401F0FF09411CC8B2A042F6DB20462F
:100B5000611CCCB2044901F8009021460248FFF71D
:100B60003DFFBDE8F88F0000A901002000BFFEE7AF
:100B7000704770477FB5044602AB06223B216820D0
:100B800001F074FF0546D5B99DF809009DF80810DD
:100B900040EA012000B2ADF800009DF80B009DF87E
:100BA0000A1040EA012000B2ADF802009DF80D00E5
:100BB0009DF80C1040EA012000B2ADF80400BDF928
:100BC000000043F6FF7190FBF1F63046FFF73EFD63
:100BD0002060BDF9020043F6FF7190FBF1F630464C
:100BE000FFF734FD6060BDF9040043F6FF7190FB30
:100BF000F1F63046FFF72AFDA060284604B070BD2C
:100C00007FB5044602AB06224321682001F02EFF87
:100C10000546D5B99DF809009DF8081040EA012065
:100C200000B2ADF800009DF80B009DF80A1040EAF4
:100C3000012000B2ADF802009DF80D009DF80C10E7
:100C400040EA012000B2ADF80400BDF900008321A4
:100C500090FBF1F63046FFF7F9FC2060BDF9020089
:100C6000832190FBF1F63046FFF7F0FC6060BDF9A0
:100C70000400832190FBF1F63046FFF7E7FCA0600B
:100C8000284604B070BD0146002291F821000228D8
:100C900008D00420886300BF002081F8200000BF36
:100CA000012070470868006820F00E000B6818608B
:100CB0000868006820F001000B68186091F8403067
:100CC00001209840CB6B5860012081F8210000BFC3
:100CD000002081F8200000BF1046E2E770B504460E
:100CE000002594F82100022803D00420A0630125E8
:100CF000C1E02068006820F00E00216808602068CC
:100D0000006820F00100216808605C492068884282
:100D100052D95A4978392068884201D1012047E0E8
:100D2000564964392068884201D1102040E0534977
:100D300050392068884201D1801539E04F493C394B
:100D40002068884201D1801432E04C49283920685B
:100D5000884202D14FF480302AE048491439206893
:100D6000884202D14FF4801022E044492068884232
:100D700001D140041CE042492068884201D1012091
:100D800016E03F4914312068884201D110200FE05D
:100D90003B4928312068884201D1801508E0384954
:100DA0003C312068884201D1801401E04FF480304A
:100DB0003349091F086051E030497839206888427A
:100DC00001D1012047E02D4964392068884201D1D2
:100DD000102040E0294950392068884201D180150F
:100DE00039E026493C392068884201D1801432E03C
:100DF000224928392068884202D14FF480302AE005
:100E00001E4914392068884202D14FF4801022E034
:100E10001A492068884201D140041CE01849206822
:100E2000884201D1012016E015491431206888421A
:100E300001D110200FE0124928312068884201D1E9
:100E4000801508E00E493C312068884201D18014A9
:100E500001E04FF48030094980394860012084F86E
:100E6000210000BF002084F8200000BF606B10B19B
:100E70002046616B8847284670BD00008000024014
:100E80000804024070B5044600F0B6F9064625464F
:100E9000681C10B104480078054400BF00F0ACF9AC
:100EA000801BA842FAD370BD080000202DE9F84746
:100EB000024600239C467BE14FF0010808FA03F448
:100EC000D1F8008008EA0400A0427DD1DFF8F4A246
:100ED000D1F80480A8EB0A09D0453AD014DCB8F167
:100EE000030F50D009DCB8F1000F31D0B8F1010F79
:100EF0001CD0B8F1020F49D120E0B8F1110F18D081
:100F0000B8F1120F42D11EE0B9F5881F25D006DCDA
:100F1000B9F5803F20D0B9F5801F37D11AE0B9F577
:100F2000001F18D0B9F5041F30D117E0D1F80CC05C
:100F30002DE0D1F80C8008F1040C28E0D1F80C80E9
:100F400008F1080C23E0D1F80C8008F10C0C1EE02D
:100F500000BF00BF00BF00BF00BF00BFD1F80880C6
:100F6000B8F1000F02D14FF0040C0BE0D1F808806B
:100F7000B8F1010F03D14FF0080C146102E04FF0FB
:100F8000080C546103E04FF0000C00E000BF00BF0C
:100F9000FF2801D8904601E002F104084646FF28E8
:100FA00002D84FEA830803E0A3F108084FEA880853
:100FB0004746D6F800804FF00F0909FA07F928EAEA
:100FC00009080CFA07F900E07AE048EA0908C6F8CF
:100FD0000080D1F8048008F08058B8F1805F6FD1AC
:100FE00000BFDFF8E481D8F8188048F00108DFF886
:100FF000D891C9F81880C846D8F8188008F00108B8
:10100000CDF8008000BF00BF4FEAB9384FEA93091E
:1010100058F829504FEA83784FEA18794FF00F08B3
:1010200008FA09F825EA0805DFF8A081424502D14F
:101030004FF0000824E0DFF89881424502D14FF0DC
:1010400001081DE0DFF88C81424502D14FF0020813
:1010500016E0DFF88481424502D14FF003080FE02B
:10106000DFF87881424502D14FF0040808E0DFF84C
:101070007081424502D14FF0050801E04FF00608AB
:101080004FEA83794FEA197908FA09F848EA050521
:10109000DFF850814FEA930948F82950D1F80480CD
:1010A00008F48038B8F5803F0BD1DFF83C81D8F8E0
:1010B000008048EA0008DFF83091C9F800800AE0B3
:1010C00075E0DFF82481D8F8008028EA0008DFF80E
:1010D0001891C9F80080D1F8048008F40038B8F5F8
:1010E000003F0ED1DFF8008108F10408D8F8008035
:1010F00048EA0008DFF8F09009F10409C9F8008017
:101100000DE0DFF8E48008F10408D8F8008028EA50
:101110000008DFF8D49009F10409C9F80080D1F87B
:10112000048008F48018B8F5801F0ED1DFF8B8806D
:1011300008F10808D8F8008048EA0008DFF8A8900D
:1011400009F10809C9F800800DE0DFF89C8008F17A
:101150000808D8F8008028EA0008DFF88C9009F128
:101160000809C9F80080D1F8048008F40018B8F51F
:10117000001F0ED1DFF8708008F10C08D8F800804D
:1011800048EA0008DFF8609009F10C09C9F800800E
:101190000DE0DFF8548008F10C08D8F8008028EA48
:1011A0000008DFF8449009F10C09C9F800805B1CC5
:1011B000D1F8008028FA03F8B8F1000F7FF47CAE74
:1011C000BDE8F8870000111000100240000801403F
:1011D000000C0140001001400014014000180140C3
:1011E000001C014008000140000401400AB10161F7
:1011F00001E00B040361704701480068704700007C
:1012000000000020034800680349097808440149A8
:1012100008607047000000200800002010B5084852
:10122000006840F0100006490860032000F0A8F8AC
:10123000002000F007F800F02BF8002010BD00009F
:101240000020024070B504460E4800784FF47A71D1
:10125000B1FBF0F00C490968B1FBF0F5284600F04D
:10126000ADFC08B1012070BD102C07D20022214630
:10127000501E00F047F80548046001E00120F2E745
:101280000020F0E7080000200C00002004000020EF
:1012900008B500BF1148806940F001000F4988611E
:1012A0000846806900F00100009000BF00BF00BF49
:1012B0000846C06940F08050C8610846C06900F027
:1012C0008050009000BF00BF00BF0549486820F073
:1012D000E06000BF486000BF08BD00000010024091
:1012E0000000014001460846002809DB00F01F030A
:1012F00001229A4043099B0003F1E023C3F8002137
:1013000000BF70472DE9F05F80460D461646002766
:1013100001F0C0FF074639462A46334601F0070070
:10132000C0F1070ABAF1040F02D94FF0040A01E034
:10133000C0F1070AD14600F1040ABAF1070F02D240
:101340004FF0000A01E0A0F1030AD4464FF0010A71
:101350000AFA09FAAAF1010A0AEA020A0AFA0CFAD6
:101360004FF0010B0BFA0CFBABF1010B0BEA030B7B
:101370004AEA0B042146404601F094FFBDE8F09F85
:1013800000BF00F00702064B19684FF6FF03194033
:10139000044B0B4343EA0221014B196000BF704725
:1013A0000CED00E00000FA0570B504460D460CB9DE
:1013B000012070BD5A48006800F00700A8420ED214
:1013C0005748006820F00700284355490860084640
:1013D000006800F00700A84201D00120E9E720786A
:1013E00000F0020002281DD1207800F0040004283B
:1013F00005D14C48406840F4E0604A494860207894
:1014000000F00800082805D14648406840F46050C4
:10141000444948604348406820F0F000A168084310
:1014200040494860207800F0010078B360680128E6
:1014300006D13C48006800F4003090B90120B8E7BC
:101440006068022806D13748006800F0007040B993
:101450000120AEE73348006800F0020008B901201F
:10146000A7E73048406820F00300616808432D4931
:101470004860FFF7C1FE064609E0FFF7BDFE801B8E
:1014800041F28831884202D9032092E707E02548DB
:10149000406800F00C006168B0EB810FEDD120488E
:1014A000006800F00700A8420ED91D48006820F02F
:1014B000070028431A4908600846006800F0070042
:1014C000A84201D0012074E7207800F0040004282D
:1014D00007D11448406820F4E060E16808431149EE
:1014E0004860207800F00800082808D10D484068BE
:1014F00020F46050216940EAC1000A49486000F0C8
:101500003FF808494968C1F30311074A515CC840D4
:101510000649086006480068FFF794FE002048E787
:101520000020024000100240943900080C00002006
:101530000400002001480068704700000C000020F3
:1015400000B5FFF7F7FF04494968C1F30221034AD8
:10155000515CC84000BD000000100240A4390008E2
:1015600000B5FFF7E7FF04494968C1F3C221034A08
:10157000515CC84000BD000000100240A4390008C2
:10158000F0B585B00FF26C0C9CE8E01001A8A0E863
:10159000E0101CA52D6800950021002200230024E6
:1015A0000020194D696801F00C05F5B1042D02D039
:1015B000082D19D101E0154819E001ADC1F38346AA
:1015C000AC5D01F4803555B10F4D6D68C5F34045F4
:1015D0001DF805200D4D6543B5FBF2F302E00C4DFF
:1015E00004FB05F3184602E000BF084800BF00BF37
:1015F00005B0F0BD02030405060708090A0B0C0D2F
:101600000E0F1010010200000010024000127A00BC
:1016100000093D00F8B504460CB90120F8BD20785A
:1016200000F00100002878D0F848406800F00C0075
:1016300004280CD0F548406800F00C00082811D1AF
:10164000F248406800F48030B0F5803F0AD1EF489E
:10165000006800F4003000285FD0606800285CD18A
:101660000120DBE700BF6068B0F5803F06D1E748A6
:10167000006840F48030E549086028E0606858B9A7
:10168000E248006820F48030E049086008460068BD
:1016900020F4802008601AE06068B0F5A02F0BD11C
:1016A000DA48006840F48020D8490860084600689D
:1016B00040F4803008600AE0D448006820F48030AC
:1016C000D24908600846006820F48020086000BF06
:1016D000606888B1FFF790FD054606E0FFF78CFDD6
:1016E000401B642801D9032098E7C848006800F42B
:1016F00000300028F2D010E0FFF77EFD054606E03E
:10170000FFF77AFD401B642801D9032086E7BF4814
:10171000006800F400300028F2D1207800F00200C8
:10172000022857D1B948406800F00C0050B1B748C2
:10173000406800F00C00082818D1B448406800F454
:10174000803098B9B148006800F0020020B12069EB
:10175000012801D0012061E7AC48006820F0F800C2
:10176000616940EAC100A949086033E02069E8B135
:101770000120A7490860FFF73FFD054606E0FFF797
:101780003BFD401B022801D9032047E79F48006822
:1017900000F002000028F2D09C48006820F0F80019
:1017A000616940EAC1009949086013E00020984946
:1017B0000860FFF721FD054606E0FFF71DFD401B11
:1017C000022801D9032029E79048006800F00200B0
:1017D0000028F2D1207800F0080008282DD1A06957
:1017E000B8B101208B490860FFF706FD054606E009
:1017F000FFF702FD401B022801D903200EE78348B2
:10180000406A00F002000028F2D0012001F0CEFA78
:1018100013E000207F490860FFF7EEFC054606E074
:10182000FFF7EAFC401B022801D90320F6E67748BF
:10183000406A00F002000028F2D1207800F0040095
:10184000042873D100277148C06900F0805070B936
:1018500000BF6E48C06940F080506C49C8610846BE
:10186000C06900F08050009000BF00BF01276A48A7
:10187000006800F48070B0B96748006840F4807078
:1018800065490860FFF7B8FC054606E0FFF7B4FCC1
:10189000401B642801D90320C0E65F48006800F4BB
:1018A00080700028F2D000BFE068012806D15748B8
:1018B000006A40F001005549086227E0E06858B925
:1018C0005248006A20F00100504908620846006A48
:1018D00020F00400086219E0E06805280BD14B48AD
:1018E000006A40F00400494908620846006A40F076
:1018F000010008620AE04548006A20F001004349FF
:1019000008620846006A20F00400086200BFE06830
:10191000A0B1FFF771FC054609E0FFF76DFC401B25
:1019200041F28831884202D9032077E622E0374825
:10193000006A00F002000028EFD012E0FFF75CFC24
:10194000054608E0FFF758FC401B41F28831884209
:1019500001D9032062E62D48006A00F00200002849
:10196000F0D1012F05D12948C06920F080502749C6
:10197000C86100BFE069C8B32448406800F00C00AB
:10198000082860D0E069022848D100202049086674
:10199000FFF732FC054606E0FFF72EFC401B02284D
:1019A00001D903203AE61948006800F000700028C9
:1019B000F2D1206AB0F5803F07D11448406820F486
:1019C0000030A168084311494860D4E90801084380
:1019D0000E49496821F4741108430C4948600120FC
:1019E0000B490866FFF708FC054607E03DE0FFF7F6
:1019F00003FC401B022801D903200FE603480068BE
:101A000000F000700028F2D02FE00000001002402B
:101A1000000042428004424200700040002014490D
:101A20000866FFF7E9FB054606E0FFF7E5FB401B0C
:101A3000022801D90320F1E50E48006800F000708B
:101A40000028F2D111E0E069012800D1E6E509485B
:101A5000466806F48031206A814204D106F4701190
:101A6000606A814201D00120D8E50020D6E500005F
:101A7000000042420010024010B504460CB901209B
:101A800010BD606A38B96068B0F5827F00D105E0AA
:101A90000021E16102E00021216161610021A16278
:101AA00094F8510028B9002084F85000204600F036
:101AB00043F8022084F851002068006820F04000BC
:101AC00021680860A08800F48270218901F4044133
:101AD0000843A18901F400610843217C01F002015F
:101AE0000843217D01F001010843218B01F40071BD
:101AF0000843217F01F0380108432021095D01F0EE
:101B000080010843218D01F40051084321680860D9
:101B10000421A06901EA1040216848602068C0697A
:101B200020F400602168C86100206065012084F80D
:101B300051000020A4E7000010B586B00446002044
:101B400002900390049005901949206888422DD195
:101B500000BF1848806940F48050164988610846E3
:101B6000806900F48050019000BF00BF00BF0846AC
:101B7000806940F0040088610846806900F0040034
:101B8000019000BF00BFA02002900220039003201C
:101B9000059002A90848FFF789F94020029000202B
:101BA0000390049002A90448FFF780F906B010BD25
:101BB00000300140001002400008014070B50446AA
:101BC0002546681EB0F1807F01D301200FE0681E1A
:101BD0004FF0E02148610F214FF0FF3001F062FB30
:101BE00000204FF0E021886107200861002070BDCF
:101BF0007047704730B502460B4600BF92F83C0074
:101C0000012801D1022030BD012082F83C0000BF34
:101C1000022082F83D00106844681068816824F052
:101C200070041868044310684460144D1068A8429A
:101C300013D0134D1068A8420FD01068B0F1804F38
:101C40000BD0104D1068A84207D00F4D1068A84265
:101C500003D00E4D1068A84205D121F080015868CC
:101C6000014310688160012082F83D0000BF002020
:101C700082F83C0000BF00BFC5E70000002C014017
:101C8000003401400004004000080040000C004007
:101C900010B504460CB9012010BD94F83D0028B9D8
:101CA000002084F83C00204600F026F8022084F84A
:101CB0003D00211D206801F0CFF8012084F8460086
:101CC00000BF84F83E0001213F200155402001550E
:101CD0004120015500BF00BF012084F8420043208D
:101CE0000155442001554520015500BF012084F8CD
:101CF0003D000020D0E7000038B5044616492068B2
:101D0000884216D100BF1548C06940F01000134941
:101D1000C8610846C06900F01000009000BF00BF15
:101D2000002211463620FFF7EDFA3620FFF7DAFAE7
:101D300011E00B49206888420DD100BF0748C069F7
:101D400040F020000549C8610846C06900F0200045
:101D5000009000BF00BF38BD0010004000100240DE
:101D600000140040014691F83D00012801D00120F7
:101D70007047022081F83D00164B0868984213D046
:101D8000154B086898420FD00868B0F1804F0BD00F
:101D9000124B0868984207D0114B0868984203D04C
:101DA000104B086898420CD10868806800F0070260
:101DB000062A0CD00868006840F001000B68186023
:101DC00005E00868006840F001000B68186000201A
:101DD000CEE70000002C0140003401400004004028
:101DE00000080040000C0040014600BF0868006A7F
:101DF00041F21112104050B90868006A9210104068
:101E000028B90868006820F001000A68106000BF67
:101E1000012081F83D0000207047704710B504464E
:101E200020680069C0F34000D8B12068C068C0F3E2
:101E30004000B0B16FF002002168086101202077F6
:101E40002068806900F0030018B12046FFF7E5FF25
:101E500005E0204600F0ADF8204600F0ABF8002089
:101E6000207720680069C0F38000D8B12068C0687E
:101E7000C0F38000B0B16FF0040021680861022057
:101E800020772068806900F4407018B12046FFF781
:101E9000C4FF05E0204600F08CF8204600F08AF8E8
:101EA0000020207720680069C0F3C000D8B1206806
:101EB000C068C0F3C000B0B16FF0080021680861CD
:101EC000042020772068C06900F0030018B1204684
:101ED000FFF7A3FF05E0204600F06BF8204600F076
:101EE00069F80020207720680069C0F30010D8B19D
:101EF0002068C068C0F30010B0B16FF01000216816
:101F00000861082020772068C06900F4407018B18B
:101F10002046FFF782FF05E0204600F04AF8204601
:101F200000F048F8002020772068006900F00100E8
:101F300058B12068C06800F0010030B16FF00100B6
:101F400021680861204600F036F820680069C0F377
:101F5000C01058B12068C068C0F3C01030B16FF035
:101F60008000216808612046FFF742FE2068006972
:101F7000C0F3801058B12068C068C0F3801030B141
:101F80006FF0400021680861204600F015F82068D5
:101F90000069C0F3401058B12068C068C0F3401019
:101FA00030B16FF02000216808612046FFF721FE64
:101FB00010BD70477047704770477047704700000A
:101FC0002DE9F84F0446206805682068C668206837
:101FD00047694FF00009CA4605F00F09B9F1000F33
:101FE0000AD105F0200038B106F0200020B12046CB
:101FF00000F0B5FFBDE8F88FB9F1000F71D007F020
:10200000010018B906F4907000286AD005F00100AC
:1020100030B106F4807018B1206C40F001002064EB
:1020200005F0040030B107F0010018B1206C40F059
:102030000200206405F0020030B107F0010018B181
:10204000206C40F00400206405F0080048B106F060
:10205000200010B907F0010018B1206C40F0080012
:102060002064206C68B305F0200028B106F0200041
:1020700010B1204600F073FF20684069C0F3801A59
:10208000206C00F0080010B9BAF1000F22D02046F1
:1020900000F03AFF2068406900F04000B0B12068CD
:1020A000406920F0400021684861A06B50B156485B
:1020B000A16B4863A06BFEF711FE10B1A06B416BE2
:1020C00088470CE02046FFF779FF08E02046FFF73D
:1020D00075FF04E02046FFF771FF0020206489E7C8
:1020E000FFE7206B012878D105F01000002874D09C
:1020F00006F01000002870D000BF0020009020687B
:102100000068009020684068009000BF00BF206811
:10211000406900F04000C0B3A06B006840681FFA3F
:1021200080F8B8F1000F2FD0A08D40452CDDA4F829
:102130002E80A06B806920281FD02068C06820F402
:1021400080702168C8602068406920F00100216823
:1021500048612068406920F04000216848612020E3
:1021600084F83E00002020632068C06820F0100042
:102170002168C860A06BFEF786FDA08DE28D801AF5
:1021800081B22046FFF719FF34E7FFE7A08DE18D0C
:10219000401A1FFA80F8E08DE8B1B8F1000F1AD0AC
:1021A0002068C06820F490702168C8602068406989
:1021B00020F0010021684861202084F83E000020C2
:1021C00020632068C06820F010002168C860414684
:1021D0002046FFF7F2FE0DE7FFE705F0800030B183
:1021E00006F0800018B1204600F0AAFF02E705F0D3
:1021F000400030B106F0400018B1204600F09FFECC
:10220000F8E600BFF6E60000F52E000810B504461B
:102210000CB9012010BDA06900B100E000BF94F826
:102220003D0028B9002084F83C00204600F028F842
:10223000242084F83D002068C06820F40050216804
:10224000C860204600F0FEFE2068006920F490403F
:10225000216808612068406920F02A0021684861EF
:102260002068C06840F400502168C86000202064E5
:10227000202084F83D0084F83E000020CAE70000DA
:1022800010B586B00446002002900390049005909B
:102290001E492068884236D100BF1D48806940F43D
:1022A00080401B4988610846806900F480400190A5
:1022B00000BF00BF00BF0846806940F0040088618D
:1022C0000846806900F00400019000BF00BF481577
:1022D0000290022003900320059002A90D48FEF70A
:1022E000E5FD4FF48060029000200390049002A965
:1022F0000848FEF7DBFD002211462520FFF702F813
:102300002520FEF7EFFF06B010BD000000380140A9
:10231000001002400008014070472DE9F84F0446C4
:102320000E46174699464FF0000A94F83D002028C3
:102330005AD106B117B90120BDE8F88F00BF94F853
:102340003C00012801D10220F6E7012084F83C007E
:1023500000BF00202064212084F83D00FEF74CFFE0
:102360008246A784E784A068B0F5805F04D1206925
:1023700010B90025B04602E035464FF0000800BF16
:10238000002084F83C0000BF1BE05346002280215F
:102390002046CDF8009000F003FF08B10320CBE702
:1023A00045B9B8F80000C0F308002168486008F19A
:1023B000020803E02878216848606D1CE08C401E0C
:1023C000E084E08C0028E0D15346002240212046E2
:1023D000CDF8009000F0E4FE08B10320ACE7202027
:1023E00084F83D000020A7E70220A5E7704700BF62
:1023F000FEE700002DE9F04F8DB081460C46A16844
:102400000846FDF72BFF834621680846FDF726FFA7
:1024100059460190FDF7CAFE8246FEF739F9074694
:1024200001F092FACDE902016068FEF731F9054644
:10243000DDE90223FEF79BF8CDE9040101F01CF968
:102440000022A94BCDE90601FEF71FF8A74AA84BC9
:10245000CDE90801FEF78BF8CDE90A01FEF72BF96B
:10246000A4490860A1680846FDF7F8FE029061687B
:102470000846FDF7F3FE01900299FDF797FE0390E1
:10248000FEF706F9CDE9040101F05EFACDE9060197
:102490002068FEF7FDF88246DDE90623FEF767F8BF
:1024A000CDE9080101F0E8F8054600228E4BFDF762
:1024B000ECFF07468D4A8E4BFEF759F8CDE90A012D
:1024C000FEF7F9F88C4908608C480068FEF77AFA44
:1024D0008B490A90FDF7C2FE0B90FEF7D9F88246B1
:1024E0000022884BFDF72AFF0746874A874BFDF7F6
:1024F000CCFF0546FEF7DFF885490860854800688F
:10250000FEF760FA4FF080410B90FDF7A7FE83467F
:102510004FF07E51FDF74AFE8246FEF7B9F80746B6
:10252000794A7A4BFDF7B1FF0546FEF7C4F87A49C0
:1025300008607A49D9F800000968FDF78FFE054662
:10254000774801684FF07E50FDF788FE0646294621
:10255000FDF72CFE734908607049D9F8040009683A
:10256000FDF77CFE0546704801684FF07E50FDF790
:1025700075FE06462946FDF719FE6C490860674955
:10258000D9F800000968FDF769FE0546684801684A
:102590002846FDF70BFE66490860664801686648F4
:1025A0000068FDF703FE654908605B480168644800
:1025B0000068FDF7FBFD63490860554801685F4806
:1025C0000068FDF7F3FD054629465C480068FDF705
:1025D00077FE5D4908605D4801685A480068FDF76C
:1025E000E5FD0546294657480068FDF769FE58494C
:1025F00008604C4801683F480068FDF729FE064620
:10260000514801683046FDF729FE054645480168F6
:102610002846FDF7CBFD424908604448016836482A
:102620000068FDF715FE0646494801683046FDF78B
:1026300015FE05463D4801682846FDF7B7FD3A49B5
:102640000860414801684FF07E50FDF701FE0546E5
:102650003A4801682846FDF701FE374908603C48C2
:1026600001684FF07E50FDF7F3FD054635480168DF
:102670002846FDF7F3FD324908602948006880F0DC
:102680000045344801682846FDF7E2FD1B49086013
:102690002348006880F000402E4908602248006806
:1026A0002D4908602B48006880F000484046FDF73F
:1026B000D6FF05B21E480068FDF7D1FF06B20D48EF
:1026C0000068FDF7CCFF07B2002002900390049051
:1026D0000590034632460146CDE900053846FEF72F
:1026E00087F90DB0BDE8F08F008066406F1283C09F
:1026F000CA2109403400002030000020640000207E
:10270000000020410000E03F9A9999999999D93F9A
:102710001C000020240000201000002020000020C9
:102720004800002040000020440000203C00002021
:102730003800002014000020580000205000002025
:10274000540000204C0000205C00002018000020F5
:1027500060000020280000202C00002010B5002080
:102760000E4908600E48006820F470200C4908608B
:102770000846006840F44030086000200949C1F86C
:10278000B00100F011F801200449086000F00CF8D5
:1027900000200449C1F8B80110BD0000B8812142F1
:1027A000040C01400080214210B5012001F07EF8A8
:1027B00010BD000010B500200E4908600E480068EA
:1027C00020F470200C4908600846006840F440304E
:1027D000086001200949C1F8B001FFF7E5FF0120B9
:1027E00004490860FFF7E0FF00200449C1F8B80180
:1027F00010BD0000B8812142040C0140008021423C
:1028000070B5054600241648006820F4702014496D
:1028100008600846006840F400200860002614E0C4
:10282000002010490860FFF7BFFF01200E49C1F8E2
:10283000B8016006040E0B488838006808B1601CB7
:10284000C4B2FFF7B1FF701CC6B2082EE8DB15B9A1
:10285000FFF7B0FF01E0FFF781FF204670BD0000E9
:10286000040C0140B88121420080214270B5044629
:102870001248006820F4702010490860084600687B
:1028800040F44030086000200D490860002512E047
:10289000E0090B49083908606006040E0120094967
:1028A000C1F8B801FFF780FF002005490860FFF775
:1028B0007BFF681CC5B2082DEADB70BD040C01402B
:1028C000B88121420080214210B50E48006820F4F2
:1028D00070200C4908600846006840F440300860E9
:1028E0000120094908600949C1F8B801FFF75CFFF8
:1028F000002005490860FFF757FF00200349C1F891
:10290000B80110BD040C0140B08121420080214279
:1029100010B50E48006820F470200C490860084685
:10292000006840F440300860002009490860094907
:10293000C1F8B001FFF738FF0120054908600549DB
:10294000C1F8B001FFF730FF10BD0000040C0140DA
:10295000B88121420080214210B50024144800684B
:1029600020F47020124908600846006840F40020F6
:10297000086001200F490860FFF716FF01200E498B
:10298000C1F8B801FFF710FF07E0601CC4B2FA2CD1
:1029900003DDFFF7BDFF012010BD06488038006849
:1029A0000028F2D103490831086000BFF4E70000B5
:1029B000040C0140B08121420080214210B58021E9
:1029C0006B2000F0D7F8642000F066FF00216B2038
:1029D00000F0D0F8002000F08BF8002000F080F824
:1029E000C82000F0AAF80021382000F0C3F8002128
:1029F0006A2000F0BFF80021232000F0BBF88021FE
:102A0000372000F0B7F8752000F013F80446702C5A
:102A10000BD101216B2000F0ADF800216C2000F0FB
:102A2000A9F8C82000F089F801E0012010BD0020BD
:102A3000FCE770B50446FFF747FFD020FFF716FF0D
:102A4000FFF78AFF2046FFF711FFFFF785FFFFF72B
:102A50003BFFD120FFF70AFFFFF77EFF0020FFF7C3
:102A6000CFFE0546FFF754FF284670BD2DE9F04123
:102A700006460F4614461D46FFF726FF002141EA91
:102A80004601C8B2FFF7F2FEFFF766FF20B1FFF77D
:102A90003FFF0120BDE8F0813846FFF7E7FEFFF772
:102AA0005BFFFFF711FF012101EB4601C8B2FFF701
:102AB000DDFEFFF751FF0DE0012C04D10020FFF7F0
:102AC0009FFE287003E00120FFF79AFE2870601E29
:102AD000C4B26D1C002CEFD1FFF71AFF0020D9E71C
:102AE00010B50446E006010E1C2000F043F810BDAE
:102AF00010B50446E006010E1B2000F03BF810BDA7
:102B000070B504460025BC2C01DB012510E0622CC9
:102B100001DB02250CE02A2C01DB032508E0142C44
:102B200001DB042504E00A2C01DB052500E0062575
:102B300029461A2000F01EF870BD70B50446B4F5A1
:102B40007A7F01DD4FF47A74042C00DA04244FF408
:102B50007A7090FBF4F0401EC5B22946192000F0AF
:102B600009F80546264604EBD671C1F34F00FFF77E
:102B7000C7FF70BD70B505460C46FFF7A5FED02017
:102B8000FFF774FEFFF7E8FE18B1FFF7C1FE012062
:102B900070BD2846FFF76AFEFFF7DEFE2046FFF70E
:102BA00065FEFFF7D9FE18B1FFF7B2FE0120EFE78F
:102BB000FFF7AEFE0020EBE700B585B000200190E6
:102BC00002900390049000BF2848806940F02000E4
:102BD000264988610846806900F02000009000BF07
:102BE00000BF00BF0846806940F0040088610846C5
:102BF000806900F00400009000BF00BF00BF0846DD
:102C0000806940F0080088610846806900F008008B
:102C1000009000BF00BF01221C211548FEF7E6FA14
:102C2000012211031348FEF7E1FA00224FF480411C
:102C30001048FEF7DBFA1C200190012002900220D0
:102C400003900320049001A90948FEF72FF94FF4DF
:102C5000A04001900120029003900320049001A95C
:102C60000448FEF723F905B000BD00000010024043
:102C700000080140000C014010B50E480E490860E4
:102C80004FF48270486000210B488160C16001618F
:102C900041614FF4007181612021C1610021016215
:102CA000416281620A21C162FEF7E6FE08B1FDF7CA
:102CB00060FF10BD00300140700000201CB50020F6
:102CC000009001900E480F49086041F61F4048608F
:102CD00000210C4881606321C16080218161FEF781
:102CE000D7FF08B1FDF745FF00200090019069462D
:102CF0000448FEF77FFF08B1FDF73BFF1CBD000055
:102D000000100040C80000201CB500200090019079
:102D10000D480E4908604720486000210B4881603B
:102D20000121C16000218161FEF7B2FF08B1FDF70A
:102D300020FF00200090019069460448FEF75AFFEA
:102D400008B1FDF716FF1CBD001400401001002063
:102D500010B50B480B4908604FF4E1304860002182
:102D600008488160C16001610C21416100218161DD
:102D7000C161FFF74BFA08B1FDF7FBFE10BD000083
:102D8000003801405801002000BFFEE7704700B541
:102D900087B001A8FDF734FF04A8FDF7EBFE04A9F6
:102DA00001A8FFF727FB07B000BD704708B5084929
:102DB0000968C9084FF47A72B1FBF2F141430091FE
:102DC00000BF00BF00994A1E00920029F9D108BD3A
:102DD0000C000020704710B5FEF714FA10BD00B5C6
:102DE0008FB0282105A8FDF7D6F914216846FDF714
:102DF000D2F90120059000040690002007900120E0
:102E0000099002200C90C1030D914FF4E0110E9136
:102E100005A8FEF7FFFB08B1FDF7ABFE0F20009001
:102E200002200190002002904FF480600390002067
:102E3000049002216846FEF7B7FA08B1FDF799FE43
:102E40000FB000BD7047000010B50248FEF7E6FF66
:102E500010BD0000C800002010B50268204B984249
:102E60000ED0204B98420BD0B0F1804F08D01E4BB3
:102E7000984205D01D4B984202D01D4B984203D179
:102E800022F070024B681A43154B98420ED0154B36
:102E900098420BD0B0F1804F08D0134B984205D028
:102EA000124B984202D0124B984203D122F4407246
:102EB000CB681A4322F080034C6943EA04020260A3
:102EC0008B68C3620B688362054B984202D0054B46
:102ED000984201D10B6903630123436110BD0000D7
:102EE000002C014000340140000400400008004074
:102EF000000C004070B505466C6A0020E085E08457
:102F00002046FFF75BF870BD0168C96821F4907135
:102F10000268D1600168496921F0010102685161CC
:102F2000016B012905D10168C96821F0100102680F
:102F3000D160202180F83E1000210163704710B558
:102F400004462068C06820F040002168C860202046
:102F500084F83D002046FFF749FA002010BDF8B57F
:102F6000044694F83E00222869D1A068B0F5805F3D
:102F70000CD1206950B90025A66A20684068C0F3CA
:102F800008003080A06A801CA06215E0A56A0026B7
:102F9000A068B0F5805F03D0A06828B9206918B98F
:102FA00020684068287004E02068406800F07F00D6
:102FB0002870A06A401CA062E08D401E80B2E085AF
:102FC000A8BB2068C06820F020002168C860206885
:102FD000C06820F480702168C8602068406920F0D3
:102FE000010021684861202084F83E00206B012800
:102FF0001ED1002020632068C06820F010002168E6
:10300000C8602068006800F0100010280AD100BFD6
:1030100000200090206800680090206840680090C0
:1030200000BF00BFA18D2046FEF7C7FF03E004E00C
:103030002046FFF771F90020F8BD0020FCE70220D0
:10304000FAE7000070B504462168096921F440518F
:10305000E2681143226811612269A1681143626923
:1030600041EA02052168C96841F20C629143294393
:103070002268D1602168496921F44071A269114335
:10308000226851612D4A2168914202D1FEF768FA07
:1030900001E0FEF755FA00EBC00101EB0011626898
:1030A0009200B1FBF2F100EBC00202EB0012636888
:1030B0009B00B2FBF3F26423B2FBF3F202EBC20318
:1030C00003EB0212A1EB8201322202EB0111642216
:1030D000B1FBF2F101F0F00100EBC00202EB0012D3
:1030E00063689B00B2FBF3F26423B2FBF3F201EBE3
:1030F000021200EBC00101EB001163689B00B1FB01
:10310000F3F100EBC00303EB00136668B600B3FBFA
:10311000F6F36426B3FBF6F303EBC30606EB0313E7
:10312000A1EB8301322303EB01116423B1FBF3F123
:1031300001F00F0111442268916070BD0038014018
:10314000014691F83D00212828D18868B0F5805FBC
:103150000BD1086948B90A6A1088C0F308000B68E7
:103160005860086A801C086205E00B6A581C0862F7
:1031700018780B685860C88C401E80B2C88458B953
:103180000868C06820F080000B68D8600868C068D4
:1031900040F040000B68D860002070470220FCE738
:1031A0002DE9F04104460D4617469846069E21E05B
:1031B000701CF8B12EB1FEF71FF8A0EB0800B0426A
:1031C00018D92068C06820F4D0702168C8602068D1
:1031D000406920F0010021684861202084F83D000A
:1031E00084F83E0000BF002084F83C0000BF0320AC
:1031F000BDE8F081206800682840A84201D1012084
:1032000000E00020B842D3D00020F1E710B502481A
:10321000FEF7D6FE10BD00005801002000BFFEE7FB
:1032200010B5024600200BE0135C074C236000BF82
:10323000054B1B1F1B6803F04003002BF8D0401CFC
:103240008842F1DB10BD0000043801400FB4054B8B
:1032500010B503A9044A029800F0AEF810BC5DF85E
:1032600014FB0000E538000868000020490050EA1F
:10327000C12018BF04204A0D18BF40F0010040F2E1
:10328000FF72B2EB515F08BF40F00200012808BF97
:103290000520704702480068C0F302207047000014
:1032A0000CED00E010B5002804DB0A07130E054AF8
:1032B000135406E00A07140E034A00F00F031B1F05
:1032C000D45410BD00E400E018ED00E02DE9F04119
:1032D0004F1E00EBC7010446D1E9000115461E460A
:1032E00037F006020DD02A463346FDF7CEF87F1E92
:1032F00004EBC703D3E90023FDF720F837F00602FB
:10330000F1D1022F25D0042F13D0062F18BFBDE80E
:10331000F0812A463346FDF7B8F8D4E90A23FDF7D1
:103320000DF82A463346FDF7B0F8D4E90823FDF737
:1033300005F82A463346FDF7A8F8D4E90623FCF73A
:10334000FDFF2A463346FDF7A0F8D4E90423FCF735
:10335000F5FF2A463346FDF798F8D4E90223FCF737
:10336000EDFF2A463346FDF790F8D4E90023BDE887
:10337000F041FCF7E3BF0122FDF7AABA024A0020A0
:103380001107FDF7A5BA000001FDFFFF02E008C824
:10339000121F08C1002AFAD170477047002001E0CF
:1033A00001C1121F002AFBD17047000001490860CB
:1033B000704700006C0000202DE9FF4F8DB09B4648
:1033C0000F460446002606E025280BD05A460F99E2
:1033D0009047641C761C20780028F5D111B0304647
:1033E000BDE8F08F0025A8460122984900E005437A
:1033F00014F8013F203B02FA03F00842F7D120788D
:103400002E2817D114F8010F45F004052A280ED0F4
:103410006FF02F022078A0F1300109290AD808EBBB
:10342000880102EB410100EB0108641CF2E757F848
:10343000048B641C20786C280DD004DC4C2812D03E
:103440006A2811D104E074280DD07A280CD10AE042
:1034500045F4001507E0617845F48015814202D1FA
:10346000641C05F58015641C2278692A45D008DCA7
:10347000002AB3D0582A69D0632A10D0642A08D110
:103480003BE0702A67D0732A13D0752A5CD0782A63
:103490005CD010465A460F999047761CD3E017F837
:1034A000040B8DF8000000208DF80100E946012092
:1034B00003E057F8049B4FF0FF3069074FF0000519
:1034C00001D40AE06D1C45450DDA8542FADB19F896
:1034D00005100029F6D106E06D1C8542FCDB19F8C9
:1034E00005100029F8D12E4404E019F8010B5A46C2
:1034F0000F9990476D1EF8D2A5E00A200021CDE972
:103500000801C5F3025002280DD001CFC117031ED8
:1035100071F100030DDA4FF0000CD0EB0C006CEBF6
:1035200001012D2308E0FF1D27F00707F7E802013E
:10353000EDE72B0504D52B238DF8283001233BE044
:10354000EB0739D02023F7E70A2000E01020002104
:10355000CDE9080107E01020002145F00405CDE980
:1035600008014FF00808C5F3025002280FD001CF20
:1035700000214FF0000A2B071FD5702A0DD0DDE97E
:1035800008C38CF0100C5CEA030C0CD015E0FF1D96
:1035900027F00707F7E80201EBE740228DF8282023
:1035A0004FF0010A0BE050EA010306D030238DF8FA
:1035B00028308DF8292002239A46582A04D024A2C4
:1035C0000DF120090B9209E026A2F9E7DDE90823B5
:1035D000FDF798F80B9B9B5C09F8013D50EA01024E
:1035E000F4D1ADEB090020300890680701D44FF00A
:1035F00001080899884502DDA8EB010000E00020E1
:103600008046002506E00AA85A46405D0F9990477B
:103610006D1C761C5545F6DB04E030205A460F99A8
:103620009047761CB8F10001A8F10108F5DC05E02F
:1036300019F8010B5A460F999047761C0899481EB5
:1036400008900029F4DC641CC5E60000092801008C
:103650003031323334353637383961626364656608
:1036600000000000303132333435363738394142CA
:1036700043444546000000002DE9F84F04460D463E
:1036800021F0004000917349814211DC7249884267
:1036900001DC06D12CB120462946BDE8F84FFFF7E2
:1036A0006ABE6E48002DCCBF6D496E49BDE8F88FEB
:1036B0006D49814211DD6D498142D8BF4FF0FF361F
:1036C0006DDD20462946FFF7D1FD042808BFFFF72E
:1036D00055FE20462946BDE8F88F6549654F25F01F
:1036E0000045814233DD6449814219DD00263246BE
:1036F0004FF0804320462946FCF720FE80468A464C
:10370000012220462946FDF7E3F800223B46FCF75C
:10371000B6FE42465346FCF72AFF04460D463EE0FD
:1037200001260022BA463B4620462946FCF706FE03
:1037300080460F460022534620462946FCF79FFE4E
:1037400042463B46FCF713FF04460D4627E04B4933
:1037500081421BDDDFF828A10226002253462046C5
:103760002946FCF792FE00223B46FCF7E7FD804627
:103770000F460022534620462946FCF780FE42466B
:103780003B46FCF7F4FE04460D4608E003262246BD
:103790002B4600203B49FCF7EAFE04460D46224634
:1037A0002B4610461946FCF770FE8B4682460246B1
:1037B0000B46FCF76AFE07460246334888460B462E
:1037C00006217844FFF782FD52465B46FCF75DFE1A
:1037D00082462E488B463A46434605217844FFF7F9
:1037E00075FD3A464346FCF750FE02460B46002E56
:1037F000504659460CDAFCF7A1FD22462B46FCF751
:1038000044FE01B022462B46BDE8F04FFCF73ABE1D
:10381000FCF794FD22462B46FCF737FE1C4A7A44FF
:1038200002EBC603D3E90023FCF729FE22462B4610
:10383000FCF725FE174A7A4402EBC603D3E90023BE
:10384000FCF720FE009A002AB8BF81F00041BDE8D5
:10385000F88F0000000010440000F07F182D445441
:10386000FB21F93FFB21F9BF0000DC3F0000203EB7
:103870000000F33F0000F03F0000E63F00800340FF
:103880000000F83F0000F0BF5202000010020000EC
:10389000AE0100007601000010B504464FF47A71C5
:1038A000614388B200F002F810BD000070B5044614
:1038B0004FF6FF70001B401F85B20948FEF752FA11
:1038C00007480068456203E005480068406A85B221
:1038D0004FF6FA708542F7DB0148FEF785FA70BDB6
:1038E0001001002013B50C464FF6FF730122694604
:1038F0000248FEF712FD00981CBD00005801002090
:10390000FDF78CFCFFF76BFAFFF756F9FFF7B4F9F8
:10391000FFF7D4F9FFF71CFAFFF7F6F901220421AB
:103920000748FDF763FCFFF749F807E00120FDF7C2
:10393000A9FA04A0FFF78AFCFFF729FAF6E70000CE
:1039400000080140736200002DE9F04106460F4671
:10395000FCF7D5FF041E0D4618BF0120284320F0B8
:103960000040C0F17F6000F1E040C00F0ED0301C7D
:1039700018BF0120384320F00040C0F17F6000F103
:10398000E040C00F04BF0120FFF710FD204629468C
:10399000BDE8F08100000000000000000102030407
:1039A00006070809000000000102030400000000EF
:1039B0004FBB610567ACDD3F182D4454FB21E93F47
:1039C0009BF681D20B73EF3F182D4454FB21F93F36
:1039D000E2652F227F2B7A3C075C143326A6813CBC
:1039E000BDCBF07A8807703C075C143326A6913C67
:1039F000C4EB98999999C9BF711623FEC671BCBFD3
:103A00006D9A74AFF2B0B3BF9AFDDE522DDEADBF3A
:103A10002F6C6A2C44B4A2BF0D5555555555D53F52
:103A2000FF8300922449C23F6E204CC5CD45B73F6D
:103A3000513DD0A0660DB13FEB0D76244B7BA93FE5
:103A400011DA22E33AAD903F683A00080000002006
:103A5000700000008C330008D83A00087000002085
:103A6000700500009C3300080000000010000000FA
:103A7000010000000024F4006F12833A6F12833AB1
:103A800000000000CDCCCC3ECDCCCC3D00000000F1
:103A90000000000000000000000000000000000026
:103AA0000000000000000000000000000000000016
:103AB0000000000000000000000000000000000006
:103AC00000000000000000000000000000000000F6
:083AD0000000000000000000EE
:0400000508000131BD
:00000001FF
