:020000040800F2
:100000008805002045010008992700086D23000895
:1000100095270008F5080008A12C00080000000042
:10002000000000000000000000000000C5280008DB
:10003000F9080008000000009B270008C7280008F6
:100040005F0100085F0100085F0100085F01000810
:100050005F0100085F0100085F0100085F01000800
:100060005F0100085F0100085F0100085F010008F0
:100070005F0100085F0100085F0100085F010008E0
:100080005F0100085F0100085F0100085F010008D0
:100090005F0100085F0100085F0100085F010008C0
:1000A0005F0100085F0100085F0100085F010008B0
:1000B0005F0100085F0100085F0100085F010008A0
:1000C0005F0100085F0100085F0100085F01000890
:1000D0005F010008912C00085F0100085F01000823
:1000E0005F0100085F0100085F0100085F01000870
:1000F0005F0100085F0100085F0100085F01000860
:100100005F0100085F0100085F0100085F0100084F
:100110005F0100085F010008392900085F0100083D
:100120005F0100085F0100085F0100085F0100082F
:10013000DFF80CD000F004FB00480047612D0008F8
:10014000880500200648804706480047FEE7FEE78E
:10015000FEE7FEE7FEE7FEE7FEE7FEE7FEE7FEE777
:100160003529000831010008202A04DB203A21FA51
:1001700002F00021704721FA02F3D040C2F12002C0
:100180009140084319467047D2B201E000F8012BB4
:10019000491EFBD270470022F6E710B513460A4607
:1001A00004461946FFF7F0FF204610BDF0B480EA80
:1001B0000102D40F4200B2EB410F02D202460846C0
:1001C00011464A0042D0C30DDDB2C1F3C752AD1A89
:1001D000202D35DAC1F3160141F4000204B1524278
:1001E000C5F1200602FA06F12A411044B3EBD05FB4
:1001F00023D0C4B1012DA0EBC35009DCF0BC4FF0FB
:10020000004202EAC352DBB200F5000000F00CBA73
:10021000400000F1807000EBC350A0F1807040EA14
:10022000D170490009E0490841EAC071A0EBC35010
:1002300000F50000400800EBC350F0BC00F0EBB943
:100240006142012202EB4101001BF6E7F0BC70475E
:1002500081F00041AAE780F00040A7E730B480EACF
:10026000010202F0004530F0004221F0004013D0BE
:1002700090B1C30DD40DC2F31601C0F31600E41AF9
:1002800041F4000140F400027D34914201D3641C2A
:1002900000E04900002C02DA30BC002070474FF427
:1002A00000000023914201D3891A034340084FEA1A
:1002B0004101F7D151B1914202D14FF0004105E027
:1002C00002D24FF0010101E06FF0010103EBC450D5
:1002D000284430BC00F09FB92DE9FE4F804681EAEA
:1002E0000300C00F0C46009021F0004123F00045B0
:1002F000B8EB0200A94105D24046214690461C4673
:100300000B46024623F00040104347D0270DC7F3A9
:100310000A00C3F30A510290401A019040286BDA98
:10032000C3F3130040F4801B0098924620B10023D1
:10033000D2EB030A63EB0B0B01985946C0F1400264
:10034000504600F047F906460D4650465946019A78
:1003500000F04FF910EB08006141002487EA1152C8
:1003600084EAE7731A4340D0009A62B3019A012AE3
:100370004FEA075215DC001B61EB02014FF000420F
:1003800002EA0752CDE90042001C41F580113246D5
:100390002B4600F086F903B0BDE8F08F40462146B9
:1003A000F9E7001B61EB0201001C41F58013001806
:1003B0005B412018A2F5001747EB030140EAD57016
:1003C000B6196D4111E06D084FEA360645EAC07571
:1003D0004FEA0752001B61EB0201001C41F580113E
:1003E00049084FEA30000019514132462B4603B00C
:1003F000BDE8F04F00F046B900980122400000230C
:10040000D0EB020263EBE073009821464FEAE07400
:10041000B8EB000061EB0401E9E783F000435BE720
:1004200081F0004158E72DE9FE4F81EA030404F012
:10043000004421F0004100944FF0000B23F00043F2
:1004400050EA01045ED052EA03045BD0C3F30A54BD
:10045000C1F30A552C44A4F2F3340194A0FB0254D6
:10046000C1F3130141F48011C3F3130343F4801368
:1004700001FB024400FB034E840A970A44EA8154BC
:1004800047EA8357A4FB076802958D0A05FB078599
:100490004FEA932C04FB0C542705029D4FEA0658A3
:1004A00047EA1637B5EB08056EEB070C870E920E80
:1004B00047EA811742EA8312A7FB0201B6EB0B0160
:1004C00064EB00042B0D43EA0C335E1844EB1C5024
:1004D000DA465146E7FB0201C5F313044FEA0B333A
:1004E00043EA14534FEA0432019C43EA0603A4F1A1
:1004F0000C040294009CCDE900B400F0D2F803B0E3
:10050000BDE8F08F00200146F9E7C10F80EAE070F6
:100510000844CA079623002100F086B800F0004284
:1005200020F00040C10DC0F3160040F400007F2908
:1005300001DA00207047962903DCC1F19601C8401A
:1005400001E096398840002AF4D04042704700F01C
:10055000004230F000400AD0C10D01F56071C0F3D7
:10056000160042EA0151C2084007114370470020BB
:100570000146704701F0004330B421F0004150EAD9
:10058000010206D00A0DA2F56072C1F31301002A20
:1005900002DC30BC00207047440F44EAC104C100B3
:1005A000E01830BC00EBC25000F035B8002801DB89
:1005B000C0F10040002901DBC1F1004181427047D8
:1005C000002801DBC0F10040002901DBC1F100413E
:1005D00088427047202A04DB203A00FA02F100200A
:1005E00070479140C2F1200320FA03F31943904071
:1005F0007047202A06DBCB17203A41FA02F043EA83
:10060000E07306E041FA02F3D040C2F120029140CB
:100610000843194670470029A8BF7047401C49008D
:1006200008BF20F00100704710B4B0FA80FC00FA57
:100630000CF050EA010404BF10BC704749B1CCF182
:10064000200421FA04F411FA0CF118BF012121430E
:100650000843A3EB0C01CB1D4FEA00614FEA1020C9
:1006600042BF002010BC704700EBC350104400296B
:10067000A4BF10BC7047401C490008BF20F0010017
:1006800010BC704710B5141E73F1000408DA401C4A
:1006900041F1000192185B411A4301D120F00100A1
:1006A00010BD2DE9F04D92469B4611B1B1FA81F291
:1006B00002E0B0FA80F220329046FFF78BFF04464A
:1006C0000F4640EA0A0041EA0B0153465A460843E6
:1006D00013D0114653EA010019D0C8F14002504628
:1006E000FFF742FD05460E46504659464246FFF783
:1006F00071FF084305D0012004E020463946BDE8DB
:10070000F08D0020054346EAE0762C4337430A98F3
:100710006305E40AA0EB08000022FD0A44EA4754FE
:100720000A3002D500200146E9E7010510196941A8
:10073000DDE9084500196941BDE8F04DA2E7000078
:10074000064C074D06E0E06840F0010394E807001E
:1007500098471034AC42F6D3FFF7EEFC8C3100081A
:10076000AC31000870B505460C462146014802F040
:1007700099FA70BD550100202DE9F84F05460E4647
:1007800017469846DDE90AAB0024AA222146641CDC
:10079000574842542146641C425402222146641C9C
:1007A000425400222146641C425400959DF80120C9
:1007B0002146641C42549DF800202146641C42548A
:1007C00000969DF801202146641C42549DF80020AB
:1007D0002046611CCCB246490A5400979DF801207E
:1007E0002046611CCCB242490A549DF800202046A4
:1007F000611CCCB23E490A54CDF800809DF801201E
:100800002046611CCCB23A490A549DF8002020468B
:10081000611CCCB236490A54CDF800A09DF80120E5
:100820002046611CCCB232490A549DF80020214672
:10083000601CC4B22E484254CDF800B09DF801208F
:100840002046611CCCB22A490A549DF8002021465A
:10085000601CC4B2264842540C9800909DF80120B8
:100860002046611CCCB222490A549DF80020204643
:10087000611CCCB21E490A540D9800909DF80120CD
:100880002046611CCCB21A490A549DF8002020462B
:10089000611CCCB216490A540E9800909DF80120B4
:1008A0002146601CC4B2124842549DF800202046E4
:1008B000611CCCB20E490A54201FC8704FF00009C9
:1008C000002006E00A49095C494401F0FF09411C87
:1008D000C8B2A042F6DB2046611CCCB2044901F844
:1008E000009021460248FFF73DFFBDE8F88F000069
:1008F0005501002000BFFEE7704770470146002207
:1009000091F82100022808D00420886300BF00204D
:1009100081F8200000BF012070470868006820F0BF
:100920000E000B6818600868006820F001000B6872
:10093000186091F8403001209840CB6B586001203E
:1009400081F8210000BF002081F8200000BF104680
:10095000E2E7000070B50446002594F82100022863
:1009600003D00420A0630125C1E02068006820F0C6
:100970000E00216808602068006820F001002168EE
:1009800008605C492068884252D95A497839206801
:10099000884201D1012047E05649643920688842E5
:1009A00001D1102040E0534950392068884201D1DC
:1009B000801539E04F493C392068884201D18014C4
:1009C00032E04C4928392068884202D14FF4803007
:1009D0002AE0484914392068884202D14FF4801037
:1009E00022E044492068884201D140041CE0424989
:1009F0002068884201D1012016E03F491431206867
:100A0000884201D110200FE03B49283120688842FC
:100A100001D1801508E038493C312068884201D175
:100A2000801401E04FF480303349091F086051E021
:100A3000304978392068884201D1012047E02D49AA
:100A400064392068884201D1102040E0294950399A
:100A50002068884201D1801539E026493C39206858
:100A6000884201D1801432E0224928392068884226
:100A700002D14FF480302AE01E49143920688842A0
:100A800002D14FF4801022E01A492068884201D137
:100A900040041CE018492068884201D1012016E07A
:100AA000154914312068884201D110200FE0124905
:100AB00028312068884201D1801508E00E493C3178
:100AC0002068884201D1801401E04FF48030094948
:100AD00080394860012084F8210000BF002084F89C
:100AE000200000BF606B10B12046616B884728462C
:100AF00070BD0000800002400804024070B504464A
:100B000000F0B6F906462546681C10B10448007886
:100B1000054400BF00F0ACF9801BA842FAD370BDB9
:100B2000080000202DE9F847024600239C467BE19F
:100B30004FF0010808FA03F4D1F8008008EA040035
:100B4000A0427DD1DFF8F4A2D1F80480A8EB0A0915
:100B5000D0453AD014DCB8F1030F50D009DCB8F11D
:100B6000000F31D0B8F1010F1CD0B8F1020F49D1FC
:100B700020E0B8F1110F18D0B8F1120F42D11EE0E9
:100B8000B9F5881F25D006DCB9F5803F20D0B9F52E
:100B9000801F37D11AE0B9F5001F18D0B9F5041F2E
:100BA00030D117E0D1F80CC02DE0D1F80C8008F15D
:100BB000040C28E0D1F80C8008F1080C23E0D1F8EF
:100BC0000C8008F10C0C1EE000BF00BF00BF00BF8E
:100BD00000BF00BFD1F80880B8F1000F02D14FF07C
:100BE000040C0BE0D1F80880B8F1010F03D14FF0ED
:100BF000080C146102E04FF0080C546103E04FF060
:100C0000000C00E000BF00BFFF2801D8904601E0C3
:100C100002F104084646FF2802D84FEA830803E0A1
:100C2000A3F108084FEA88084746D6F800804FF03D
:100C30000F0909FA07F928EA09080CFA07F900E090
:100C40007AE048EA0908C6F80080D1F8048008F084
:100C50008058B8F1805F6FD100BFDFF8E481D8F829
:100C6000188048F00108DFF8D891C9F81880C84604
:100C7000D8F8188008F00108CDF8008000BF00BF48
:100C80004FEAB9384FEA930958F829504FEA837868
:100C90004FEA18794FF00F0808FA09F825EA080515
:100CA000DFF8A081424502D14FF0000824E0DFF8D0
:100CB0009881424502D14FF001081DE0DFF88C8198
:100CC000424502D14FF0020816E0DFF88481424528
:100CD00002D14FF003080FE0DFF87881424502D1DE
:100CE0004FF0040808E0DFF87081424502D14FF070
:100CF000050801E04FF006084FEA83794FEA1979B9
:100D000008FA09F848EA0505DFF850814FEA930927
:100D100048F82950D1F8048008F48038B8F5803FAD
:100D20000BD1DFF83C81D8F8008048EA0008DFF8F2
:100D30003091C9F800800AE075E0DFF82481D8F826
:100D4000008028EA0008DFF81891C9F80080D1F87F
:100D5000048008F40038B8F5003F0ED1DFF80081B8
:100D600008F10408D8F8008048EA0008DFF8F0909D
:100D700009F10409C9F800800DE0DFF8E48008F10A
:100D80000408D8F8008028EA0008DFF8D49009F1B8
:100D90000409C9F80080D1F8048008F48018B8F577
:100DA000801F0ED1DFF8B88008F10808D8F800805D
:100DB00048EA0008DFF8A89009F10809C9F800809E
:100DC0000DE0DFF89C8008F10808D8F8008028EAD8
:100DD0000008DFF88C9009F10809C9F80080D1F803
:100DE000048008F40018B8F5001F0ED1DFF87080F9
:100DF00008F10C08D8F8008048EA0008DFF8609095
:100E000009F10C09C9F800800DE0DFF8548008F101
:100E10000C08D8F8008028EA0008DFF8449009F1AF
:100E20000C09C9F800805B1CD1F8008028FA03F88F
:100E3000B8F1000F7FF47CAEBDE8F8870000111018
:100E40000010024000080140000C01400010014069
:100E50000014014000180140001C0140080001403E
:100E6000000401400AB1016101E00B040361704715
:100E70000148006870470000000000200348006837
:100E800003490978084401490860704700000020C0
:100E90000800002010B50848006840F0100006491E
:100EA0000860032000F0A8F8002000F007F800F028
:100EB0002BF8002010BD00000020024070B5044651
:100EC0000E4800784FF47A71B1FBF0F00C490968D4
:100ED000B1FBF0F5284600F099FE08B1012070BD85
:100EE000102C07D200222146501E00F047F805487A
:100EF000046001E00120F2E70020F0E70800002094
:100F00000C0000200400002008B500BF11488069D3
:100F100040F001000F4988610846806900F0010037
:100F2000009000BF00BF00BF0846C06940F080507D
:100F3000C8610846C06900F08050009000BF00BF43
:100F400000BF0549486820F0E06000BF486000BF6E
:100F500008BD0000001002400000014001460846A4
:100F6000002809DB00F01F0301229A4043099B007F
:100F700003F1E023C3F8002100BF70472DE9F05FC3
:100F800080460D461646002701F0A2FE0746394668
:100F90002A46334601F00700C0F1070ABAF1040FF0
:100FA00002D94FF0040A01E0C0F1070AD14600F16E
:100FB000040ABAF1070F02D24FF0000A01E0A0F1D3
:100FC000030AD4464FF0010A0AFA09FAAAF1010A03
:100FD0000AEA020A0AFA0CFA4FF0010B0BFA0CFBB0
:100FE000ABF1010B0BEA030B4AEA0B042146404626
:100FF00001F076FEBDE8F09F00BF00F00702064B4F
:1010000019684FF6FF031940044B0B4343EA0221D2
:10101000014B196000BF70470CED00E00000FA05BD
:1010200070B504460D460CB9012070BD5A480068E1
:1010300000F00700A8420ED25748006820F00700D1
:101040002843554908600846006800F00700A84298
:1010500001D00120E9E7207800F0020002281DD12C
:10106000207800F00400042805D14C48406840F482
:10107000E0604A494860207800F00800082805D15F
:101080004648406840F460504449486043484068DE
:1010900020F0F000A168084340494860207800F043
:1010A000010078B36068012806D13C48006800F46C
:1010B000003090B90120B8E76068022806D13748AF
:1010C000006800F0007040B90120AEE733480068C6
:1010D00000F0020008B90120A7E73048406820F07E
:1010E0000300616808432D494860FFF7C1FE0646CA
:1010F00009E0FFF7BDFE801B41F28831884202D92A
:10110000032092E707E02548406800F00C00616882
:10111000B0EB810FEDD12048006800F00700A84235
:101120000ED91D48006820F0070028431A490860BE
:101130000846006800F00700A84201D0012074E7CB
:10114000207800F00400042807D11448406820F4F7
:10115000E060E168084311494860207800F0080029
:10116000082808D10D48406820F46050216940EA01
:10117000C1000A49486000F03FF808494968C1F3D6
:101180000311074A515CC8400649086006480068D8
:10119000FFF794FE002048E70020024000100240C4
:1011A000743100080C000020040000200148006891
:1011B000704700000C00002000B5FFF7F7FF04495E
:1011C0004968C1F30221034A515CC84000BD0000D8
:1011D000001002408431000800B5FFF7E7FF044922
:1011E0004968C1F3C221034A515CC84000BD0000F8
:1011F0000010024084310008F0B585B00FF26C0C8D
:101200009CE8E01001A8A0E8E0101CA52D6800955E
:1012100000210022002300240020194D696801F0FC
:101220000C05F5B1042D02D0082D19D101E01548A7
:1012300019E001ADC1F38346AC5D01F4803555B1D1
:101240000F4D6D68C5F340451DF805200D4D6543F4
:10125000B5FBF2F302E00C4D04FB05F3184602E087
:1012600000BF084800BF00BF05B0F0BD0203040581
:10127000060708090A0B0C0D0E0F101001020000E2
:101280000010024000127A0000093D00F8B5044643
:101290000CB90120F8BD207800F00100002878D0BA
:1012A000F848406800F00C0004280CD0F54840686D
:1012B00000F00C00082811D1F248406800F480309A
:1012C000B0F5803F0AD1EF48006800F400300028F4
:1012D0005FD0606800285CD10120DBE700BF606858
:1012E000B0F5803F06D1E748006840F48030E5491A
:1012F000086028E0606858B9E248006820F480304F
:10130000E04908600846006820F4802008601AE080
:101310006068B0F5A02F0BD1DA48006840F4802057
:10132000D84908600846006840F4803008600AE048
:10133000D448006820F48030D2490860084600682C
:1013400020F48020086000BF606888B1FFF790FD3E
:10135000054606E0FFF78CFD401B642801D90320F9
:1013600098E7C848006800F400300028F2D010E088
:10137000FFF77EFD054606E0FFF77AFD401B642877
:1013800001D9032086E7BF48006800F40030002838
:10139000F2D1207800F00200022857D1B948406805
:1013A00000F00C0050B1B748406800F00C0008286D
:1013B00018D1B448406800F4803098B9B14800684A
:1013C00000F0020020B12069012801D0012061E76E
:1013D000AC48006820F0F800616940EAC100A94902
:1013E000086033E02069E8B10120A7490860FFF7F1
:1013F0003FFD054606E0FFF73BFD401B022801D9F3
:10140000032047E79F48006800F002000028F2D060
:101410009C48006820F0F800616940EAC1009949E1
:10142000086013E0002098490860FFF721FD054699
:1014300006E0FFF71DFD401B022801D9032029E724
:101440009048006800F002000028F2D1207800F0F7
:10145000080008282DD1A069B8B101208B49086087
:10146000FFF706FD054606E0FFF702FD401B0228D8
:1014700001D903200EE78348406A00F002000028EB
:10148000F2D0012001F08AF913E000207F490860C2
:10149000FFF7EEFC054606E0FFF7EAFC401B0228DA
:1014A00001D90320F6E67748406A00F002000028E0
:1014B000F2D1207800F00400042873D1002771488D
:1014C000C06900F0805070B900BF6E48C06940F03C
:1014D00080506C49C8610846C06900F08050009097
:1014E00000BF00BF01276A48006800F48070B0B9EF
:1014F0006748006840F4807065490860FFF7B8FCF1
:10150000054606E0FFF7B4FC401B642801D9032020
:10151000C0E65F48006800F480700028F2D000BF89
:10152000E068012806D15748006A40F0010055499B
:10153000086227E0E06858B95248006A20F00100CC
:10154000504908620846006A20F00400086219E069
:10155000E06805280BD14B48006A40F00400494977
:1015600008620846006A40F0010008620AE0454847
:10157000006A20F00100434908620846006A20F032
:101580000400086200BFE068A0B1FFF771FC0546E7
:1015900009E0FFF76DFC401B41F28831884202D917
:1015A000032077E622E03748006A00F002000028B6
:1015B000EFD012E0FFF75CFC054608E0FFF758FCAF
:1015C000401B41F28831884201D9032062E62D4850
:1015D000006A00F002000028F0D1012F05D129484F
:1015E000C06920F080502749C86100BFE069C8B3D6
:1015F0002448406800F00C00082860D0E069022808
:1016000048D1002020490866FFF732FC054606E075
:10161000FFF72EFC401B022801D903203AE61948A7
:10162000006800F000700028F2D1206AB0F5803F19
:1016300007D11448406820F40030A16808431149DC
:101640004860D4E9080108430E49496821F474113F
:1016500008430C49486001200B490866FFF708FC65
:10166000054607E03DE0FFF703FC401B022801D9D7
:1016700003200FE60348006800F000700028F2D055
:101680002FE000000010024000004242800442426D
:1016900000700040002014490866FFF7E9FB05468A
:1016A00006E0FFF7E5FB401B022801D90320F1E526
:1016B0000E48006800F000700028F2D111E0E069E7
:1016C000012800D1E6E50948466806F48031206A21
:1016D000814204D106F47011606A814201D0012078
:1016E000D8E50020D6E5000000004242001002408C
:1016F00010B504460CB9012010BD606A38B96068A5
:10170000B0F5827F00D105E00021E16102E0002117
:10171000216161610021A16294F8510028B9002083
:1017200084F85000204600F043F8022084F851006D
:101730002068006820F0400021680860A08800F45C
:101740008270218901F404410843A18901F40061F8
:101750000843217C01F002010843217D01F00101D1
:101760000843218B01F400710843217F01F0380107
:1017700008432021095D01F080010843218D01F417
:1017800000510843216808600421A06901EA104063
:10179000216848602068C06920F400602168C86141
:1017A00000206065012084F851000020A4E70000BB
:1017B00010B586B004460020029003900490059076
:1017C0001949206888422DD100BF1848806940F42B
:1017D0008050164988610846806900F48050019065
:1017E00000BF00BF00BF0846806940F00400886168
:1017F0000846806900F00400019000BF00BFA020EF
:101800000290022003900320059002A90848FFF7E8
:1018100089F94020029000200390049002A9044816
:10182000FFF780F906B010BD003001400010024003
:10183000000801402DE9F84F0446884616461D462B
:101840004FF0000A00BF94F85000012802D1022096
:10185000BDE8F88F012084F8500000BFFFF708FBB7
:101860000746B14694F85100012802D04FF0020A11
:10187000ADE0B8F1000F00D016B94FF0010AA6E0B4
:10188000032084F8510000206065C4F83080A686EB
:10189000E686A063A087E08760642064A068B0F556
:1018A000004F0BD12068006820F0400021680860DC
:1018B0002068006840F48040216808602068006863
:1018C00000F04000402805D02068006840F040004B
:1018D00021680860E068B0F5006F2FD1606810B132
:1018E000B9F1010F09D1206B00882168C860206B15
:1018F000801C2063E08E401EE0861BE0206880682C
:1019000000F0020002280AD1206B00882168C8601C
:10191000206B801C2063E08E401EE0860AE0FFF70B
:10192000A7FAC01BA84201D3681C00B915B94FF033
:10193000030A4CE0E08E0028E0D12EE0606810B190
:10194000B9F1010F09D1206B007821680873206B71
:10195000401C2063E08E401EE0861BE0206880680B
:1019600000F0020002280AD1206B00782168087379
:10197000206B401C2063E08E401EE0860AE0FFF7EB
:1019800077FAC01BA84201D3681C00B915B94FF003
:10199000030A1CE0E08E0028E0D13A4629462046A2
:1019A00000F010FF08B120206065A06850B900BFAA
:1019B000002000902068C068009020688068009037
:1019C00000BF00BF606D08B14FF0010A00BF0120E9
:1019D00084F8510000BF002084F8500000BF50463A
:1019E00036E72DE9FF5F0446884691461D460E9E68
:1019F000012002900020019000BF94F850000128BF
:101A000003D1022004B0BDE8F09F012084F850000B
:101A100000BFFFF72DFA074694F851B060680390B5
:101A2000AA46BBF1010F0BD00398B0F5827F04D119
:101A3000A06810B9BBF1040F02D002200190DBE0D6
:101A4000B8F1000F03D0B9F1000F00D015B9012093
:101A50000190D1E094F85100042802D0052084F8C8
:101A6000510000206065C4F83890E587A587C4F868
:101A70003080E586A586206460642068006800F0F8
:101A80004000402805D02068006840F040002168F0
:101A90000860E068B0F5006F4AD1606810B1BAF133
:101AA000010F09D1206B00882168C860206B801C61
:101AB0002063E08E401EE08633E02068806800F0FE
:101AC0000200022810D1E08E70B1029801280BD1DB
:101AD000206B00882168C860206B801C2063E08E2A
:101AE000401EE086002002902068806800F001001F
:101AF00068B1E08F58B12068C068A16B0880A06B06
:101B0000801CA063E08F401EE08701200290FFF759
:101B1000AFF9C01BB04204D3701C10B10320019078
:101B20006AE0E08E0028C8D1E08F0028C5D14AE0E5
:101B3000606810B1BAF1010F09D1206B00782168FB
:101B40000873206B401C2063E08E401EE08634E06A
:101B50002068806800F00200022810D1E08E70B189
:101B6000029801280BD1206B007821680873206B44
:101B7000401C2063E08E401EE0860020029020681A
:101B8000806800F0010068B1E08F58B12068C0683B
:101B9000A16B0870A06B401CA063E08F401EE08723
:101BA00001200290FFF764F9C01BB04201D3701C02
:101BB00000B916B9032001901EE0E08E0028C7D1BD
:101BC000E08F0028C4D13A463146204600F0FAFDA5
:101BD00020B101200190202060650DE0A06850B97F
:101BE00000BF002000902068C068009020688068D6
:101BF000009000BF00BF00BF012084F8510000BF6B
:101C0000002084F8500000BF0198FBE670B5044640
:101C10002546681EB0F1807F01D301200FE0681EC9
:101C20004FF0E02148610F214FF0FF3001F058F8EC
:101C300000204FF0E021886107200861002070BD7E
:101C40007047704730B502460B4600BF92F83C0023
:101C5000012801D1022030BD012082F83C0000BFE4
:101C6000022082F83D00106844681068816824F002
:101C700070041868044310684460144D1068A8424A
:101C800013D0134D1068A8420FD01068B0F1804FE8
:101C90000BD0104D1068A84207D00F4D1068A84215
:101CA00003D00E4D1068A84205D121F0800158687C
:101CB000014310688160012082F83D0000BF0020D0
:101CC00082F83C0000BF00BFC5E70000002C0140C7
:101CD000003401400004004000080040000C0040B7
:101CE00010B504460CB9012010BD94F83D0028B988
:101CF000002084F83C00204600F026F8022084F8FA
:101D00003D00211D206800F01FFE012084F84600E0
:101D100000BF84F83E0001213F20015540200155BD
:101D20004120015500BF00BF012084F8420043203C
:101D30000155442001554520015500BF012084F87C
:101D40003D000020D0E7000038B504461649206861
:101D5000884216D100BF1548C06940F010001349F1
:101D6000C8610846C06900F01000009000BF00BFC5
:101D7000002211463620FFF701F93620FFF7EEF872
:101D800011E00B49206888420DD100BF0748C069A7
:101D900040F020000549C8610846C06900F02000F5
:101DA000009000BF00BF38BD00100040001002408E
:101DB00000140040014691F83D00012801D00120A7
:101DC0007047022081F83D00164B0868984213D0F6
:101DD000154B086898420FD00868B0F1804F0BD0BF
:101DE000124B0868984207D0114B0868984203D0FC
:101DF000104B086898420CD10868806800F0070210
:101E0000062A0CD00868006840F001000B681860D2
:101E100005E00868006840F001000B6818600020C9
:101E2000CEE70000002C01400034014000040040D7
:101E300000080040000C0040014600BF0868006A2E
:101E400041F21112104050B90868006A9210104017
:101E500028B90868006820F001000A68106000BF17
:101E6000012081F83D0000207047704710B50446FE
:101E700020680069C0F34000D8B12068C068C0F392
:101E80004000B0B16FF002002168086101202077A6
:101E90002068806900F0030018B12046FFF7E5FFD5
:101EA00005E0204600F0ADF8204600F0ABF8002039
:101EB000207720680069C0F38000D8B12068C0682E
:101EC000C0F38000B0B16FF0040021680861022007
:101ED00020772068806900F4407018B12046FFF731
:101EE000C4FF05E0204600F08CF8204600F08AF898
:101EF0000020207720680069C0F3C000D8B12068B6
:101F0000C068C0F3C000B0B16FF00800216808617C
:101F1000042020772068C06900F0030018B1204633
:101F2000FFF7A3FF05E0204600F06BF8204600F025
:101F300069F80020207720680069C0F30010D8B14C
:101F40002068C068C0F30010B0B16FF010002168C5
:101F50000861082020772068C06900F4407018B13B
:101F60002046FFF782FF05E0204600F04AF82046B1
:101F700000F048F8002020772068006900F0010098
:101F800058B12068C06800F0010030B16FF0010066
:101F900021680861204600F036F820680069C0F327
:101FA000C01058B12068C068C0F3C01030B16FF0E5
:101FB0008000216808612046FFF742FE2068006922
:101FC000C0F3801058B12068C068C0F3801030B1F1
:101FD0006FF0400021680861204600F015F8206885
:101FE0000069C0F3401058B12068C068C0F34010C9
:101FF00030B16FF02000216808612046FFF721FE14
:1020000010BD7047704770477047704770470000B9
:102010002DE9F84F0446206805682068C6682068E6
:1020200047694FF00009CA4605F00F09B9F1000FE2
:102030000AD105F0200038B106F0200020B120467A
:1020400000F005FDBDE8F88FB9F1000F71D007F081
:10205000010018B906F4907000286AD005F001005C
:1020600030B106F4807018B1206C40F0010020649B
:1020700005F0040030B107F0010018B1206C40F009
:102080000200206405F0020030B107F0010018B131
:10209000206C40F00400206405F0080048B106F010
:1020A000200010B907F0010018B1206C40F00800C2
:1020B0002064206C68B305F0200028B106F02000F1
:1020C00010B1204600F0C3FC20684069C0F3801ABC
:1020D000206C00F0080010B9BAF1000F22D02046A1
:1020E00000F08AFC2068406900F04000B0B1206830
:1020F000406920F0400021684861A06B50B156480B
:10210000A16B4863A06BFEF725FC10B1A06B416B7F
:1021100088470CE02046FFF779FF08E02046FFF7EC
:1021200075FF04E02046FFF771FF0020206489E777
:10213000FFE7206B012878D105F01000002874D04B
:1021400006F01000002870D000BF0020009020682A
:102150000068009020684068009000BF00BF2068C1
:10216000406900F04000C0B3A06B006840681FFAEF
:1021700080F8B8F1000F2FD0A08D40452CDDA4F8D9
:102180002E80A06B806920281FD02068C06820F4B2
:1021900080702168C8602068406920F001002168D3
:1021A00048612068406920F0400021684861202093
:1021B00084F83E00002020632068C06820F01000F2
:1021C0002168C860A06BFEF799FBA08DE28D801A94
:1021D00081B22046FFF719FF34E7FFE7A08DE18DBC
:1021E000401A1FFA80F8E08DE8B1B8F1000F1AD05C
:1021F0002068C06820F490702168C8602068406939
:1022000020F0010021684861202084F83E00002071
:1022100020632068C06820F010002168C860414633
:102220002046FFF7F2FE0DE7FFE705F0800030B132
:1022300006F0800018B1204600F0FAFC02E705F035
:10224000400030B106F0400018B1204600F0EFFB2E
:10225000F8E600BFF6E60000E529000810B50446E0
:102260000CB9012010BDA06900B100E000BF94F8D6
:102270003D0028B9002084F83C00204600F028F8F2
:10228000242084F83D002068C06820F400502168B4
:10229000C860204600F04EFC2068006920F49040A1
:1022A000216808612068406920F02A00216848619F
:1022B0002068C06840F400502168C8600020206495
:1022C000202084F83D0084F83E000020CAE700008A
:1022D00010B586B00446002002900390049005904B
:1022E0001E492068884236D100BF1D48806940F4ED
:1022F00080401B4988610846806900F48040019055
:1023000000BF00BF00BF0846806940F0040088613C
:102310000846806900F00400019000BF00BF481526
:102320000290022003900320059002A90D48FEF7B9
:10233000F9FB4FF48060029000200390049002A902
:102340000848FEF7EFFB002211462520FEF716FE97
:102350002520FEF703FE06B010BD00000038014046
:1023600000100240000801407047704700BFFEE7C0
:1023700010B500217F2000F0CFFEAD21612000F0DC
:10238000CBFE03217F2000F0C7FE0021402000F09B
:10239000C3FE05217F2000F0BFFEB321412000F0E5
:1023A000BBFEF121432000F0B7FE1421452000F0D0
:1023B000B3FE32215B2000F0AFFE34215F2000F03D
:1023C000ABFE08217B2000F0A7FE06217F2000F055
:1023D000A3FE1B21442000F09FFEBF21402000F0FF
:1023E0009BFE3F214E2000F097FE08217F2000F049
:1023F00093FE2021652000F08FFE18216A2000F056
:102400008BFE09217F2000F087FEAF214F2000F0D6
:1024100083FE40215F2000F07FFE8021482000F0F5
:102420007BFE8021492000F077FE7721572000F0C5
:1024300073FE7821602000F06FFE7821612000F0AB
:102440006BFE0821622000F067FE5021632000F03F
:1024500063FE0A217F2000F05FFE6021452000F02E
:102460005BFE00217F2000F057FE11214D2000F07F
:1024700053FE8021552000F04FFE1F21742000F0F4
:102480004BFE1F21752000F047FE78214A2000F006
:1024900043FE78214B2000F03FFE0821442000F04D
:1024A0003BFE5021452000F037FEFF21642000F064
:1024B00033FE1F21652000F02FFE14217F2000F045
:1024C0002BFE6721652000F027FE0821662000F022
:1024D00023FE7021632000F01FFE15217F2000F0F5
:1024E0001BFE4821084600F017FE07217F2000F060
:1024F00013FE0D21412000F00FFE1421432000F0B7
:102500000BFE0E214B2000F007FE0F21452000F0AE
:1025100003FE4221442000F0FFFD80214C2000F00A
:10252000FBFD10217F2000F0F7FD02215B2000F071
:10253000F3FD07217F2000F0EFFD4121402000F056
:10254000EBFD0021702000F0E7FD0F20FEF7D6FA2A
:102550004421322000F0E0FD07217F2000F0DCFD67
:102560004021084600F0D8FD06217F2000F0D4FD70
:10257000F021622000F0D0FD0021632000F0CCFDAE
:102580000D217F2000F0C8FDC021482000F0C4FDCF
:10259000D5216F2000F0C0FD00217F2000F0BCFDA0
:1025A000A0215B2000F0B8FDA8214E2000F0B4FD72
:1025B00050215A2000F0B0FD8021402000F0ACFDF9
:1025C00010BD000000B585B000200190029003907E
:1025D000049000BF2848806940F0200026498861A7
:1025E0000846806900F02000009000BF00BF00BFD7
:1025F0000846806940F0040088610846806900F060
:102600000400009000BF00BF00BF0846806940F092
:10261000080088610846806900F00800009000BF4B
:1026200000BF01221C211548FEF71CFC01221103EA
:102630001348FEF717FC00224FF480411048FEF7C4
:1026400011FC1C2001900120029002200390032025
:10265000049001A90948FEF765FA4FF4A0400190E3
:102660000120029003900320049001A90448FEF782
:1026700059FA05B000BD00000010024000080140FA
:10268000000C014010B50E480E4908604FF48270EE
:10269000486000210B488160C160016141614FF4D5
:1026A000007181612021C16100210162416281626A
:1026B0000A21C162FFF71CF808B1FEF71EF910BD30
:1026C000003001401C0000201CB50020009001904B
:1026D0000E480F49086041F61F40486000210C4831
:1026E00081606321C16080218161FFF7F9FA08B13F
:1026F000FEF703F900200090019069460448FFF7B7
:10270000A1FA08B1FEF7F9F81CBD00000010004066
:10271000740000201CB50020009001900D480E4967
:1027200008604720486000210B4881600121C1609A
:1027300000218161FFF7D4FA08B1FEF7DEF800202E
:102740000090019069460448FFF77CFA08B1FEF753
:10275000D4F81CBD00140040BC00002010B50B488C
:102760000B4908604FF4E13048600021084881605F
:10277000C16001610C21416100218161C161FFF7EC
:102780006DFD08B1FEF7B9F810BD0000003801403A
:102790000401002000BFFEE77047704708B50849F4
:1027A0000968C9084FF47A72B1FBF2F14143009114
:1027B00000BF00BF00994A1E00920029F9D108BD50
:1027C0000C000020F8B504460D4616462B460022A4
:1027D00080212046009600F009F828B1606D40F095
:1027E000200060650320F8BD0020FCE72DE9F84FCC
:1027F00004460D4690461E46DDF82890FEF738FB4D
:10280000A0EB0900371AFEF733FB82462C4800681C
:10281000C0F3CB307843009045E0701C002842D0D4
:10282000FEF726FBA0EB0A00B84200D2A7BB206847
:10283000406820F0E000216848606068B0F5827F61
:102840000DD1A068B0F5004F03D0A068B0F5806F3F
:1028500005D12068006820F0400021680860A06A67
:10286000B0F5005F0DD100BF2068006820F4005073
:10287000216808602068006840F400502168086002
:1028800000BF012084F8510000BF002084F85000F0
:1028900000BF0320BDE8F88FFFE7009800B90027CC
:1028A0000098401E0090206880682840A84201D10E
:1028B000012000E000204045AFD10020EAE7000001
:1028C0000C000020704710B5FEF7D8FA10BD00B517
:1028D0008FB0282105A8FDF75EFC14216846FDF79E
:1028E0005AFC01200590000406900020079001206A
:1028F000099002200C90C1030D914FF4E0110E914C
:1029000005A8FEF7C3FC08B1FDF7F7FF0F20009004
:1029100002200190002002904FF48060039000207C
:10292000049002216846FEF77BFB08B1FDF7E5FF46
:102930000FB000BD7047000010B50248FFF796FACF
:1029400010BD00007400002010B50268204B9842B2
:102950000ED0204B98420BD0B0F1804F08D01E4BC8
:10296000984205D01D4B984202D01D4B984203D18E
:1029700022F070024B681A43154B98420ED0154B4B
:1029800098420BD0B0F1804F08D0134B984205D03D
:10299000124B984202D0124B984203D122F440725B
:1029A000CB681A4322F080034C6943EA04020260B8
:1029B0008B68C3620B688362054B984202D0054B5B
:1029C000984201D10B6903630123436110BD0000EC
:1029D000002C014000340140000400400008004089
:1029E000000C004070B505466C6A0020E085E0846C
:1029F0002046FFF70BFB70BD0168C96821F4907198
:102A00000268D1600168496921F0010102685161E1
:102A1000016B012905D10168C96821F01001026824
:102A2000D160202180F83E1000210163704710B56D
:102A300004462068C06820F040002168C86020205B
:102A400084F83D002046FFF790FC002010BDF8B54B
:102A5000044694F83E00222869D1A068B0F5805F52
:102A60000CD1206950B90025A66A20684068C0F3DF
:102A700008003080A06A801CA06215E0A56A0026CC
:102A8000A068B0F5805F03D0A06828B9206918B9A4
:102A900020684068287004E02068406800F07F00EB
:102AA0002870A06A401CA062E08D401E80B2E085C4
:102AB000A8BB2068C06820F020002168C86020689A
:102AC000C06820F480702168C8602068406920F0E8
:102AD000010021684861202084F83E00206B012815
:102AE0001ED1002020632068C06820F010002168FB
:102AF000C8602068006800F0100010280AD100BFEC
:102B000000200090206800680090206840680090D5
:102B100000BF00BFA18D2046FFF777FA03E004E075
:102B20002046FFF721FC0020F8BD0020FCE7022032
:102B3000FAE7000070B504462168096921F44051A4
:102B4000E2681143226811612269A1681143626938
:102B500041EA02052168C96841F20C6291432943A8
:102B60002268D1602168496921F44071A26911434A
:102B7000226851612D4A2168914202D1FEF72CFB57
:102B800001E0FEF719FB00EBC00101EB00116268E8
:102B90009200B1FBF2F100EBC00202EB001263689D
:102BA0009B00B2FBF3F26423B2FBF3F202EBC2032D
:102BB00003EB0212A1EB8201322202EB011164222B
:102BC000B1FBF2F101F0F00100EBC00202EB0012E8
:102BD00063689B00B2FBF3F26423B2FBF3F201EBF8
:102BE000021200EBC00101EB001163689B00B1FB16
:102BF000F3F100EBC00303EB00136668B600B3FB10
:102C0000F6F36426B3FBF6F303EBC30606EB0313FC
:102C1000A1EB8301322303EB01116423B1FBF3F138
:102C200001F00F0111442268916070BD003801402D
:102C3000014691F83D00212828D18868B0F5805FD1
:102C40000BD1086948B90A6A1088C0F308000B68FC
:102C50005860086A801C086205E00B6A581C08620C
:102C600018780B685860C88C401E80B2C88458B968
:102C70000868C06820F080000B68D8600868C068E9
:102C800040F040000B68D860002070470220FCE74D
:102C900010B50248FFF7BCF910BD00000401002088
:102CA00000BFFEE710B5024600200BE0135C074CA6
:102CB000236000BF054B1B1F1B6803F04003002B64
:102CC000F8D0401C8842F1DB10BD00000438014000
:102CD00002480068C0F30220704700000CED00E0DD
:102CE00010B5002804DB0A07130E054A135406E04A
:102CF0000A07140E034A00F00F031B1FD45410BD23
:102D000000E400E018ED00E002E008C8121F08C16E
:102D1000002AFAD170477047002001E001C1121F5C
:102D2000002AFBD17047000070B504464FF6FF70D3
:102D3000001B401F85B20948FFF73CF807480068B0
:102D4000456203E005480068406A85B24FF6FA70B4
:102D50008542F7DB0148FFF76FF870BDBC0000202B
:102D60008CB04FF0000B002600200A90099081469D
:102D7000079082460690FEF78DF8FFF7A8FDFFF753
:102D800021FCFFF77FFCFFF79FFCFFF7E7FCFFF755
:102D9000C1FC012204217A48FEF764F800F002F930
:102DA000EDE00A20FDF7AAFE764800F047F97549E4
:102DB000B1F90200FDF7A9FB04467249B1F904001C
:102DC000FDF7A3FB054670492046FDF7F9FB00D847
:102DD00000246E492046FDF7E9FB00D800246A492B
:102DE0002846FDF7EDFB00D8002568492846FDF789
:102DF000DDFB00D800250698E0B9BAF5FA7F0CDAB9
:102E000021463046FDF7D2F9064629464846FDF7E9
:102E1000CDF981460AF1010AB1E0012006905C4932
:102E20003046FDF71BFA0B9059494846FDF716FA54
:102E30000890A4E020460B99FDF70AFA04462846BC
:102E40000899FDF705FA05462046FDF780FB074681
:102E5000504A514BFDF7E7FACDE902015846FDF71C
:102E600076FB07464D4A4E4BFDF7DDFACDE90001F2
:102E7000DDE90223FDF730FACDE90401FDF77AFB25
:102E80000446A3462846FDF762FB424A424BCDE981
:102E90000001FDF7C8FA074688460998FDF757FB79
:102EA0003E4A3F4BCDE90001FDF7BDFA3A464346A5
:102EB000CDE90201FDF710FACDE90401FDF75AFB57
:102EC0000546099521463046FDF770F9064630461D
:102ED000FDF73DFB07462F4A2F4BFDF7A4FACDE93E
:102EE00002010A98FDF733FB07462C4A2C4BFDF7ED
:102EF0009AFACDE90001DDE90223FDF7EDF9CDE90C
:102F00000401FDF737FB06460A9629464846FDF7B9
:102F10004DF981464846FDF71AFB07461D4A1E4BF0
:102F2000FDF781FACDE902010798FDF710FB07468E
:102F30001A4A1B4BFDF777FACDE90001DDE90223C0
:102F4000FDF7CAF9CDE90401FDF714FB8146CDF880
:102F50001C904846FDF7E2FA07B23046FDF7DEFA6C
:102F60000FFA80F8002002900390049005900090E2
:102F700003460246394601904046FDF7FDFB10E747
:102F800000080140100000200000C8420000C8C234
:102F90000000FA43CDCCCCCCCCCCEC3F9A9999999B
:102FA0009999B93F70B5002400250120FDF7A6FDD1
:102FB0000120204908600220FDF7A0FD00201E49E5
:102FC000C1F88C010220FDF799FD01201949086024
:102FD0000220FDF793FD002000F068F804465F2012
:102FE00000F064F80546492C01D1B62D01D000202F
:102FF00070BD5A213A2000F08FF83220FDF77EFD97
:10300000022000F053F8032000F050F8042000F0F4
:103010004DF8052000F04AF8062000F047F801209E
:10302000FDF76CFDFFF7A4F90120FDF767FD012016
:10303000DEE700008C0121420000214230B585B05E
:103040000446162004900020144908600520FFF76C
:103050006BFE4FF47A73012204A91148FEF7EAFBD4
:103060000520FFF761FE0F480C2301AA01A900907B
:103070000B48FEF7B6FC01200B49C1F88C01019802
:103080002060029860600398A0606089050AA07AB9
:1030900045EA0025658105B030BD00008C01214264
:1030A0001C000020A08601000000214201B582B072
:1030B000002001909DF8080020F080000290002080
:1030C000114908600520FFF72FFE4FF47A730122A3
:1030D00002A90E48FEF7AEFB0520FFF725FE0C48BF
:1030E000012301AA01A900900848FEF77AFC0520F7
:1030F000FFF71AFE01200749C1F88C010520FFF7F0
:1031000013FE9DF804000EBD8C0121421C0000201E
:10311000A08601000000214213B59DF8000040F098
:10312000800000900020104908600520FFF7FCFD9A
:103130004FF47A73012269460C48FEF77BFB0520A9
:10314000FFF7F2FD4FF47A73012201A90748FEF759
:1031500071FB0520FFF7E8FD01200549C1F88C014E
:103160000520FFF7E1FD1CBD8C0121421C00002061
:1031700000002142000000000000000001020304E2
:10318000060708090000000001020304AC31000832
:103190000000002010000000082D0008BC310008CD
:1031A0001000002078050000182D00080000000025
:0C31B00010000000010000000024F400EA
:0400000508000131BD
:00000001FF
