:020000040800F2
:10000000980B00204501000865400008B72D000846
:100010005D3F0008990D0008294800080000000015
:1000200000000000000000000000000091410008F6
:10003000910F00080000000067400008E543000839
:100040005F0100085F0100085F0100085F01000810
:100050005F0100085F0100085F0100085F01000800
:100060005F0100085F0100085F0100085F010008F0
:100070005F0100085F0100085F0100085F010008E0
:100080005F0100085F0100085F0100085F010008D0
:100090005F0100085F0100085F0100085F010008C0
:1000A0005F0100085F0100085F0100085F010008B0
:1000B0005F0100085F0100085F0100085F010008A0
:1000C0005F0100085F0100085F0100085F01000890
:1000D0005F010008194800085F0100085F0100087F
:1000E0005F0100085F0100085F0100085F01000870
:1000F0005F0100085F0100085F0100085F01000860
:100100005F0100085F0100085F0100085F0100084F
:100110005F0100085F010008554400085F01000806
:100120005F0100085F0100085F0100085F0100082F
:10013000DFF80CD000F018FD004800472D910008B2
:10014000980B00200648804706480047FEE7FEE778
:10015000FEE7FEE7FEE7FEE7FEE7FEE7FEE7FEE777
:100160005344000831010008202A04DB203A21FA18
:1001700002F00021704721FA02F3D040C2F12002C0
:10018000914008431946704710B5431A934209D26B
:100190008318881803E010F8011D03F8011D521E92
:1001A000F9D210BD40EA01039B0703D009E008C95A
:1001B000121F08C0042AFAD203E011F8013B00F82C
:1001C000013B521EF9D210BDD2B201E000F8012B62
:1001D000491EFBD270470022F6E710B513460A46C7
:1001E00004461946FFF7F0FF204610BD10B504463F
:1001F00004E00B7800F8013B03B1491C521EF8D211
:10020000204610BDF0B480EA0102D40F4200B2EBE8
:10021000410F02D20246084611464A0042D0C30DA1
:10022000DDB2C1F3C752AD1A202D35DAC1F3160184
:1002300041F4000204B15242C5F1200602FA06F16F
:100240002A411044B3EBD05F23D0C4B1012DA0EB01
:10025000C35009DCF0BC4FF0004202EAC352DBB2EB
:1002600000F5000000F04BBB400000F1807000EB97
:10027000C350A0F1807040EAD170490009E04908FC
:1002800041EAC071A0EBC35000F50000400800EB4C
:10029000C350F0BC00F02ABB6142012202EB4101D5
:1002A000001BF6E7F0BC704781F00041AAE780F040
:1002B0000040A7E780EA010210B502F000434000C9
:1002C00022D04A001FD0010E01EB1261C0F356008C
:1002D000C2F3560240F4000042F40002A0FB0220E8
:1002E00000047F39140400D0401C50EA124001D4AD
:1002F0004000491EC2B20C0604EBD010401C40085E
:10030000802A02D003E0002010BD20F00100002967
:1003100000DA0020184310BD30B480EA010202F078
:10032000004530F0004221F0004013D090B1C30DE1
:10033000D40DC2F31601C0F31600E41A41F4000113
:1003400040F400027D34914201D3641C00E0490076
:10035000002C02DA30BC002070474FF4000000236C
:10036000914201D3891A034340084FEA4101F7D172
:1003700051B1914202D14FF0004105E002D24FF05D
:10038000010101E06FF0010103EBC450284430BCCF
:1003900000F0ACBA2DE9FE4F804681EA0300C00FA1
:1003A0000C46009021F0004123F00045B8EB02001C
:1003B000A94105D24046214690461C460B460246BE
:1003C00023F00040104347D0270DC7F30A00C3F3C2
:1003D0000A510290401A019040286BDAC3F31300CF
:1003E00040F4801B0098924620B10023D2EB030A10
:1003F00063EB0B0B01985946C0F14002504600F0E8
:1004000054FA06460D4650465946019A00F05CFAE9
:1004100010EB08006141002487EA115284EAE77377
:100420001A4340D0009A62B3019A012A4FEA075258
:1004300015DC001B61EB02014FF0004202EA07529B
:10044000CDE90042001C41F5801132462B4600F0F8
:10045000BDFA03B0BDE8F08F40462146F9E7001B26
:1004600061EB0201001C41F5801300185B4120186C
:10047000A2F5001747EB030140EAD570B6196D41AC
:1004800011E06D084FEA360645EAC0754FEA07529B
:10049000001B61EB0201001C41F5801149084FEA85
:1004A00030000019514132462B4603B0BDE8F04FF1
:1004B00000F07DBA0098012240000023D0EB020238
:1004C00063EBE073009821464FEAE074B8EB00005C
:1004D00061EB0401E9E783F000435BE781F0004151
:1004E00058E72DE9FE4F81EA030404F0004421F0AF
:1004F000004100944FF0000B23F0004350EA010448
:100500005ED052EA03045BD0C3F30A54C1F30A5528
:100510002C44A4F2F3340194A0FB0254C1F3130160
:1005200041F48011C3F3130343F4801301FB02442D
:1005300000FB034E840A970A44EA815447EA835732
:10054000A4FB076802958D0A05FB07854FEA932CEB
:1005500004FB0C542705029D4FEA065847EA16375C
:10056000B5EB08056EEB070C870E920E47EA811774
:1005700042EA8312A7FB0201B6EB0B0164EB000415
:100580002B0D43EA0C335E1844EB1C50DA465146FF
:10059000E7FB0201C5F313044FEA0B3343EA14539C
:1005A0004FEA0432019C43EA0603A4F10C040294CE
:1005B000009CCDE900B400F009FA03B0BDE8F08F6B
:1005C00000200146F9E72DE9F04D81EA030404F02B
:1005D000004B21F0004514464FF0000A23F0004183
:1005E00050EA050220D054EA01021DD0C5F30A5793
:1005F0000246C5F31303C1F31300C1F30A5640F4D6
:10060000801543F48013A7EB0608101BD64608F2AA
:10061000FD3873EB050002D308F1010801E09218E0
:100620005B41B8F1000F03DA00200146BDE8F08D10
:1006300000204FF48011064684460EE0171B73EB32
:10064000050705D3121B63EB050306434CEA010CB7
:1006500049084FEA300092185B4150EA0107EDD19A
:1006600052EA030012D082EA040083EA050108433B
:1006700005D0101BAB4106D20122002306E0002268
:100680004FF0004302E06FF0010253101AEB060036
:100690004CEB085110EB0A0041EB0B01BDE8F04DAB
:1006A00000F085B9C10F80EAE0700844CA079623BC
:1006B000002100F024B996230022114600F01FB952
:1006C0000EB540F2334102910021CDE900110A46F6
:1006D0000B4600F07BF903B000BD00F0004220F0B3
:1006E0000040C10DC0F3160040F400007F2901DA7C
:1006F00000207047962903DCC1F19601C84001E053
:1007000096398840002AF4D04042704720F00040DB
:10071000C10DC0F3160040F400007F2901DA00206B
:100720007047962903DCC1F19601C840704796399D
:100730008840704700F0004230F000400AD0C10D00
:1007400001F56071C0F3160042EA0151C20840078A
:1007500011437047002001467047000030B5041E69
:1007600071F1000404DB4FF00044404264EB0101EE
:10077000141E73F1000405DB1C464FF00043524287
:1007800063EB04038B4208BF824230BD30B5041EC8
:1007900071F1000404DB4FF00044404264EB0101BE
:1007A000141E73F1000405DB1C464FF00043524257
:1007B00063EB0403994208BF904230BD01F000434F
:1007C00030B421F0004150EA010206D00A0DA2F532
:1007D0006072C1F31301002A02DC30BC00207047B4
:1007E000440F44EAC104C100E01830BC00EBC25021
:1007F00000F07CB8002801DBC0F10040002901DBDB
:10080000C1F1004181427047002801DBC0F1004086
:10081000002901DBC1F100418842704730B50B4629
:10082000014600202022012409E021FA02F59D4220
:1008300005D303FA02F5491B04FA02F52844151EF4
:10084000A2F10102F1DC30BD2DE9F05F0546002088
:1008500092469B4688460646814640241BE0284631
:10086000414647462246FFF77FFC53465A46C01A88
:10087000914110D311461846224600F016F82D1A61
:1008800067EB01084F4622460120002100F00DF8D9
:1008900017EB00094E41201EA4F10104DFDC48469D
:1008A00031462A464346BDE8F09F202A04DB203A21
:1008B00000FA02F1002070479140C2F1200320FAB3
:1008C00003F3194390407047202A06DBCB17203AE8
:1008D00041FA02F043EAE07306E041FA02F3D04045
:1008E000C2F1200291400843194670470029A8BF71
:1008F0007047401C490008BF20F00100704710B449
:10090000B0FA80FC00FA0CF050EA010404BF10BCFD
:10091000704749B1CCF1200421FA04F411FA0CF12A
:1009200018BF012121430843A3EB0C01CB1D4FEA63
:1009300000614FEA102042BF002010BC704700EB5E
:10094000C35010440029A4BF10BC7047401C49008C
:1009500008BF20F0010010BC7047420005D0C0F372
:10096000C7525242914201DC0020704700EBC15057
:10097000704710B541000CD0C0F3C751962908DC70
:100980007E2909DC06DB410204D000F0004040F083
:100990007E5010BD002010BDC1F19604C4F12001AD
:1009A00000FA01F1E040FFF7A1FFA04010BD10B533
:1009B000141E73F1000408DA401C41F10001921882
:1009C0005B411A4301D120F0010010BD2DE9F04D2B
:1009D00092469B4611B1B1FA81F202E0B0FA80F280
:1009E00020329046FFF761FF04460F4640EA0A00B6
:1009F00041EA0B0153465A46084313D0114653EAC5
:100A0000010019D0C8F140025046FFF7ADFB054682
:100A10000E46504659464246FFF747FF084305D069
:100A2000012004E020463946BDE8F08D0020054352
:100A300046EAE0762C4337430A986305E40AA0EBC4
:100A400008000022FD0A44EA47540A3002D500207B
:100A50000146E9E7010510196941DDE9084500197A
:100A60006941BDE8F04DA2E770B521F000430343B2
:100A70000CD0C1F30A550024D5EB040564EB040344
:100A8000D617AD1AB34102DB0020014670BD201815
:100A900041EB025170BD2DE9F04D00231A461B1A9F
:100AA0008A4103DB00200146BDE8F08DC1F30A5204
:100AB000C1F3130141F480154FF0000BD10702D1AF
:100AC00000186D41521E0027044640F2FF113846BF
:100AD00001EB620A3E468046024600204FF4801138
:100AE000FFF742FBC2197141BB1846EB0100B4EBA2
:100AF000030C75EB000C04D3E41A65EB00051746F4
:100B00000E46241908F101006D4180463428E3DDCA
:100B1000F91946EB0600091BA84103D24FF0FF323A
:100B2000134601E0002213461BEB070046EB0A5177
:100B3000BDE8F04DFFF73BBFC1F30A52C1F313010B
:100B400040F2FF3341F480119A4202DA002001465C
:100B5000704740F233439A42A2F2334202DC5242DF
:100B6000FFF702BBFFF7A1BE064C074D06E0E068A9
:100B700040F0010394E8070098471034AC42F6D3E4
:100B8000FFF7DAFAA09D0008C09D000870B58C1828
:100B900010F8015B15F0070301D110F8013B2A1191
:100BA00006D110F8012B03E010F8016B01F8016B7E
:100BB0005B1EF9D12B0705D40023521E0DD401F87A
:100BC000013BFAE710F8013BCB1A921C03E013F843
:100BD000015B01F8015B521EF9D5A142D8D3002078
:100BE00070BD10B5044600212046FFF703FE02D277
:100BF00084F0004010BD2046FCE770B504460D4669
:100C00000022134620462946FFF7A8FD03D285F0AF
:100C10000041204670BD20462946FBE7FEB5474807
:100C200047490860474848490860484848490860BB
:100C300048484949086049484949086049484A497B
:100C40000860684600F024FA484800F0CBF94749AC
:100C500008683B490968FFF7D5FA04463E48016831
:100C60002046FFF759FB41490860414948603F4928
:100C7000486835490968FFF7C5FA044638480168ED
:100C80002046FFF749FB3949486039490860374930
:100C900088682F490968FFF7B5FA044632480168A9
:100CA0002046FFF739FB31498860314988602F4A77
:100CB00091689068FFF7FEFA05462C4A5168506823
:100CC000FFF7F8FA0646294A11681068FFF7F2FAAA
:100CD00007463146FFF796FA04462946FFF792FA8F
:100CE000244908602149684602F090F922492348C6
:100CF0000068FFF7DFFA224948601F492148006871
:100D0000FFF7D8FA1E4988601B491F480068FFF7A3
:100D1000D1FA1B490860486807F02AFD1B490860A2
:100D20001749086807F024FD1949086014498868C4
:100D300007F01EFD17490860FEBD00006F12033B5F
:100D40001C0100205839343C200100200AD7A33C64
:100D500024010020EC51783F280100209CC4803FF2
:100D60002C0100203333833F300100203803002062
:100D7000740300201001002035FA8E3C740000201E
:100D8000680300207C00002078000020040100207F
:100D9000080100200C01002000BFFEE72DE9FF47FD
:100DA0000546002403A9284604F080FF044695F870
:100DB0007C9340F27F30465D34B902AB01AA6946AC
:100DC000284604F0F8FD04461CB9284606F0BAFB94
:100DD00004462CB94FF4FA71284604F0B5F80446DD
:100DE00044B9D5F81480434632464946284603F0B4
:100DF00015FA044644B928469DE80E0006F055FB56
:100E000004460CB90298286124B903A9284606F0C3
:100E100074FB044634B9AF7806223946284605F0FB
:100E200076FC044614B940F27E304655204604B0A4
:100E3000BDE8F0873EB503460C46002017A52D6897
:100E4000029517A52D68019516A52D680095012519
:100E50001570012C02D0022C04D101E0002103E026
:100E6000012101E0022100BF00BF032B08D0042BA9
:100E700002D0082B0CD107E002AD6D5C15700AE0C2
:100E800001AD6D5C157006E01DF80150157002E0B3
:100E90006FF0070000BF00BF3EBD0000020103006D
:100EA00007060800242526002DE9F04F06460F46C8
:100EB00013464FF496784FF01E09DFF884C0DFF830
:100EC00084A041F69A1B0EB9002037E0072F01D10C
:100ED000322033E0B3F93CE0C64502DA4FEA09417B
:100EE00003E0B3F93CE00EFB0BF181B1B3F838E05D
:100EF0000EFB0AF202EB5102B2FBF1F21204624560
:100F000002D8ACEB020404E04FF4481401E04FF4C3
:100F1000C804C4F30745642D02DD4FF0640E00E001
:100F2000AE46BEF1320F06DD642D02DD4FF0640ED9
:100F300003E0AE4601E04FF0320E7046BDE8F08FA0
:100F400033B37500CDCC300001460A1F102A1BD2E6
:100F5000DFE802F00E0C101216181A1A141A1A1AD8
:100F60001A1A080A0A2011E006200FE004200DE0FA
:100F700002200BE0012009E0072007E0092005E03E
:100F8000032003E0002001E0FF2000BF00BF704706
:100F900070477047FEB504460D461646684608F091
:100FA000DBF99DF806003070BDF802002080BDF826
:100FB00004002880B4F90000642804DAB4F90000C1
:100FC00010F1640F01DC00202080B5F900006428D6
:100FD00004DAB5F9000010F1640F01DC002028806C
:100FE0000020FEBD2DE9FF41044602AB06223B2155
:100FF000682002F0E5FD0546D5B99DF809009DF889
:10100000081040EA012000B2ADF800009DF80B0086
:101010009DF80A1040EA012000B2ADF802009DF8E8
:101020000D009DF80C1040EA012000B2ADF804005C
:10103000BDF90000FFF736FB07461449FFF76CF9CE
:1010400006464FF08041FFF735F92060BDF90200F8
:10105000FFF728FB07460D49FFF75EF906464FF0FC
:101060008041FFF727F96060BDF90400FFF71AFB24
:1010700007460649FFF750F906464FF08041FFF753
:1010800019F9A060284604B0BDE8F08100FEFF46D3
:101090002DE9FF41044602AB06224321682002F0FD
:1010A0008FFD0546D5B99DF809009DF8081040EA66
:1010B000012000B2ADF800009DF80B009DF80A1069
:1010C00040EA012000B2ADF802009DF80D009DF845
:1010D0000C1040EA012000B2ADF80400BDF9000098
:1010E000FFF7E0FA07461349FFF716F906461249DB
:1010F000FFF7E0F82060BDF90200FFF7D3FA0746DA
:101100000C49FFF709F906460B49FFF7D3F8606071
:10111000BDF90400FFF7C6FA07460649FFF7FCF8D9
:1011200006460549FFF7C6F8A060284604B0BDE8AA
:10113000F081000000FEFF4600007A4301460022D5
:1011400091F82100022808D00420886300BF002005
:1011500081F8200000BF012070470868006820F077
:101160000E000B6818600868006820F001000B682A
:10117000186091F8403001209840CB6B58600120F6
:1011800081F8210000BF002081F8200000BF104638
:10119000E2E7000070B50446002594F8210002281B
:1011A00003D00420A0630125C1E02068006820F07E
:1011B0000E00216808602068006820F001002168A6
:1011C00008605C492068884252D95A4978392068B9
:1011D000884201D1012047E056496439206888429D
:1011E00001D1102040E0534950392068884201D194
:1011F000801539E04F493C392068884201D180147C
:1012000032E04C4928392068884202D14FF48030BE
:101210002AE0484914392068884202D14FF48010EE
:1012200022E044492068884201D140041CE0424940
:101230002068884201D1012016E03F49143120681E
:10124000884201D110200FE03B49283120688842B4
:1012500001D1801508E038493C312068884201D12D
:10126000801401E04FF480303349091F086051E0D9
:10127000304978392068884201D1012047E02D4962
:1012800064392068884201D1102040E02949503952
:101290002068884201D1801539E026493C39206810
:1012A000884201D1801432E02249283920688842DE
:1012B00002D14FF480302AE01E4914392068884258
:1012C00002D14FF4801022E01A492068884201D1EF
:1012D00040041CE018492068884201D1012016E032
:1012E000154914312068884201D110200FE01249BD
:1012F00028312068884201D1801508E00E493C3130
:101300002068884201D1801401E04FF480300949FF
:1013100080394860012084F8210000BF002084F853
:10132000200000BF606B10B12046616B88472846E3
:1013300070BD0000800002400804024070B5044601
:1013400000F0B6F906462546681C10B1044800783E
:10135000054400BF00F0ACF9801BA842FAD370BD71
:101360000C0000202DE9F847024600239C467BE153
:101370004FF0010808FA03F4D1F8008008EA0400ED
:10138000A0427DD1DFF8F4A2D1F80480A8EB0A09CD
:10139000D0453AD014DCB8F1030F50D009DCB8F1D5
:1013A000000F31D0B8F1010F1CD0B8F1020F49D1B4
:1013B00020E0B8F1110F18D0B8F1120F42D11EE0A1
:1013C000B9F5881F25D006DCB9F5803F20D0B9F5E6
:1013D000801F37D11AE0B9F5001F18D0B9F5041FE6
:1013E00030D117E0D1F80CC02DE0D1F80C8008F115
:1013F000040C28E0D1F80C8008F1080C23E0D1F8A7
:101400000C8008F10C0C1EE000BF00BF00BF00BF45
:1014100000BF00BFD1F80880B8F1000F02D14FF033
:10142000040C0BE0D1F80880B8F1010F03D14FF0A4
:10143000080C146102E04FF0080C546103E04FF017
:10144000000C00E000BF00BFFF2801D8904601E07B
:1014500002F104084646FF2802D84FEA830803E059
:10146000A3F108084FEA88084746D6F800804FF0F5
:101470000F0909FA07F928EA09080CFA07F900E048
:101480007AE048EA0908C6F80080D1F8048008F03C
:101490008058B8F1805F6FD100BFDFF8E481D8F8E1
:1014A000188048F00108DFF8D891C9F81880C846BC
:1014B000D8F8188008F00108CDF8008000BF00BF00
:1014C0004FEAB9384FEA930958F829504FEA837820
:1014D0004FEA18794FF00F0808FA09F825EA0805CD
:1014E000DFF8A081424502D14FF0000824E0DFF888
:1014F0009881424502D14FF001081DE0DFF88C8150
:10150000424502D14FF0020816E0DFF884814245DF
:1015100002D14FF003080FE0DFF87881424502D195
:101520004FF0040808E0DFF87081424502D14FF027
:10153000050801E04FF006084FEA83794FEA197970
:1015400008FA09F848EA0505DFF850814FEA9309DF
:1015500048F82950D1F8048008F48038B8F5803F65
:101560000BD1DFF83C81D8F8008048EA0008DFF8AA
:101570003091C9F800800AE075E0DFF82481D8F8DE
:10158000008028EA0008DFF81891C9F80080D1F837
:10159000048008F40038B8F5003F0ED1DFF8008170
:1015A00008F10408D8F8008048EA0008DFF8F09055
:1015B00009F10409C9F800800DE0DFF8E48008F1C2
:1015C0000408D8F8008028EA0008DFF8D49009F170
:1015D0000409C9F80080D1F8048008F48018B8F52F
:1015E000801F0ED1DFF8B88008F10808D8F8008015
:1015F00048EA0008DFF8A89009F10809C9F8008056
:101600000DE0DFF89C8008F10808D8F8008028EA8F
:101610000008DFF88C9009F10809C9F80080D1F8BA
:10162000048008F40018B8F5001F0ED1DFF87080B0
:1016300008F10C08D8F8008048EA0008DFF860904C
:1016400009F10C09C9F800800DE0DFF8548008F1B9
:101650000C08D8F8008028EA0008DFF8449009F167
:101660000C09C9F800805B1CD1F8008028FA03F847
:10167000B8F1000F7FF47CAEBDE8F88700001110D0
:101680000010024000080140000C01400010014021
:101690000014014000180140001C014008000140F6
:1016A000000401400AB1016101E00B0403617047CD
:1016B00001480068704700000400002003480068EB
:1016C0000349097808440149086070470400002074
:1016D0000C00002010B50848006840F010000649D2
:1016E0000860032000F0A8F8002000F007F800F0E0
:1016F0002BF8002010BD00000020024070B5044609
:101700000E4800784FF47A71B1FBF0F00C4909688B
:10171000B1FBF0F5284600F099FE08B1012070BD3C
:10172000102C07D200222146501E00F047F8054831
:10173000046001E00120F2E70020F0E70C00002047
:10174000100000200800002008B500BF1148806983
:1017500040F001000F4988610846806900F00100EF
:10176000009000BF00BF00BF0846C06940F0805035
:10177000C8610846C06900F08050009000BF00BFFB
:1017800000BF0549486820F0E06000BF486000BF26
:1017900008BD00000010024000000140014608465C
:1017A000002809DB00F01F0301229A4043099B0037
:1017B00003F1E023C3F8002100BF70472DE9F05F7B
:1017C00080460D461646002705F0B6FF0746394607
:1017D0002A46334601F00700C0F1070ABAF1040FA8
:1017E00002D94FF0040A01E0C0F1070AD14600F126
:1017F000040ABAF1070F02D24FF0000A01E0A0F18B
:10180000030AD4464FF0010A0AFA09FAAAF1010ABA
:101810000AEA020A0AFA0CFA4FF0010B0BFA0CFB67
:10182000ABF1010B0BEA030B4AEA0B0421464046DD
:1018300005F08AFFBDE8F09F00BF00F00702064BED
:1018400019684FF6FF031940044B0B4343EA02218A
:10185000014B196000BF70470CED00E00000FA0575
:1018600070B504460D460CB9012070BD5A48006899
:1018700000F00700A8420ED25748006820F0070089
:101880002843554908600846006800F00700A84250
:1018900001D00120E9E7207800F0020002281DD1E4
:1018A000207800F00400042805D14C48406840F43A
:1018B000E0604A494860207800F00800082805D117
:1018C0004648406840F46050444948604348406896
:1018D00020F0F000A168084340494860207800F0FB
:1018E000010078B36068012806D13C48006800F424
:1018F000003090B90120B8E76068022806D1374867
:10190000006800F0007040B90120AEE7334800687D
:1019100000F0020008B90120A7E73048406820F035
:101920000300616808432D494860FFF7C1FE064681
:1019300009E0FFF7BDFE801B41F28831884202D9E1
:10194000032092E707E02548406800F00C0061683A
:10195000B0EB810FEDD12048006800F00700A842ED
:101960000ED91D48006820F0070028431A49086076
:101970000846006800F00700A84201D0012074E783
:10198000207800F00400042807D11448406820F4AF
:10199000E060E168084311494860207800F00800E1
:1019A000082808D10D48406820F46050216940EAB9
:1019B000C1000A49486000F03FF808494968C1F38E
:1019C0000311074A515CC840064908600648006890
:1019D000FFF794FE002048E700200240001002407C
:1019E000CC9C00081000002008000020014800687E
:1019F000704700001000002000B5FFF7F7FF044912
:101A00004968C1F30221034A515CC84000BD00008F
:101A100000100240DC9C000800B5FFF7E7FF044916
:101A20004968C1F3C221034A515CC84000BD0000AF
:101A300000100240DC9C0008F0B585B00FF26C0C81
:101A40009CE8E01001A8A0E8E0101CA52D68009516
:101A500000210022002300240020194D696801F0B4
:101A60000C05F5B1042D02D0082D19D101E015485F
:101A700019E001ADC1F38346AC5D01F4803555B189
:101A80000F4D6D68C5F340451DF805200D4D6543AC
:101A9000B5FBF2F302E00C4D04FB05F3184602E03F
:101AA00000BF084800BF00BF05B0F0BD0203040539
:101AB000060708090A0B0C0D0E0F1010010200009A
:101AC0000010024000127A0000093D00F8B50446FB
:101AD0000CB90120F8BD207800F00100002878D072
:101AE000F848406800F00C0004280CD0F548406825
:101AF00000F00C00082811D1F248406800F4803052
:101B0000B0F5803F0AD1EF48006800F400300028AB
:101B10005FD0606800285CD10120DBE700BF60680F
:101B2000B0F5803F06D1E748006840F48030E549D1
:101B3000086028E0606858B9E248006820F4803006
:101B4000E04908600846006820F4802008601AE038
:101B50006068B0F5A02F0BD1DA48006840F480200F
:101B6000D84908600846006840F4803008600AE000
:101B7000D448006820F48030D249086008460068E4
:101B800020F48020086000BF606888B1FFF790FDF6
:101B9000054606E0FFF78CFD401B642801D90320B1
:101BA00098E7C848006800F400300028F2D010E040
:101BB000FFF77EFD054606E0FFF77AFD401B64282F
:101BC00001D9032086E7BF48006800F400300028F0
:101BD000F2D1207800F00200022857D1B9484068BD
:101BE00000F00C0050B1B748406800F00C00082825
:101BF00018D1B448406800F4803098B9B148006802
:101C000000F0020020B12069012801D0012061E725
:101C1000AC48006820F0F800616940EAC100A949B9
:101C2000086033E02069E8B10120A7490860FFF7A8
:101C30003FFD054606E0FFF73BFD401B022801D9AA
:101C4000032047E79F48006800F002000028F2D018
:101C50009C48006820F0F800616940EAC100994999
:101C6000086013E0002098490860FFF721FD054651
:101C700006E0FFF71DFD401B022801D9032029E7DC
:101C80009048006800F002000028F2D1207800F0AF
:101C9000080008282DD1A069B8B101208B4908603F
:101CA000FFF706FD054606E0FFF702FD401B022890
:101CB00001D903200EE78348406A00F002000028A3
:101CC000F2D0012002F0D0F913E000207F49086033
:101CD000FFF7EEFC054606E0FFF7EAFC401B022892
:101CE00001D90320F6E67748406A00F00200002898
:101CF000F2D1207800F00400042873D10027714845
:101D0000C06900F0805070B900BF6E48C06940F0F3
:101D100080506C49C8610846C06900F0805000904E
:101D200000BF00BF01276A48006800F48070B0B9A6
:101D30006748006840F4807065490860FFF7B8FCA8
:101D4000054606E0FFF7B4FC401B642801D90320D8
:101D5000C0E65F48006800F480700028F2D000BF41
:101D6000E068012806D15748006A40F00100554953
:101D7000086227E0E06858B95248006A20F0010084
:101D8000504908620846006A20F00400086219E021
:101D9000E06805280BD14B48006A40F0040049492F
:101DA00008620846006A40F0010008620AE04548FF
:101DB000006A20F00100434908620846006A20F0EA
:101DC0000400086200BFE068A0B1FFF771FC05469F
:101DD00009E0FFF76DFC401B41F28831884202D9CF
:101DE000032077E622E03748006A00F0020000286E
:101DF000EFD012E0FFF75CFC054608E0FFF758FC67
:101E0000401B41F28831884201D9032062E62D4807
:101E1000006A00F002000028F0D1012F05D1294806
:101E2000C06920F080502749C86100BFE069C8B38D
:101E30002448406800F00C00082860D0E0690228BF
:101E400048D1002020490866FFF732FC054606E02D
:101E5000FFF72EFC401B022801D903203AE619485F
:101E6000006800F000700028F2D1206AB0F5803FD1
:101E700007D11448406820F40030A1680843114994
:101E80004860D4E9080108430E49496821F47411F7
:101E900008430C49486001200B490866FFF708FC1D
:101EA000054607E03DE0FFF703FC401B022801D98F
:101EB00003200FE60348006800F000700028F2D00D
:101EC0002FE0000000100240000042428004424225
:101ED00000700040002014490866FFF7E9FB054642
:101EE00006E0FFF7E5FB401B022801D90320F1E5DE
:101EF0000E48006800F000700028F2D111E0E0699F
:101F0000012800D1E6E50948466806F48031206AD8
:101F1000814204D106F47011606A814201D001202F
:101F2000D8E50020D6E50000000042420010024043
:101F300010B504460CB9012010BD606A38B960685C
:101F4000B0F5827F00D105E00021E16102E00021CF
:101F5000216161610021A16294F8510028B900203B
:101F600084F85000204600F043F8022084F8510025
:101F70002068006820F0400021680860A08800F414
:101F80008270218901F404410843A18901F40061B0
:101F90000843217C01F002010843217D01F0010189
:101FA0000843218B01F400710843217F01F03801BF
:101FB00008432021095D01F080010843218D01F4CF
:101FC00000510843216808600421A06901EA10401B
:101FD000216848602068C06920F400602168C861F9
:101FE00000206065012084F851000020A4E7000073
:101FF00010B586B00446002002900390049005902E
:102000001949206888422DD100BF1848806940F4E2
:102010008050164988610846806900F4805001901C
:1020200000BF00BF00BF0846806940F0040088611F
:102030000846806900F00400019000BF00BFA020A6
:102040000290022003900320059002A90848FFF7A0
:1020500089F94020029000200390049002A90448CE
:10206000FFF780F906B010BD0030014000100240BB
:10207000000801402DE9F84F0446884616461D46E3
:102080004FF0000A00BF94F85000012802D102204E
:10209000BDE8F88F012084F8500000BFFFF708FB6F
:1020A0000746B14694F85100012802D04FF0020AC9
:1020B000ADE0B8F1000F00D016B94FF0010AA6E06C
:1020C000032084F8510000206065C4F83080A686A3
:1020D000E686A063A087E08760642064A068B0F50E
:1020E000004F0BD12068006820F040002168086094
:1020F0002068006840F4804021680860206800681B
:1021000000F04000402805D02068006840F0400002
:1021100021680860E068B0F5006F2FD1606810B1E9
:10212000B9F1010F09D1206B00882168C860206BCC
:10213000801C2063E08E401EE0861BE020688068E3
:1021400000F0020002280AD1206B00882168C860D4
:10215000206B801C2063E08E401EE0860AE0FFF7C3
:10216000A7FAC01BA84201D3681C00B915B94FF0EB
:10217000030A4CE0E08E0028E0D12EE0606810B148
:10218000B9F1010F09D1206B007821680873206B29
:10219000401C2063E08E401EE0861BE020688068C3
:1021A00000F0020002280AD1206B00782168087331
:1021B000206B401C2063E08E401EE0860AE0FFF7A3
:1021C00077FAC01BA84201D3681C00B915B94FF0BB
:1021D000030A1CE0E08E0028E0D13A46294620465A
:1021E00001F056FF08B120206065A06850B900BF1B
:1021F000002000902068C0680090206880680090EF
:1022000000BF00BF606D08B14FF0010A00BF0120A0
:1022100084F8510000BF002084F8500000BF5046F1
:1022200036E72DE9FF5F0446884691461D460E9E1F
:10223000012002900020019000BF94F85000012876
:1022400003D1022004B0BDE8F09F012084F85000C3
:1022500000BFFFF72DFA074694F851B0606803906D
:10226000AA46BBF1010F0BD00398B0F5827F04D1D1
:10227000A06810B9BBF1040F02D002200190DBE08E
:10228000B8F1000F03D0B9F1000F00D015B901204B
:102290000190D1E094F85100042802D0052084F880
:1022A000510000206065C4F83890E587A587C4F820
:1022B0003080E586A586206460642068006800F0B0
:1022C0004000402805D02068006840F040002168A8
:1022D0000860E068B0F5006F4AD1606810B1BAF1EB
:1022E000010F09D1206B00882168C860206B801C19
:1022F0002063E08E401EE08633E02068806800F0B6
:102300000200022810D1E08E70B1029801280BD192
:10231000206B00882168C860206B801C2063E08EE1
:10232000401EE086002002902068806800F00100D6
:1023300068B1E08F58B12068C068A16B0880A06BBD
:10234000801CA063E08F401EE08701200290FFF711
:10235000AFF9C01BB04204D3701C10B10320019030
:102360006AE0E08E0028C8D1E08F0028C5D14AE09D
:10237000606810B1BAF1010F09D1206B00782168B3
:102380000873206B401C2063E08E401EE08634E022
:102390002068806800F00200022810D1E08E70B141
:1023A000029801280BD1206B007821680873206BFC
:1023B000401C2063E08E401EE086002002902068D2
:1023C000806800F0010068B1E08F58B12068C068F3
:1023D000A16B0870A06B401CA063E08F401EE087DB
:1023E00001200290FFF764F9C01BB04201D3701CBA
:1023F00000B916B9032001901EE0E08E0028C7D175
:10240000E08F0028C4D13A463146204601F040FE14
:1024100020B101200190202060650DE0A06850B936
:1024200000BF002000902068C0680090206880688D
:10243000009000BF00BF00BF012084F8510000BF22
:10244000002084F8500000BF0198FBE670B50446F8
:102450002546681EB0F1807F01D301200FE0681E81
:102460004FF0E02148610F214FF0FF3005F06CF98B
:1024700000204FF0E021886107200861002070BD36
:102480007047704730B502460B4600BF92F83C00DB
:10249000012801D1022030BD012082F83C0000BF9C
:1024A000022082F83D00106844681068816824F0BA
:1024B00070041868044310684460144D1068A84202
:1024C00013D0134D1068A8420FD01068B0F1804FA0
:1024D0000BD0104D1068A84207D00F4D1068A842CD
:1024E00003D00E4D1068A84205D121F08001586834
:1024F000014310688160012082F83D0000BF002088
:1025000082F83C0000BF00BFC5E70000002C01407E
:10251000003401400004004000080040000C00406E
:1025200010B504460CB9012010BD94F83D0028B93F
:10253000002084F83C00204600F026F8022084F8B1
:102540003D00211D206801F08DFF012084F8460028
:1025500000BF84F83E0001213F2001554020015575
:102560004120015500BF00BF012084F842004320F4
:102570000155442001554520015500BF012084F834
:102580003D000020D0E7000038B504461649206819
:10259000884216D100BF1548C06940F010001349A9
:1025A000C8610846C06900F01000009000BF00BF7D
:1025B000002211463620FFF701F93620FFF7EEF82A
:1025C00011E00B49206888420DD100BF0748C0695F
:1025D00040F020000549C8610846C06900F02000AD
:1025E000009000BF00BF38BD001000400010024046
:1025F00000140040014691F83D00012801D001205F
:102600007047022081F83D00164B0868984213D0AD
:10261000154B086898420FD00868B0F1804F0BD076
:10262000124B0868984207D0114B0868984203D0B3
:10263000104B086898420CD10868806800F00702C7
:10264000062A0CD00868006840F001000B6818608A
:1026500005E00868006840F001000B681860002081
:10266000CEE70000002C014000340140000400408F
:1026700000080040000C0040014691F83D00012890
:1026800001D001207047022081F83D000868C06831
:1026900040F001000B68D860164B0868984213D0D0
:1026A000154B086898420FD00868B0F1804F0BD0E6
:1026B000124B0868984207D0114B0868984203D023
:1026C000104B086898420CD10868806800F0070237
:1026D000062A0CD00868006840F001000B681860FA
:1026E00005E00868006840F001000B6818600020F1
:1026F000C8E70000002C0140003401400004004005
:1027000000080040000C0040014600BF0868006A55
:1027100041F21112104050B90868006A921010403E
:1027200028B90868006820F001000A68106000BF3E
:10273000012081F83D0000207047704710B5044625
:1027400020680069C0F34000D8B12068C068C0F3B9
:102750004000B0B16FF002002168086101202077CD
:102760002068806900F0030018B12046FFF7E5FFFC
:1027700005E0204600F0ADF8204600F0ABF8002060
:10278000207720680069C0F38000D8B12068C06855
:10279000C0F38000B0B16FF004002168086102202E
:1027A00020772068806900F4407018B12046FFF758
:1027B000C4FF05E0204600F08CF8204600F08AF8BF
:1027C0000020207720680069C0F3C000D8B12068DD
:1027D000C068C0F3C000B0B16FF0080021680861A4
:1027E000042020772068C06900F0030018B120465B
:1027F000FFF7A3FF05E0204600F06BF8204600F04D
:1028000069F80020207720680069C0F30010D8B173
:102810002068C068C0F30010B0B16FF010002168EC
:102820000861082020772068C06900F4407018B162
:102830002046FFF782FF05E0204600F04AF82046D8
:1028400000F048F8002020772068006900F00100BF
:1028500058B12068C06800F0010030B16FF001008D
:1028600021680861204600F037F820680069C0F34D
:10287000C01058B12068C068C0F3C01030B16FF00C
:102880008000216808612046FFF7FAFD2068006992
:10289000C0F3801058B12068C068C0F3801030B118
:1028A0006FF0400021680861204600F025F820689C
:1028B0000069C0F3401058B12068C068C0F34010F0
:1028C00030B16FF02000216808612046FFF7D9FD84
:1028D00010BD70477047000010B50446044884429C
:1028E00004D10448006808B106F0BCFC10BD00002B
:1028F000F001002000000020704770477047000082
:102900002DE9F84F0446206805682068C6682068ED
:1029100047694FF00009CA4605F00F09B9F1000FE9
:102920000AD105F0200038B106F0200020B1204681
:1029300001F01BFEBDE8F88FB9F1000F71D007F070
:10294000010018B906F4907000286AD005F0010063
:1029500030B106F4807018B1206C40F001002064A2
:1029600005F0040030B107F0010018B1206C40F010
:102970000200206405F0020030B107F0010018B138
:10298000206C40F00400206405F0080048B106F017
:10299000200010B907F0010018B1206C40F00800C9
:1029A0002064206C68B305F0200028B106F02000F8
:1029B00010B1204601F0D9FD20684069C0F3801AAB
:1029C000206C00F0080010B9BAF1000F22D02046A8
:1029D00001F0A0FD2068406900F04000B0B120681F
:1029E000406920F0400021684861A06B50B1564812
:1029F000A16B4863A06BFEF7CDFB10B1A06B416BE0
:102A000088470CE02046FFF779FF08E02046FFF7F3
:102A100075FF04E02046FFF771FF0020206489E77E
:102A2000FFE7206B012878D105F01000002874D052
:102A300006F01000002870D000BF00200090206831
:102A40000068009020684068009000BF00BF2068C8
:102A5000406900F04000C0B3A06B006840681FFAF6
:102A600080F8B8F1000F2FD0A08D40452CDDA4F8E0
:102A70002E80A06B806920281FD02068C06820F4B9
:102A800080702168C8602068406920F001002168DA
:102A900048612068406920F040002168486120209A
:102AA00084F83E00002020632068C06820F01000F9
:102AB0002168C860A06BFEF741FBA08DE28D801AF3
:102AC00081B22046FFF719FF34E7FFE7A08DE18DC3
:102AD000401A1FFA80F8E08DE8B1B8F1000F1AD063
:102AE0002068C06820F490702168C8602068406940
:102AF00020F0010021684861202084F83E00002079
:102B000020632068C06820F010002168C86041463A
:102B10002046FFF7F2FE0DE7FFE705F0800030B139
:102B200006F0800018B1204601F010FE02E705F023
:102B3000400030B106F0400018B1204601F005FD1C
:102B4000F8E600BFF6E600000145000810B50446AF
:102B50000CB9012010BDA06900B100E000BF94F8DD
:102B60003D0028B9002084F83C00204600F028F8F9
:102B7000242084F83D002068C06820F400502168BB
:102B8000C860204601F064FD2068006920F4904090
:102B9000216808612068406920F02A0021684861A6
:102BA0002068C06840F400502168C860002020649C
:102BB000202084F83D0084F83E000020CAE7000091
:102BC00010B586B004460020029003900490059052
:102BD0003D492068884237D100BF3C48806940F4B5
:102BE00080403A4988610846806900F4804001903D
:102BF00000BF00BF00BF0846806940F00400886144
:102C00000846806900F00400019000BF00BF48152D
:102C10000290022003900320059002A92C48FEF7A1
:102C2000A1FB4FF48060029000200390049002A961
:102C30002748FEF797FB002211462520FEF7BEFD30
:102C40002520FEF7ABFD3DE022492068884239D1BE
:102C500000BF1E48C06940F480201C49C861084676
:102C6000C06900F48020019000BF00BF00BF08468B
:102C7000806940F0100088610846806900F010000B
:102C8000019000BF00BF08150290022003900320AE
:102C9000059002A91048FEF765FB4FF40060029012
:102CA00000200390049002A90B48FEF75BFB00BFD5
:102CB0000A49486820F0300040F0E06040F0100021
:102CC000486000BF06B010BD00380140001002404F
:102CD0000008014000480040001001400000014091
:102CE00070472DE9F84F04460E46174699464FF0B7
:102CF000000A94F83D0020285AD106B117B90120E6
:102D0000BDE8F88F00BF94F83C00012801D10220F3
:102D1000F6E7012084F83C0000BF00202064212059
:102D200084F83D00FEF7C4FC8246A784E784A068CF
:102D3000B0F5805F04D1206910B90025B04602E0EB
:102D400035464FF0000800BF002084F83C0000BF6B
:102D50001BE05346002280212046CDF8009001F070
:102D600025FD08B10320CBE745B9B8F80000C0F352
:102D700008002168486008F1020803E0287821680B
:102D800048606D1CE08C401EE084E08C0028E0D19F
:102D90005346002240212046CDF8009001F006FD68
:102DA00008B10320ACE7202084F83D000020A7E70D
:102DB0000220A5E7704700BFFEE710B500217F2085
:102DC00006F038FBAD21612006F034FB03217F20A3
:102DD00006F030FB0021402006F02CFB05217F206F
:102DE00006F028FBB321412006F024FBF12143200B
:102DF00006F020FB1421452006F01CFB32215B204D
:102E000006F018FB34215F2006F014FB08217B201C
:102E100006F010FB06217F2006F00CFB1B2144204E
:102E200006F008FBBF21402006F004FB3F214E20A6
:102E300006F000FB08217F2006F0FCFA2021652027
:102E400006F0F8FA18216A2006F0F4FA09217F202A
:102E500006F0F0FAAF214F2006F0ECFA40215F2097
:102E600006F0E8FA8021482006F0E4FA80214920A3
:102E700006F0E0FA7721572006F0DCFA782160208E
:102E800006F0D8FA7821612006F0D4FA08216220F1
:102E900006F0D0FA5021632006F0CCFA0A217F20F8
:102EA00006F0C8FA6021452006F0C4FA00217F2010
:102EB00006F0C0FA11214D2006F0BCFA8021552001
:102EC00006F0B8FA1F21742006F0B4FA1F2175200D
:102ED00006F0B0FA78214A2006F0ACFA78214B20AF
:102EE00006F0A8FA0821442006F0A4FA5021452053
:102EF00006F0A0FAFF21642006F09CFA1F2165204D
:102F000006F098FA14217F2006F094FA67216520D4
:102F100006F090FA0821662006F08CFA70216320F2
:102F200006F088FA15217F2006F084FA4821084629
:102F300006F080FA07217F2006F07CFA0D2141205F
:102F400006F078FA1421432006F074FA0E214B2083
:102F500006F070FA0F21452006F06CFA4221442059
:102F600006F068FA80214C2006F064FA10217F20D8
:102F700006F060FA02215B2006F05CFA07217F2050
:102F800006F058FA4121402006F054FA0021702042
:102F900006F050FA0F20FEF7D1F94421322006F056
:102FA00049FA07217F2006F045FA4021084606F03D
:102FB00041FA06217F2006F03DFAF021622006F05A
:102FC00039FA0021632006F035FA0D217F2006F042
:102FD00031FAC021482006F02DFAD5216F2006F0E5
:102FE00029FA00217F2006F025FAA0215B2006F0B7
:102FF00021FAA8214E2006F01DFA50215A2006F091
:1030000019FA8021402006F015FA10BD2DE9F04F85
:1030100087B081460C46A1680846FDF74BF902903F
:1030200021680846FDF746F901900299FDF7EAF894
:103030000390FDF77FFB074606F000FBCDE9040196
:103040006068FDF777FB0546DDE90423FDF7BBFA71
:103050008246FDF7B3FBE9490860A1680846FDF721
:1030600029F9834661680846FDF724F9594601901D
:10307000FDF7C8F88246FDF75DFB074606F0DEFA6D
:10308000CDE902012068FDF755FB0546DDE9022385
:10309000FDF799FACDE90401FDF790FBD8490860E6
:1030A000D6480068FDF746FBCDE9040105F018F9A4
:1030B00007460022D34BFDF714FA0546D24AD34BFC
:1030C000FDF781FA8246FDF779FBD1490860CC48CB
:1030D0000068FDF72FFB074605F002F981F000417B
:1030E00082460022C74BFDF7FCF9C74AC74BCDE922
:1030F0000401FDF768FA0546FDF760FBC549086065
:10310000C549D9F808000968FDF7CEF80646C34856
:1031100001683046FDF7CEF80546C14801682846EB
:10312000FDF770F8BE490860BE480068FDF702FB75
:103130000746FDF762FD05464FF03332BA4BFDF707
:1031400025FB04D80020B9490860B9490860B9488E
:103150000068FDF7EFFA0546B74AB84BFDF716FBD6
:1031600002D80020B1490860B5480068FDF7E2FACE
:103170000546B14AB14BFDF709FB02D80020AC4926
:103180000860A7480068FDF7D5FA0546AA4AAD4B86
:10319000FDF7A7F907468846AB480068FDF7CAFA6D
:1031A0000546AA4AAA4BFDF79CF982463A46434691
:1031B000FDF7F0F8CDE90401FDF700FBA549086033
:1031C000A1480168A3480068FDF76EF8A2490860AD
:1031D000A04800689C490860A049D9F80000096827
:1031E000FDF768F805469E4801684FF07E50FDF7F0
:1031F00061F806462946FDF705F89A49086097499F
:10320000D9F804000968FDF755F8054696480168A5
:103210004FF07E50FDF74EF806462946FCF7F2FFC8
:10322000924908607D4801688B480068FDF742F8C4
:1032300005468F4801684FF07E50FDF73BF8064683
:103240002946FCF7DFFF8B4908608B4801688B48F3
:103250000068FCF7D7FF8A4908608A4801688A48F5
:103260000068FCF7CFFF89490860894801688948F0
:103270000068FCF7C7FF88490860884801688048F3
:103280000068FCF7BFFF054629467D480068FDF74A
:1032900043F866490860824801687C480068FCF78A
:1032A000B1FF0546294679480068FDF735F86049C1
:1032B00008607C48016878480068FCF7A3FF054671
:1032C000294675480068FDF727F877490860654882
:1032D00001684F480068FCF7E7FF0646534801685D
:1032E0003046FCF7E7FF05465E4801682846FCF7D4
:1032F00089FF5B4908605D48016846480068FCF743
:10330000D3FF06464A4801683046FCF7D3FF05461E
:10331000564801682846FCF775FF53490860554830
:1033200001683F480068FCF7BFFF06465E48016839
:103330003046FCF7BFFF05464E4801682846FCF7BB
:1033400061FF4B490860394801684FF07E50FCF737
:10335000ABFF05464A4801682846FCF7ABFF4749E2
:103360000860334801684FF07E50FCF79DFF05462A
:10337000464801682846FCF79DFF434908604A48D3
:1033800001684FF07E50FCF78FFF05464248016808
:103390002846FCF78FFF3F4908603148006880F0FD
:1033A0000045424801682846FCF77EFF2149086035
:1033B0002D48006880F000453D4801682846FCF72C
:1033C00073FF1F4908602A48006880F000453948AB
:1033D00001682846FCF768FF374908602048006804
:1033E0003249086020480068314908602048006878
:1033F0003049086007B0BDE8F08F00008000002071
:1034000084000020008066406F1283C0CA210940FA
:103410008C00002088000020640000205400002060
:1034200090000020100100203333F33FC40000203F
:10343000C8000020680000209A9999999999C93F7D
:103440006C0000209999B93F58000020CDCCCCCC1D
:10345000CCCCEC3F5C00002060000020500000203D
:10346000A400002098000020A0000020940000206C
:10347000A80000209C0000203C000020BC00002090
:10348000B000002038000020B8000020AC00002070
:1034900040000020C0000020B400002048000020B0
:1034A000440000204C000020CC00002074000020CC
:1034B000780000207C000020700000202DE9F843F7
:1034C0000020009069462E4801F059FA04469DF804
:1034D0000000C0B12B492A4801F0D6FA04466CB965
:1034E0002849B1F91800FDF7DDF806462649FCF732
:1034F000E1FE0546FDF70AF924490880204801F05D
:1035000095F9044603E04FF41670BDE8F8831F48B0
:103510000088B0F5CD7F05DA1D480078401C1C49B5
:10352000087004E01B480078401C1A4908701948CC
:1035300000781749097808440A281ED114480078F1
:10354000FDF7B9F880461449FCF7E6FE0746134834
:1035500001683846FCF7A8FE06460B49FCF7AAFEB0
:1035600005460E4801682846FCF74CFE0B490860EA
:103570000020074908700749087004480088C4E71C
:10358000BC03002078070020CDCCCC3D6A01002090
:103590006701002068010020000020416C0100202C
:1035A00010B500200E4908600E48406820F47000F5
:1035B0000C4948600846406840F4401048600020CC
:1035C0000949C1F8B40100F011F80120044908606C
:1035D00000F00CF800200449C1F8800110BD000083
:1035E00080012242001001400000224210B5032059
:1035F00005F040F910BD000010B500200E4908602C
:103600000E48406820F470000C4948600846406845
:1036100040F44010486001200949C1F8B401FFF7A7
:10362000E5FF012004490860FFF7E0FF002004499E
:10363000C1F8800110BD000080012242001001404D
:103640000000224270B5054600241648406820F468
:103650007000144948600846406840F40000486023
:10366000002614E0002010490860FFF7BFFF01208A
:103670000E49C1F880016006040E0B484C38006802
:1036800008B1601CC4B2FFF7B1FF701CC6B2082EAF
:10369000E8DB15B9FFF7B0FF01E0FFF781FF204637
:1036A00070BD000000100140800122420000224253
:1036B00070B504461248406820F470001049486014
:1036C0000846406840F44010486000200D490860FA
:1036D000002512E0E0090B49343108606006040E51
:1036E00001200949C1F88001FFF780FF002005494A
:1036F0000860FFF77BFF681CC5B2082DEADB70BDD0
:1037000000100140800122420000224210B50E4804
:10371000406820F470000C4948600846406840F456
:10372000401048600120094908600949C1F880013A
:10373000FFF75CFF002005490860FFF757FF0020F6
:103740000349C1F8800110BD00100140B4012242BC
:103750000000224210B50E48406820F470000C4969
:1037600048600846406840F440104860002009491D
:1037700008600949C1F8B401FFF738FF0120054985
:1037800008600549C1F8B401FFF730FF10BD000023
:1037900000100140800122420000224210B50024A6
:1037A0001448406820F47000124948600846406898
:1037B00040F40000486001200F490860FFF716FF41
:1037C00001200E49C1F88001FFF710FF07E0601CDF
:1037D000C4B2FA2C03DDFFF7BDFF012010BD06487F
:1037E000803800680028F2D103493439086000BFEE
:1037F000F4E7000000100140B40122420000224220
:1038000010B505F04CFB05F03AFC06F019FA002063
:1038100005F01FFC05F007FC05F0D9FB05F095FB52
:1038200005F0EBFB05F0BEFB05F04AFC012010BDE6
:1038300070B50446FFF76AFF1E20FFF739FFFFF758
:10384000ADFF2046FFF734FFFFF7A8FFFFF75EFF4D
:103850001F20FFF72DFFFFF7A1FF0020FFF7F2FE6B
:103860000546FFF777FF284670BD70B505460C4644
:10387000FFF74CFF1E20FFF71BFFFFF78FFF18B16C
:10388000FFF768FF012070BD2846FFF711FFFFF723
:1038900085FF2046FFF70CFFFFF780FF18B1FFF709
:1038A00059FF0120EFE7FFF755FF0020EBE700008D
:1038B00010B500200E4908600E48006820F4702002
:1038C0000C4908600846006840F440300860002059
:1038D0000949C1F8B00100F011F80120044908605D
:1038E00000F00CF800200449C1F8B80110BD000038
:1038F000B8812142040C01400080214210B5032010
:1039000004F0B8FF10BD000010B500200E4908609B
:103910000E48006820F470200C49086008460068D2
:1039200040F44030086001200949C1F8B001FFF7B8
:10393000E5FF012004490860FFF7E0FF002004498B
:10394000C1F8B80110BD0000B8812142040C01404B
:103950000080214270B5054600241648006820F416
:103960007020144908600846006840F40020086090
:10397000002614E0002010490860FFF7BFFF012077
:103980000E49C1F8B8016006040E0B48883800687B
:1039900008B1601CC4B2FFF7B1FF701CC6B2082E9C
:1039A000E8DB15B9FFF7B0FF01E0FFF781FF204624
:1039B00070BD0000040C0140B8812142008021420A
:1039C00070B504461248006820F470201049086061
:1039D0000846006840F44030086000200D49086047
:1039E000002512E0E0090B49083908606006040E62
:1039F00001200949C1F8B801FFF780FF00200549FF
:103A00000860FFF77BFF681CC5B2082DEADB70BDBC
:103A1000040C0140B88121420080214210B50E48BB
:103A2000006820F470200C4908600846006840F4E3
:103A3000403008600120094908600949C1F8B8010F
:103A4000FFF75CFF002005490860FFF757FF0020E3
:103A50000349C1F8B80110BD040C0140B0812142F6
:103A60000080214210B50E48006820F470200C49F7
:103A700008600846006840F44030086000200949AA
:103A800008600949C1F8B001FFF738FF0120054976
:103A900008600549C1F8B001FFF730FF10BD000014
:103AA000040C0140B88121420080214210B500245D
:103AB0001448006820F47020124908600846006825
:103AC00040F40020086001200F490860FFF716FF4E
:103AD00001200E49C1F8B801FFF710FF07E0601C94
:103AE000C4B2FA2C03DDFFF7BDFF012010BD06486C
:103AF000803800680028F2D103490831086000BF0F
:103B0000F4E70000040C0140B08121420080214212
:103B100010B580216B2000F0D7F8642004F0A0FEDF
:103B200000216B2000F0D0F8002000F08BF800207E
:103B300000F080F8C82000F0AAF80021382000F03A
:103B4000C3F800216A2000F0BFF80021232000F014
:103B5000BBF88021372000F0B7F8752000F013F88B
:103B60000446702C0BD101216B2000F0ADF8002130
:103B70006C2000F0A9F8C82000F089F801E00120CD
:103B800010BD0020FCE770B50446FFF747FFD020CA
:103B9000FFF716FFFFF78AFF2046FFF711FFFFF739
:103BA00085FFFFF73BFFD120FFF70AFFFFF77EFFFE
:103BB0000020FFF7CFFE0546FFF754FF284670BDF3
:103BC0002DE9F04106460F4614461D46FFF726FF35
:103BD000002141EA4601C8B2FFF7F2FEFFF766FF97
:103BE00020B1FFF73FFF0120BDE8F0813846FFF725
:103BF000E7FEFFF75BFFFFF711FF012101EB460135
:103C0000C8B2FFF7DDFEFFF751FF0DE0012C04D134
:103C10000020FFF79FFE287003E00120FFF79AFEC7
:103C20002870601EC4B26D1C002CEFD1FFF71AFF84
:103C30000020D9E710B50446E006010E1C2000F074
:103C400043F810BD10B50446E006010E1B2000F03D
:103C50003BF810BD70B504460025BC2C01DB0125E6
:103C600010E0622C01DB02250CE02A2C01DB03258D
:103C700008E0142C01DB042504E00A2C01DB0525F7
:103C800000E0062529461A2000F01EF870BD70B528
:103C90000446B4F57A7F01DD4FF47A74042C00DA1F
:103CA00004244FF47A7090FBF4F0401EC5B229460C
:103CB000192000F009F80546264604EBD671C1F339
:103CC0004F00FFF7C7FF70BD70B505460C46FFF704
:103CD000A5FED020FFF774FEFFF7E8FE18B1FFF74E
:103CE000C1FE012070BD2846FFF76AFEFFF7DEFE29
:103CF0002046FFF765FEFFF7D9FE18B1FFF7B2FEC9
:103D00000120EFE7FFF7AEFE0020EBE700B585B03E
:103D10000020019002900390049000BF3948806910
:103D200040F01000374988610846806900F01000B3
:103D3000009000BF00BF00BF0846806940F020002F
:103D400088610846806900F02000009000BF00BF35
:103D500000BF0846806940F0040088610846806919
:103D600000F00400009000BF00BF00BF084680695B
:103D700040F0080088610846806900F00800009063
:103D800000BF00BF012251031F48FDF78BFC00223A
:103D900001211D48FDF786FC01221C211B48FDF76F
:103DA00081FC012211031A48FDF77CFC00224FF42C
:103DB00080411748FDF776FC42F201000190012096
:103DC000029003900320049001A90F48FDF7CAFA5E
:103DD0001C200190012002900220039003200490F7
:103DE00001A90A48FDF7BEFA4FF4A0400190012056
:103DF000029003900320049001A90548FDF7B2FA50
:103E000005B000BD00100240001001400008014054
:103E1000000C014010B50E480E4908604FF4827046
:103E2000486000210B488160C160016141614FF42D
:103E3000007181612021C1610021016241628162C2
:103E40000A21C162FEF774F808B1FDF7A2F810BDAF
:103E500000300140980100201CB500200090019026
:103E60000E480F49086041F61F40486000210C4889
:103E700081603121C16080218161FEF751FB08B171
:103E8000FDF787F800200090019069460448FEF78E
:103E9000F9FA08B1FDF77DF81CBD000000100040E4
:103EA000F00100201CB50020009001900D480E4943
:103EB00008604720486000210B4881600121C160F3
:103EC00000218161FEF72CFB08B1FDF762F80020AC
:103ED0000090019069460448FEF7D4FA08B1FDF756
:103EE00058F81CBD001400403802002010B50B48E3
:103EF0000B4908604FF4E1304860002108488160B8
:103F0000C16001610C21416100218161C161FEF745
:103F10001DFE08B1FDF73DF810BD0000003801405E
:103F20008002002010B50B480B4908604FF4165072
:103F30004860002108488160C16001610C21416135
:103F400000218161C161FEF701FE08B1FDF721F892
:103F500010BD000000480040C402002000BFFEE782
:103F600008B504F07BFF012007236B226821009035
:103F7000002004F022FFFFF7CBFDC8B90023382250
:103F80006821184604F041FF0120FDF7D7F9012010
:103F90000346372268210090002004F00EFF012024
:103FA000FDF7CCF910A003F08FFB04F057FF02E0FF
:103FB00014A003F089FB04F07BF930B1162004F063
:103FC00067F918A003F080FB02E01EA003F07CFB61
:103FD00004F096FA18B113A003F076FB02E019A0E2
:103FE00003F072FB08BD0000363530302049324303
:103FF00020636F6E6E656374696F6E205B4F4B5DFF
:104000002E0D0A00363530302049324320636F6E62
:104010006E656374696F6E205B4641494C5D2E0D81
:104020000A000000414B38393633204932432063BF
:104030006F6E6E656374696F6E205B4F4B5D2E0D06
:104040000A000000414B383936332049324320639F
:104050006F6E6E656374696F6E205B4641494C5D9F
:104060002E0D0A007047704708B508490968C9084D
:104070004FF47A72B1FBF2F14143009100BF00BFEF
:1040800000994A1E00920029F9D108BD10000020B5
:10409000F8B504460D4616462B46002280212046E0
:1040A000009600F009F828B1606D40F020006065CE
:1040B0000320F8BD0020FCE72DE9F84F04460D462B
:1040C00090461E46DDF82890FDF7F2FAA0EB0900B5
:1040D000371AFDF7EDFA82462C480068C0F3CB3062
:1040E0007843009045E0701C002842D0FDF7E0FACC
:1040F000A0EB0A00B84200D2A7BB2068406820F0BD
:10410000E000216848606068B0F5827F0DD1A0684A
:10411000B0F5004F03D0A068B0F5806F05D12068DE
:10412000006820F0400021680860A06AB0F5005FD8
:104130000DD100BF2068006820F40050216808609D
:104140002068006840F400502168086000BF01202A
:1041500084F8510000BF002084F8500000BF032005
:10416000BDE8F88FFFE7009800B900270098401ECF
:104170000090206880682840A84201D1012000E01A
:1041800000204045AFD10020EAE7000010000020E9
:10419000704700002DE9F04704460D4616461F46BD
:1041A000DDE9088909A003F08FFA22462B4609A011
:1041B00003F08AFA32463B4606A003F085FA4246EF
:1041C0004B4604A003F080FABDE8F0873235300D8D
:1041D0000A000000256C660D0A0000002DE9F04180
:1041E00007460E4614464FF0000816B1012E0ED1B8
:1041F00006E0C4F38F352946384603F04CF809E051
:10420000C4F34F252946384603F03DF802E06FF02D
:10421000030800BF00BF4046BDE8F0812DE9F04330
:1042200089B006460C46904699460025032C01D0DD
:10423000082C01D1402700E0202708AA414620464B
:10424000FCF7F8FD05465DB904A805A906AB07AA69
:10425000CDE900109DF82010304601F018FB05460E
:1042600065B9DDE904108DE80302BDF81C209DF856
:1042700020103046069B03F016F8054605B9B770C6
:104280000DB986F87C43284609B0BDE8F0830000EC
:104290002DE9F04F89B006468A4693461D46129C8A
:1042A000002008906868206095F83E0000F01F0725
:1042B0002A4639465046FCF7F7FD6071A88D40024A
:1042C00002900298A060288E400203900398E0605C
:1042D000288A2082288F4FEA4028C4F81480A88FAB
:1042E00020830020A076BBF1030F10D006DCBBF1C9
:1042F000010F0BD0BBF1020F0FD106E0BBF10D0F88
:1043000008D0BBF1110F08D100BF00BF00BF0520CE
:10431000E07605E00D20E07602E00020E07600BFC8
:1043200000BFE07E18B93846FCF70EFEE076288F15
:104330004FEA4028C6F89083A88D4FEA4028C6F877
:10434000948301AA0021304600F0E0FA062F01D143
:10435000012000E00020079005AA0021304600F06F
:10436000C7FA9DF81400012803D10798012800D14D
:1043700000E00020049040F286310498885501AA9C
:104380000121304600F0C2FA042F01D1012000E0E3
:104390000020069005AA0121304600F0A9FA9DF8F8
:1043A0001400012803D10698012800D100E0002064
:1043B0000490049986F88713B4F91890E07E58B9F0
:1043C000B9F1000F08DA06484068484502DD0E20C2
:1043D000E07601E000202083089809B0BDE8F08F66
:1043E0007001002010B5FDF769F910BD00B58FB060
:1043F000282105A8FBF7EFFE14216846FBF7EBFE2A
:1044000001200590000406900020079001200990EB
:1044100002200C90C1030D914FF4E0110E9105A8FC
:10442000FDF754FB08B1FCF7B4FD0F20009002200B
:104430000190002002904FF48060039000200490CF
:1044400002216846FDF70CFA08B1FCF7A2FD0FB097
:1044500000BD704710B50248FEF770F910BD0000AE
:10446000F001002010B50268204B98420ED0204B7E
:1044700098420BD0B0F1804F08D01E4B984205D027
:104480001D4B984202D01D4B984203D122F070027E
:104490004B681A43154B98420ED0154B98420BD0DF
:1044A000B0F1804F08D0134B984205D0124B984280
:1044B00002D0124B984203D122F44072CB681A43C7
:1044C00022F080034C6943EA040202608B68C362F5
:1044D0000B688362054B984202D0054B984201D18C
:1044E0000B6903630123436110BD0000002C0140F0
:1044F000003401400004004000080040000C00406F
:1045000070B505466C6A0020E085E0842046FEF721
:10451000F5F970BD0168C96821F490710268D16035
:104520000168496921F0010102685161016B0129AB
:1045300005D10168C96821F010010268D16020210D
:1045400080F83E1000210163704710B504462068D2
:10455000C06820F040002168C860202084F83D0039
:104560002046FEF727FC002010BDF8B5044694F85D
:104570003E00222869D1A068B0F5805F0CD1206987
:1045800050B90025A66A20684068C0F30800308052
:10459000A06A801CA06215E0A56A0026A068B0F59C
:1045A000805F03D0A06828B9206918B920684068E6
:1045B000287004E02068406800F07F002870A06A3E
:1045C000401CA062E08D401E80B2E085A8BB206840
:1045D000C06820F020002168C8602068C06820F40E
:1045E00080702168C8602068406920F0010021685F
:1045F0004861202084F83E00206B01281ED1002055
:1046000020632068C06820F010002168C86020681E
:10461000006800F0100010280AD100BF00200090B0
:1046200020680068009020684068009000BF00BFCC
:10463000A18D2046FEF761F903E004E02046FEF775
:104640004FFB0020F8BD0020FCE70220FAE7000045
:1046500070B504462168096921F44051E2681143AC
:10466000226811612269A1681143626941EA020569
:104670002168C96841F20C62914329432268D160E4
:104680002168496921F44071A2691143226851618E
:104690002D4A2168914202D1FDF7BEF901E0FDF7F4
:1046A000ABF900EBC00101EB001162689200B1FBB5
:1046B000F2F100EBC00202EB001263689B00B2FB58
:1046C000F3F26423B2FBF3F202EBC20303EB021238
:1046D000A1EB8201322202EB01116422B1FBF2F163
:1046E00001F0F00100EBC00202EB001263689B00D6
:1046F000B2FBF3F26423B2FBF3F201EB021200EB24
:10470000C00101EB001163689B00B1FBF3F100EB0A
:10471000C00303EB00136668B600B3FBF6F3642630
:10472000B3FBF6F303EBC30606EB0313A1EB830124
:10473000322303EB01116423B1FBF3F101F00F010C
:1047400011442268916070BD00380140014691F823
:104750003D00212828D18868B0F5805F0BD1086919
:1047600048B90A6A1088C0F308000B685860086AE4
:10477000801C086205E00B6A581C086218780B68F8
:104780005860C88C401E80B2C88458B90868C06898
:1047900020F080000B68D8600868C06840F04000D6
:1047A0000B68D860002070470220FCE72DE9F0413B
:1047B00004460D4617469846069E21E0701CF8B147
:1047C0002EB1FCF775FFA0EB0800B04218D92068A5
:1047D000C06820F4D0702168C8602068406920F06B
:1047E000010021684861202084F83D0084F83E00E3
:1047F00000BF002084F83C0000BF0320BDE8F0812A
:10480000206800682840A84201D1012000E0002073
:10481000B842D3D00020F1E710B50248FEF770F897
:1048200010BD00008002002000BFFEE72DE9F0412E
:1048300004460025A67840F27E30075D401C10F843
:104840000480B84504D02046FCF7A8FA054604E0E9
:104850003146204600F0EEFC05462846BDE8F081D2
:1048600070B50646002424B90121304600F034FE1C
:1048700004462CB9012086F87803082086F87C03CA
:1048800000250AE034B901222946304600F0C9F972
:10489000044300E003E0681CC5B2022DF2DB00BF58
:1048A00034B94FF490120021304600F0DEF904468E
:1048B00034B94FF480420121304600F0D6F9044665
:1048C000204670BDF8B505460C46002669462846C8
:1048D00000F023FF0646009880014FF47A71B0FB88
:1048E000F1F00099081A0090009820603046F8BD59
:1048F00030B503460020022903DB001F0025157098
:1049000003E003F561756C5C147030BD2DE9FC416A
:1049100006460C4617464FF0000814B1012C12D180
:1049200008E06946304600F017FF8046BDF80000F9
:1049300085030BE001A9304600F005FF8046BDF875
:104940000400450202E06FF0030800BF00BFB8F1A9
:10495000000F11D145B906F5627050F824503D6042
:104960000021001F015507E03D6006F5627040F828
:1049700024500121001F01554046BDE8FC8170B55F
:1049800004460D4600262946204602F0D4F8064685
:10499000304670BD2DE9F04786B007460D4600242D
:1049A00000200590049003900290824601902860B8
:1049B0002CB905AA0521384600F088F804462CB920
:1049C00004AA0621384600F081F8044634B902AB47
:1049D00003AA01A9384600F0EEFF0446002C4CD192
:1049E00097F87C83B8F1030F18D0B8F1040F03D007
:1049F000B8F1080F3DD127E09DF81400012803D03D
:104A00009DF81000012805D141F28831029800EB91
:104A1000010A02E0029800F57A7A2DE09DF8140070
:104A2000012803D09DF81000012806D146F2E87154
:104A30000222029802FB001A05E045F260410222C0
:104A4000029802FB001A17E0F5266A4648F2360182
:104A5000384600F0FCFF0098002803DDF52100989F
:104A600000FB016606F6DC590221029801FB009A60
:104A700002E06FF0070400BF00BF0CB9C5F800A04A
:104A8000204606B0BDE8F0872DE9F041A2B080468F
:104A90000C46002601ADFF221C212046FBF794FBAB
:104AA0002A460221404600F0E4FD064656B9A878A1
:104AB00020712F1D0094EA783B4601214046FFF704
:104AC000E7FB0646304622B0BDE8F0812DE9F04113
:104AD00004460D461646002732462946204600F079
:104AE0003BFF07463846BDE8F08101460020002222
:104AF0000A6070472DE9F04107460D46144600262E
:104B0000234601222946522004F0F4FF3046BDE836
:104B1000F08100002DE9F04107460D4614460026BD
:104B2000074B02222946522004F0E4FF0448407853
:104B30000349097800EB012020803046BDE8F08170
:104B4000590100202DE9F04180460E4614461D46CD
:104B50000027EAB223463146522004F0CBFF384604
:104B6000BDE8F0812DE9FF4706460D46002496F882
:104B70007C93012D07D0022D05D0032D03D0201FDB
:104B800004B0BDE8F08734B9012D01D0022D01D168
:104B90002F4600E0032724B96946304601F086F825
:104BA0000446D6F8148034B903AB02AA01A93046F2
:104BB00000F001FF044634B943463A4649463046C0
:104BC000FFF72CFB044634B940F27E308755401C79
:104BD0008755801E855544B9304601A90EC902F09B
:104BE00064FC04460CB90398306124B96946304628
:104BF00002F083FC04462046C2E72DE9F041064658
:104C00000C4600272546A8014FF47A71B0FBF1F05D
:104C100005442946304602F021FB07463846BDE8E8
:104C2000F0812DE9F04105460C4616460027B846AE
:104C3000022C01DB3F1F0DE016B94FF0000803E026
:104C400005F5627050F82480424621462846FFF759
:104C5000C5FA074637B90EB1012100E0002105F57C
:104C6000617001553846BDE8F0812DE9F0410546F7
:104C70000C4616460027022C01DB3F1F15E005F508
:104C8000617010F80480B8F1000F03D1001D40F8E6
:104C900024600AE0324621462846FFF79FFA07467D
:104CA0001FB905F5627040F824603846BDE8F08110
:104CB0002DE9F04F87B006460D460024DFF810912D
:104CC0004448854200D9241F2CB906AA0521304644
:104CD000FFF7FCFE04462CB905AA06213046FFF773
:104CE000F5FE044634B904AB03AA02A9304600F02D
:104CF00062FE0446002C63D196F87CB300274FF087
:104D0000010ABBF1030F14D0BBF1040F03D0BBF1B8
:104D1000080F36D11FE09DF81800012803D09DF838
:104D20001400012802D141F2883701E04FF47A776C
:104D30002AE04FEA49099DF81800012803D09DF8A0
:104D40001400012802D146F2E87701E045F26047FD
:104D50004FF0020A18E04FEA49094FF0F50801AA9E
:104D600048F23601304600F072FE0198002803DD5B
:104D7000F521019800FB018808F6DC574FF0020A84
:104D800002E06FF0070400BF00BFBD4202D86FF021
:104D9000030401E0E81B049094B90498484502D943
:104DA0006FF0030409E00498B0FBFAF00490304679
:104DB00002A90EC902F079FB04460CB904983061CF
:104DC00014B94FF460708551204607B0BDE8F08FEC
:104DD00070640800809698002DE9F04107460C4663
:104DE000002503264FF47A73324621463846FFF7F2
:104DF00015FA0546BDB940F27E30C655401CC65571
:104E0000042C03D0032C01D0082C06D14AF228012F
:104E10003846FFF74DFF054605E048F23521384694
:104E2000FFF746FF05462DB94FF47A713846FFF774
:104E3000E4FE05462846BDE8F0812DE9FC41044624
:104E4000002594F87873042F14D007DC7FB1012F6C
:104E50000ED0022F0DD0032F12D106E0052F0AD05D
:104E6000622F09D0632F0BD107E000250BE000BFB4
:104E700000BF00BF00BF00BF00BF6FF00D0502E024
:104E80006FF0020500BF00BFA678C5B9402E16D14D
:104E900001A92046FFF77EFD80464FF47A71019804
:104EA000B0FBF1F0019069462046FFF70BFD80460C
:104EB000DDE90010001D814201D26FF003052DB91C
:104EC00006223146204601F022FC054615B9042091
:104ED00084F878032846BDE8FC8170B504460025B7
:104EE000032084F878032026A670032140F27F3047
:104EF0000155401E0155401E015508212046FFF76F
:104F00006BFF0546284670BD70B504460025204657
:104F100002F018FB054615B9032084F878032846EB
:104F200070BD70B5044600254FF4FA71204601F0BB
:104F3000EEFE0546284670BD70B505460C46204677
:104F400003F08EFC002070BD70B506460C464FF491
:104F50007A7094FBF0F5284603F082FC002070BDC7
:104F60002DE9FF4FADF5037D0E4617469846DDF857
:104F700040A2DDF844920024002082908190834674
:104F80008090002540F2FF121AA16846FBF72EF927
:104F900082A8FFF7AAFD1EE02CB980AA39468398A3
:104FA000FFF7A8FD04469DF8000200EA0A0040450C
:104FB00000D1012544B93DB9B9F1000F04D04946EB
:104FC0008398FFF7B9FF044681A8FFF78EFD829909
:104FD0008198A0EB010B1CB9B34501D2002DDBD0A9
:104FE00015B90CB96FF0060420460DF5077DBDE834
:104FF000F08F0000000000002DE9F04180460E46D1
:1050000014461D460027EAB223463146522004F0DA
:10501000A6FD3846BDE8F081F0B504460D460026F1
:105020000027204600F0D2FA06462946304600F016
:10503000BAF807463846F0BDF0B504460D460026DE
:1050400000272946204600F05BF80646304600F06F
:10505000E1FA07463846F0BD2DE9F04106460D4617
:1050600000BF00BF00BF304600F00FF807462846DB
:1050700000F0B3FA804607EBC7000402A40904FB62
:1050800008F4A4092046BDE8F081014600204FF055
:10509000804292FBF1F070472DE9F04305460C4643
:1050A00000218846002600278C4628014FF47A7993
:1050B00090FBF9F6002C01DA604207B2002A02DA0E
:1050C00050420FFA80FC4FEA471909EB4C114FF49C
:1050D0007A7091FBF0F13144594301F110004FEA2D
:1050E000E07900EBD9694FEA6911B1F5803F02DB45
:1050F0004FF6FF7801E01FFA81F84046BDE8F083E3
:1051000002460020130303EB5103B3FBF1F0704799
:105110002DE9FC5F82460F4690461E46DDE90CB441
:10512000002001900090814600251EB96FF00E000E
:10513000019035E0A1793046FFF78EFF0090504690
:105140000099FFF7DDFF8146B9F1FF0F01D94FF05C
:10515000FF098BF8079038460099FFF76DFF054669
:10516000280A2070657040460099FFF765FF0546E4
:10517000280A20716571617A3046FFF76DFF009053
:1051800038460099FFF758FF0546280AA070E570D9
:1051900040460099FFF750FF0546280AE071257246
:1051A0000198BDE8FC9FF0B503460C46002000BF07
:1051B000A3FB04152A464FF4006C11EB0C0142F1DD
:1051C00000020D0B45EA02510846F0BDF0B501465C
:1051D00000200A4602F12C0302F5E77400250026A0
:1051E000002794F801C00CF01F05E67894F800C081
:1051F0000CF0200C4FEA2C1792F8CCC10CF0200CCC
:10520000BCF1200F15D193F804C0BCF1060F04D1F6
:10521000122D0ED06FF010000BE093F805C0B445CE
:1052200001D06FF0110093F806C0BC4501D06FF0BB
:105230001200F0BD70B505460E4600242CB90322BD
:105240003146284601F063FA0446204670BD10B589
:105250000346002001245470002494708B244C7465
:105260004FF448441C8202249C7210BD10F8102F89
:105270000A7042784A7082788A70C278CA7002795D
:105280000A7142794A7182798A71C279CA71027A45
:105290000A72427A4A72827A8A72C27ACA72027B2D
:1052A0000A73427B4A73827B8A73C27BCA73027C15
:1052B0000A74427C4A74827C8A74C27CCA74027DFD
:1052C0000A75427D4A75827D8A75C27DCA75027EE5
:1052D0000A76427E4A76827E8A76C27ECA76027FCD
:1052E0000A77427F4A77827F8A77C27F1038CA77EF
:1052F00070472DE9F041074614460025002200269C
:1053000091F803C083F802C0181D00BFB5E0057016
:105310004FF0000CC0F804C091F803C0BCF1000FBE
:105320000BD191F801C00CF01F0CBCF1090F04D196
:105330004FF0130C80F83EC005E091F801C00CF06E
:105340001F0C80F83EC015B1012D51D151E091F8EC
:1053500002C0BCF1070F04D1B1F812C0A0F810C010
:105360000DE091F802C0BCF1080F04D1B1F814C0EF
:10537000A0F810C003E0B1F804C0A0F810C0B1F864
:1053800010C0A0F82CC0B1F816C0A0F82EC0B1F81B
:1053900008C0A0F830C0B1F80AC04FEA4C16B6F504
:1053A000803F01D34FF6FF760687B1F80CC0A0F816
:1053B0003AC0CA897A4302F5806294464FEAE2789D
:1053C00002EB58584FEAE8220FFA82FCA0F83CC0E2
:1053D000D4F804C0C0F824C0D4F808C0C0F828C06D
:1053E000D4F80CC0C0F814C0D4F800C0C0F820C075
:1053F0003DE0B1F818C0A0F810C0B1F81AC0A0F88C
:105400002CC04FF6FF7CA0F82EC0B1F81CC0A0F84D
:1054100030C0B1F81EC04FEA4C16B6F5803F01D33C
:105420004FF6FF760687B1F820C0A0F83AC04A8C44
:105430007A4302F5806294464FEAE27802EB5858CC
:105440004FEAE8220FFA82FCA0F83CC0D4F814C05E
:10545000C0F824C0D4F818C0C0F828C0D4F81CC0C4
:10546000C0F814C0D4F810C0C0F820C000BF00BFFE
:10547000403005F1010C0CF0FF05022DFFF647AF9F
:105480004FF0000C83F803C091F801C00CF01F0C22
:10549000BCF1030F10D006DCBCF1010F0AD0BCF147
:1054A000020F16D107E0BCF10D0F06D0BCF1110FB1
:1054B0000FD103E000BF00BF00BF00BF91F801C0E3
:1054C0000CF01F0C83F803C04FF0000883F84280F3
:1054D00000BF00BFBDE8F081FEB505460F460026BF
:1054E0002C466221284601F04CFA00202070012051
:1054F00060700020A0700120E07020714FF47A707D
:10550000A0604000E06043F2C82020616420606138
:105510004FF420602083002084F8210040F2DB70EB
:10552000A4F89C00284601F0C5FA002F04DD1EB93E
:10553000284601F045FE064604F5887001F047FA5A
:10554000064604F5907001F053FA064604F596718C
:1055500004F1420001F0BCFA064604F5A27001F025
:1055600023FA064604F1A40001F052FA064620216F
:10557000284601F0D7FF064666B9D4E903126069F0
:10558000CDE900120290228B61782846A36801F0D1
:105590008AFE0646284601F0F8FA3046FEBD7F280E
:1055A0000BDDC0F1FF0303F0070308330B70A0F11C
:1055B0008003C3F3C703137007E000F007030B7009
:1055C000C0F17F03C3F3C703137070470146002087
:1055D000CAB20B0A9A40501C7047014600204A1C70
:1055E0005206100E70470311137000F00F030B707A
:1055F000704710B5072807DD802303EBC103C0F116
:105600000F042344137004E0C1F10F0300EBC30344
:10561000137010BD10B5014600200022002361B1B7
:105620004A1E02E052085C1CA3B222F0FF04002CC8
:10563000F8D1144663F31F24A0B210BD00EB011390
:105640001370704770B586B006460D46002434B915
:1056500017236A460D213046FFF774FA04462CB929
:105660002A466946172000F078FB0446204606B01B
:1056700070BD2DE9F04707468946904600253C4617
:1056800007F53D7A564625B94946384600F06DF88B
:10569000054645B9B4F89C00334604F5227204F57A
:1056A000E771FFF726FE40F2E520005D012821D1D9
:1056B00065B940F2E620005D40B9384601F0A7FA2E
:1056C0000546012140F2E620015509E045B940F2C6
:1056D000E620005D012803D1022140F2E6200155B9
:1056E00040F2E620005DFF2804D01DB9384601F0E5
:1056F000BFFA054694F82C0030703020005D7070C1
:10570000842231464046FAF73FFD1DB93846FFF77F
:105710005DFD05462846BDE8F08730B502460B46DC
:10572000002011464FF42D74645A0CB96FF00E002E
:1057300040B94FF4D67465584FF42D74645AB5FBD4
:10574000F4F41C6030BD10B50246002013464FF43F
:10575000D474E45A0C8010BD10B5024600201346E4
:105760004FF4D374E45A0C8010BD2DE9F04FC3B050
:1057700004460F460025A04608F5E77A08F5227B87
:1057800008F52B7002908826A94600200190012F71
:1057900006D0022F09D1C6F5877080B2019007E0CC
:1057A000C6F1D50080B2019002E02C20019000BF2C
:1057B00000BF35B903AA31462046019BFFF7C2F965
:1057C0000546022F0CDB5DB9C6F1D6001FFA80F941
:1057D00003A800EB09013820029A00F010FB0546EF
:1057E000012F0CDB5DB9C6F1B4001FFA80F903A8E4
:1057F00000EB09015A46212000F06FFA05464DB929
:105800004FF0000903A800EB090152462C2000F0DC
:10581000B2FC0546284643B0BDE8F08F2DE9FC41B7
:1058200005460C464FF000082E46002001900090DF
:10583000002796F82A0201AA6946FFF7B0FE9DF8F4
:10584000040020709DF80000607096F82B723811EB
:10585000E07007F00F00A0704046BDE8FC8170B515
:105860008EB006460D4600243CB9312301AA40F211
:105870000F113046FFF766F904462CB92A4601A9F4
:10588000312000F0A6FB044620460EB070BD2DE985
:10589000F04106460F46DDE9064500203146072F58
:1058A0002ED007DC072F51D2DFE807F05013141574
:1058B00016172900242F36D006DC082F21D0112FEF
:1058C0000CD0122F42D11DE0252F2DD0262F3DD1F7
:1058D0002BE000BF00BF00BF00BF00BFB1F8CAC0CF
:1058E000A2F800C0D1F8D0C0C3F800C0D1F8D8C029
:1058F000C4F800C0D1F8E4C0C5F800C029E000BF7A
:1059000000BF00BFB1F8CCC0A2F800C0D1F8D4C02D
:10591000C3F800C0D1F8DCC0C4F800C0D1F8E8C0BA
:10592000C5F800C015E000BF00BFB1F8CCC0A2F8B8
:1059300000C0D1F8D4C0C3F800C0D1F8E0C0C4F8AA
:1059400000C0D1F8ECC0C5F800C002E06FF0030061
:1059500000BF00BFBDE8F08170B5034600201D46C2
:10596000012407290FDC002902DD01268E40F4B254
:1059700040F2C516765D26401670002905DD1678C2
:105980000E41167001E06FF0030070BDFEB50646D3
:105990000D46002434B90B236A4601213046FFF737
:1059A000D1F804462CB92A4669460B2000F0B2FB18
:1059B00004462046FEBD2DE9F05F05460E4617461B
:1059C00098464FF0000A2C46D346D1464FF4AF70AC
:1059D000005B08B96FF00E0ABAF1000F34D14FF432
:1059E000D172115D4FF4AF72105BFFF735FB834648
:1059F00040F28B11085D5946FFF7D5FB306094F8F3
:105A00009C9140F29D10005D00EB09201FFA80F987
:105A100059464846FFF700FB38604FF4D07010F845
:105A20000490401C005D00EB09201FFA80F95946E4
:105A30004846FFF7F1FAC8F800003068A0603868FF
:105A4000E060D8F8000020615046BDE8F09F70B5D6
:105A500003460C4600201946A4F50045392D6FD2A7
:105A6000DFE805F01D2125292D3135393D41454916
:105A70004D5155595D61666A6F73777B7F83878B64
:105A80008F93989CA1A6ABB0B5B9BEC3C8CDD2D7F1
:105A9000DCE1F1F5F9FDECEBEAE9E8E7E600B1F865
:105AA000A450156000E1A6256D5A1560FCE0A825FC
:105AB0006D5A1560F8E0B0256D5C1560F4E0B12515
:105AC0006D5C1560F0E0B2256D5A1560ECE0B1F840
:105AD0009C501560E8E0B4256D5C1560E4E0B625E7
