:020000040800F2
:100000004005002045010008991C00088D170008D4
:10001000951C0008B1010008012100080000000043
:10002000000000000000000000000000C51D0008E6
:10003000B5010008000000009B1C0008C71D000857
:100040005F0100085F0100085F0100085F01000810
:100050005F0100085F0100085F0100085F01000800
:100060005F0100085F0100085F0100085F010008F0
:100070005F0100085F0100085F0100085F010008E0
:100080005F0100085F0100085F0100085F010008D0
:100090005F0100085F0100085F0100085F010008C0
:1000A000391E00085F0100085F0100085F010008B9
:1000B0005F0100085F0100085F0100085F010008A0
:1000C0005F0100085F0100085F0100085F01000890
:1000D0005F0100085F0100085F0100085F01000880
:1000E0005F0100085F0100085F0100085F01000870
:1000F0005F0100085F0100085F0100085F01000860
:100100005F0100085F0100085F0100085F0100084F
:100110005F0100085F010008491E00085F01000838
:100120005F0100085F0100085F0100085F0100082F
:10013000DFF80CD000F02AF8004800475D210008E5
:10014000400500200648804706480047FEE7FEE7D6
:10015000FEE7FEE7FEE7FEE7FEE7FEE7FEE7FEE777
:10016000351E000831010008D2B201E000F8012B71
:10017000491EFBD270470022F6E710B513460A4627
:1001800004461946FFF7F0FF204610BD064C074D08
:1001900006E0E06840F0010394E807009847103457
:1001A000AC42F6D3FFF7C8FF4C2300086C230008CD
:1001B00000BFFEE77047704770B5044600F0B6F91F
:1001C00006462546681C10B104480078054400BF67
:1001D00000F0ACF9801BA842FAD370BD08000020E3
:1001E0002DE9F847024600239C467BE14FF00108C9
:1001F00008FA03F4D1F8008008EA0400A0427DD197
:10020000DFF8F4A2D1F80480A8EB0A09D0453AD06F
:1002100014DCB8F1030F50D009DCB8F1000F31D075
:10022000B8F1010F1CD0B8F1020F49D120E0B8F1AC
:10023000110F18D0B8F1120F42D11EE0B9F5881F86
:1002400025D006DCB9F5803F20D0B9F5801F37D125
:100250001AE0B9F5001F18D0B9F5041F30D117E026
:10026000D1F80CC02DE0D1F80C8008F1040C28E086
:10027000D1F80C8008F1080C23E0D1F80C8008F1CB
:100280000C0C1EE000BF00BF00BF00BF00BF00BFDE
:10029000D1F80880B8F1000F02D14FF0040C0BE048
:1002A000D1F80880B8F1010F03D14FF0080C1461A8
:1002B00002E04FF0080C546103E04FF0000C00E046
:1002C00000BF00BFFF2801D8904601E002F10408FA
:1002D0004646FF2802D84FEA830803E0A3F1080846
:1002E0004FEA88084746D6F800804FF00F0909FA10
:1002F00007F928EA09080CFA07F900E07AE048EA69
:100300000908C6F80080D1F8048008F08058B8F1D8
:10031000805F6FD100BFDFF8E481D8F8188048F023
:100320000108DFF8D891C9F81880C846D8F81880B5
:1003300008F00108CDF8008000BF00BF4FEAB938CF
:100340004FEA930958F829504FEA83784FEA187911
:100350004FF00F0808FA09F825EA0805DFF8A08130
:10036000424502D14FF0000824E0DFF89881424571
:1003700002D14FF001081DE0DFF88C81424502D127
:100380004FF0020816E0DFF88481424502D14FF0B9
:1003900003080FE0DFF87881424502D14FF00408EE
:1003A00008E0DFF87081424502D14FF0050801E016
:1003B0004FF006084FEA83794FEA197908FA09F8ED
:1003C00048EA0505DFF850814FEA930948F82950BB
:1003D000D1F8048008F48038B8F5803F0BD1DFF8FD
:1003E0003C81D8F8008048EA0008DFF83091C9F86D
:1003F00000800AE075E0DFF82481D8F8008028EA60
:100400000008DFF81891C9F80080D1F8048008F4DA
:100410000038B8F5003F0ED1DFF8008108F104087C
:10042000D8F8008048EA0008DFF8F09009F10409E4
:10043000C9F800800DE0DFF8E48008F10408D8F87E
:10044000008028EA0008DFF8D49009F10409C9F80F
:100450000080D1F8048008F48018B8F5801F0ED110
:10046000DFF8B88008F10808D8F8008048EA0008EA
:10047000DFF8A89009F10809C9F800800DE0DFF85D
:100480009C8008F10808D8F8008028EA0008DFF806
:100490008C9009F10809C9F80080D1F8048008F4AB
:1004A0000018B8F5001F0ED1DFF8708008F10C08B5
:1004B000D8F8008048EA0008DFF8609009F10C09DC
:1004C000C9F800800DE0DFF8548008F10C08D8F876
:1004D000008028EA0008DFF8449009F10C09C9F807
:1004E00000805B1CD1F8008028FA03F8B8F1000FF7
:1004F0007FF47CAEBDE8F8870000111000100240C8
:1005000000080140000C01400010014000140140AF
:1005100000180140001C0140080001400004014097
:100520000AB1016101E00B040361704701480068F2
:100530007047000000000020034800680349097864
:1005400008440149086070470000002008000020AE
:1005500010B50848006840F0100006490860032004
:1005600000F0AAF8002000F007F800F02DF80020B5
:1005700010BD00000020024070B504460E4800780F
:100580000E49B1FBF0F00E490968B1FBF0F52846C1
:1005900000F09CFE08B1012070BD102C07D2002293
:1005A0002146501E00F04AF80648046001E0012090
:1005B000F2E70020F0E7000008000020A08601001C
:1005C0000C0000200400002008B500BF114880691D
:1005D00040F001000F4988610846806900F0010081
:1005E000009000BF00BF00BF0846C06940F08050C7
:1005F000C8610846C06900F08050009000BF00BF8D
:1006000000BF0549486820F0E06000BF486000BFB7
:1006100008BD0000001002400000014001460846ED
:10062000002809DB00F01F0301229A4043099B00C8
:1006300003F1E023C3F8002100BF70472DE9F05F0C
:1006400080460D461646002701F05CFD07463946F8
:100650002A46334601F00700C0F1070ABAF1040F39
:1006600002D94FF0040A01E0C0F1070AD14600F1B7
:10067000040ABAF1070F02D24FF0000A01E0A0F11C
:10068000030AD4464FF0010A0AFA09FAAAF1010A4C
:100690000AEA020A0AFA0CFA4FF0010B0BFA0CFBF9
:1006A000ABF1010B0BEA030B4AEA0B04214640466F
:1006B00001F030FDBDE8F09F00BF00F00702064BDF
:1006C00019684FF6FF031940044B0B4343EA02211C
:1006D000014B196000BF70470CED00E00000FA0507
:1006E00070B504460D460CB9012070BD5A4800682B
:1006F00000F00700A8420ED25748006820F007001B
:100700002843554908600846006800F00700A842E1
:1007100001D00120E9E7207800F0020002281DD175
:10072000207800F00400042805D14C48406840F4CB
:10073000E0604A494860207800F00800082805D1A8
:100740004648406840F46050444948604348406827
:1007500020F0F000A168084340494860207800F08C
:10076000010078B36068012806D13C48006800F4B5
:10077000003090B90120B8E76068022806D13748F8
:10078000006800F0007040B90120AEE7334800680F
:1007900000F0020008B90120A7E73048406820F0C7
:1007A0000300616808432D494860FFF7BFFE064615
:1007B00009E0FFF7BBFE801B41F28831884202D975
:1007C000032092E707E02548406800F00C006168CC
:1007D000B0EB810FEDD12048006800F00700A8427F
:1007E0000ED91D48006820F0070028431A49086008
:1007F0000846006800F00700A84201D0012074E715
:10080000207800F00400042807D11448406820F440
:10081000E060E168084311494860207800F0080072
:10082000082808D10D48406820F46050216940EA4A
:10083000C1000A49486000F03FF808494968C1F31F
:100840000311074A515CC840064908600648006821
:10085000FFF792FE002048E700200240001002400F
:10086000342300080C000020040000200148006828
:10087000704700000C00002000B5FFF7F7FF0449A7
:100880004968C1F30221034A515CC84000BD000021
:10089000001002404423000800B5FFF7E7FF0449B9
:1008A0004968C1F3C221034A515CC84000BD000041
:1008B0000010024044230008F0B585B00FF26C0C24
:1008C0009CE8E01001A8A0E8E0101CA52D680095A8
:1008D00000210022002300240020194D696801F046
:1008E0000C05F5B1042D02D0082D19D101E01548F1
:1008F00019E001ADC1F38346AC5D01F4803555B11B
:100900000F4D6D68C5F340451DF805200D4D65433D
:10091000B5FBF2F302E00C4D04FB05F3184602E0D0
:1009200000BF084800BF00BF05B0F0BD02030405CA
:10093000060708090A0B0C0D0E0F1010010200002B
:100940000010024000127A0000093D00F8B504468C
:100950000CB90120F8BD207800F00100002878D003
:10096000F848406800F00C0004280CD0F5484068B6
:1009700000F00C00082811D1F248406800F48030E3
:10098000B0F5803F0AD1EF48006800F4003000283D
:100990005FD0606800285CD10120DBE700BF6068A1
:1009A000B0F5803F06D1E748006840F48030E54963
:1009B000086028E0606858B9E248006820F4803098
:1009C000E04908600846006820F4802008601AE0CA
:1009D0006068B0F5A02F0BD1DA48006840F48020A1
:1009E000D84908600846006840F4803008600AE092
:1009F000D448006820F48030D24908600846006876
:100A000020F48020086000BF606888B1FFF78EFD89
:100A1000054606E0FFF78AFD401B642801D9032044
:100A200098E7C848006800F400300028F2D010E0D1
:100A3000FFF77CFD054606E0FFF778FD401B6428C4
:100A400001D9032086E7BF48006800F40030002881
:100A5000F2D1207800F00200022857D1B94840684E
:100A600000F00C0050B1B748406800F00C000828B6
:100A700018D1B448406800F4803098B9B148006893
:100A800000F0020020B12069012801D0012061E7B7
:100A9000AC48006820F0F800616940EAC100A9494B
:100AA000086033E02069E8B10120A7490860FFF73A
:100AB0003DFD054606E0FFF739FD401B022801D940
:100AC000032047E79F48006800F002000028F2D0AA
:100AD0009C48006820F0F800616940EAC10099492B
:100AE000086013E0002098490860FFF71FFD0546E5
:100AF00006E0FFF71BFD401B022801D9032029E770
:100B00009048006800F002000028F2D1207800F040
:100B1000080008282DD1A069B8B101208B490860D0
:100B2000FFF704FD054606E0FFF700FD401B022825
:100B300001D903200EE78348406A00F00200002834
:100B4000F2D0012001F0AAF813E000207F490860EC
:100B5000FFF7ECFC054606E0FFF7E8FC401B022827
:100B600001D90320F6E67748406A00F00200002829
:100B7000F2D1207800F00400042873D100277148D6
:100B8000C06900F0805070B900BF6E48C06940F085
:100B900080506C49C8610846C06900F080500090E0
:100BA00000BF00BF01276A48006800F48070B0B938
:100BB0006748006840F4807065490860FFF7B6FC3C
:100BC000054606E0FFF7B2FC401B642801D903206C
:100BD000C0E65F48006800F480700028F2D000BFD3
:100BE000E068012806D15748006A40F001005549E5
:100BF000086227E0E06858B95248006A20F0010016
:100C0000504908620846006A20F00400086219E0B2
:100C1000E06805280BD14B48006A40F004004949C0
:100C200008620846006A40F0010008620AE0454890
:100C3000006A20F00100434908620846006A20F07B
:100C40000400086200BFE068A0B1FFF76FFC054632
:100C500009E0FFF76BFC401B41F28831884202D962
:100C6000032077E622E03748006A00F002000028FF
:100C7000EFD012E0FFF75AFC054608E0FFF756FCFC
:100C8000401B41F28831884201D9032062E62D4899
:100C9000006A00F002000028F0D1012F05D1294898
:100CA000C06920F080502749C86100BFE069C8B31F
:100CB0002448406800F00C00082860D0E069022851
:100CC00048D1002020490866FFF730FC054606E0C1
:100CD000FFF72CFC401B022801D903203AE61948F3
:100CE000006800F000700028F2D1206AB0F5803F63
:100CF00007D11448406820F40030A1680843114926
:100D00004860D4E9080108430E49496821F4741188
:100D100008430C49486001200B490866FFF706FCB0
:100D2000054607E03DE0FFF701FC401B022801D922
:100D300003200FE60348006800F000700028F2D09E
:100D40002FE00000001002400000424280044242B6
:100D500000700040002014490866FFF7E7FB0546D5
:100D600006E0FFF7E3FB401B022801D90320F1E571
:100D70000E48006800F000700028F2D111E0E06930
:100D8000012800D1E6E50948466806F48031206A6A
:100D9000814204D106F47011606A814201D00120C1
:100DA000D8E50020D6E500000000424200100240D5
:100DB00010B504460CB9012010BD606A38B96068EE
:100DC000B0F5827F00D105E00021E16102E0002161
:100DD000216161610021A16294F8510028B90020CD
:100DE00084F85000204600F043F8022084F85100B7
:100DF0002068006820F0400021680860A08800F4A6
:100E00008270218901F404410843A18901F4006141
:100E10000843217C01F002010843217D01F001011A
:100E20000843218B01F400710843217F01F0380150
:100E300008432021095D01F080010843218D01F460
:100E400000510843216808600421A06901EA1040AC
:100E5000216848602068C06920F400602168C8618A
:100E600000206065012084F851000020A4E7000004
:100E700010B586B0044600200290039004900590BF
:100E80001949206888422DD100BF1848806940F474
:100E90008050164988610846806900F480500190AE
:100EA00000BF00BF00BF0846806940F004008861B1
:100EB0000846806900F00400019000BF00BFA02038
:100EC0000290022003900320059002A90848FFF732
:100ED00087F94020029000200390049002A9044862
:100EE000FFF77EF906B010BD00300140001002404F
:100EF000000801402DE9F84F0446884616461D4675
:100F00004FF0000A00BF94F85000012802D10220DF
:100F1000BDE8F88F012084F8500000BFFFF706FB02
:100F20000746B14694F85100012802D04FF0020A5A
:100F3000ADE0B8F1000F00D016B94FF0010AA6E0FD
:100F4000032084F8510000206065C4F83080A68634
:100F5000E686A063A087E08760642064A068B0F59F
:100F6000004F0BD12068006820F040002168086025
:100F70002068006840F480402168086020680068AC
:100F800000F04000402805D02068006840F0400094
:100F900021680860E068B0F5006F2FD1606810B17B
:100FA000B9F1010F09D1206B00882168C860206B5E
:100FB000801C2063E08E401EE0861BE02068806875
:100FC00000F0020002280AD1206B00882168C86066
:100FD000206B801C2063E08E401EE0860AE0FFF755
:100FE000A5FAC01BA84201D3681C00B915B94FF07F
:100FF000030A4CE0E08E0028E0D12EE0606810B1DA
:10100000B9F1010F09D1206B007821680873206BBA
:10101000401C2063E08E401EE0861BE02068806854
:1010200000F0020002280AD1206B007821680873C2
:10103000206B401C2063E08E401EE0860AE0FFF734
:1010400075FAC01BA84201D3681C00B915B94FF04E
:10105000030A1CE0E08E0028E0D13A4629462046EB
:1010600000F030FE08B120206065A06850B900BFD4
:10107000002000902068C068009020688068009080
:1010800000BF00BF606D08B14FF0010A00BF012032
:1010900084F8510000BF002084F8500000BF504683
:1010A00036E72DE9FF5F0446884691461D460E9EB1
:1010B000012002900020019000BF94F85000012808
:1010C00003D1022004B0BDE8F09F012084F8500055
:1010D00000BFFFF72BFA074694F851B06068039001
:1010E000AA46BBF1010F0BD00398B0F5827F04D163
:1010F000A06810B9BBF1040F02D002200190DBE020
:10110000B8F1000F03D0B9F1000F00D015B90120DC
:101110000190D1E094F85100042802D0052084F811
:10112000510000206065C4F83890E587A587C4F8B1
:101130003080E586A586206460642068006800F041
:101140004000402805D02068006840F04000216839
:101150000860E068B0F5006F4AD1606810B1BAF17C
:10116000010F09D1206B00882168C860206B801CAA
:101170002063E08E401EE08633E02068806800F047
:101180000200022810D1E08E70B1029801280BD124
:10119000206B00882168C860206B801C2063E08E73
:1011A000401EE086002002902068806800F0010068
:1011B00068B1E08F58B12068C068A16B0880A06B4F
:1011C000801CA063E08F401EE08701200290FFF7A3
:1011D000ADF9C01BB04204D3701C10B103200190C4
:1011E0006AE0E08E0028C8D1E08F0028C5D14AE02F
:1011F000606810B1BAF1010F09D1206B0078216845
:101200000873206B401C2063E08E401EE08634E0B3
:101210002068806800F00200022810D1E08E70B1D2
:10122000029801280BD1206B007821680873206B8D
:10123000401C2063E08E401EE08600200290206863
:10124000806800F0010068B1E08F58B12068C06884
:10125000A16B0870A06B401CA063E08F401EE0876C
:1012600001200290FFF762F9C01BB04201D3701C4D
:1012700000B916B9032001901EE0E08E0028C7D106
:10128000E08F0028C4D13A463146204600F01AFDCE
:1012900020B101200190202060650DE0A06850B9C8
:1012A00000BF002000902068C0680090206880681F
:1012B000009000BF00BF00BF012084F8510000BFB4
:1012C000002084F8500000BF0198FBE670B504468A
:1012D0002546681EB0F1807F01D301200FE0681E13
:1012E0004FF0E02148610F214FF0FF3000F012FF76
:1012F00000204FF0E021886107200861002070BDC8
:101300007047704730B502460B4600BF92F83C006C
:10131000012801D1022030BD012082F83C0000BF2D
:10132000022082F83D00106844681068816824F04B
:1013300070041868044310684460144D1068A84293
:1013400013D0134D1068A8420FD01068B0F1804F31
:101350000BD0104D1068A84207D00F4D1068A8425E
:1013600003D00E4D1068A84205D121F080015868C5
:10137000014310688160012082F83D0000BF002019
:1013800082F83C0000BF00BFC5E70000002C014010
:10139000003401400004004000080040000C004000
:1013A00010B504460CB9012010BD94F83D0028B9D1
:1013B000002084F83C00204600F026F8022084F843
:1013C0003D00211D206800F047FD012084F8460003
:1013D00000BF84F83E0001213F2001554020015507
:1013E0004120015500BF00BF012084F84200432086
:1013F0000155442001554520015500BF012084F8C6
:101400003D000020D0E7000038B504461A492068A6
:10141000884216D100BF1948806940F4006017491E
:1014200088610846806900F40060009000BF00BF3A
:10143000002211461820FFF701F91820FFF7EEF8F7
:1014400019E00F492068884215D100BF0B48C069D8
:1014500040F010000949C8610846C06900F010005A
:10146000009000BF00BF002211463620FFF7E6F8CB
:101470003620FFF7D3F838BD002C014000100240A1
:1014800000100040704710B5044620680069C0F3A2
:101490004000D8B12068C068C0F34000B0B16FF020
:1014A000020021680861012020772068806900F02F
:1014B000030018B12046FFF7E5FF05E0204600F0E5
:1014C000ADF8204600F0ABF80020207720680069D6
:1014D000C0F38000D8B12068C068C0F38000B0B10C
:1014E0006FF004002168086102202077206880697D
:1014F00000F4407018B12046FFF7C4FF05E0204615
:1015000000F08CF8204600F08AF800202077206850
:101510000069C0F3C000D8B12068C068C0F3C00043
:10152000B0B16FF0080021680861042020772068BE
:10153000C06900F0030018B12046FFF7A3FF05E0E3
:10154000204600F06BF8204600F069F80020207774
:1015500020680069C0F30010D8B12068C068C0F3EB
:101560000010B0B16FF010002168086108202077EA
:101570002068C06900F4407018B12046FFF782FF70
:1015800005E0204600F04AF8204600F048F8002028
:1015900020772068006900F0010058B12068C06819
:1015A00000F0010030B16FF00100216808612046B1
:1015B00000F036F820680069C0F3C01058B1206808
:1015C000C068C0F3C01030B16FF0800021680861BE
:1015D0002046FFF795FE20680069C0F3801058B1DF
:1015E0002068C068C0F3801030B16FF040002168FF
:1015F0000861204600F04BF820680069C0F34010F5
:1016000058B12068C068C0F3401030B16FF02000BE
:10161000216808612046FFF774FE10BD70477047CF
:10162000704770B504460D4600BF94F83C00012891
:1016300001D1022070BD012084F83C0000BF0220CF
:1016400084F83D002946204600F05FFC48B10120A7
:1016500084F83D0000BF002084F83C0000BF01205A
:10166000E8E72068C06820F040002168C860206872
:10167000C06820F480402168C860012084F83D00E3
:1016800000BF002084F83C0000BF00BFD2E77047D5
:1016900010B504460CB9012010BDA06900B100E0EE
:1016A00000BF94F83D0028B9002084F83C00204693
:1016B00000F028F8242084F83D002068C06820F459
:1016C00000502168C860204600F09CFC206800693A
:1016D00020F49040216808612068406920F02A00C9
:1016E000216848612068C06840F400502168C860E3
:1016F00000202064202084F83D0084F83E00002073
:10170000CAE7000010B586B004460020029003909E
:10171000049005901A49206888422ED100BF1948CC
:10172000806940F48040174988610846806900F468
:101730008040019000BF00BF00BF0846806940F0B4
:10174000040088610846806900F00400019000BF31
:1017500000BF48150290022003900320059002A9C3
:101760000948FEF73DFD4FF4806002900020039091
:10177000049002A90448FEF733FD06B010BD000036
:1017800000380140001002400008014000BFFEE7A1
:1017900070B500217F2000F09DFD0121552000F053
:1017A00099FD0721502000F095FD0AE0102143200B
:1017B00000F090FD472000F055FD0446082C00D0B5
:1017C00000E0F3E700BF472000F04CFD044604F0C2
:1017D0008004802C04D10421482000F07BFD03E02C
:1017E0000221482000F076FD00217F2000F072FDEC
:1017F0007B21512000F06EFD0021502000F06AFD99
:101800000021552000F066FD0E217F2000F062FDD2
:10181000472000F027FD0446802C30D1702000F0D6
:1018200021FD04461C2C03DD04F10B00C4B202E0D0
:1018300004F10E00C4B2712000F014FD0546C5EBA2
:10184000051000EB4000642190FBF1F0C5B20021CF
:101850007F2000F03FFDAD21612000F03BFD7021B5
:10186000512000F037FD0E217F2000F033FD21468E
:10187000702000F02FFD2946712000F02BFD002183
:101880007F2000F027FDAD21612000F023FD032122
:101890007F2000F01FFD0021402000F01BFD0521EE
:1018A0007F2000F017FDB321412000F013FDF1214E
:1018B000432000F00FFD1421452000F00BFD3221E4
:1018C0005B2000F007FD34215F2000F003FD0821BC
:1018D0007B2000F0FFFC06217F2000F0FBFC1B2199
:1018E000442000F0F7FCBF21402000F0F3FC3F2132
:1018F0004E2000F0EFFC08217F2000F0EBFC2021BF
:10190000652000F0E7FC18216A2000F0E3FC0921C3
:101910007F2000F0DFFCAF214F2000F0DBFC4021F6
:101920005F2000F0D7FC8021482000F0D3FC80210C
:10193000492000F0CFFC7721572000F0CBFC782124
:10194000602000F0C7FC7821612000F0C3FC082172
:10195000622000F0BFFC5021632000F0BBFC0A2194
:101960007F2000F0B7FC6021452000F0B3FC00218F
:101970007F2000F0AFFC11214D2000F0ABFC802156
:10198000552000F0A7FC1F21742000F0A3FC1F21AC
:10199000752000F09FFC78214A2000F09BFC782104
:1019A0004B2000F097FC0821442000F093FC5021CC
:1019B000452000F08FFCFF21642000F08BFC1F21EC
:1019C000652000F087FC14217F2000F083FC672154
:1019D000652000F07FFC0821662000F07BFC702170
:1019E000632000F077FC15217F2000F073FC482174
:1019F000084600F06FFC07217F2000F06BFC0D21F2
:101A0000412000F067FC1421432000F063FC0E210C
:101A10004B2000F05FFC0F21452000F05BFC4221D1
:101A2000442000F057FC80214C2000F053FC102192
:101A30007F2000F04FFC02215B2000F04BFC0721CF
:101A40007F2000F047FC4121402000F043FC0021B2
:101A5000702000F03FFC40F2DC50FEF7ADFB44216B
:101A6000322000F037FC07217F2000F033FC4021BA
:101A7000084600F02FFC06217F2000F02BFCF0210F
:101A8000622000F027FC0021632000F023FC0D21E0
:101A90007F2000F01FFCC021482000F01BFCD52156
:101AA0006F2000F017FC00217F2000F013FCA02124
:101AB0005B2000F00FFCA8214E2000F00BFC502111
:101AC0005A2000F007FC8021402000F003FC70BD8C
:101AD00000B585B00020019002900390049000BFF3
:101AE0001C48806940F020001A49886108468069D6
:101AF00000F02000009000BF00BF00BF08468069D2
:101B000040F0040088610846806900F004000090FD
:101B100000BF00BF00BF0846806940F00800886130
:101B20000846806900F00800009000BF00BF012255
:101B30001C210948FEF7F4FC1C20019001200290B2
:101B4000022003900320049001A90348FEF748FBFC
:101B500005B000BD001002400008014010B50E485D
:101B60000E4908604FF48270486000210B48816084
:101B7000C160016141614FF4007181612021C16147
:101B800000210162416281620A21C162FFF710F9FE
:101B900008B1FEF710FB10BD00300140100000201E
:101BA00000B587B0142102A8FEF7E5FA00200090E6
:101BB000019015481549086000204860002113482D
:101BC00081604FF6FF71C160002101614161816157
:101BD000FFF7E6FB08B1FEF7EEFA00200290039053
:101BE00002A90A48FFF71DFD08B1FEF7E4FA00203C
:101BF0000090019069460548FFF784FB08B1FEF7A5
:101C0000DAFA07B000BD0000002C01406800002097
:101C10001CB50020009001900E480F49086041F665
:101C20001F40486000210C4881606321C160002191
:101C30008161FFF7B5FB08B1FEF7BDFA0020009007
:101C4000019069460448FFF75DFB08B1FEF7B3FA5F
:101C50001CBD000000100040B000002010B50B4873
:101C60000B4908604FF4E13048600021084881606A
:101C7000C16001610C21416100218161C161FFF7F7
:101C800007FD08B1FEF797FA10BD000000380140CB
:101C9000F800002000BFFEE77047704708B508490C
:101CA0000968C9084FF47A72B1FBF2F1414300911F
:101CB00000BF00BF00994A1E00920029F9D108BD5B
:101CC0000C000020F8B504460D4616462B460022AF
:101CD00080212046009600F009F828B1606D40F0A0
:101CE000200060650320F8BD0020FCE72DE9F84FD7
:101CF00004460D4690461E46DDF82890FEF716FC79
:101D0000A0EB0900371AFEF711FC82462C48006848
:101D1000C0F3CB307843009045E0701C002842D0DF
:101D2000FEF704FCA0EB0A00B84200D2A7BB206873
:101D3000406820F0E000216848606068B0F5827F6C
:101D40000DD1A068B0F5004F03D0A068B0F5806F4A
:101D500005D12068006820F0400021680860A06A72
:101D6000B0F5005F0DD100BF2068006820F400507E
:101D7000216808602068006840F40050216808600D
:101D800000BF012084F8510000BF002084F85000FB
:101D900000BF0320BDE8F88FFFE7009800B90027D7
:101DA0000098401E0090206880682840A84201D119
:101DB000012000E000204045AFD10020EAE700000C
:101DC0000C000020704710B5FEF7B6FB10BD00B543
:101DD0008FB0282105A8FEF7CEF914216846FEF73A
:101DE000CAF9012005900004069000200790012008
:101DF000099002200C90C1030D914FF4E0110E9157
:101E000005A8FEF7A3FD08B1FEF7D5F90F20009055
:101E100002200190002002904FF480600390002087
:101E2000049002216846FEF75BFC08B1FEF7C3F997
:101E30000FB000BD7047000010B50248FFF723FB4C
:101E400010BD00006800002010B50248FFF71BFB22
:101E500010BD0000B000002010B50268204B984271
:101E60000ED0204B98420BD0B0F1804F08D01E4BC3
:101E7000984205D01D4B984202D01D4B984203D189
:101E800022F070024B681A43154B98420ED0154B46
:101E900098420BD0B0F1804F08D0134B984205D038
:101EA000124B984202D0124B984203D122F4407256
:101EB000CB681A4322F080034C6943EA04020260B3
:101EC0008B68C3620B688362054B984202D0054B56
:101ED000984201D10B6903630123436110BD0000E7
:101EE000002C014000340140000400400008004084
:101EF000000C004030B50C46816821F47F4142EA75
:101F0000032525432943816030BD2DE9F041054675
:101F10000C462868866826F070066068064326F03E
:101F200007062068064328688660606800F00F0195
:101F300000293BD10011082838D2DFE800F0333403
:101F400035360B272D04D4E90313A2682868FFF760
:101F5000D1FF2CE02068052802D10120BDE8F081E6
:101F60002868D0F820802868006A20F001002968DD
:101F700008622868876927F0F007206947EA001798
:101F8000286887612868C0F8208010E02269A1686D
:101F9000286800F00FF80AE02269A168286800F0BC
:101FA0001CF804E000BF00BF00BF00E000BF00BF9E
:101FB0000020D3E730B50B461446026A056A25F0C7
:101FC00001050562816921F0F00141EA041122F066
:101FD0000A021A438161026230BD30B50B461446D5
:101FE000056A25F0100505628169026A21F47041D5
:101FF00041EA043122F0A00242EA03128161026246
:1020000030BD000070B504462168096921F44051D3
:10201000E2681143226811612269A1681143626973
:1020200041EA02052168C96841F20C6291432943E3
:102030002268D1602168496921F44071A269114385
:10204000226851612D4A2168914202D1FEF724FC99
:1020500001E0FEF711FC00EBC00101EB001162682A
:102060009200B1FBF2F100EBC00202EB00126368D8
:102070009B00B2FBF3F26423B2FBF3F202EBC20368
:1020800003EB0212A1EB8201322202EB0111642266
:10209000B1FBF2F101F0F00100EBC00202EB001223
:1020A00063689B00B2FBF3F26423B2FBF3F201EB33
:1020B000021200EBC00101EB001163689B00B1FB51
:1020C000F3F100EBC00303EB00136668B600B3FB4B
:1020D000F6F36426B3FBF6F303EBC30606EB031338
:1020E000A1EB8301322303EB01116423B1FBF3F174
:1020F00001F00F0111442268916070BD0038014069
:1021000000BFFEE702480068C0F3022070470000ED
:102110000CED00E010B5002804DB0A07130E054A99
:10212000135406E00A07140E034A00F00F031B1FA6
:10213000D45410BD00E400E018ED00E002E008C84F
:10214000121F08C1002AFAD170477047002001E031
:1021500001C1121F002AFBD17047000008B5FEF72D
:10216000F7F9FFF734FEFFF7B3FCFFF7F7FCFFF7D3
:1021700017FDFFF74DFDFFF771FD00F051F84AE044
:10218000002208212448FEF7CBF9002000904FF4EC
:102190007A73012269462148FEF7ACFE4FF47A7348
:1021A000012269461D48FEF7A5FE5F2000904FF40E
:1021B0007A73012269461948FEF79CFE4FF47A7340
:1021C000012269461548FEF795FE012000904FF464
:1021D0007A73012269461148FEF78CFE4FF47A7338
:1021E000012269460D48FEF785FE022000904FF45B
:1021F0007A73012269460948FEF77CFE4FF47A7330
:10220000012269460548FEF775FE012208210248B1
:10221000FEF786F900BFB3E7000801401000002078
:1022200070B5002400250520FDF7C6FF002000F052
:1022300019F804465F2000F015F80546492C01D135
:10224000B62D01D0002070BD5A213A2000F042F88E
:102250000520FDF7B1FFFFF79BFA0520FDF7ACFF66
:102260000120F0E701B582B0002001909DF8080040
:1022700020F080000290002208211348FEF750F958
:102280000520FDF799FF4FF47A73012202A90F4848
:10229000FEF730FE0520FDF78FFF0D48012301AA50
:1022A00001A900900948FEF7FCFE0520FDF784FF18
:1022B000012208210448FEF733F90520FDF77CFFD1
:1022C0009DF804000EBD0000000801401000002031
:1022D000A086010013B59DF8000040F0800000903A
:1022E000002208211148FEF71BF90520FDF764FFC5
:1022F0004FF47A73012269460D48FEF7FBFD052075
:10230000FDF75AFF4FF47A73012201A90848FEF73E
:10231000F1FD0520FDF750FF012208210348FEF7DB
:10232000FFF80520FDF748FF1CBD00000008014034
:102330001000002000000000000000000102030463
:102340000607080900000000010203046C230008CE
:1023500000000020100000003C2100087C23000841
:1023600010000020300500004C2100080000000093
:0C23700010000000010000000024F40038
:0400000508000131BD
:00000001FF
