:020000040800F2
:100000003009002045010008B91E0008E11C000865
:10001000B51E00084D040008C524000800000000BB
:10002000000000000000000000000000E51E0008C5
:100030004506000800000000BB1E0008ED20000877
:100040005F0100085F0100085F0100085F01000810
:100050005F0100085F0100085F0100085F01000800
:100060005F0100085F0100085F0100085F010008F0
:100070005F0100085F0100085F0100085F010008E0
:100080005F0100085F0100085F0100085F010008D0
:100090005F0100085F0100085F0100085F010008C0
:1000A0005F0100085F0100085F0100085F010008B0
:1000B0005F0100085F0100085F0100085F010008A0
:1000C0005F0100085F0100085F0100085F01000890
:1000D0005F010008B52400085F0100085F01000807
:1000E0005F0100085F0100085F0100085F01000870
:1000F0005F0100085F0100085F0100085F01000860
:100100005F0100085F0100085F0100085F0100084F
:100110005F0100085F0100085D2100085F01000821
:100120005F0100085F0100085F0100085F0100082F
:10013000DFF80CD000F078F90048004705540008BB
:10014000300900200648804706480047FEE7FEE7E2
:10015000FEE7FEE7FEE7FEE7FEE7FEE7FEE7FEE777
:100160005B2100083101000810B5431A934209D2FF
:100170008318881803E010F8011D03F8011D521EB2
:10018000F9D210BD40EA01039B0703D009E008C97A
:10019000121F08C0042AFAD203E011F8013B00F84C
:1001A000013B521EF9D210BDD2B201E000F8012B82
:1001B000491EFBD270470022F6E710B513460A46E7
:1001C00004461946FFF7F0FF204610BD10B504465F
:1001D00004E00B7800F8013B03B1491C521EF8D231
:1001E000204610BDF0B480EA0102D40F4200B2EB09
:1001F000410F02D20246084611464A0042D0C30DC2
:10020000DDB2C1F3C752AD1A202D35DAC1F31601A4
:1002100041F4000204B15242C5F1200602FA06F18F
:100220002A411044B3EBD05F23D0C4B1012DA0EB21
:10023000C35009DCF0BC4FF0004202EAC352DBB20B
:1002400000F5000000F0C1B8400000F1807000EB44
:10025000C350A0F1807040EAD170490009E049081C
:1002600041EAC071A0EBC35000F50000400800EB6C
:10027000C350F0BC00F0A0B86142012202EB410182
:10028000001BF6E7F0BC704781F00041AAE780F060
:100290000040A7E780EA010210B502F000434000E9
:1002A00022D04A001FD0010E01EB1261C0F35600AC
:1002B000C2F3560240F4000042F40002A0FB022008
:1002C00000047F39140400D0401C50EA124001D4CD
:1002D0004000491EC2B20C0604EBD010401C40087E
:1002E000802A02D003E0002010BD20F00100002988
:1002F00000DA0020184310BD30B480EA010202F099
:10030000004530F0004221F0004013D090B1C30D01
:10031000D40DC2F31601C0F31600E41A41F4000133
:1003200040F400027D34914201D3641C00E0490096
:10033000002C02DA30BC002070474FF4000000238C
:10034000914201D3891A034340084FEA4101F7D192
:1003500051B1914202D14FF0004105E002D24FF07D
:10036000010101E06FF0010103EBC450284430BCEF
:1003700000F022B8C10F80EAE0700844CA07962353
:10038000002100F022B896230022114600F01DB88B
:1003900020F00040C10DC0F3160040F400007F299A
:1003A00001DA00207047962903DCC1F19601C840AC
:1003B00070479639884070470029A8BF7047401C95
:1003C000490008BF20F00100704710B4B0FA80FC6B
:1003D00000FA0CF050EA010404BF10BC704749B1A8
:1003E000CCF1200421FA04F411FA0CF118BF012118
:1003F00021430843A3EB0C01CB1D4FEA00614FEAF8
:10040000102042BF002010BC704700EBC3501044C6
:100410000029A4BF10BC7047401C490008BF20F051
:10042000010010BC70470000064C074D06E0E06874
:1004300040F0010394E8070098471034AC42F6D32B
:10044000FFF77AFE6C5900088C59000800BFFEE7E0
:100450002DE9FF470546002403A9284603F074FA56
:10046000044695F87C9340F27F30465D34B902AB88
:1004700001AA6946284603F0ECF804461CB9284650
:1004800004F0AEFE04462CB94FF4FA71284602F08F
:10049000A9FB044644B9D5F8148043463246494680
:1004A000284601F040FD044644B928469DE80E0068
:1004B00004F049FE04460CB90298286124B903A946
:1004C000284604F068FE044634B9AF78062239465F
:1004D000284603F06AFF044614B940F27E304655C0
:1004E000204604B0BDE8F0873EB503460C46002028
:1004F00017A52D68029517A52D68019516A52D68DD
:10050000009501251570012C02D0022C04D101E0C8
:10051000002103E0012101E0022100BF00BF032B05
:1005200008D0042B02D0082B0CD107E002AD6D5C83
:1005300015700AE001AD6D5C157006E01DF8015004
:10054000157002E06FF0070000BF00BF3EBD000065
:100550000201030007060800242526002DE9F04FBC
:1005600006460F4613464FF496784FF01E09DFF803
:1005700084C0DFF884A041F69A1B0EB9002037E052
:10058000072F01D1322033E0B3F93CE0C64502DA4F
:100590004FEA094103E0B3F93CE00EFB0BF181B1F6
:1005A000B3F838E00EFB0AF202EB5102B2FBF1F2B3
:1005B0001204624502D8ACEB020404E04FF4481484
:1005C00001E04FF4C804C4F30745642D02DD4FF089
:1005D000640E00E0AE46BEF1320F06DD642D02DD92
:1005E0004FF0640E03E0AE4601E04FF0320E70466D
:1005F000BDE8F08F33B37500CDCC300001460A1F43
:10060000102A1BD2DFE802F00E0C101216181A1A6C
:10061000141A1A1A1A1A080A0A2011E006200FE002
:1006200004200DE002200BE0012009E0072007E094
:10063000092005E0032003E0002001E0FF2000BFC7
:1006400000BF7047704770470146002291F82100B3
:10065000022808D00420886300BF002081F8200011
:1006600000BF012070470868006820F00E000B688A
:1006700018600868006820F001000B68186091F8A5
:10068000403001209840CB6B5860012081F8210058
:1006900000BF002081F8200000BF1046E2E7000004
:1006A00070B50446002594F82100022803D00420E8
:1006B000A0630125C1E02068006820F00E002168D9
:1006C00008602068006820F00100216808605C492B
:1006D0002068884252D95A4978392068884201D125
:1006E000012047E0564964392068884201D1102032
:1006F00040E0534950392068884201D1801539E0E3
:100700004F493C392068884201D1801432E04C497D
:1007100028392068884202D14FF480302AE04849C5
:1007200014392068884202D14FF4801022E04449F5
:100730002068884201D140041CE042492068884278
:1007400001D1012016E03F4914312068884201D1CF
:1007500010200FE03B4928312068884201D18015E4
:1007600008E038493C312068884201D1801401E01A
:100770004FF480303349091F086051E0304978391F
:100780002068884201D1012047E02D496439206862
:10079000884201D1102040E0294950392068884220
:1007A00001D1801539E026493C392068884201D1C1
:1007B000801432E0224928392068884202D14FF45F
:1007C00080302AE01E4914392068884202D14FF453
:1007D000801022E01A492068884201D140041CE0C0
:1007E00018492068884201D1012016E015491431CA
:1007F0002068884201D110200FE01249283120687A
:10080000884201D1801508E00E493C3120688842B9
:1008100001D1801401E04FF48030094980394860EB
:10082000012084F8210000BF002084F8200000BFD0
:10083000606B10B12046616B8847284670BD000090
:10084000800002400804024070B5044600F0B6F98A
:1008500006462546681C10B104480078054400BFD0
:1008600000F0ACF9801BA842FAD370BD080000204C
:100870002DE9F847024600239C467BE14FF0010832
:1008800008FA03F4D1F8008008EA0400A0427DD100
:10089000DFF8F4A2D1F80480A8EB0A09D0453AD0D9
:1008A00014DCB8F1030F50D009DCB8F1000F31D0DF
:1008B000B8F1010F1CD0B8F1020F49D120E0B8F116
:1008C000110F18D0B8F1120F42D11EE0B9F5881FF0
:1008D00025D006DCB9F5803F20D0B9F5801F37D18F
:1008E0001AE0B9F5001F18D0B9F5041F30D117E090
:1008F000D1F80CC02DE0D1F80C8008F1040C28E0F0
:10090000D1F80C8008F1080C23E0D1F80C8008F134
:100910000C0C1EE000BF00BF00BF00BF00BF00BF47
:10092000D1F80880B8F1000F02D14FF0040C0BE0B1
:10093000D1F80880B8F1010F03D14FF0080C146111
:1009400002E04FF0080C546103E04FF0000C00E0AF
:1009500000BF00BFFF2801D8904601E002F1040863
:100960004646FF2802D84FEA830803E0A3F10808AF
:100970004FEA88084746D6F800804FF00F0909FA79
:1009800007F928EA09080CFA07F900E07AE048EAD2
:100990000908C6F80080D1F8048008F08058B8F142
:1009A000805F6FD100BFDFF8E481D8F8188048F08D
:1009B0000108DFF8D891C9F81880C846D8F818801F
:1009C00008F00108CDF8008000BF00BF4FEAB93839
:1009D0004FEA930958F829504FEA83784FEA18797B
:1009E0004FF00F0808FA09F825EA0805DFF8A0819A
:1009F000424502D14FF0000824E0DFF898814245DB
:100A000002D14FF001081DE0DFF88C81424502D190
:100A10004FF0020816E0DFF88481424502D14FF022
:100A200003080FE0DFF87881424502D14FF0040857
:100A300008E0DFF87081424502D14FF0050801E07F
:100A40004FF006084FEA83794FEA197908FA09F856
:100A500048EA0505DFF850814FEA930948F8295024
:100A6000D1F8048008F48038B8F5803F0BD1DFF866
:100A70003C81D8F8008048EA0008DFF83091C9F8D6
:100A800000800AE075E0DFF82481D8F8008028EAC9
:100A90000008DFF81891C9F80080D1F8048008F444
:100AA0000038B8F5003F0ED1DFF8008108F10408E6
:100AB000D8F8008048EA0008DFF8F09009F104094E
:100AC000C9F800800DE0DFF8E48008F10408D8F8E8
:100AD000008028EA0008DFF8D49009F10409C9F879
:100AE0000080D1F8048008F48018B8F5801F0ED17A
:100AF000DFF8B88008F10808D8F8008048EA000854
:100B0000DFF8A89009F10809C9F800800DE0DFF8C6
:100B10009C8008F10808D8F8008028EA0008DFF86F
:100B20008C9009F10809C9F80080D1F8048008F414
:100B30000018B8F5001F0ED1DFF8708008F10C081E
:100B4000D8F8008048EA0008DFF8609009F10C0945
:100B5000C9F800800DE0DFF8548008F10C08D8F8DF
:100B6000008028EA0008DFF8449009F10C09C9F870
:100B700000805B1CD1F8008028FA03F8B8F1000F60
:100B80007FF47CAEBDE8F887000011100010024031
:100B900000080140000C0140001001400014014019
:100BA00000180140001C0140080001400004014001
:100BB0000AB1016101E00B0403617047014800685C
:100BC00070470000000000200348006803490978CE
:100BD0000844014908607047000000200800002018
:100BE00010B50848006840F010000649086003206E
:100BF00000F0A8F8002000F007F800F02BF8002023
:100C000010BD00000020024070B504460E48007878
:100C10004FF47A71B1FBF0F00C490968B1FBF0F5C3
:100C2000284600F0ADFC08B1012070BD102C07D2A1
:100C300000222146501E00F047F80548046001E0FC
:100C40000120F2E70020F0E7080000200C0000205F
:100C50000400002008B500BF1148806940F0010081
:100C60000F4988610846806900F00100009000BFCC
:100C700000BF00BF0846C06940F08050C861084608
:100C8000C06900F08050009000BF00BF00BF054960
:100C9000486820F0E06000BF486000BF08BD000069
:100CA000001002400000014001460846002809DB10
:100CB00000F01F0301229A4043099B0003F1E02347
:100CC000C3F8002100BF70472DE9F05F80460D4654
:100CD0001646002704F046FB074639462A463346A7
:100CE00001F00700C0F1070ABAF1040F02D94FF072
:100CF000040A01E0C0F1070AD14600F1040ABAF182
:100D0000070F02D24FF0000A01E0A0F1030AD44617
:100D10004FF0010A0AFA09FAAAF1010A0AEA020ADC
:100D20000AFA0CFA4FF0010B0BFA0CFBABF1010BBA
:100D30000BEA030B4AEA0B042146404604F01AFB77
:100D4000BDE8F09F00BF00F00702064B19684FF6A0
:100D5000FF031940044B0B4343EA0221014B196086
:100D600000BF70470CED00E00000FA0570B50446C6
:100D70000D460CB9012070BD5A48006800F007000C
:100D8000A8420ED25748006820F007002843554972
:100D900008600846006800F00700A84201D0012062
:100DA000E9E7207800F0020002281DD1207800F049
:100DB0000400042805D14C48406840F4E0604A49EA
:100DC0004860207800F00800082805D146484068AF
:100DD00040F46050444948604348406820F0F000C7
:100DE000A168084340494860207800F0010078B3CA
:100DF0006068012806D13C48006800F4003090B9D2
:100E00000120B8E76068022806D13748006800F082
:100E1000007040B90120AEE73348006800F00200DE
:100E200008B90120A7E73048406820F00300616856
:100E300008432D494860FFF7C1FE064609E0FFF769
:100E4000BDFE801B41F28831884202D9032092E71F
:100E500007E02548406800F00C006168B0EB810FA6
:100E6000EDD12048006800F00700A8420ED91D48C7
:100E7000006820F0070028431A4908600846006807
:100E800000F00700A84201D0012074E7207800F0AC
:100E90000400042807D11448406820F4E060E168A9
:100EA000084311494860207800F00800082808D15C
:100EB0000D48406820F46050216940EAC1000A49A9
:100EC000486000F03FF808494968C1F30311074A38
:100ED000515CC8400649086006480068FFF794FE68
:100EE000002048E70020024000100240545900084A
:100EF0000C0000200400002001480068704700003A
:100F00000C00002000B5FFF7F7FF04494968C1F362
:100F10000221034A515CC84000BD0000001002409D
:100F20006459000800B5FFF7E7FF04494968C1F3B9
:100F3000C221034A515CC84000BD000000100240BD
:100F400064590008F0B585B00FF26C0C9CE8E01015
:100F500001A8A0E8E0101CA52D6800950021002242
:100F6000002300240020194D696801F00C05F5B13B
:100F7000042D02D0082D19D101E0154819E001AD6A
:100F8000C1F38346AC5D01F4803555B10F4D6D68FA
:100F9000C5F340451DF805200D4D6543B5FBF2F343
:100FA00002E00C4D04FB05F3184602E000BF0848C0
:100FB00000BF00BF05B0F0BD020304050607080925
:100FC0000A0B0C0D0E0F1010010200000010024061
:100FD00000127A0000093D00F8B504460CB9012062
:100FE000F8BD207800F00100002878D0F84840686B
:100FF00000F00C0004280CD0F548406800F00C000C
:10100000082811D1F248406800F48030B0F5803FE4
:101010000AD1EF48006800F4003000285FD0606813
:1010200000285CD10120DBE700BF6068B0F5803F9D
:1010300006D1E748006840F48030E549086028E0C0
:10104000606858B9E248006820F48030E0490860E0
:101050000846006820F4802008601AE06068B0F557
:10106000A02F0BD1DA48006840F48020D8490860EE
:101070000846006840F4803008600AE0D448006800
:1010800020F48030D24908600846006820F48020AF
:10109000086000BF606888B1FFF790FD054606E074
:1010A000FFF78CFD401B642801D9032098E7C8484E
:1010B000006800F400300028F2D010E0FFF77EFD59
:1010C000054606E0FFF77AFD401B642801D903209E
:1010D00086E7BF48006800F400300028F2D120788D
:1010E00000F00200022857D1B948406800F00C0017
:1010F00050B1B748406800F00C00082818D1B44837
:10110000406800F4803098B9B148006800F00200EF
:1011100020B12069012801D0012061E7AC480068B6
:1011200020F0F800616940EAC100A949086033E095
:101130002069E8B10120A7490860FFF73FFD054697
:1011400006E0FFF73BFD401B022801D9032047E7DB
:101150009F48006800F002000028F2D09C48006818
:1011600020F0F800616940EAC1009949086013E085
:10117000002098490860FFF721FD054606E0FFF7CB
:101180001DFD401B022801D9032029E79048006873
:1011900000F002000028F2D1207800F008000828B2
:1011A0002DD1A069B8B101208B490860FFF706FD79
:1011B000054606E0FFF702FD401B022801D9032087
:1011C0000EE78348406A00F002000028F2D00120B8
:1011D00000F074FE13E000207F490860FFF7EEFC8A
:1011E000054606E0FFF7EAFC401B022801D9032070
:1011F000F6E67748406A00F002000028F2D1207835
:1012000000F00400042873D100277148C06900F081
:10121000805070B900BF6E48C06940F080506C4982
:10122000C8610846C06900F08050009000BF00BF50
:1012300001276A48006800F48070B0B96748006808
:1012400040F4807065490860FFF7B8FC054606E089
:10125000FFF7B4FC401B642801D90320C0E65F48B7
:10126000006800F480700028F2D000BFE068012818
:1012700006D15748006A40F001005549086227E04E
:10128000E06858B95248006A20F0010050490862ED
:101290000846006A20F00400086219E0E0680528AA
:1012A0000BD14B48006A40F00400494908620846E7
:1012B000006A40F0010008620AE04548006A20F038
:1012C0000100434908620846006A20F004000862F1
:1012D00000BFE068A0B1FFF771FC054609E0FFF729
:1012E0006DFC401B41F28831884202D9032077E629
:1012F00022E03748006A00F002000028EFD012E038
:10130000FFF75CFC054608E0FFF758FC401B41F284
:101310008831884201D9032062E62D48006A00F036
:1013200002000028F0D1012F05D12948C06920F022
:1013300080502749C86100BFE069C8B324484068AD
:1013400000F00C00082860D0E069022848D1002095
:1013500020490866FFF732FC054606E0FFF72EFC41
:10136000401B022801D903203AE61948006800F022
:1013700000700028F2D1206AB0F5803F07D11448F0
:10138000406820F40030A168084311494860D4E95E
:10139000080108430E49496821F4741108430C49B7
:1013A000486001200B490866FFF708FC054607E086
:1013B0003DE0FFF703FC401B022801D903200FE6A4
:1013C0000348006800F000700028F2D02FE0000011
:1013D000001002400000424280044242007000407F
:1013E000002014490866FFF7E9FB054606E0FFF711
:1013F000E5FB401B022801D90320F1E50E480068F7
:1014000000F000700028F2D111E0E069012800D15D
:10141000E6E50948466806F48031206A814204D135
:1014200006F47011606A814201D00120D8E50020E5
:10143000D6E50000000042420010024010B504460C
:101440000CB9012010BD606A38B96068B0F5827FC0
:1014500000D105E00021E16102E00021216161612C
:101460000021A16294F8510028B9002084F85000AE
:10147000204600F043F8022084F8510020680068FC
:1014800020F0400021680860A08800F48270218963
:1014900001F404410843A18901F400610843217C5F
:1014A00001F002010843217D01F001010843218B75
:1014B00001F400710843217F01F038010843202125
:1014C000095D01F080010843218D01F400510843BA
:1014D000216808600421A06901EA10402168486081
:1014E0002068C06920F400602168C8610020606540
:1014F000012084F851000020A4E7000010B586B058
:101500000446002002900390049005901949206839
:1015100088422DD100BF1848806940F48050164998
:1015200088610846806900F48050019000BF00BFC8
:1015300000BF0846806940F0040088610846806961
:1015400000F00400019000BF00BFA0200290022024
:1015500003900320059002A90848FFF789F940206D
:10156000029000200390049002A90448FFF780F93C
:1015700006B010BD003001400010024000080140DC
:1015800070B504462546681EB0F1807F01D3012066
:101590000FE0681E4FF0E02148610F214FF0FF304F
:1015A00003F0E8FE00204FF0E02188610720086189
:1015B000002070BD7047704730B502460B4600BF33
:1015C00092F83C00012801D1022030BD012082F8B0
:1015D0003C0000BF022082F83D001068446810689B
:1015E000816824F070041868044310684460144D46
:1015F0001068A84213D0134D1068A8420FD010688D
:10160000B0F1804F0BD0104D1068A84207D00F4D9D
:101610001068A84203D00E4D1068A84205D121F0F1
:1016200080015868014310688160012082F83D0004
:1016300000BF002082F83C0000BF00BFC5E70000EB
:10164000002C01400034014000040040000800402C
:10165000000C004010B504460CB9012010BD94F8F0
:101660003D0028B9002084F83C00204600F026F810
:10167000022084F83D00211D206800F077FD012044
:1016800084F8460000BF84F83E0001213F20015548
:10169000402001554120015500BF00BF012084F8C2
:1016A000420043200155442001554520015500BF0B
:1016B000012084F83D000020D0E7000038B5044642
:1016C00016492068884216D100BF1548C06940F00D
:1016D00010001349C8610846C06900F0100000906E
:1016E00000BF00BF002211463620FFF7EDFA36207A
:1016F000FFF7DAFA11E00B49206888420DD100BFEC
:101700000748C06940F020000549C8610846C06923
:1017100000F02000009000BF00BF38BD0010004066
:101720000010024000140040014691F83D000128DD
:1017300001D001207047022081F83D00164B086857
:10174000984213D0154B086898420FD00868B0F142
:10175000804F0BD0124B0868984207D0114B086895
:10176000984203D0104B086898420CD108688068F2
:1017700000F00702062A0CD00868006840F001005B
:101780000B68186005E00868006840F001000B680D
:1017900018600020CEE70000002C0140003401401A
:1017A0000004004000080040000C0040014600BF5B
:1017B0000868006A41F21112104050B90868006AC6
:1017C0009210104028B90868006820F001000A68EB
:1017D000106000BF012081F83D0000207047704775
:1017E00010B5044620680069C0F34000D8B12068F5
:1017F000C068C0F34000B0B16FF00200216808611A
:10180000012020772068806900F0030018B120468D
:10181000FFF7E5FF05E0204600F0ADF8204600F0B8
:10182000ABF80020207720680069C0F38000D8B1B1
:101830002068C068C0F38000B0B16FF00400216878
:101840000861022020772068806900F4407018B198
:101850002046FFF7C4FF05E0204600F08CF8204644
:1018600000F08AF80020207720680069C0F3C000EB
:10187000D8B12068C068C0F3C000B0B16FF00800F4
:1018800021680861042020772068C06900F0030007
:1018900018B12046FFF7A3FF05E0204600F06BF8E3
:1018A000204600F069F80020207720680069C0F326
:1018B0000010D8B12068C068C0F30010B0B16FF05C
:1018C000100021680861082020772068C06900F4B2
:1018D000407018B12046FFF782FF05E0204600F077
:1018E0004AF8204600F048F8002020772068006978
:1018F00000F0010058B12068C06800F0010030B16C
:101900006FF0010021680861204600F036F8206879
:101910000069C0F3C01058B12068C068C0F3C0109F
:1019200030B16FF08000216808612046FFF742FE69
:1019300020680069C0F3801058B12068C068C0F307
:10194000801030B16FF0400021680861204600F03F
:1019500015F820680069C0F3401058B12068C068CD
:10196000C0F3401030B16FF02000216808612046BC
:10197000FFF721FE10BD70477047704770477047F2
:10198000704700002DE9F84F04462068056820687C
:10199000C668206847694FF00009CA4605F00F097C
:1019A000B9F1000F0AD105F0200038B106F020008F
:1019B00020B1204600F05DFCBDE8F88FB9F1000FC2
:1019C00071D007F0010018B906F4907000286AD0B1
:1019D00005F0010030B106F4807018B1206C40F0C1
:1019E0000100206405F0040030B107F0010018B1D7
:1019F000206C40F00200206405F0020030B107F0D6
:101A0000010018B1206C40F00400206405F00800CB
:101A100048B106F0200010B907F0010018B1206CA1
:101A200040F008002064206C68B305F0200028B165
:101A300006F0200010B1204600F01BFC2068406931
:101A4000C0F3801A206C00F0080010B9BAF1000F42
:101A500022D0204600F0E2FB2068406900F0400000
:101A6000B0B12068406920F0400021684861A06B57
:101A700050B15648A16B4863A06BFEF711FE10B140
:101A8000A06B416B88470CE02046FFF779FF08E028
:101A90002046FFF775FF04E02046FFF771FF0020A6
:101AA000206489E7FFE7206B012878D105F010005A
:101AB000002874D006F01000002870D000BF00206D
:101AC000009020680068009020684068009000BF87
:101AD00000BF2068406900F04000C0B3A06B006800
:101AE00040681FFA80F8B8F1000F2FD0A08D404554
:101AF0002CDDA4F82E80A06B806920281FD02068E0
:101B0000C06820F480702168C8602068406920F0B7
:101B10000100216848612068406920F04000216888
:101B20004861202084F83E00002020632068C068BF
:101B300020F010002168C860A06BFEF785FDA08D25
:101B4000E28D801A81B22046FFF719FF34E7FFE7E4
:101B5000A08DE18D401A1FFA80F8E08DE8B1B8F150
:101B6000000F1AD02068C06820F490702168C86007
:101B70002068406920F0010021684861202084F835
:101B80003E00002020632068C06820F0100021681B
:101B9000C86041462046FFF7F2FE0DE7FFE705F07B
:101BA000800030B106F0800018B1204600F052FCF1
:101BB00002E705F0400030B106F0400018B12046C1
:101BC00000F047FBF8E600BFF6E600000922000837
:101BD00010B504460CB9012010BDA06900B100E0A9
:101BE00000BF94F83D0028B9002084F83C0020464E
:101BF00000F028F8242084F83D002068C06820F414
:101C000000502168C860204600F0A6FB20680069EB
:101C100020F49040216808612068406920F02A0083
:101C2000216848612068C06840F400502168C8609D
:101C300000202064202084F83D0084F83E0000202D
:101C4000CAE7000010B586B0044600200290039059
:101C5000049005901E492068884236D100BF1D4877
:101C6000806940F480401B4988610846806900F41F
:101C70008040019000BF00BF00BF0846806940F06F
:101C8000040088610846806900F00400019000BFEC
:101C900000BF48150290022003900320059002A97E
:101CA0000D48FEF7E5FD4FF48060029000200390A0
:101CB000049002A90848FEF7DBFD0022114625200A
:101CC000FFF702F82520FEF7EFFF06B010BD000079
:101CD0000038014000100240000801407047704782
:101CE00000BFFEE700B585B0002001900290039090
:101CF000049000BF2848806940F020002649886190
:101D00000846806900F02000009000BF00BF00BFBF
:101D10000846806940F0040088610846806900F048
:101D20000400009000BF00BF00BF0846806940F07B
:101D3000080088610846806900F00800009000BF34
:101D400000BF01221C211548FEF732FF01221103BA
:101D50001348FEF72DFF00224FF480411048FEF794
:101D600027FF1C20019001200290022003900320F5
:101D7000049001A90948FEF77BFD4FF4A0400190B3
:101D80000120029003900320049001A90448FEF76B
:101D90006FFD05B000BD00000010024000080140CA
:101DA000000C014010B50E480E4908604FF48270D7
:101DB000486000210B488160C160016141614FF4BE
:101DC000007181612021C161002101624162816253
:101DD0000A21C162FFF732FB08B1FEF734FC10BDE7
:101DE00000300140440000201CB50020009001900C
:101DF0000E480F49086041F61F40486000210C481A
:101E000081606321C16080218161FFF723FC08B1FB
:101E1000FEF719FC00200090019069460448FFF786
:101E2000CBFB08B1FEF70FFC1CBD0000001000400A
:101E30009C0000201CB50020009001900D480E4928
:101E400008604720486000210B4881600121C16083
:101E500000218161FFF7FEFB08B1FEF7F4FB0020D3
:101E60000090019069460448FFF7A6FB08B1FEF711
:101E7000EAFB1CBD00140040E400002010B50B4834
:101E80000B4908604FF4E130486000210848816048
:101E9000C16001610C21416100218161C161FFF7D5
:101EA00097FE08B1FEF7CFFB10BD000000380140DF
:101EB0002C01002000BFFEE77047704708B50849B5
:101EC0000968C9084FF47A72B1FBF2F141430091FD
:101ED00000BF00BF00994A1E00920029F9D108BD39
:101EE0000C00002070472DE9F04107460E461446CD
:101EF0004FF0000816B1012E0ED106E0C4F38F3565
:101F00002946384603F015F809E0C4F34F25294661
:101F1000384603F006F802E06FF0030800BF00BF88
:101F20004046BDE8F0812DE9F04389B006460C46F5
:101F3000904699460025032C01D0082C01D140275A
:101F400000E0202708AA41462046FEF7CDFA0546C4
:101F50005DB904A805A906AB07AACDE900109DF854
:101F60002010304601F0E1FA054665B9DDE90410BC
:101F70008DE80302BDF81C209DF820103046069B1A
:101F800002F0DFFF054605B9B7700DB986F87C434E
:101F9000284609B0BDE8F0832DE9F04F89B0064628
:101FA0008A4693461D46129C00200890686820606F
:101FB00095F83E0000F01F072A4639465046FEF7C6
:101FC000CDFA6071A88D400202900298A060288E20
:101FD000400203900398E060288A2082288F4FEA0D
:101FE0004028C4F81480A88F20830020A076BBF17D
:101FF000030F10D006DCBBF1010F0BD0BBF1020FB9
:102000000FD106E0BBF10D0F08D0BBF1110F08D1C5
:1020100000BF00BF00BF0520E07605E00D20E076A0
:1020200002E00020E07600BF00BFE07E18B938462D
:10203000FEF7E4FAE076288F4FEA4028C6F890834E
:10204000A88D4FEA4028C6F8948301AA00213046A3
:1020500000F0AAFA062F01D1012000E0002007902D
:1020600005AA0021304600F091FA9DF814000128DD
:1020700003D10798012800D100E00020049040F22D
:1020800086310498885501AA0121304600F08CFA67
:10209000042F01D1012000E00020069005AA0121B3
:1020A000304600F073FA9DF81400012803D1069819
:1020B000012800D100E000200490049986F88713DD
:1020C000B4F91890E07E58B9B9F1000F08DA064863
:1020D0004068484502DD0E20E07601E000202083C4
:1020E000089809B0BDE8F08F2400002010B5FEF775
:1020F0006BFD10BD00B58FB0282105A8FEF75BF879
:1021000014216846FEF757F8012005900004069058
:10211000002007900120099002200C90C1030D912E
:102120004FF4E0110E9105A8FEF756FF08B1FEF737
:102130008AFA0F20009002200190002002904FF4B4
:10214000806003900020049002216846FEF70EFE96
:1021500008B1FEF778FA0FB000BD704710B502481D
:10216000FFF73EFB10BD00009C00002010B5026888
:10217000204B98420ED0204B98420BD0B0F1804FAC
:1021800008D01E4B984205D01D4B984202D01D4BE3
:10219000984203D122F070024B681A43154B9842C3
:1021A0000ED0154B98420BD0B0F1804F08D0134B96
:1021B000984205D0124B984202D0124B984203D15C
:1021C00022F44072CB681A4322F080034C6943EA40
:1021D000040202608B68C3620B688362054B9842FD
:1021E00002D0054B984201D10B690363012343617F
:1021F00010BD0000002C01400034014000040040EC
:1022000000080040000C004070B505466C6A0020D4
:10221000E085E0842046FFF7B3FB70BD0168C96824
:1022200021F490710268D1600168496921F00101CF
:1022300002685161016B012905D10168C96821F06B
:1022400010010268D160202180F83E100021016356
:10225000704710B504462068C06820F0400021682F
:10226000C860202084F83D002046FFF738FD00209C
:1022700010BDF8B5044694F83E00222869D1A06844
:10228000B0F5805F0CD1206950B90025A66A20689E
:102290004068C0F308003080A06A801CA06215E08E
:1022A000A56A0026A068B0F5805F03D0A06828B9B1
:1022B000206918B920684068287004E020684068E8
:1022C00000F07F002870A06A401CA062E08D401ED4
:1022D00080B2E085A8BB2068C06820F0200021689B
:1022E000C8602068C06820F480702168C8602068D9
:1022F000406920F0010021684861202084F83E00F8
:10230000206B01281ED1002020632068C06820F0C7
:1023100010002168C8602068006800F010001028D4
:102320000AD100BF0020009020680068009020685B
:102330004068009000BF00BFA18D2046FFF71FFB43
:1023400003E004E02046FFF7C9FC0020F8BD0020B0
:10235000FCE70220FAE7000070B50446216809692D
:1023600021F44051E2681143226811612269A16899
:102370001143626941EA02052168C96841F20C62B1
:10238000914329432268D1602168496921F4407151
:10239000A2691143226851612D4A2168914202D1FC
:1023A000FEF7C0FD01E0FEF7ADFD00EBC00101EB63
:1023B000001162689200B1FBF2F100EBC00202EB87
:1023C000001263689B00B2FBF3F26423B2FBF3F2EA
:1023D00002EBC20303EB0212A1EB8201322202EBF9
:1023E00001116422B1FBF2F101F0F00100EBC00237
:1023F00002EB001263689B00B2FBF3F26423B2FBB2
:10240000F3F201EB021200EBC00101EB0011636873
:102410009B00B1FBF3F100EBC00303EB0013666814
:10242000B600B3FBF6F36426B3FBF6F303EBC30687
:1024300006EB0313A1EB8301322303EB01116423A9
:10244000B1FBF3F101F00F0111442268916070BDFE
:1024500000380140014691F83D00212828D18868C4
:10246000B0F5805F0BD1086948B90A6A1088C0F3DB
:1024700008000B685860086A801C086205E00B6A57
:10248000581C086218780B685860C88C401E80B2CF
:10249000C88458B90868C06820F080000B68D8600C
:1024A0000868C06840F040000B68D86000207047A2
:1024B0000220FCE710B50248FFF764FA10BD0000E7
:1024C0002C01002000BFFEE72DE9F0410446002565
:1024D000A67840F27E30075D401C10F80480B845B5
:1024E00004D02046FDF7B4FF054604E031462046FF
:1024F00000F0EEFC05462846BDE8F08170B50646C2
:10250000002424B90121304600F034FE04462CB9E1
:10251000012086F87803082086F87C0300250AE06D
:1025200034B901222946304600F0C9F9044300E0DD
:1025300003E0681CC5B2022DF2DB00BF34B94FF4D2
:1025400090120021304600F0DEF9044634B94FF411
:1025500080420121304600F0D6F90446204670BD85
:10256000F8B505460C4600266946284600F023FFCC
:102570000646009880014FF47A71B0FBF1F00099A3
:10258000081A0090009820603046F8BD30B5034628
:102590000020022903DB001F0025157003E003F56E
:1025A00061756C5C147030BD2DE9FC4106460C462B
:1025B00017464FF0000814B1012C12D108E069460B
:1025C000304600F017FF8046BDF8000085030BE0A1
:1025D00001A9304600F005FF8046BDF80400450221
:1025E00002E06FF0030800BF00BFB8F1000F11D187
:1025F00045B906F5627050F824503D600021001F77
:10260000015507E03D6006F5627040F82450012155
:10261000001F01554046BDE8FC8170B504460D46DB
:1026200000262946204602F0D4F80646304670BD02
:102630002DE9F04786B007460D460024002005909E
:102640000490039002908246019028602CB905AA5C
:102650000521384600F088F804462CB904AA062162
:10266000384600F081F8044634B902AB03AA01A948
:10267000384600F0EEFF0446002C4CD197F87C83DE
:10268000B8F1030F18D0B8F1040F03D0B8F1080F58
:102690003DD127E09DF81400012803D09DF81000DB
:1026A000012805D141F28831029800EB010A02E0CD
:1026B000029800F57A7A2DE09DF81400012803D0E5
:1026C0009DF81000012806D146F2E8710222029816
:1026D00002FB001A05E045F260410222029802FB6B
:1026E000001A17E0F5266A4648F23601384600F02F
:1026F000FCFF0098002803DDF521009800FB01662F
:1027000006F6DC590221029801FB009A02E06FF004
:10271000070400BF00BF0CB9C5F800A0204606B0F2
:10272000BDE8F0872DE9F041A2B080460C460026B6
:1027300001ADFF221C212046FDF736FD2A4602216D
:10274000404600F0E4FD064656B9A87820712F1DDA
:102750000094EA783B4601214046FFF71DFC0646FF
:10276000304622B0BDE8F0812DE9F04104460D4627
:102770001646002732462946204600F03BFF074612
:102780003846BDE8F0810146002000220A6070470B
:102790002DE9F04107460D46144600262346012246
:1027A0002946522002F0C2FF3046BDE8F081000009
:1027B0002DE9F04107460D4614460026074B02223C
:1027C0002946522002F0B2FF0448407803490978B4
:1027D00000EB012020803046BDE8F0811000002091
:1027E0002DE9F04180460E4614461D460027EAB208
:1027F00023463146522002F099FF3846BDE8F08169
:102800002DE9FF4706460D46002496F87C93012DDE
:1028100007D0022D05D0032D03D0201F04B0BDE842
:10282000F08734B9012D01D0022D01D12F4600E0EF
:10283000032724B96946304601F086F80446D6F8E5
:10284000148034B903AB02AA01A9304600F001FF9D
:10285000044634B943463A4649463046FFF763FBDF
:10286000044634B940F27E308755401C8755801E9F
:10287000855544B9304601A90EC902F064FC0446EE
:102880000CB90398306124B96946304602F083FCE4
:1028900004462046C2E72DE9F04106460C460027D3
:1028A0002546A8014FF47A71B0FBF1F005442946A2
:1028B000304602F021FB07463846BDE8F0812DE99D
:1028C000F04105460C4616460027B846022C01DBAF
:1028D0003F1F0DE016B94FF0000803E005F56270E8
:1028E00050F82480424621462846FFF7FCFA074666
:1028F00037B90EB1012100E0002105F561700155E5
:102900003846BDE8F0812DE9F04105460C461646F3
:102910000027022C01DB3F1F15E005F5617010F860
:102920000480B8F1000F03D1001D40F824600AE0D4
:10293000324621462846FFF7D6FA07461FB905F565
:10294000627040F824603846BDE8F0812DE9F04F10
:1029500087B006460D460024DFF8109144488542B2
:1029600000D9241F2CB906AA05213046FFF7FCFE2A
:1029700004462CB905AA06213046FFF7F5FE0446A9
:1029800034B904AB03AA02A9304600F062FE044643
:10299000002C63D196F87CB300274FF0010ABBF1FD
:1029A000030F14D0BBF1040F03D0BBF1080F36D1D5
:1029B0001FE09DF81800012803D09DF8140001289D
:1029C00002D141F2883701E04FF47A772AE04FEAEA
:1029D00049099DF81800012803D09DF8140001282A
:1029E00002D146F2E87701E045F260474FF0020A73
:1029F00018E04FEA49094FF0F50801AA48F23601FC
:102A0000304600F072FE0198002803DDF5210198A0
:102A100000FB018808F6DC574FF0020A02E06FF075
:102A2000070400BF00BFBD4202D86FF0030401E0FD
:102A3000E81B049094B90498484502D96FF0030448
:102A400009E00498B0FBFAF00490304602A90EC9E0
:102A500002F079FB04460CB90498306114B94FF4C4
:102A600060708551204607B0BDE8F08F70640800A3
:102A7000809698002DE9F04107460C460025032674
:102A80004FF47A73324621463846FFF74CFA054632
:102A9000BDB940F27E30C655401CC655042C03D04B
:102AA000032C01D0082C06D14AF228013846FFF742
:102AB0004DFF054605E048F235213846FFF746FF51
:102AC00005462DB94FF47A713846FFF7E4FE054606
:102AD0002846BDE8F0812DE9FC410446002594F824
:102AE0007873042F14D007DC7FB1012F0ED0022F92
:102AF0000DD0032F12D106E0052F0AD0622F09D086
:102B0000632F0BD107E000250BE000BF00BF00BF23
:102B100000BF00BF00BF6FF00D0502E06FF00205BF
:102B200000BF00BFA678C5B9402E16D101A9204626
:102B3000FFF77EFD80464FF47A710198B0FBF1F00B
:102B4000019069462046FFF70BFD8046DDE9001045
:102B5000001D814201D26FF003052DB906223146D6
:102B6000204601F022FC054615B9042084F87803BC
:102B70002846BDE8FC8170B504460025032084F892
:102B800078032026A670032140F27F300155401EB5
:102B90000155401E015508212046FFF76BFF0546F1
:102BA000284670BD70B504460025204602F018FB8B
:102BB000054615B9032084F87803284670BD70B522
:102BC000044600254FF4FA71204601F0EEFE05465A
:102BD000284670BD70B505460C46204602F0EDFB58
:102BE000002070BD70B506460C464FF47A7094FB19
:102BF000F0F5284602F0E1FB002070BD2DE9FF4F03
:102C0000ADF5037D0E4617469846DDF840A2DDF887
:102C10004492002400208290819083468090002579
:102C200040F2FF121AA16846FDF7D0FA82A8FFF71A
:102C3000AAFD1EE02CB980AA39468398FFF7A8FDAB
:102C400004469DF8000200EA0A00404500D1012533
:102C500044B93DB9B9F1000F04D049468398FFF754
:102C6000B9FF044681A8FFF78EFD82998198A0EBF9
:102C7000010B1CB9B34501D2002DDBD015B90CB93D
:102C80006FF0060420460DF5077DBDE8F08F0000CB
:102C9000000000002DE9F04180460E4614461D4616
:102CA0000027EAB223463146522002F074FD38462E
:102CB000BDE8F081F0B504460D4600260027204609
:102CC00000F0D2FA06462946304600F0BAF8074628
:102CD0003846F0BDF0B504460D46002600272946CB
:102CE000204600F05BF80646304600F0E1FA074661
:102CF0003846F0BD2DE9F04106460D4600BF00BF45
:102D000000BF304600F00FF80746284600F0B3FA3F
:102D1000804607EBC7000402A40904FB08F4A409D9
:102D20002046BDE8F081014600204FF0804292FB32
:102D3000F1F070472DE9F04305460C460021884626
:102D4000002600278C4628014FF47A7990FBF9F68B
:102D5000002C01DA604207B2002A02DA50420FFA70
:102D600080FC4FEA471909EB4C114FF47A7091FB44
:102D7000F0F13144594301F110004FEAE07900EBE2
:102D8000D9694FEA6911B1F5803F02DB4FF6FF7850
:102D900001E01FFA81F84046BDE8F08302460020BA
:102DA000130303EB5103B3FBF1F070472DE9FC5F14
:102DB00082460F4690461E46DDE90CB40020019085
:102DC0000090814600251EB96FF00E00019035E09D
:102DD000A1793046FFF78EFF009050460099FFF72B
:102DE000DDFF8146B9F1FF0F01D94FF0FF098BF8E4
:102DF000079038460099FFF76DFF0546280A2070B6
:102E0000657040460099FFF765FF0546280A207166
:102E10006571617A3046FFF76DFF00903846009982
:102E2000FFF758FF0546280AA070E5704046009954
:102E3000FFF750FF0546280AE07125720198BDE8AA
:102E4000FC9FF0B503460C46002000BFA3FB041511
:102E50002A464FF4006C11EB0C0142F100020D0BFD
:102E600045EA02510846F0BDF0B5014600200A4689
:102E700002F12C0302F5E77400250026002794F8E0
:102E800001C00CF01F05E67894F800C00CF0200C8F
:102E90004FEA2C1792F8CCC10CF0200CBCF1200F9B
:102EA00015D193F804C0BCF1060F04D1122D0ED039
:102EB0006FF010000BE093F805C0B44501D06FF03F
:102EC000110093F806C0BC4501D06FF01200F0BDB0
:102ED00070B505460E4600242CB90322314628461B
:102EE00001F063FA0446204670BD10B50346002089
:102EF00001245470002494708B244C744FF4484483
:102F00001C8202249C7210BD10F8102F0A704278A7
:102F10004A7082788A70C278CA7002790A714279DE
:102F20004A7182798A71C279CA71027A0A72427AC6
:102F30004A72827A8A72C27ACA72027B0A73427BAE
:102F40004A73827B8A73C27BCA73027C0A74427C96
:102F50004A74827C8A74C27CCA74027D0A75427D7E
:102F60004A75827D8A75C27DCA75027E0A76427E66
:102F70004A76827E8A76C27ECA76027F0A77427F4E
:102F80004A77827F8A77C27F1038CA7770472DE9E7
:102F9000F0410746144600250022002691F803C0A0
:102FA00083F802C0181D00BFB5E005704FF0000C9B
:102FB000C0F804C091F803C0BCF1000F0BD191F828
:102FC00001C00CF01F0CBCF1090F04D14FF0130C21
:102FD00080F83EC005E091F801C00CF01F0C80F8AD
:102FE0003EC015B1012D51D151E091F802C0BCF1A4
:102FF000070F04D1B1F812C0A0F810C00DE091F88D
:1030000002C0BCF1080F04D1B1F814C0A0F810C080
:1030100003E0B1F804C0A0F810C0B1F810C0A0F8E7
:103020002CC0B1F816C0A0F82EC0B1F808C0A0F8A6
:1030300030C0B1F80AC04FEA4C16B6F5803F01D354
:103040004FF6FF760687B1F80CC0A0F83AC0CA89DF
:103050007A4302F5806294464FEAE27802EB5858D0
:103060004FEAE8220FFA82FCA0F83CC0D4F804C072
:10307000C0F824C0D4F808C0C0F828C0D4F80CC0E8
:10308000C0F814C0D4F800C0C0F820C03DE0B1F8CA
:1030900018C0A0F810C0B1F81AC0A0F82CC04FF6A4
:1030A000FF7CA0F82EC0B1F81CC0A0F830C0B1F869
:1030B0001EC04FEA4C16B6F5803F01D34FF6FF769F
:1030C0000687B1F820C0A0F83AC04A8C7A4302F5CE
:1030D000806294464FEAE27802EB58584FEAE822C1
:1030E0000FFA82FCA0F83CC0D4F814C0C0F824C089
:1030F000D4F818C0C0F828C0D4F81CC0C0F814C058
:10310000D4F810C0C0F820C000BF00BF403005F1A7
:10311000010C0CF0FF05022DFFF647AF4FF0000C3D
:1031200083F803C091F801C00CF01F0CBCF1030F31
:1031300010D006DCBCF1010F0AD0BCF1020F16D191
:1031400007E0BCF10D0F06D0BCF1110F0FD103E069
:1031500000BF00BF00BF00BF91F801C00CF01F0C02
:1031600083F803C04FF0000883F8428000BF00BF1F
:10317000BDE8F081FEB505460F4600262C466221CB
:10318000284601F04CFA00202070012060700020D9
:10319000A0700120E07020714FF47A70A0604000B0
:1031A000E06043F2C8202061642060614FF4206039
:1031B0002083002084F8210040F2DB70A4F89C00FA
:1031C000284601F0C5FA002F04DD1EB9284601F09B
:1031D00045FE064604F5887001F047FA064604F5F8
:1031E000907001F053FA064604F5967104F142001E
:1031F00001F0BCFA064604F5A27001F023FA064677
:1032000004F1A40001F052FA06462021284601F0FC
:10321000D7FF064666B9D4E903126069CDE900120A
:103220000290228B61782846A36801F08AFE064648
:10323000284601F0F8FA3046FEBD7F280BDDC0F1CC
:10324000FF0303F0070308330B70A0F18003C3F3FF
:10325000C703137007E000F007030B70C0F17F0392
:10326000C3F3C7031370704701460020CAB20B0AAC
:103270009A40501C7047014600204A1C5206100E0E
:1032800070470311137000F00F030B70704710B5F7
:10329000072807DD802303EBC103C0F10F0423449B
:1032A000137004E0C1F10F0300EBC303137010BDF2
:1032B00010B5014600200022002361B14A1E02E041
:1032C00052085C1CA3B222F0FF04002CF8D1144673
:1032D00063F31F24A0B210BD00EB011313707047FD
:1032E00070B586B006460D46002434B917236A46E9
:1032F0000D213046FFF774FA04462CB92A46694678
:10330000172000F078FB0446204606B070BD2DE97A
:10331000F04707468946904600253C4607F53D7A2A
:10332000564625B94946384600F06DF8054645B978
:10333000B4F89C00334604F5227204F5E771FFF7F8
:1033400026FE40F2E520005D012821D165B940F25A
:10335000E620005D40B9384601F0A7FA0546012194
:1033600040F2E620015509E045B940F2E620005D53
:10337000012803D1022140F2E620015540F2E62067
:10338000005DFF2804D01DB9384601F0BFFA05469C
:1033900094F82C0030703020005D7070842231462B
:1033A0004046FCF7E1FE1DB93846FFF75DFD0546D6
:1033B0002846BDE8F08730B502460B46002011468E
:1033C0004FF42D74645A0CB96FF00E0040B94FF4ED
:1033D000D67465584FF42D74645AB5FBF4F41C6030
:1033E00030BD10B50246002013464FF4D474E45AA1
:1033F0000C8010BD10B50246002013464FF4D37464
:10340000E45A0C8010BD2DE9F04FC3B004460F46BE
:103410000025A04608F5E77A08F5227B08F52B7011
:1034200002908826A94600200190012F06D0022F85
:1034300009D1C6F5877080B2019007E0C6F1D500CA
:1034400080B2019002E02C20019000BF00BF35B98E
:1034500003AA31462046019BFFF7C2F90546022F19
:103460000CDB5DB9C6F1D6001FFA80F903A800EBAA
:1034700009013820029A00F010FB0546012F0CDBF1
:103480005DB9C6F1B4001FFA80F903A800EB090189
:103490005A46212000F06FFA05464DB94FF0000959
:1034A00003A800EB090152462C2000F0B2FC0546AF
:1034B000284643B0BDE8F08F2DE9FC4105460C4697
:1034C0004FF000082E46002001900090002796F84B
:1034D0002A0201AA6946FFF7B0FE9DF80400207099
:1034E0009DF80000607096F82B723811E07007F0BC
:1034F0000F00A0704046BDE8FC8170B58EB0064656
:103500000D4600243CB9312301AA40F20F11304688
:10351000FFF766F904462CB92A4601A9312000F0CC
:10352000A6FB044620460EB070BD2DE9F0410646CC
:103530000F46DDE9064500203146072F2ED007DC77
:10354000072F51D2DFE807F0501314151617290082
:10355000242F36D006DC082F21D0112F0CD0122FAB
:1035600042D11DE0252F2DD0262F3DD12BE000BFCD
:1035700000BF00BF00BF00BFB1F8CAC0A2F800C0C2
:10358000D1F8D0C0C3F800C0D1F8D8C0C4F800C08A
:10359000D1F8E4C0C5F800C029E000BF00BF00BFFB
:1035A000B1F8CCC0A2F800C0D1F8D4C0C3F800C0B4
:1035B000D1F8DCC0C4F800C0D1F8E8C0C5F800C03C
:1035C00015E000BF00BFB1F8CCC0A2F800C0D1F830
:1035D000D4C0C3F800C0D1F8E0C0C4F800C0D1F82E
:1035E000ECC0C5F800C002E06FF0030000BF00BFF0
:1035F000BDE8F08170B5034600201D46012407296F
:103600000FDC002902DD01268E40F4B240F2C5161F
:10361000765D26401670002905DD16780E4116707D
:1036200001E06FF0030070BDFEB506460D460024B4
:1036300034B90B236A4601213046FFF7D1F804461E
:103640002CB92A4669460B2000F0B2FB04462046FE
:10365000FEBD2DE9F05F05460E46174698464FF031
:10366000000A2C46D346D1464FF4AF70005B08B930
:103670006FF00E0ABAF1000F34D14FF4D172115D20
:103680004FF4AF72105BFFF735FB834640F28B11AE
:10369000085D5946FFF7D5FB306094F89C9140F2E5
:1036A0009D10005D00EB09201FFA80F9594648463D
:1036B000FFF700FB38604FF4D07010F80490401C06
:1036C000005D00EB09201FFA80F959464846FFF7D4
:1036D000F1FAC8F800003068A0603868E060D8F8F7
:1036E000000020615046BDE8F09F70B503460C46CF
:1036F00000201946A4F50045392D6FD2DFE805F00A
:103700001D2125292D3135393D4145494D51555909
:103710005D61666A6F73777B7F83878B8F93989CDD
:10372000A1A6ABB0B5B9BEC3C8CDD2D7DCE1F1F527
:10373000F9FDECEBEAE9E8E7E600B1F8A450156022
:1037400000E1A6256D5A1560FCE0A8256D5A1560AC
:10375000F8E0B0256D5C1560F4E0B1256D5C156096
:10376000F0E0B2256D5A1560ECE0B1F89C501560A0
:10377000E8E0B4256D5C1560E4E0B6256D5A15608F
:10378000E0E0B8256D5A1560DCE0BA256D5A156089
:10379000D8E0BC256D5A1560D4E0BE256D5A156081
:1037A000D0E0C0256D5A1560CCE0C2256D5C156077
:1037B000C8E0C3256D5C1560C4E091F8C450156085
:1037C000C0E04FF4A0756D5C1560BBE091F8C5508A
:1037D0001560B7E091F8C7501560B3E0ADE091F81F
:1037E000C8501560AEE0B1F93E511560AAE0AA25B7
:1037F0006D5C1560A6E0AB256D5C1560A2E0AC25A4
:103800006D5C15609EE0AD256D5C15609AE0AE259F
:103810006D5C156096E0AF256D5C156092E091F8E7
:10382000C65015608EE04FF4B0756D5C156089E090
:1038300091F81051156085E040F211156D5C15602E
:1038400080E04FF48A756D5815607BE04FF48C75FD
:103850006D5A156076E04FF48D756D5A156071E004
:103860004FF48E756D5A15606CE0B1F844511560D7
:1038700068E04FF4A4756D58156063E04FF4A875C7
:103880006D5815605EE04FF4A6756D58156059E0EF
:103890004FF4AA756D5C156054E040F255156D5CEF
:1038A00015604FE04FF4AB756D5C15604AE040F277
:1038B00021156D5C156045E04FF491756D5C1560E8
:1038C00040E04FF494756D5A15603BE031E02CE018
:1038D00027E022E01DE018E013E00EE009E004E03C
:1038E000FFE7CA256D5A15602CE0CC256D5A15608E
:1038F00028E0D0256D58156024E0D4256D5815605A
:1039000020E0D8256D5815601CE0DC256D58156049
:1039100018E0E4256D58156014E0E8256D58156031
:1039200010E091F8E45215600CE0E0256D58156048
:1039300008E0EC256D58156004E06FF00045156057
:10394000A80000BF00BF70BD2DE9F04105460C4640
:1039500000272E4640F2C311885D2246611CFFF706
:103960006CFC4FF4E271885DE21CA11CFFF789FC3E
:103970003846BDE8F0812DE9F04106460D46144673
:103980000027212E03DA6FF00900BDE8F0812946F7
:10399000042000F0DFFA2060291D042000F0DAFA8C
:1039A000606005F10801042000F04FF9A06005F106
:1039B0000C01042000F0CEFAE06005F110010420B3
:1039C00000F0C8FA206105F11401042000F0C2FAE9
:1039D000606105F11801042000F037F9A06105F1DC
:1039E0001C01042000F0B6FAE06195F8200084F88C
:1039F00020003846C9E72DE9F04106460C46154639
:103A00000027172E03DA6FF00900BDE8F081207857
:103A1000287060786870A078A870E078E8702079E5
:103A20002871607900F00F006871A079A871E079C1
:103A300000F03F00E871207A00F00300287204F1E2
:103A40000901022000F077FA688104F10B010220DD
:103A500000F0E8F8A88104F10D01022000F0E2F87E
:103A6000E88104F10F01022000F065FA288204F1D8
:103A70001101022000F0D6F8C0F30C00688204F1B6
:103A80001301022000F0CEF8A88204F115010220F3
:103A900000F0C8F8E8823846B7E72DE9F04106465D
:103AA0000D4614460027382E03DA6FF00900BDE8F2
:103AB000F0812946022000F03EFA2080A87800F02C
:103AC0007F00A070E87800F03F00E070287900F0F7
:103AD00003002071687900F001006071A87900F09E
:103AE0003F00A071E87900F03F00E07105F10801A6
:103AF000022000F020FAC0F309002081A87A00F02B
:103B00000300A072E87A00F00300E072287B00F066
:103B10000F002073687B00F007006073A87B00F043
:103B20000100A073E87B00F00300E073287C2074A0
:103B3000687C607405F11201022000F0FCF9C0F30A
:103B40000B00608205F11601022000F0F4F9A0825A
:103B500005F11801022000F0EEF9E08215F81A0FC5
:103B600000F0010004F8180F687800F0070060709A
:103B7000A878A070E878E070287900F07F002071C4
:103B8000687900F07F006071A87900F00300A071EF
:103B9000E87900F00F00E071287A2072687A60728C
:103BA000A87AA072E87A00F00100E072287B00F0A9
:103BB00003002073687B00F01F006073A87B00F097
:103BC0001F00A073E87B00F01F00E073287C00F06A
:103BD00001002074687C00F001006074A87C00F093
:103BE0000300A074E87C1A3D00F03F00E07405F18A
:103BF0002E01042000F0AEF9C0F31100606105F160
:103C00003201042000F0A6F9A06195F8360000F01A
:103C10000100207795F8370000F001006077183C2C
:103C2000384644E710B5024600200B78802B00DBB5
:103C3000401E04E011F8014B44EA002318B2131EA1
:103C4000A2F10104A2B2F5DC10BD10B502460020BD
:103C50000B78802B00DB401E03E011F8014B44EA97
:103C60000020131EA2F10104A2B2F6DC10BD2DE962
:103C7000F04106460C4615460027312E03DA6FF058
:103C80000900BDE8F0812078287060786870A0781D
:103C9000A870E11C022000F04EF9A88014F8050F6E
:103CA00000F07F0005F8060F607800F007006870EC
:103CB000A07800F00700A870E07800F03F00E870FE
:103CC000207900F03F002871607900F001006871F0
:103CD000A07900F07F00A871E07900F00100E871A0
:103CE000207A00F03F002872607A00F03F0068728E
:103CF000A07AA872E07AE872207B2873607B6873F0
:103D0000A07BA873E07BE873207C2874607C6874D7
:103D1000A07CA874E07CE874207D2875607D6875BF
:103D2000A07DA875E07DE875207E2876607E6876A7
:103D3000A07EA876E07EE876207F2877607F68778F
:103D4000A07FA877E07FE87794F8200085F820002E
:103D500094F8210085F8210094F8220085F82200CB
:103D600094F8230085F8230094F8240085F82400B3
:103D700094F8250085F8250094F8260085F826009B
:103D800094F8270085F8270094F8280085F8280083
:103D900094F8290085F8290094F82A0085F82A006B
:103DA00094F82B00641F85F82B00AD1F384668E798
:103DB0002DE9F04106460C46154600270B2E03DA86
:103DC0006FF00900BDE8F081207800F07F002870D6
:103DD000607800F00F006870A07800F07F00A87095
:103DE000E07800F00300E870207900F07F0028718F
:103DF000611D022000F09FF8E880E0792872207AA7
:103E00006872607A00F03F00A872A07AE8723846C3
:103E1000D8E72DE9F04106460C46154600272C2E22
:103E200003DA6FF00900BDE8F081207800F03F0070
:103E3000287060786870A07800F00F00A870E078B3
:103E4000E870211D022000F076F8A880A11D022054
:103E500000F071F8E88004F10801022000F06BF82E
:103E6000288104F10A01022000F065F8688104F15C
:103E70000C01022000F05FF8A88104F10E0102207D
:103E800000F059F8E88104F11001022000F053F825
:103E9000288204F11201022000F04DF8688204F13A
:103EA0001401022000F047F8A88204F11601022054
:103EB00000F041F8E88204F11801022000F03BF81C
:103EC000288304F11A01022000F035F8688304F118
:103ED0001C01022000F02FF8A88304F11E0102202B
:103EE00000F029F8E88304F12001022000F023F813
:103EF000288404F12201022000F01DF8688404F1F6
:103F00002401022000F017F8A88404F12601022001
:103F100000F011F8E88404F12801022000F00BF809
:103F2000288594F82A0085F82A0094F82B0085F853
:103F30002B00384677E710B50246002004E011F860
:103F4000014B44EA002398B2131EA2F10104A2B26D
:103F5000F5DC10BD10B50246002003E011F8014B5E
:103F600044EA0020131EA2F10104A2B2F6DC10BD47
:103F70002DE9F04104460E4615460027172E03DAB8
:103F80006FF00900BDE8F0812078287060786870D3
:103F9000A078A870E078E87020792871607900F046
:103FA0000F006871A079A871E07900F03F00E87116
:103FB000207A00F003002872608905F109020221CD
:103FC00000F0D3F9B4F90C0005F10B02022100F066
:103FD000B4F8B4F90E0005F10D02022100F0ADF8BD
:103FE000208A05F10F02022100F0BFF9618AC1F3B6
:103FF0000C0005F11102022100F09FF8B4F9140041
:1040000005F11302022100F098F8B4F9160005F149
:104010001502022100F091F83846B3E72DE9F0418E
:1040200004460E4615460027122E03DA6FF00900EB
:10403000BDE8F081207800F00300287060886A1CD9
:10404000022100F092F9A088EA1C022100F08DF90B
:10405000A07900F001006871E07900F00700A87114
:10406000207AE871607A2872A07A00F07F00687286
:10407000E07A00F07F00A872207B00F00300E87275
:10408000607B00F003002873A07B00F00F006873D2
:10409000E07BA873207CE873607C2874A07C00F02F
:1040A000030068743846C3E72DE9F04104460E4624
:1040B00015460027162E03DA6FF00900BDE8F081DF
:1040C0002078287060786870A078A870E07800F098
:1040D0007F00E870A188C1F30B002A1D022100F0C7
:1040E00044F9A07900F07F00A871E079E871207AA6
:1040F0002872607A00F001006872A07A00F0070070
:10410000E872A08905F10C02022100F02EF9E08985
:1041100005F10E02022100F028F9208A05F11002B3
:10412000022100F022F9A07CA874E07CE874207DD4
:104130002875607D68753846C0E770B50346002075
:1041400000241C4600BF05E00D1A6D1E54552412B4
:10415000451CA8B28842F7DB70BD2DE9F04104464A
:104160000E4615460027202E03DA6FF00900BDE841
:10417000F08120882A46022100F0F7F8A07800F0AC
:104180000100A870E07800F00F00E870207900F0DE
:104190000F002871607900F01F006871A07900F0AD
:1041A0007F00A871E07900F07F00E871207A00F0CC
:1041B00001002872607A6872A07A00F00100A8728B
:1041C000E07A00F00300E872207B00F01F00287303
:1041D000607B00F003006873A07B00F00300A8730D
:1041E000E07B00F00700E873207C00F01F002874DB
:1041F000607C00F001006874A07CA874E07CE87426
:10420000207D2875607D6875A07DA875E07DE875C6
:10421000208B05F11802022100F0A7F8A07EA876F5
:10422000E07EE876207F00F00F002877607F6877D7
:10423000A07F00F00F00A877E07FE877384696E788
:104240002DE9F04104460E46154600270B2E03DAF1
:104250006FF00900BDE8F081207800F07F00287041
:10426000607800F00F006870A07800F07F00A87000
:10427000E07800F00300E870207900F07F002871FA
:10428000E0886A1D022100F070F8207AE871607AF7
:104290002872A07A00F03F006872E07AA87238466F
:1042A000D8E710B503460024052902DA6FF00900AB
:1042B00010BD187800F001001070587800F001006F
:1042C0005070987800F001009070D87800F00300EA
:1042D000D070187910712046EAE72DE9F0410446C4
:1042E0000E4615460027172E03DA6FF00900BDE8C9
:1042F000F081207800F00F00287060786870A07856
:1043000000F00F00A870E078E870207900F00F004E
:10431000287160796871A07900F03F00A871E07998
:1043200000F00F00E871207A2872607A00F03F00F8
:104330006872608905F10A02022100F016F8A0896E
:1043400005F10C02022100F010F8A07BA873E07BBD
:10435000E87305F112020421206900F016F8207DAF
:1043600000F00100A8753846C1E770B5034600208B
:1043700000241C4600BF05E00D1A6D1E5455241282
:10438000451CA8B28842F7DB70BD70B5034600201B
:1043900000241C4600BF05E00D1A6D1E5455240A6A
:1043A000451CA8B28842F7DB70BD2DE9F74FCAB0B3
:1043B0000546174600262C4604F5AC70099004F11A
:1043C0004200089004F5B270079020300690183033
:1043D000059004F5DA7A04F5E47B04F12C000490EE
:1043E0000AA80390002002908046814601904B98D5
:1043F000A0709BF8040000F00F004B9908438BF865
:1044000004004FF4A170015B4FF4BE70015340F201
:10441000E620005DFF2803D1002140F2E62001558F
:1044200040F2E520005D012820D140F2E620005D49
:10443000E0B94FF4C370015D40F2E720015520213F
:104440004FF4C370015540F2C510005D00F06000EC
:1044500030B95820005B800001B25420015302E0C3
:10446000002154200153052F00DA052740F2E520F2
:10447000005D01280BD140F2E620005D012806D145
:1044800040F2E720015D4FF4C37001550627072F66
:1044900017D2DFE807F01613100D0A0704004FF0DB
:1044A000010811E04FF00D080EE04FF024080BE07A
:1044B0004FF0440808E04FF05A0805E04FF071084B
:1044C00002E04FF0830800BF00BFC8F1880080B24F
:1044D00001900AA803900020029009E000210398AF
:1044E00001700398401C03900298401C80B2029017
:1044F000DDE901108842F1DB062F0CDB5EB9C8F163
:1045000001001FFA80F90AA800EB09020B210998A3
:10451000FFF796FE0646052F0CDB5EB9C8F10D00CD
:104520001FFA80F90AA800EB090217210898FFF783
:104530001FFD0646042F0CDB5EB9C8F124001FFAEC
:1045400080F90AA800EB090220210798FFF705FE71
:104550000646032F0CDB5EB9C8F144001FFA80F950
:104560000AA800EB090216210698FFF79DFD0646F2
:10457000022F0CDB5EB9C8F15A001FFA80F90AA8B5
:1045800000EB090217210598FFF7A7FE0646012F49
:1045900022DB0EBBC8F171001FFA80F99BF8040002
:1045A00000F0200020280FD10498807840F001000E
:1045B0008AF800000498807840F001008AF80C0026
:1045C000049880788AF812000AA800EB09021221E8
:1045D0005046FFF723FD06465EB9C8F183001FFA77
:1045E00080F90AA800EB090205215846FFF759FE99
:1045F000064636B90AAA41462846019BFEF74AFB01
:1046000006461EB9284600F056FE06461EB9284644
:1046100000F010FE064630464DB0BDE8F08F10B5F4
:104620000246134603F12C0001700024447002245A
:1046300084700024C47001714471022484710024C8
:10464000C47110BD014600204FF420620A804FF46F
:104650007A724A6043F2C8228A60CA6008220A74E9
:1046600028224A7409228A747047014600200822D1
:104670000A700B224A704FF47A724A604FF420623B
:104680000A8152104A8192008A81704701460020B7
:1046900000220A7012224A700F228A700222CA7007
:1046A00048F6A0424A600C220A8170470146002069
:1046B00048F203020A80921E4A8048F241028A8030
:1046C0000E228A710A22CA7106220A720E224A72C8
:1046D0000A228A720622CA7202220A7321224A73AD
:1046E0000022CA810A744FF4B4724A828A82CA8252
:1046F000C0220A834A838A8308228A771022CA77D3
:10470000012281F82020022281F82120012281F853
:104710002220022281F82320002281F824204FF455
:104720002062CA840A8548F23002CA624FF47A7263
:104730000A6352004A638A634FF218620A6443F2C2
:10474000C8224A640122CA634FF4FA528A6470474D
:1047500001460123282253540223292253540A23B9
:104760002A2253544FF4E6624A6270472DE9F04121
:1047700005460C46002668892060A889A080E88943
:10478000E0806889A060A889A081E889E081002094
:10479000608240202075206830B9A08820B9E08868
:1047A00010B90020207401E00120207466B9207C3B
:1047B000012809D1237DB4F90620B4F9041020683A
:1047C000FEF7B8FAE08201E00020E0823046BDE862
:1047D000F0812DE9F84304460D460026A146002746
:1047E0000020009080464FF4B87010F8090000F0E7
:1047F000100717B94FF0010801E04FF000086A46B2
:1048000031212046FDF7C4FF06469DF8000000F068
:104810000100404502D10120287001E000202870ED
:104820003046BDE8F88310B5014600200A46032350
:1048300082F8E432002440F2E5239C545B1C9C5433
:104840005B1C9C545B1C9C545B1C9C545B1C9C54CC
:104850009B1C9C501B1D9C5210BD10B50246002095
:104860001146FF2440F2E6235C5400241B1D5C54D7
:104870009B1C5C501B1D5C524FF43A735B5C2BB16C
:104880004FF43A735C5C40F263135C5440F2E923EA
:104890005B5C2BB140F2E9235C5C4FF4B0735C5479
:1048A000002440F28D135C5410BD10B501460A4639
:1048B000002040F263139C5C4FF43A739C544FF415
:1048C000B0739C5C40F2E9239C5440F263139B5C00
:1048D00003F07F0440F263139C5492F8E442DB1E21
:1048E0009B5C64F39F03DCB24FF4B0739C540124CF
:1048F00040F28D139C5440F2AE239C5C40F2EA23BC
:104900009C549C5C40F287139C5410BD30B5034608
:10491000194600204FF4EF74655A4FF4EB74645A53
:104920002A19B2F5803F01D34FF6FF7212044FF4FB
:10493000E974645A14B96FF00E0025E04FF4E9747D
:10494000645AB2FBF4F24FF43B746250B1F8644124
:1049500022044FF43B74645814B96FF00E0013E056
:104960004FF43B746458B2FBF4F2B2F5803F01D3CC
:104970004FF6FF724FF43C746252655A4FF4CA749A
:1049800065520225A41F655400F10F0464B94FF469
:1049900000454FF43C746552655A4FF4CA74655231
:1049A0000225A41F6554002030BD7CB505460E4687
:1049B00000244FF496612846FEF714F904464CB9DA
:1049C000012000900346E522314601902846FEF77B
:1049D00015F904461CB903212846FFF720FE20469E
:1049E0007CBD2DE9FC5F07460C4690461D46DDE97F
:1049F0000DABDDF8309000262B4642462146384666
:104A0000CDE9009A00F0D5F906462EB95A46294656
:104A10002046FEF76AFA06463046BDE8FC9F2DE9BF
:104A2000FC5F07460C4690461D46DDE90DABDDF800
:104A3000309000262B46424621463846CDE9009A62
:104A400000F08DF906462EB95A4629462046FEF753
:104A50004CFA06463046BDE8FC9F2DE9FC5F074650
:104A60000C4690461D46DDE90DABDDF83090002682
:104A70002B46424621463846CDE9009A00F0C3F95C
:104A800006462EB95A4629462046FEF72EFA064615
:104A90003046BDE8FC9F2DE9FC4706460F46904690
:104AA0009946DDE90A4A00254B46424639463046DA
:104AB000CDE9004A00F02EF805460DB901206070DE
:104AC0002846BDE8FC872DE9FC4781468A46144606
:104AD0001D46DDE90A674FF000082B462246514685
:104AE0004846CDE9006700F015F88046B8F1000FA0
:104AF0000DD10020A8742071B12060710020E071F8
:104B0000D420207297F82200E871102030714046BE
:104B1000BDE8FC87F0B50446DDE9056500204FF4EB
:104B2000206727800027A770E77027716771A7713A
:104B3000E77127726772A772E7721127277302273E
:104B400067730027A7730227E773082727740027D6
:104B500067740835AF7DA774EF7DE7742F7E2775E6
:104B6000012767750027A775E7752783FF27A776B5
:104B70002F7AE7762F79277700276777A777E77768
:104B80000F704F7020278F700B27CF70EF888F80AA
:104B900002278F710D27CF716F790F7200274F7227
:104BA00001278F7200278F81CF814FF40C470F822E
:104BB00000278F743827CF74FF270F7501274F7593
:104BC000002717701A275770002797702027D77073
:104BD00001271771CC2757710B2797710127D771C0
:104BE000F527177209275772AF8957816F8A978106
:104BF000082797737827D773002717611775012740
:104C00001F7000275F809F809F716F7EDF710B2771
:104C10001F7209275F7215F8017C9F72AF78DF72EF
:104C200001271F732F7F5F73EF7E083D9F73C72798
:104C3000DF73FF271F74DB275F7402279F74002731
:104C400077700127B770F77021273771F0BD2DE914
:104C5000FC478046894614461D46DDE90AA6002722
:104C60002B46224649464046CDE900A6FFF752FFB3
:104C700007469FB90F20A0710D206072708A608175
:104C8000308BA0810820A073B820E0730F20287219
:104C90000D206872B079A872707AE8723846BDE863
:104CA000FC872DE9FC4707460C4690461D46DDE98A
:104CB0000A9A00262B46424621463846CDE9009AFC
:104CC000FFF728FF06461EB90220A0723B20687439
:104CD0003046BDE8FC872DE9FC4707460C46904668
:104CE0001D46DDE90A9A00262B46424621463846F3
:104CF000CDE9009AFFF70EFF06461EB90220A0720A
:104D00005B2068743046BDE8FC872DE9FC4780468F
:104D1000894614461D46DDE90AA600272B46224691
:104D200049464046CDE900A6FFF7F4FE07469FB985
:104D30000720A07105206072F08A6081B08BA0818D
:104D40000820A0733820E0730720287205206872BD
:104D5000307AA872F07AE8723846BDE8FC872DE90F
:104D6000FC4781468A4614461D46DDE90A674FF036
:104D700000082B46224651464846CDE90067FFF71A
:104D8000C9FE8046B8F1000F10D10020A874207130
:104D9000B12060710020E071D42020724FF4C06017
:104DA000206197F82200E871402030714046BDE84C
:104DB000FC872DE9FC4781468A4614461D46DDE9FD
:104DC0000A674FF000082B46224651464846CDE977
:104DD0000067FFF73CFF8046B8F1000F10D10020BC
:104DE000A8742071972060710020E071B1202072BA
:104DF0004FF4C060206197F82200E87140203071C4
:104E00004046BDE8FC872DE9FC4781468A461446AA
:104E10001D46DDE90A674FF000082B462246514641
:104E20004846CDE90067FFF770FF8046B8F1000FF4
:104E300011D10020A874012020718420607101200C
:104E4000E071B12020724FF4C060206197F8220019
:104E5000E871402030714046BDE8FC8770B50646D9
:104E6000002534462DB904F5AC713046FEF7DCFB65
:104E700005462DB904F142013046FEF731FA0546E8
:104E800065B904F5FD713046FEF737FB05462DB9CF
:104E900004F1F00104F5FD70FEF736F835B904F5BC
:104EA0002D72DE213046FDF783FC05464FF4AF70CE
:104EB000005BB0F5805F04DA4BF6CC414FF4AF7085
:104EC00001532DB904F19E013046FEF7F5FA05466F
:104ED00094F8A20070B9A320005D58B994F89E0020
:104EE0000007000E84F8A2009F20005D0007010E5D
:104EF000A3200155284670BD30B502460B46002060
:104F000011464FF42D74645A0CB96FF00E0038B985
:104F10004B614FF42D74645A5C434FF4D6756C505A
:104F200030BD10B50246002013464FF4D474E15250
:104F300010BD10B50246002013464FF4D374E15261
:104F400010BD2DE9FF4F87B00446894692464FF0C9
:104F50000008274607F5B2700690203005901830FB
:104F600004901830039007F5E47507F1A40607F5DF
:104F7000397B87F801901498F86015983861169875
:104F8000786103212046FFF74AFBB9F1070F5AD099
:104F900008DCB9F1070F74D2DFE809F09E19232D60
:104FA00037414B00B9F1240F77D009DCB9F1080F74
:104FB00053D0B9F1110F5AD0B9F1120F61D162E09B
:104FC000B9F1250F74D0B9F1260FF7D17AE0CDE908
:104FD0000056DDE90332DDE90510FFF79BFD804651
:104FE0007DE0CDE90056DDE90332DDE90510FFF78C
:104FF0008CFE804673E0CDE90056DDE90332DDE941
:105000000510FFF724FE804669E0CDE90056DDE992
:105010000332DDE90510FFF744FE80465FE0CDE98D
:105020000056DDE90332DDE90510FFF754FE804646
:1050300055E0CDE90056DDE90332DDE90510FFF763
:105040008EFE80464BE0CDE90056DDE90332DDE916
:105050000510FFF7D8FE804641E0CDE90056DDE9B6
:105060000332DDE90510FFF7A4FE804637E0CDE905
:105070000056DDE90332DDE90510FFF70CFD80463F
:105080002DE029E009E0CDE90056DDE90332DDE954
:105090000510FFF718FD804621E08DE86008DDE986
:1050A0000332DDE90510FFF7D8FC804617E0FFE783
:1050B0008DE86008DDE90332DDE90510FFF7AFFC9C
:1050C00080460CE08DE86008DDE90332DDE905107B
:1050D000FFF787FC804602E06FF0030800BF00BFC7
:1050E000B8F1000F04D10698A0F800A0A7F818A006
:1050F000B8F1000F06D12046DDE914230A9900F02B
:1051000022F88046B8F1000F04D120461699FFF727
:10511000F3FE804640460BB0BDE8F08F7CB50646F6
:105120000D4600242CB96A4605212846FFF7B9F838
:10513000044634B905236A4683213046FDF7AAFDAB
:10514000044620467CBD2DE9FC4705460E46174621
:1051500098464FF000092C464FF4AF70005B08B939
:105160006FF00E09B9F1000F12D1A660E760C4F824
:10517000108004F5CE7004F5C271CDE900104FF433
:10518000AF70035B424639463046FDF70FFE81465D
:105190004846BDE8FC872DE9F04105460C4600274E
:1051A0002E462178607806F2C312FEF770F8E17897
:1051B000A07806F5E272FEF78FF83846BDE8F08178
:1051C00030B50246002013464FF4B074E45C04F09E
:1051D000030404EB8104E5B24FF4B074E55430BD30
:1051E00070B50446002625464FF4E670405D00F099
:1051F0000F0040F080014FF4E670415505F5E47171
:105200002046FFF78BFF06464FF4E670405D00F046
:105210000F014FF4E670415503212046FFF7FFF9D7
:1052200040F2E520405D012802D12046FFF715FB42
:10523000304670BD10B502460020134603F12C0124
:105240004FF4E674E45C04F0F00444B903240C70F9
:1052500000244C7002248C700024CC702AE04C781E
:10526000FF2C02D180244C7002E04C78641C4C70FE
:105270008C7884F002048C700C78032C02D0042CFF
:105280000ED108E0CC7884F00104CC7001244C707D
:1052900004240C700DE0CC7884F00104CC7008E09C
:1052A00003240C7000244C7002248C700024CC70F9
:1052B00000BF00BF10BD10B502460020134603F129
:1052C0002C014FF4E674E45C04F0F00444B90324C8
:1052D0000C7100244C7102248C710024CC713FE0CD
:1052E0004C79FF2C02D180244C7102E04C79641C73
:1052F0004C718C7984F002048C710C79032C06D0EB
:10530000062C14D0072C17D0082C1FD117E04FF40F
:10531000E374E45C04F00204002C02DD06240C714A
:1053200001E008240C7100244C71CC7117E00024BA
:105330004C7108240C7112E008240C710FE0CC7938
:1053400084F00104CC7108240C7108E003240C7172
:1053500000244C7102248C710024CC7100BF00BF6A
:1053600010BD000002480068C0F302207047000032
:105370000CED00E010B5002804DB0A07130E054A07
:10538000135406E00A07140E034A00F00F031B1F14
:10539000D45410BD00E400E018ED00E002E008C8BD
:1053A000121F08C1002AFAD170477047002001E09F
:1053B00001C1121F002AFBD1704710B504464FF4FB
:1053C0007A71614388B200F001F810BD70B50446EF
:1053D0004FF6FF70001B401F85B20948FCF7A4F987
:1053E00007480068456203E005480068406A85B2E6
:1053F0004FF6FA708542F7DB0148FCF7D7F970BD2C
:10540000E4000020FBF7ECFBFCF774FEFCF76AFC01
:10541000FCF7C8FCFCF7E8FCFCF730FDFCF70AFDE4
:1054200000F078FA04E000F0DDF90120FBF70CFA57
:10543000F9E7000010B500200E4908600E4800682A
:1054400020F470200C4908600846006840F44030A1
:10545000086000200949C1F8B0010120FFF7B6FF3C
:10546000012004490860FFF7B1FF00200349C1F89B
:10547000B80110BDB8812142040C014000802142D6
:105480007047000010B500200E4908600E48006803
:1054900020F470200C4908600846006840F4403051
:1054A000086001200949C1F8B001FFF78FFF012012
:1054B00004490860FFF78AFF00200449C1F8B801D9
:1054C00010BD0000B8812142040C0140008021423F
:1054D0002DE9F0410746884615461E46002400F097
:1054E00091F8384600F05CF800F0D8F8404600F03B
:1054F00057F800F0D3F800F085F847F0010000F00D
:105500004FF800F0CBF800BF0CE0681EA04204D1B9
:10551000002000F00DF8305503E0012000F008F8FD
:105520003055641CAC42F0DB00F092F8BDE8F0812D
:1055300070B5054600241748006820F4702015490E
:1055400008600846006840F400200860002616E065
:105550000020114908600120FFF738FF01200F49A2
:10556000C1F8B8016006040E0B488838006808B11D
:10557000601CC4B20120FFF729FF701CC6B2082EC0
:10558000E6DB15B9FFF77EFF01E0FFF753FF20468A
:1055900070BD0000040C0140B8812142008021420E
:1055A00070B504461448006820F470201249086061
:1055B0000846006840F44030086000200F49086049
:1055C000002516E0E0090D49083908606006040E60
:1055D0000120FFF7FBFE01200949C1F8B801FFF7E0
:1055E000F5FE0020054908600120FFF7EFFE681C6A
:1055F000C5B2082DE6DB70BD040C0140B881214224
:105600000080214210B50F48006820F470200D4939
:1056100008600846006840F44030086001200A49EC
:1056200008600A49C1F8B8010420FFF7CFFE002046
:10563000054908600420FFF7C9FE00200349C1F8AE
:10564000B80110BD040C0140B0812142008021420C
:1056500010B50F48006820F470200D490860084616
:10566000006840F44030086000200A4908600A4998
:10567000C1F8B0010420FFF7A9FE01200549086028
:105680000549C1F8B0010420FFF7A0FE10BD0000DD
:10569000040C0140B88121420080214210B5002451
:1056A0001448006820F47020124908600846006819
:1056B00040F40020086001200F490860FFF786FED3
:1056C00001200E49C1F8B801FFF780FE07E0601C19
:1056D000C4B2FA2C03DDFFF7BBFF012010BD064862
:1056E000803800680028F2D103490831086000BF03
:1056F000F4E70000040C0140B08121420080214207
:1057000010B5C02000F001F810BD38B504460020E7
:1057100000906B46022221465220FFF7D9FE9DF8E9
:1057200001009DF8001040EA012038BD2DE9F0414C
:1057300080460D4616461F460024FFF763FF40468D
:10574000FFF72EFFFFF7AAFF2812FFF729FFFFF749
:10575000A5FFE8B2FFF724FFFFF7A0FFFFF752FF16
:1057600048F00100FFF71CFFFFF798FF00BF0CE0B7
:10577000701EA04204D10020FFF7DAFE385503E086
:105780000120FFF7D5FE3855641CB442F0DBFFF76B
:105790005FFFBDE8F0812DE9F04180460C461646DA
:1057A0001F460025FFF72EFF4046FFF7F9FEFFF7E3
:1057B00075FF2012FFF7F4FEFFF770FFE0B2FFF76E
:1057C000EFFEFFF76BFF00BF05E0785DFFF7E8FE37
:1057D000FFF764FF6D1CB542F7DBFFF739FFBDE84B
:1057E000F081000008B50020009000F069F855E055
:1057F00069462B48FCF711FF04469DF80000B8B13C
:1058000028492748FCF78EFF04466CB92549B1F9B1
:105810001800FAF7AFFD06462349FAF73BFD0546A7
:10582000FAF7B6FD214908801D48FCF74DFE0446F5
:105830001E480088B0F5CD7F05DA1D480078401C71
:105840001B49087004E01B480078401C1949087087
:10585000184800781649097808440A281ED11448C7
:105860000078FAF790FD80461349FAF745FD0746A0
:10587000124801683846FAF707FD06460A49FAF762
:1058800009FD05460D4801682846FAF7ABFC0B49AF
:10589000086000200649087006490870A8E7000063
:1058A0007001002010050020CDCCCC3D1E00002052
:1058B0001B0000201C0000200000204120000020D0
:1058C00010B51348FDF77BF904461148FCF716FEA6
:1058D00004460F48FDF74FF9044603210C48FCF736
:1058E0008FFF04464AF6C8710948FDF72FF80446B1
:1058F00032210748FCF7CFFF04460548FDF752F96F
:1059000004460348FDF7E7F80446204610BD0000B2
:105910007001002010B5FFF7B3FD0A20FFF74DFD21
:10592000FFF7EEFE094908800A4640F20F110848C9
:10593000FCF73EFF054800884EF6CC21884201D195
:10594000FFF7BEFF00200149088010BD18000020AD
:1059500070010020000000000000000001020304AC
:105960000607080900000000010203048C59000822
:1059700000000020440000009C530008D05900089B
:1059800044000020EC080000AC53000800000000B8
:1059900010000000010000000024F40000000000DE
:1059A0000000000000000000000000000000803F38
:1059B00004000000E2FFFFFF580200003200000078
:1059C0000800000032000000580200000100000042
:0400000508000131BD
:00000001FF
