:020000040800F2
:100000006805002045010008891C000851180008F7
:10001000851C0008B10100089120000800000000C4
:10002000000000000000000000000000B51C0008F7
:10003000B5010008000000008B1C0008B71C000878
:100040005F0100085F0100085F0100085F01000810
:100050005F0100085F0100085F0100085F01000800
:100060005F0100085F0100085F0100085F010008F0
:100070005F0100085F0100085F0100085F010008E0
:100080005F0100085F0100085F0100085F010008D0
:100090005F0100085F0100085F0100085F010008C0
:1000A0005F0100085F0100085F0100085F010008B0
:1000B0005F0100085F0100085F0100085F010008A0
:1000C0005F0100085F0100085F0100085F01000890
:1000D0005F010008812000085F0100085F0100083F
:1000E0005F0100085F0100085F0100085F01000870
:1000F0005F0100085F0100085F0100085F01000860
:100100005F0100085F0100085F0100085F0100084F
:100110005F0100085F010008291D00085F01000859
:100120005F0100085F0100085F0100085F0100082F
:10013000DFF80CD000F02AF8004800478D220008B4
:10014000680500200648804706480047FEE7FEE7AE
:10015000FEE7FEE7FEE7FEE7FEE7FEE7FEE7FEE777
:10016000251D000831010008D2B201E000F8012B82
:10017000491EFBD270470022F6E710B513460A4627
:1001800004461946FFF7F0FF204610BD064C074D08
:1001900006E0E06840F0010394E807009847103457
:1001A000AC42F6D3FFF7C8FFFC2200081C2300086E
:1001B00000BFFEE7704770470146002291F821001A
:1001C000022808D00420886300BF002081F82000A6
:1001D00000BF012070470868006820F00E000B681F
:1001E00018600868006820F001000B68186091F83A
:1001F000403001209840CB6B5860012081F82100ED
:1002000000BF002081F8200000BF1046E2E7000098
:1002100070B50446002594F82100022803D004207C
:10022000A0630125C1E02068006820F00E0021686D
:1002300008602068006820F00100216808605C49BF
:100240002068884252D95A4978392068884201D1B9
:10025000012047E0564964392068884201D11020C6
:1002600040E0534950392068884201D1801539E077
:100270004F493C392068884201D1801432E04C4912
:1002800028392068884202D14FF480302AE048495A
:1002900014392068884202D14FF4801022E044498A
:1002A0002068884201D140041CE04249206888420D
:1002B00001D1012016E03F4914312068884201D164
:1002C00010200FE03B4928312068884201D1801579
:1002D00008E038493C312068884201D1801401E0AF
:1002E0004FF480303349091F086051E030497839B4
:1002F0002068884201D1012047E02D4964392068F7
:10030000884201D1102040E02949503920688842B4
:1003100001D1801539E026493C392068884201D155
:10032000801432E0224928392068884202D14FF4F3
:1003300080302AE01E4914392068884202D14FF4E7
:10034000801022E01A492068884201D140041CE054
:1003500018492068884201D1012016E0154914315E
:100360002068884201D110200FE01249283120680E
:10037000884201D1801508E00E493C31206888424E
:1003800001D1801401E04FF4803009498039486080
:10039000012084F8210000BF002084F8200000BF65
:1003A000606B10B12046616B8847284670BD000025
:1003B000800002400804024070B5044600F0B6F91F
:1003C00006462546681C10B104480078054400BF65
:1003D00000F0ACF9801BA842FAD370BD08000020E1
:1003E0002DE9F847024600239C467BE14FF00108C7
:1003F00008FA03F4D1F8008008EA0400A0427DD195
:10040000DFF8F4A2D1F80480A8EB0A09D0453AD06D
:1004100014DCB8F1030F50D009DCB8F1000F31D073
:10042000B8F1010F1CD0B8F1020F49D120E0B8F1AA
:10043000110F18D0B8F1120F42D11EE0B9F5881F84
:1004400025D006DCB9F5803F20D0B9F5801F37D123
:100450001AE0B9F5001F18D0B9F5041F30D117E024
:10046000D1F80CC02DE0D1F80C8008F1040C28E084
:10047000D1F80C8008F1080C23E0D1F80C8008F1C9
:100480000C0C1EE000BF00BF00BF00BF00BF00BFDC
:10049000D1F80880B8F1000F02D14FF0040C0BE046
:1004A000D1F80880B8F1010F03D14FF0080C1461A6
:1004B00002E04FF0080C546103E04FF0000C00E044
:1004C00000BF00BFFF2801D8904601E002F10408F8
:1004D0004646FF2802D84FEA830803E0A3F1080844
:1004E0004FEA88084746D6F800804FF00F0909FA0E
:1004F00007F928EA09080CFA07F900E07AE048EA67
:100500000908C6F80080D1F8048008F08058B8F1D6
:10051000805F6FD100BFDFF8E481D8F8188048F021
:100520000108DFF8D891C9F81880C846D8F81880B3
:1005300008F00108CDF8008000BF00BF4FEAB938CD
:100540004FEA930958F829504FEA83784FEA18790F
:100550004FF00F0808FA09F825EA0805DFF8A0812E
:10056000424502D14FF0000824E0DFF8988142456F
:1005700002D14FF001081DE0DFF88C81424502D125
:100580004FF0020816E0DFF88481424502D14FF0B7
:1005900003080FE0DFF87881424502D14FF00408EC
:1005A00008E0DFF87081424502D14FF0050801E014
:1005B0004FF006084FEA83794FEA197908FA09F8EB
:1005C00048EA0505DFF850814FEA930948F82950B9
:1005D000D1F8048008F48038B8F5803F0BD1DFF8FB
:1005E0003C81D8F8008048EA0008DFF83091C9F86B
:1005F00000800AE075E0DFF82481D8F8008028EA5E
:100600000008DFF81891C9F80080D1F8048008F4D8
:100610000038B8F5003F0ED1DFF8008108F104087A
:10062000D8F8008048EA0008DFF8F09009F10409E2
:10063000C9F800800DE0DFF8E48008F10408D8F87C
:10064000008028EA0008DFF8D49009F10409C9F80D
:100650000080D1F8048008F48018B8F5801F0ED10E
:10066000DFF8B88008F10808D8F8008048EA0008E8
:10067000DFF8A89009F10809C9F800800DE0DFF85B
:100680009C8008F10808D8F8008028EA0008DFF804
:100690008C9009F10809C9F80080D1F8048008F4A9
:1006A0000018B8F5001F0ED1DFF8708008F10C08B3
:1006B000D8F8008048EA0008DFF8609009F10C09DA
:1006C000C9F800800DE0DFF8548008F10C08D8F874
:1006D000008028EA0008DFF8449009F10C09C9F805
:1006E00000805B1CD1F8008028FA03F8B8F1000FF5
:1006F0007FF47CAEBDE8F8870000111000100240C6
:1007000000080140000C01400010014000140140AD
:1007100000180140001C0140080001400004014095
:100720000AB1016101E00B040361704701480068F0
:100730007047000000000020034800680349097862
:1007400008440149086070470000002008000020AC
:1007500010B50848006840F0100006490860032002
:1007600000F0A8F8002000F007F800F02BF80020B7
:1007700010BD00000020024070B504460E4800780D
:100780004FF47A71B1FBF0F00C490968B1FBF0F558
:10079000284600F0ADFC08B1012070BD102C07D236
:1007A00000222146501E00F047F80548046001E091
:1007B0000120F2E70020F0E7080000200C000020F4
:1007C0000400002008B500BF1148806940F0010016
:1007D0000F4988610846806900F00100009000BF61
:1007E00000BF00BF0846C06940F08050C86108469D
:1007F000C06900F08050009000BF00BF00BF0549F5
:10080000486820F0E06000BF486000BF08BD0000FD
:10081000001002400000014001460846002809DBA4
:1008200000F01F0301229A4043099B0003F1E023DB
:10083000C3F8002100BF70472DE9F05F80460D46E8
:100840001646002701F026FC074639462A4633465D
:1008500001F00700C0F1070ABAF1040F02D94FF006
:10086000040A01E0C0F1070AD14600F1040ABAF116
:10087000070F02D24FF0000A01E0A0F1030AD446AC
:100880004FF0010A0AFA09FAAAF1010A0AEA020A71
:100890000AFA0CFA4FF0010B0BFA0CFBABF1010B4F
:1008A0000BEA030B4AEA0B042146404601F0FAFB2F
:1008B000BDE8F09F00BF00F00702064B19684FF635
:1008C000FF031940044B0B4343EA0221014B19601B
:1008D00000BF70470CED00E00000FA0570B504465B
:1008E0000D460CB9012070BD5A48006800F00700A1
:1008F000A8420ED25748006820F007002843554907
:1009000008600846006800F00700A84201D00120F6
:10091000E9E7207800F0020002281DD1207800F0DD
:100920000400042805D14C48406840F4E0604A497E
:100930004860207800F00800082805D14648406843
:1009400040F46050444948604348406820F0F0005B
:10095000A168084340494860207800F0010078B35E
:100960006068012806D13C48006800F4003090B966
:100970000120B8E76068022806D13748006800F017
:10098000007040B90120AEE73348006800F0020073
:1009900008B90120A7E73048406820F003006168EB
:1009A00008432D494860FFF7C1FE064609E0FFF7FE
:1009B000BDFE801B41F28831884202D9032092E7B4
:1009C00007E02548406800F00C006168B0EB810F3B
:1009D000EDD12048006800F00700A8420ED91D485C
:1009E000006820F0070028431A490860084600689C
:1009F00000F00700A84201D0012074E7207800F041
:100A00000400042807D11448406820F4E060E1683D
:100A1000084311494860207800F00800082808D1F0
:100A20000D48406820F46050216940EAC1000A493D
:100A3000486000F03FF808494968C1F30311074ACC
:100A4000515CC8400649086006480068FFF794FEFC
:100A5000002048E70020024000100240E422000885
:100A60000C000020040000200148006870470000CE
:100A70000C00002000B5FFF7F7FF04494968C1F3F7
:100A80000221034A515CC84000BD00000010024032
:100A9000F422000800B5FFF7E7FF04494968C1F3F5
:100AA000C221034A515CC84000BD00000010024052
:100AB000F4220008F0B585B00FF26C0C9CE8E01051
:100AC00001A8A0E8E0101CA52D68009500210022D7
:100AD000002300240020194D696801F00C05F5B1D0
:100AE000042D02D0082D19D101E0154819E001ADFF
:100AF000C1F38346AC5D01F4803555B10F4D6D688F
:100B0000C5F340451DF805200D4D6543B5FBF2F3D7
:100B100002E00C4D04FB05F3184602E000BF084854
:100B200000BF00BF05B0F0BD0203040506070809B9
:100B30000A0B0C0D0E0F10100102000000100240F5
:100B400000127A0000093D00F8B504460CB90120F6
:100B5000F8BD207800F00100002878D0F8484068FF
:100B600000F00C0004280CD0F548406800F00C00A0
:100B7000082811D1F248406800F48030B0F5803F79
:100B80000AD1EF48006800F4003000285FD06068A8
:100B900000285CD10120DBE700BF6068B0F5803F32
:100BA00006D1E748006840F48030E549086028E055
:100BB000606858B9E248006820F48030E049086075
:100BC0000846006820F4802008601AE06068B0F5EC
:100BD000A02F0BD1DA48006840F48020D849086083
:100BE0000846006840F4803008600AE0D448006895
:100BF00020F48030D24908600846006820F4802044
:100C0000086000BF606888B1FFF790FD054606E008
:100C1000FFF78CFD401B642801D9032098E7C848E2
:100C2000006800F400300028F2D010E0FFF77EFDED
:100C3000054606E0FFF77AFD401B642801D9032032
:100C400086E7BF48006800F400300028F2D1207821
:100C500000F00200022857D1B948406800F00C00AB
:100C600050B1B748406800F00C00082818D1B448CB
:100C7000406800F4803098B9B148006800F0020084
:100C800020B12069012801D0012061E7AC4800684B
:100C900020F0F800616940EAC100A949086033E02A
:100CA0002069E8B10120A7490860FFF73FFD05462C
:100CB00006E0FFF73BFD401B022801D9032047E770
:100CC0009F48006800F002000028F2D09C480068AD
:100CD00020F0F800616940EAC1009949086013E01A
:100CE000002098490860FFF721FD054606E0FFF760
:100CF0001DFD401B022801D9032029E79048006808
:100D000000F002000028F2D1207800F00800082846
:100D10002DD1A069B8B101208B490860FFF706FD0D
:100D2000054606E0FFF702FD401B022801D903201B
:100D30000EE78348406A00F002000028F2D001204C
:100D400000F0A4FF13E000207F490860FFF7EEFCED
:100D5000054606E0FFF7EAFC401B022801D9032004
:100D6000F6E67748406A00F002000028F2D12078C9
:100D700000F00400042873D100277148C06900F016
:100D8000805070B900BF6E48C06940F080506C4917
:100D9000C8610846C06900F08050009000BF00BFE5
:100DA00001276A48006800F48070B0B9674800689D
:100DB00040F4807065490860FFF7B8FC054606E01E
:100DC000FFF7B4FC401B642801D90320C0E65F484C
:100DD000006800F480700028F2D000BFE0680128AD
:100DE00006D15748006A40F001005549086227E0E3
:100DF000E06858B95248006A20F001005049086282
:100E00000846006A20F00400086219E0E06805283E
:100E10000BD14B48006A40F004004949086208467B
:100E2000006A40F0010008620AE04548006A20F0CC
:100E30000100434908620846006A20F00400086285
:100E400000BFE068A0B1FFF771FC054609E0FFF7BD
:100E50006DFC401B41F28831884202D9032077E6BD
:100E600022E03748006A00F002000028EFD012E0CC
:100E7000FFF75CFC054608E0FFF758FC401B41F219
:100E80008831884201D9032062E62D48006A00F0CB
:100E900002000028F0D1012F05D12948C06920F0B7
:100EA00080502749C86100BFE069C8B32448406842
:100EB00000F00C00082860D0E069022848D100202A
:100EC00020490866FFF732FC054606E0FFF72EFCD6
:100ED000401B022801D903203AE61948006800F0B7
:100EE00000700028F2D1206AB0F5803F07D1144885
:100EF000406820F40030A168084311494860D4E9F3
:100F0000080108430E49496821F4741108430C494B
:100F1000486001200B490866FFF708FC054607E01A
:100F20003DE0FFF703FC401B022801D903200FE638
:100F30000348006800F000700028F2D02FE00000A5
:100F40000010024000004242800442420070004013
:100F5000002014490866FFF7E9FB054606E0FFF7A5
:100F6000E5FB401B022801D90320F1E50E4800688B
:100F700000F000700028F2D111E0E069012800D1F2
:100F8000E6E50948466806F48031206A814204D1CA
:100F900006F47011606A814201D00120D8E500207A
:100FA000D6E50000000042420010024010B50446A1
:100FB0000CB9012010BD606A38B96068B0F5827F55
:100FC00000D105E00021E16102E0002121616161C1
:100FD0000021A16294F8510028B9002084F8500043
:100FE000204600F043F8022084F851002068006891
:100FF00020F0400021680860A08800F482702189F8
:1010000001F404410843A18901F400610843217CF3
:1010100001F002010843217D01F001010843218B09
:1010200001F400710843217F01F0380108432021B9
:10103000095D01F080010843218D01F4005108434E
:10104000216808600421A06901EA10402168486015
:101050002068C06920F400602168C86100206065D4
:10106000012084F851000020A4E7000010B586B0EC
:1010700004460020029003900490059019492068CE
:1010800088422DD100BF1848806940F4805016492D
:1010900088610846806900F48050019000BF00BF5D
:1010A00000BF0846806940F00400886108468069F6
:1010B00000F00400019000BF00BFA02002900220B9
:1010C00003900320059002A90848FFF789F9402002
:1010D000029000200390049002A90448FFF780F9D1
:1010E00006B010BD00300140001002400008014071
:1010F00070B504462546681EB0F1807F01D30120FB
:101100000FE0681E4FF0E02148610F214FF0FF30E3
:1011100000F0C8FF00204FF0E0218861072008613F
:10112000002070BD7047704730B502460B4600BFC7
:1011300092F83C00012801D1022030BD012082F844
:101140003C0000BF022082F83D001068446810682F
:10115000816824F070041868044310684460144DDA
:101160001068A84213D0134D1068A8420FD0106821
:10117000B0F1804F0BD0104D1068A84207D00F4D32
:101180001068A84203D00E4D1068A84205D121F086
:1011900080015868014310688160012082F83D0099
:1011A00000BF002082F83C0000BF00BFC5E7000080
:1011B000002C0140003401400004004000080040C1
:1011C000000C004010B504460CB9012010BD94F885
:1011D0003D0028B9002084F83C00204600F026F8A5
:1011E000022084F83D00211D206800F0A5FD0120AB
:1011F00084F8460000BF84F83E0001213F200155DD
:10120000402001554120015500BF00BF012084F856
:10121000420043200155442001554520015500BF9F
:10122000012084F83D000020D0E7000038B50446D6
:1012300016492068884216D100BF1548C06940F0A1
:1012400010001349C8610846C06900F01000009002
:1012500000BF00BF002211463620FFF7EDFA36200E
:10126000FFF7DAFA11E00B49206888420DD100BF80
:101270000748C06940F020000549C8610846C069B8
:1012800000F02000009000BF00BF38BD00100040FB
:101290000010024000140040014691F83D00012872
:1012A00001D001207047022081F83D00164B0868EC
:1012B000984213D0154B086898420FD00868B0F1D7
:1012C000804F0BD0124B0868984207D0114B08682A
:1012D000984203D0104B086898420CD10868806887
:1012E00000F00702062A0CD00868006840F00100F0
:1012F0000B68186005E00868006840F001000B68A2
:1013000018600020CEE70000002C014000340140AE
:101310000004004000080040000C0040014600BFEF
:101320000868006A41F21112104050B90868006A5A
:101330009210104028B90868006820F001000A687F
:10134000106000BF012081F83D0000207047704709
:1013500010B5044620680069C0F34000D8B1206889
:10136000C068C0F34000B0B16FF0020021680861AE
:10137000012020772068806900F0030018B1204622
:10138000FFF7E5FF05E0204600F0ADF8204600F04D
:10139000ABF80020207720680069C0F38000D8B146
:1013A0002068C068C0F38000B0B16FF0040021680D
:1013B0000861022020772068806900F4407018B12D
:1013C0002046FFF7C4FF05E0204600F08CF82046D9
:1013D00000F08AF80020207720680069C0F3C00080
:1013E000D8B12068C068C0F3C000B0B16FF0080089
:1013F00021680861042020772068C06900F003009C
:1014000018B12046FFF7A3FF05E0204600F06BF877
:10141000204600F069F80020207720680069C0F3BA
:101420000010D8B12068C068C0F30010B0B16FF0F0
:10143000100021680861082020772068C06900F446
:10144000407018B12046FFF782FF05E0204600F00B
:101450004AF8204600F048F800202077206800690C
:1014600000F0010058B12068C06800F0010030B100
:101470006FF0010021680861204600F036F820680E
:101480000069C0F3C01058B12068C068C0F3C01034
:1014900030B16FF08000216808612046FFF742FEFE
:1014A00020680069C0F3801058B12068C068C0F39C
:1014B000801030B16FF0400021680861204600F0D4
:1014C00015F820680069C0F3401058B12068C06862
:1014D000C0F3401030B16FF0200021680861204651
:1014E000FFF721FE10BD7047704770477047704787
:1014F000704700002DE9F84F044620680568206811
:10150000C668206847694FF00009CA4605F00F0910
:10151000B9F1000F0AD105F0200038B106F0200023
:1015200020B1204600F08BFCBDE8F88FB9F1000F28
:1015300071D007F0010018B906F4907000286AD045
:1015400005F0010030B106F4807018B1206C40F055
:101550000100206405F0040030B107F0010018B16B
:10156000206C40F00200206405F0020030B107F06A
:10157000010018B1206C40F00400206405F0080060
:1015800048B106F0200010B907F0010018B1206C36
:1015900040F008002064206C68B305F0200028B1FA
:1015A00006F0200010B1204600F049FC2068406998
:1015B000C0F3801A206C00F0080010B9BAF1000FD7
:1015C00022D0204600F010FC2068406900F0400066
:1015D000B0B12068406920F0400021684861A06BEC
:1015E00050B15648A16B4863A06BFEF711FE10B1D5
:1015F000A06B416B88470CE02046FFF779FF08E0BD
:101600002046FFF775FF04E02046FFF771FF00203A
:10161000206489E7FFE7206B012878D105F01000EE
:10162000002874D006F01000002870D000BF002001
:10163000009020680068009020684068009000BF1B
:1016400000BF2068406900F04000C0B3A06B006894
:1016500040681FFA80F8B8F1000F2FD0A08D4045E8
:101660002CDDA4F82E80A06B806920281FD0206874
:10167000C06820F480702168C8602068406920F04C
:101680000100216848612068406920F0400021681D
:101690004861202084F83E00002020632068C06854
:1016A00020F010002168C860A06BFEF785FDA08DBA
:1016B000E28D801A81B22046FFF719FF34E7FFE779
:1016C000A08DE18D401A1FFA80F8E08DE8B1B8F1E5
:1016D000000F1AD02068C06820F490702168C8609C
:1016E0002068406920F0010021684861202084F8CA
:1016F0003E00002020632068C06820F010002168B0
:10170000C86041462046FFF7F2FE0DE7FFE705F00F
:10171000800030B106F0800018B1204600F080FC57
:1017200002E705F0400030B106F0400018B1204655
:1017300000F075FBF8E600BFF6E60000D51D0008D6
:1017400010B504460CB9012010BDA06900B100E03D
:1017500000BF94F83D0028B9002084F83C002046E2
:1017600000F028F8242084F83D002068C06820F4A8
:1017700000502168C860204600F0D4FB2068006952
:1017800020F49040216808612068406920F02A0018
:10179000216848612068C06840F400502168C86032
:1017A00000202064202084F83D0084F83E000020C2
:1017B000CAE7000010B586B00446002002900390EE
:1017C000049005901E492068884236D100BF1D480C
:1017D000806940F480401B4988610846806900F4B4
:1017E0008040019000BF00BF00BF0846806940F004
:1017F000040088610846806900F00400019000BF81
:1018000000BF48150290022003900320059002A912
:101810000D48FEF7E5FD4FF4806002900020039034
:10182000049002A90848FEF7DBFD0022114625209E
:10183000FFF702F82520FEF7EFFF06B010BD00000D
:101840000038014000100240000801407047704716
:1018500000BFFEE710B500200E4908600E48006882
:1018600020F470200C4908600846006840F44030BD
:10187000086000200949C1F8B00100F011F801200A
:101880000449086000F00CF800200449C1F8B801D0
:1018900010BD0000B8812142040C014000802142AB
:1018A00010B5012000F022FC10BD000010B5002092
:1018B0000E4908600E48006820F470200C4908604A
:1018C0000846006840F44030086001200949C1F82A
:1018D000B001FFF7E5FF012004490860FFF7E0FFD2
:1018E00000200449C1F8B80110BD0000B8812142B0
:1018F000040C01400080214270B5054600241648C2
:10190000006820F47020144908600846006840F41C
:1019100000200860002614E0002010490860FFF74E
:10192000BFFF01200E49C1F8B8016006040E0B4844
:101930008838006808B1601CC4B2FFF7B1FF701CA2
:10194000C6B2082EE8DB15B9FFF7B0FF01E0FFF7DC
:1019500081FF204670BD0000040C0140B881214287
:101960000080214270B504461248006820F47020BF
:10197000104908600846006840F4403008600020C4
:101980000D490860002512E0E0090B49083908609C
:101990006006040E01200949C1F8B801FFF780FF75
:1019A000002005490860FFF77BFF681CC5B2082DC1
:1019B000EADB70BD040C0140B88121420080214265
:1019C00010B50E48006820F470200C4908600846E5
:1019D000006840F440300860012009490860094966
:1019E000C1F8B801FFF75CFF002005490860FFF768
:1019F00057FF00200349C1F8B80110BD040C014095
:101A0000B08121420080214210B50E48006820F4C8
:101A100070200C4908600846006840F440300860B7
:101A20000020094908600949C1F8B001FFF738FFF3
:101A30000120054908600549C1F8B001FFF730FFF2
:101A400010BD0000040C0140B881214200802142F9
:101A500010B500241448006820F470201249086072
:101A60000846006840F40020086001200F49086023
:101A7000FFF716FF01200E49C1F8B801FFF710FF6C
:101A800007E0601CC4B2FA2C03DDFFF7BDFF0120A4
:101A900010BD0648803800680028F2D1034908319B
:101AA000086000BFF4E70000040C0140B08121424F
:101AB0000080214200B585B0002001900290039083
:101AC000049000BF2848806940F0200026498861C2
:101AD0000846806900F02000009000BF00BF00BFF2
:101AE0000846806940F0040088610846806900F07B
:101AF0000400009000BF00BF00BF0846806940F0AE
:101B0000080088610846806900F00800009000BF66
:101B100000BF01221C211548FEF702FE012211031D
:101B20001348FEF7FDFD00224FF480411048FEF7F8
:101B3000F7FD1C2001900120029002200390032059
:101B4000049001A90948FEF74BFC4FF4A040019016
:101B50000120029003900320049001A90448FEF79D
:101B60003FFC05B000BD000000100240000801402D
:101B7000000C014010B50E480E4908604FF4827009
:101B8000486000210B488160C160016141614FF4F0
:101B9000007181612021C161002101624162816285
:101BA0000A21C162FFF702FA08B1FEF704FB10BD7B
:101BB000003001403C0000201CB500200090019046
:101BC0000E480F49086041F61F40486000210C484C
:101BD00081606321C16080218161FFF7F3FA08B160
:101BE000FEF7E9FA00200090019069460448FFF7EB
:101BF0009BFA08B1FEF7DFFA1CBD000000100040A0
:101C0000940000201CB50020009001900D480E4962
:101C100008604720486000210B4881600121C160B5
:101C200000218161FFF7CEFA08B1FEF7C4FA002067
:101C30000090019069460448FFF776FA08B1FEF774
:101C4000BAFA1CBD00140040DC00002010B50B489F
:101C50000B4908604FF4E13048600021084881607A
:101C6000C16001610C21416100218161C161FFF707
:101C700067FD08B1FEF79FFA10BD00000038014073
:101C80002401002000BFFEE77047704708B50849EF
:101C90000968C9084FF47A72B1FBF2F1414300912F
:101CA00000BF00BF00994A1E00920029F9D108BD6B
:101CB0000C000020704710B5FEF73EFD10BD00B5CA
:101CC0008FB0282105A8FEF756FA14216846FEF7C2
:101CD00052FA012005900004069000200790012090
:101CE000099002200C90C1030D914FF4E0110E9168
:101CF00005A8FEF729FF08B1FEF75DFA0F20009056
:101D000002200190002002904FF480600390002098
:101D1000049002216846FEF7E1FD08B1FEF74BFA98
:101D20000FB000BD7047000010B50248FFF710FB70
:101D300010BD00009400002010B50268204B9842AE
:101D40000ED0204B98420BD0B0F1804F08D01E4BE4
:101D5000984205D01D4B984202D01D4B984203D1AA
:101D600022F070024B681A43154B98420ED0154B67
:101D700098420BD0B0F1804F08D0134B984205D059
:101D8000124B984202D0124B984203D122F4407277
:101D9000CB681A4322F080034C6943EA04020260D4
:101DA0008B68C3620B688362054B984202D0054B77
:101DB000984201D10B6903630123436110BD000008
:101DC000002C0140003401400004004000080040A5
:101DD000000C004070B505466C6A0020E085E08488
:101DE0002046FFF785FB70BD0168C96821F490713A
:101DF0000268D1600168496921F0010102685161FE
:101E0000016B012905D10168C96821F01001026840
:101E1000D160202180F83E1000210163704710B589
:101E200004462068C06820F040002168C860202077
:101E300084F83D002046FFF70AFD002010BDF8B5EC
:101E4000044694F83E00222869D1A068B0F5805F6E
:101E50000CD1206950B90025A66A20684068C0F3FB
:101E600008003080A06A801CA06215E0A56A0026E8
:101E7000A068B0F5805F03D0A06828B9206918B9C0
:101E800020684068287004E02068406800F07F0007
:101E90002870A06A401CA062E08D401E80B2E085E0
:101EA000A8BB2068C06820F020002168C8602068B6
:101EB000C06820F480702168C8602068406920F004
:101EC000010021684861202084F83E00206B012831
:101ED0001ED1002020632068C06820F01000216817
:101EE000C8602068006800F0100010280AD100BF08
:101EF00000200090206800680090206840680090F2
:101F000000BF00BFA18D2046FFF7F1FA03E004E017
:101F10002046FFF79BFC0020F8BD0020FCE70220D4
:101F2000FAE7000070B504462168096921F44051C0
:101F3000E2681143226811612269A1681143626954
:101F400041EA02052168C96841F20C6291432943C4
:101F50002268D1602168496921F44071A269114366
:101F6000226851612D4A2168914202D1FEF792FD0B
:101F700001E0FEF77FFD00EBC00101EB001162689C
:101F80009200B1FBF2F100EBC00202EB00126368B9
:101F90009B00B2FBF3F26423B2FBF3F202EBC20349
:101FA00003EB0212A1EB8201322202EB0111642247
:101FB000B1FBF2F101F0F00100EBC00202EB001204
:101FC00063689B00B2FBF3F26423B2FBF3F201EB14
:101FD000021200EBC00101EB001163689B00B1FB32
:101FE000F3F100EBC00303EB00136668B600B3FB2C
:101FF000F6F36426B3FBF6F303EBC30606EB031319
:10200000A1EB8301322303EB01116423B1FBF3F154
:1020100001F00F0111442268916070BD0038014049
:10202000014691F83D00212828D18868B0F5805FED
:102030000BD1086948B90A6A1088C0F308000B6818
:102040005860086A801C086205E00B6A581C086228
:1020500018780B685860C88C401E80B2C88458B984
:102060000868C06820F080000B68D8600868C06805
:1020700040F040000B68D860002070470220FCE769
:1020800010B50248FFF736FA10BD00002401002009
:1020900000BFFEE702480068C0F30220704700005E
:1020A0000CED00E010B5002804DB0A07130E054A0A
:1020B000135406E00A07140E034A00F00F031B1F17
:1020C000D45410BD00E400E018ED00E002E008C8C0
:1020D000121F08C1002AFAD170477047002001E0A2
:1020E00001C1121F002AFBD17047000070B50446E1
:1020F0004FF6FF70001B401F85B20948FFF7CCF870
:1021000007480068456203E005480068406A85B2F8
:102110004FF6FA708542F7DB0148FFF7FFF870BD14
:10212000DC0000202DE9F04180460D4617461C4694
:10213000069EFFF745FC002141EA4501C8B2FFF7C2
:1021400011FCFFF785FC20B1FFF75EFC0120BDE824
:10215000F0813846FFF706FCFFF77AFCFFF730FC0A
:10216000012101EB4501C8B2FFF7FCFBFFF770FC52
:102170000DE0012C04D10020FFF7BEFB307003E01E
:102180000120FFF7B9FB3070601E84B2761C002C72
:10219000EFD1FFF739FC0020D9E72DE9F0410746E0
:1021A0000C4615461E46FFF70BFC002141EA440190
:1021B000C8B2FFF7D7FBFFF74BFC2846FFF7D2FB6F
:1021C000FFF746FCFFF7FCFB012101EB4401C8B21D
:1021D000FFF7C8FBFFF73CFC0020FFF78DFB3070DA
:1021E000FFF712FC0120BDE8F0812DE9F843054618
:1021F0000E4617461C46DDF820806B463A463146AF
:102200002846FFF7CAFFB8F1000F05D00120A04013
:102210009DF80010084305E00120A0409DF8001043
:1022200021EA0000C0B200909DF800303A463146E5
:10223000284600F002F8BDE8F8832DE9F041074692
:102240000C4615461E46FFF7BBFB002141EA440140
:10225000C8B2FFF787FBFFF7FBFB20B1FFF7D4FB0A
:102260000120BDE8F0812846FFF77CFBFFF7F0FB7B
:102270003046FFF777FBFFF7EBFB18B1FFF7C4FB26
:102280000120EEE7FFF7C0FB0020EAE708B5FEF704
:102290005FFAFFF714FDFFF70DFCFFF76BFCFFF78C
:1022A0008BFCFFF7D3FCFFF7ADFC01200346372280
:1022B000682100900020FFF798FF094B00220C21B5
:1022C0001046FFF76AFF0AE005481D233B226821FC
:1022D00000900120FFF726FF0120FEF76DF8F3E7DD
:1022E0001C000020000000000000000001020304A8
:1022F0000607080900000000010203041C2300086F
:102300000000002010000000CC2000082C23000852
:102310001000002058050000DC200008000000002C
:0C23200010000000010000000024F40088
:0400000508000131BD
:00000001FF
