:020000040800F2
:10000000700B002045010008A93D00088B2E000858
:10001000A13C0008F50E0008214500080000000082
:10002000000000000000000000000000D53E0008B5
:10003000ED10000800000000AB3D0008DD400008A6
:100040005F0100085F0100085F0100085F01000810
:100050005F0100085F0100085F0100085F01000800
:100060005F0100085F0100085F0100085F010008F0
:100070005F0100085F0100085F0100085F010008E0
:100080005F0100085F0100085F0100085F010008D0
:100090005F0100085F0100085F0100085F010008C0
:1000A0005F0100085F0100085F0100085F010008B0
:1000B0005F0100085F0100085F0100085F010008A0
:1000C0005F0100085F0100085F0100085F01000890
:1000D0005F010008114500085F0100085F0100088A
:1000E0005F0100085F0100085F0100085F01000870
:1000F0005F0100085F0100085F0100085F01000860
:100100005F0100085F0100085F0100085F0100084F
:100110005F0100085F0100084D4100085F01000811
:100120005F0100085F0100085F0100085F0100082F
:10013000DFF80CD000F018FD00480047A58A000841
:10014000700B00200648804706480047FEE7FEE7A0
:10015000FEE7FEE7FEE7FEE7FEE7FEE7FEE7FEE777
:100160004B41000831010008202A04DB203A21FA23
:1001700002F00021704721FA02F3D040C2F12002C0
:10018000914008431946704710B5431A934209D26B
:100190008318881803E010F8011D03F8011D521E92
:1001A000F9D210BD40EA01039B0703D009E008C95A
:1001B000121F08C0042AFAD203E011F8013B00F82C
:1001C000013B521EF9D210BDD2B201E000F8012B62
:1001D000491EFBD270470022F6E710B513460A46C7
:1001E00004461946FFF7F0FF204610BD10B504463F
:1001F00004E00B7800F8013B03B1491C521EF8D211
:10020000204610BDF0B480EA0102D40F4200B2EBE8
:10021000410F02D20246084611464A0042D0C30DA1
:10022000DDB2C1F3C752AD1A202D35DAC1F3160184
:1002300041F4000204B15242C5F1200602FA06F16F
:100240002A411044B3EBD05F23D0C4B1012DA0EB01
:10025000C35009DCF0BC4FF0004202EAC352DBB2EB
:1002600000F5000000F04BBB400000F1807000EB97
:10027000C350A0F1807040EAD170490009E04908FC
:1002800041EAC071A0EBC35000F50000400800EB4C
:10029000C350F0BC00F02ABB6142012202EB4101D5
:1002A000001BF6E7F0BC704781F00041AAE780F040
:1002B0000040A7E780EA010210B502F000434000C9
:1002C00022D04A001FD0010E01EB1261C0F356008C
:1002D000C2F3560240F4000042F40002A0FB0220E8
:1002E00000047F39140400D0401C50EA124001D4AD
:1002F0004000491EC2B20C0604EBD010401C40085E
:10030000802A02D003E0002010BD20F00100002967
:1003100000DA0020184310BD30B480EA010202F078
:10032000004530F0004221F0004013D090B1C30DE1
:10033000D40DC2F31601C0F31600E41A41F4000113
:1003400040F400027D34914201D3641C00E0490076
:10035000002C02DA30BC002070474FF4000000236C
:10036000914201D3891A034340084FEA4101F7D172
:1003700051B1914202D14FF0004105E002D24FF05D
:10038000010101E06FF0010103EBC450284430BCCF
:1003900000F0ACBA2DE9FE4F804681EA0300C00FA1
:1003A0000C46009021F0004123F00045B8EB02001C
:1003B000A94105D24046214690461C460B460246BE
:1003C00023F00040104347D0270DC7F30A00C3F3C2
:1003D0000A510290401A019040286BDAC3F31300CF
:1003E00040F4801B0098924620B10023D2EB030A10
:1003F00063EB0B0B01985946C0F14002504600F0E8
:1004000054FA06460D4650465946019A00F05CFAE9
:1004100010EB08006141002487EA115284EAE77377
:100420001A4340D0009A62B3019A012A4FEA075258
:1004300015DC001B61EB02014FF0004202EA07529B
:10044000CDE90042001C41F5801132462B4600F0F8
:10045000BDFA03B0BDE8F08F40462146F9E7001B26
:1004600061EB0201001C41F5801300185B4120186C
:10047000A2F5001747EB030140EAD570B6196D41AC
:1004800011E06D084FEA360645EAC0754FEA07529B
:10049000001B61EB0201001C41F5801149084FEA85
:1004A00030000019514132462B4603B0BDE8F04FF1
:1004B00000F07DBA0098012240000023D0EB020238
:1004C00063EBE073009821464FEAE074B8EB00005C
:1004D00061EB0401E9E783F000435BE781F0004151
:1004E00058E72DE9FE4F81EA030404F0004421F0AF
:1004F000004100944FF0000B23F0004350EA010448
:100500005ED052EA03045BD0C3F30A54C1F30A5528
:100510002C44A4F2F3340194A0FB0254C1F3130160
:1005200041F48011C3F3130343F4801301FB02442D
:1005300000FB034E840A970A44EA815447EA835732
:10054000A4FB076802958D0A05FB07854FEA932CEB
:1005500004FB0C542705029D4FEA065847EA16375C
:10056000B5EB08056EEB070C870E920E47EA811774
:1005700042EA8312A7FB0201B6EB0B0164EB000415
:100580002B0D43EA0C335E1844EB1C50DA465146FF
:10059000E7FB0201C5F313044FEA0B3343EA14539C
:1005A0004FEA0432019C43EA0603A4F10C040294CE
:1005B000009CCDE900B400F009FA03B0BDE8F08F6B
:1005C00000200146F9E72DE9F04D81EA030404F02B
:1005D000004B21F0004514464FF0000A23F0004183
:1005E00050EA050220D054EA01021DD0C5F30A5793
:1005F0000246C5F31303C1F31300C1F30A5640F4D6
:10060000801543F48013A7EB0608101BD64608F2AA
:10061000FD3873EB050002D308F1010801E09218E0
:100620005B41B8F1000F03DA00200146BDE8F08D10
:1006300000204FF48011064684460EE0171B73EB32
:10064000050705D3121B63EB050306434CEA010CB7
:1006500049084FEA300092185B4150EA0107EDD19A
:1006600052EA030012D082EA040083EA050108433B
:1006700005D0101BAB4106D20122002306E0002268
:100680004FF0004302E06FF0010253101AEB060036
:100690004CEB085110EB0A0041EB0B01BDE8F04DAB
:1006A00000F085B9C10F80EAE0700844CA079623BC
:1006B000002100F024B996230022114600F01FB952
:1006C0000EB540F2334102910021CDE900110A46F6
:1006D0000B4600F07BF903B000BD00F0004220F0B3
:1006E0000040C10DC0F3160040F400007F2901DA7C
:1006F00000207047962903DCC1F19601C84001E053
:1007000096398840002AF4D04042704720F00040DB
:10071000C10DC0F3160040F400007F2901DA00206B
:100720007047962903DCC1F19601C840704796399D
:100730008840704700F0004230F000400AD0C10D00
:1007400001F56071C0F3160042EA0151C20840078A
:1007500011437047002001467047000030B5041E69
:1007600071F1000404DB4FF00044404264EB0101EE
:10077000141E73F1000405DB1C464FF00043524287
:1007800063EB04038B4208BF824230BD30B5041EC8
:1007900071F1000404DB4FF00044404264EB0101BE
:1007A000141E73F1000405DB1C464FF00043524257
:1007B00063EB0403994208BF904230BD01F000434F
:1007C00030B421F0004150EA010206D00A0DA2F532
:1007D0006072C1F31301002A02DC30BC00207047B4
:1007E000440F44EAC104C100E01830BC00EBC25021
:1007F00000F07CB8002801DBC0F10040002901DBDB
:10080000C1F1004181427047002801DBC0F1004086
:10081000002901DBC1F100418842704730B50B4629
:10082000014600202022012409E021FA02F59D4220
:1008300005D303FA02F5491B04FA02F52844151EF4
:10084000A2F10102F1DC30BD2DE9F05F0546002088
:1008500092469B4688460646814640241BE0284631
:10086000414647462246FFF77FFC53465A46C01A88
:10087000914110D311461846224600F016F82D1A61
:1008800067EB01084F4622460120002100F00DF8D9
:1008900017EB00094E41201EA4F10104DFDC48469D
:1008A00031462A464346BDE8F09F202A04DB203A21
:1008B00000FA02F1002070479140C2F1200320FAB3
:1008C00003F3194390407047202A06DBCB17203AE8
:1008D00041FA02F043EAE07306E041FA02F3D04045
:1008E000C2F1200291400843194670470029A8BF71
:1008F0007047401C490008BF20F00100704710B449
:10090000B0FA80FC00FA0CF050EA010404BF10BCFD
:10091000704749B1CCF1200421FA04F411FA0CF12A
:1009200018BF012121430843A3EB0C01CB1D4FEA63
:1009300000614FEA102042BF002010BC704700EB5E
:10094000C35010440029A4BF10BC7047401C49008C
:1009500008BF20F0010010BC7047420005D0C0F372
:10096000C7525242914201DC0020704700EBC15057
:10097000704710B541000CD0C0F3C751962908DC70
:100980007E2909DC06DB410204D000F0004040F083
:100990007E5010BD002010BDC1F19604C4F12001AD
:1009A00000FA01F1E040FFF7A1FFA04010BD10B533
:1009B000141E73F1000408DA401C41F10001921882
:1009C0005B411A4301D120F0010010BD2DE9F04D2B
:1009D00092469B4611B1B1FA81F202E0B0FA80F280
:1009E00020329046FFF761FF04460F4640EA0A00B6
:1009F00041EA0B0153465A46084313D0114653EAC5
:100A0000010019D0C8F140025046FFF7ADFB054682
:100A10000E46504659464246FFF747FF084305D069
:100A2000012004E020463946BDE8F08D0020054352
:100A300046EAE0762C4337430A986305E40AA0EBC4
:100A400008000022FD0A44EA47540A3002D500207B
:100A50000146E9E7010510196941DDE9084500197A
:100A60006941BDE8F04DA2E770B521F000430343B2
:100A70000CD0C1F30A550024D5EB040564EB040344
:100A8000D617AD1AB34102DB0020014670BD201815
:100A900041EB025170BD2DE9F04D00231A461B1A9F
:100AA0008A4103DB00200146BDE8F08DC1F30A5204
:100AB000C1F3130141F480154FF0000BD10702D1AF
:100AC00000186D41521E0027044640F2FF113846BF
:100AD00001EB620A3E468046024600204FF4801138
:100AE000FFF742FBC2197141BB1846EB0100B4EBA2
:100AF000030C75EB000C04D3E41A65EB00051746F4
:100B00000E46241908F101006D4180463428E3DDCA
:100B1000F91946EB0600091BA84103D24FF0FF323A
:100B2000134601E0002213461BEB070046EB0A5177
:100B3000BDE8F04DFFF73BBFC1F30A52C1F313010B
:100B400040F2FF3341F480119A4202DA002001465C
:100B5000704740F233439A42A2F2334202DC5242DF
:100B6000FFF702BBFFF7A1BE064C074D06E0E068A9
:100B700040F0010394E8070098471034AC42F6D3E4
:100B8000FFF7DAFA289700084897000870B58C1824
:100B900010F8015B15F0070301D110F8013B2A1191
:100BA00006D110F8012B03E010F8016B01F8016B7E
:100BB0005B1EF9D12B0705D40023521E0DD401F87A
:100BC000013BFAE710F8013BCB1A921C03E013F843
:100BD000015B01F8015B521EF9D5A142D8D3002078
:100BE00070BD10B5044600212046FFF703FE02D277
:100BF00084F0004010BD2046FCE7000070B50546BB
:100C00000C462146014803F08DFC70BDD102002046
:100C10002DE9FE4F81460D4616461F46DDE90CAB19
:100C200000240197AA222146641C484842542146C8
:100C3000641C425401222146641C42540022214675
:100C4000641C425442494846FFF734FB0090FFF7CA
:100C500044FD00B202909DF809202146641C3B48E7
:100C600042549DF808202146641C425438492846C5
:100C7000FFF720FB0090FFF730FD00B202909DF8D7
:100C800009202146641C314842549DF80820204622
:100C9000611CCCB22D490A542D493046FFF70AFB9E
:100CA0000090FFF71AFD00B202909DF8092020463F
:100CB000611CCCB225490A549DF808202046611CCD
:100CC000CCB222490A549DF807202046611CCCB2C0
:100CD0001E490A549DF806202046611CCCB21B49CF
:100CE0000A549DF805202046611CCCB217490A54CD
:100CF0009DF804202046611CCCB214490A542046B9
:100D0000611CCCB2114901F800A02046611CCCB294
:100D10000E4901F800B0201FC8704FF000080020F5
:100D200006E00A49095C414401F0FF08411CC8B2D1
:100D3000A042F6DB2046611CCCB2044901F80080D9
:100D400021460248FFF75AFFBDE8FE8FD10200207E
:100D50000000C84270B504460D46002213462046E6
:100D60002946FFF7FBFC03D285F00041204670BD09
:100D700020462946FBE70000FEB547484749086082
:100D80004748484908604848484908604848494930
:100D9000086049484949086049484A490860684626
:100DA00000F024FA484800F0CBF9474908683B496D
:100DB0000968FFF727FA04463E4801682046FFF716
:100DC000ABFA41490860414948603F4948683549A4
:100DD0000968FFF717FA0446384801682046FFF70C
:100DE0009BFA3949486039490860374988682F4972
:100DF0000968FFF707FA0446324801682046FFF702
:100E00008BFA31498860314988602F4A916890682F
:100E1000FFF750FA05462C4A51685068FFF74AFA26
:100E20000646294A11681068FFF744FA074631461A
:100E3000FFF7E8F904462946FFF7E4F9244908607A
:100E40002149684602F04CF9224923480068FFF71F
:100E500031FA224948601F4921480068FFF72AFA01
:100E60001E4988601B491F480068FFF723FA1B4989
:100E70000860486807F0F0FA1B49086017490868DD
:100E800007F0EAFA194908601449886807F0E4FA9B
:100E900017490860FEBD00006F12033B1C010020D3
:100EA0005839343C200100200AD7A33C24010020FB
:100EB000EC51783F280100209CC4803F2C01002089
:100EC0003333833F30010020340300204C030020E3
:100ED0001001002035FA8E3C7400002040030020F1
:100EE0007C00002078000020040100200801002080
:100EF0000C01002000BFFEE72DE9FF470546002456
:100F000003A9284604F064FD044695F87C9340F25A
:100F10007F30465D34B902AB01AA6946284604F029
:100F2000DCFB04461CB9284606F09EF904462CB9A1
:100F30004FF4FA71284603F099FE044644B9D5F8F7
:100F40001480434632464946284602F0E4FF0446F0
:100F500044B928469DE80E0006F039F904460CB95C
:100F60000298286124B903A9284606F058F90446D6
:100F700034B9AF7806223946284605F05AFA0446B5
:100F800014B940F27E304655204604B0BDE8F087E3
:100F90003EB503460C46002017A52D68029517A5FF
:100FA0002D68019516A52D68009501251570012C59
:100FB00002D0022C04D101E0002103E0012101E074
:100FC000022100BF00BF032B08D0042B02D0082B46
:100FD0000CD107E002AD6D5C15700AE001AD6D5CEF
:100FE000157006E01DF80150157002E06FF0070063
:100FF00000BF00BF3EBD000002010300070608005D
:10100000242526002DE9F04F06460F4613464FF4DF
:1010100096784FF01E09DFF884C0DFF884A041F60F
:101020009A1B0EB9002037E0072F01D1322033E0A0
:10103000B3F93CE0C64502DA4FEA094103E0B3F9EF
:101040003CE00EFB0BF181B1B3F838E00EFB0AF285
:1010500002EB5102B2FBF1F21204624502D8ACEB92
:10106000020404E04FF4481401E04FF4C804C4F350
:101070000745642D02DD4FF0640E00E0AE46BEF180
:10108000320F06DD642D02DD4FF0640E03E0AE4644
:1010900001E04FF0320E7046BDE8F08F33B37500BB
:1010A000CDCC300001460A1F102A1BD2DFE802F027
:1010B0000E0C101216181A1A141A1A1A1A1A080AEA
:1010C0000A2011E006200FE004200DE002200BE0D2
:1010D000012009E0072007E0092005E0032003E0E4
:1010E000002001E0FF2000BF00BF7047704770473D
:1010F000FEB504460D461646684607F0FDFD9DF810
:1011000006003070BDF802002080BDF80400288081
:10111000B4F90000642804DAB4F9000010F1640F97
:1011200001DC00202080B5F90000642804DAB5F95C
:10113000000010F1640F01DC002028800020FEBDBB
:101140002DE9FF41044602AB06223B21682002F054
:1011500019FC0546D5B99DF809009DF8081040EA2C
:10116000012000B2ADF800009DF80B009DF80A10B8
:1011700040EA012000B2ADF802009DF80D009DF894
:101180000C1040EA012000B2ADF80400BDF90000E7
:10119000FFF788FA07461449FFF7BEF806464FF0F6
:1011A0008041FFF787F82060BDF90200FFF77AFA67
:1011B00007460D49FFF7B0F806464FF08041FFF7AC
:1011C00079F86060BDF90400FFF76CFA074606493C
:1011D000FFF7A2F806464FF08041FFF76BF8A060DA
:1011E000284604B0BDE8F08100FEFF462DE9FF412E
:1011F000044602AB06224321682002F0C3FB0546E9
:10120000D5B99DF809009DF8081040EA012000B208
:10121000ADF800009DF80B009DF80A1040EA01208F
:1012200000B2ADF802009DF80D009DF80C1040EAE8
:10123000012000B2ADF80400BDF90000FFF732FA5A
:1012400007461349FFF768F806461249FFF732F8D8
:101250002060BDF90200FFF725FA07460C49FFF7A9
:101260005BF806460B49FFF725F86060BDF90400FE
:10127000FFF718FA07460649FFF74EF806460549F4
:10128000FFF718F8A060284604B0BDE8F081000020
:1012900000FEFF4600007A430146002291F821003B
:1012A000022808D00420886300BF002081F82000B5
:1012B00000BF012070470868006820F00E000B682E
:1012C00018600868006820F001000B68186091F849
:1012D000403001209840CB6B5860012081F82100FC
:1012E00000BF002081F8200000BF1046E2E70000A8
:1012F00070B50446002594F82100022803D004208C
:10130000A0630125C1E02068006820F00E0021687C
:1013100008602068006820F00100216808605C49CE
:101320002068884252D95A4978392068884201D1C8
:10133000012047E0564964392068884201D11020D5
:1013400040E0534950392068884201D1801539E086
:101350004F493C392068884201D1801432E04C4921
:1013600028392068884202D14FF480302AE0484969
:1013700014392068884202D14FF4801022E0444999
:101380002068884201D140041CE04249206888421C
:1013900001D1012016E03F4914312068884201D173
:1013A00010200FE03B4928312068884201D1801588
:1013B00008E038493C312068884201D1801401E0BE
:1013C0004FF480303349091F086051E030497839C3
:1013D0002068884201D1012047E02D496439206806
:1013E000884201D1102040E02949503920688842C4
:1013F00001D1801539E026493C392068884201D165
:10140000801432E0224928392068884202D14FF402
:1014100080302AE01E4914392068884202D14FF4F6
:10142000801022E01A492068884201D140041CE063
:1014300018492068884201D1012016E0154914316D
:101440002068884201D110200FE01249283120681D
:10145000884201D1801508E00E493C31206888425D
:1014600001D1801401E04FF480300949803948608F
:10147000012084F8210000BF002084F8200000BF74
:10148000606B10B12046616B8847284670BD000034
:10149000800002400804024070B5044600F0B6F92E
:1014A00006462546681C10B104480078054400BF74
:1014B00000F0ACF9801BA842FAD370BD0C000020EC
:1014C0002DE9F847024600239C467BE14FF00108D6
:1014D00008FA03F4D1F8008008EA0400A0427DD1A4
:1014E000DFF8F4A2D1F80480A8EB0A09D0453AD07D
:1014F00014DCB8F1030F50D009DCB8F1000F31D083
:10150000B8F1010F1CD0B8F1020F49D120E0B8F1B9
:10151000110F18D0B8F1120F42D11EE0B9F5881F93
:1015200025D006DCB9F5803F20D0B9F5801F37D132
:101530001AE0B9F5001F18D0B9F5041F30D117E033
:10154000D1F80CC02DE0D1F80C8008F1040C28E093
:10155000D1F80C8008F1080C23E0D1F80C8008F1D8
:101560000C0C1EE000BF00BF00BF00BF00BF00BFEB
:10157000D1F80880B8F1000F02D14FF0040C0BE055
:10158000D1F80880B8F1010F03D14FF0080C1461B5
:1015900002E04FF0080C546103E04FF0000C00E053
:1015A00000BF00BFFF2801D8904601E002F1040807
:1015B0004646FF2802D84FEA830803E0A3F1080853
:1015C0004FEA88084746D6F800804FF00F0909FA1D
:1015D00007F928EA09080CFA07F900E07AE048EA76
:1015E0000908C6F80080D1F8048008F08058B8F1E6
:1015F000805F6FD100BFDFF8E481D8F8188048F031
:101600000108DFF8D891C9F81880C846D8F81880C2
:1016100008F00108CDF8008000BF00BF4FEAB938DC
:101620004FEA930958F829504FEA83784FEA18791E
:101630004FF00F0808FA09F825EA0805DFF8A0813D
:10164000424502D14FF0000824E0DFF8988142457E
:1016500002D14FF001081DE0DFF88C81424502D134
:101660004FF0020816E0DFF88481424502D14FF0C6
:1016700003080FE0DFF87881424502D14FF00408FB
:1016800008E0DFF87081424502D14FF0050801E023
:101690004FF006084FEA83794FEA197908FA09F8FA
:1016A00048EA0505DFF850814FEA930948F82950C8
:1016B000D1F8048008F48038B8F5803F0BD1DFF80A
:1016C0003C81D8F8008048EA0008DFF83091C9F87A
:1016D00000800AE075E0DFF82481D8F8008028EA6D
:1016E0000008DFF81891C9F80080D1F8048008F4E8
:1016F0000038B8F5003F0ED1DFF8008108F104088A
:10170000D8F8008048EA0008DFF8F09009F10409F1
:10171000C9F800800DE0DFF8E48008F10408D8F88B
:10172000008028EA0008DFF8D49009F10409C9F81C
:101730000080D1F8048008F48018B8F5801F0ED11D
:10174000DFF8B88008F10808D8F8008048EA0008F7
:10175000DFF8A89009F10809C9F800800DE0DFF86A
:101760009C8008F10808D8F8008028EA0008DFF813
:101770008C9009F10809C9F80080D1F8048008F4B8
:101780000018B8F5001F0ED1DFF8708008F10C08C2
:10179000D8F8008048EA0008DFF8609009F10C09E9
:1017A000C9F800800DE0DFF8548008F10C08D8F883
:1017B000008028EA0008DFF8449009F10C09C9F814
:1017C00000805B1CD1F8008028FA03F8B8F1000F04
:1017D0007FF47CAEBDE8F8870000111000100240D5
:1017E00000080140000C01400010014000140140BD
:1017F00000180140001C01400800014000040140A5
:101800000AB1016101E00B040361704701480068FF
:10181000704700000400002003480068034909786D
:101820000844014908607047040000200C000020B3
:1018300010B50848006840F0100006490860032011
:1018400000F0A8F8002000F007F800F02BF80020C6
:1018500010BD00000020024070B504460E4800781C
:101860004FF47A71B1FBF0F00C490968B1FBF0F567
:10187000284600F099FE08B1012070BD102C07D257
:1018800000222146501E00F047F80548046001E0A0
:101890000120F2E70020F0E70C00002010000020FB
:1018A0000800002008B500BF1148806940F0010021
:1018B0000F4988610846806900F00100009000BF70
:1018C00000BF00BF0846C06940F08050C8610846AC
:1018D000C06900F08050009000BF00BF00BF054904
:1018E000486820F0E06000BF486000BF08BD00000D
:1018F000001002400000014001460846002809DBB4
:1019000000F01F0301229A4043099B0003F1E023EA
:10191000C3F8002100BF70472DE9F05F80460D46F7
:101920001646002705F09AFD074639462A463346F3
:1019300001F00700C0F1070ABAF1040F02D94FF015
:10194000040A01E0C0F1070AD14600F1040ABAF125
:10195000070F02D24FF0000A01E0A0F1030AD446BB
:101960004FF0010A0AFA09FAAAF1010A0AEA020A80
:101970000AFA0CFA4FF0010B0BFA0CFBABF1010B5E
:101980000BEA030B4AEA0B042146404605F06EFDC4
:10199000BDE8F09F00BF00F00702064B19684FF644
:1019A000FF031940044B0B4343EA0221014B19602A
:1019B00000BF70470CED00E00000FA0570B504466A
:1019C0000D460CB9012070BD5A48006800F00700B0
:1019D000A8420ED25748006820F007002843554916
:1019E00008600846006800F00700A84201D0012006
:1019F000E9E7207800F0020002281DD1207800F0ED
:101A00000400042805D14C48406840F4E0604A498D
:101A10004860207800F00800082805D14648406852
:101A200040F46050444948604348406820F0F0006A
:101A3000A168084340494860207800F0010078B36D
:101A40006068012806D13C48006800F4003090B975
:101A50000120B8E76068022806D13748006800F026
:101A6000007040B90120AEE73348006800F0020082
:101A700008B90120A7E73048406820F003006168FA
:101A800008432D494860FFF7C1FE064609E0FFF70D
:101A9000BDFE801B41F28831884202D9032092E7C3
:101AA00007E02548406800F00C006168B0EB810F4A
:101AB000EDD12048006800F00700A8420ED91D486B
:101AC000006820F0070028431A49086008460068AB
:101AD00000F00700A84201D0012074E7207800F050
:101AE0000400042807D11448406820F4E060E1684D
:101AF000084311494860207800F00800082808D100
:101B00000D48406820F46050216940EAC1000A494C
:101B1000486000F03FF808494968C1F30311074ADB
:101B2000515CC8400649086006480068FFF794FE0B
:101B3000002048E7002002400010024054960008B0
:101B400010000020080000200148006870470000D5
:101B50001000002000B5FFF7F7FF04494968C1F302
:101B60000221034A515CC84000BD00000010024041
:101B70006496000800B5FFF7E7FF04494968C1F320
:101B8000C221034A515CC84000BD00000010024061
:101B900064960008F0B585B00FF26C0C9CE8E0107C
:101BA00001A8A0E8E0101CA52D68009500210022E6
:101BB000002300240020194D696801F00C05F5B1DF
:101BC000042D02D0082D19D101E0154819E001AD0E
:101BD000C1F38346AC5D01F4803555B10F4D6D689E
:101BE000C5F340451DF805200D4D6543B5FBF2F3E7
:101BF00002E00C4D04FB05F3184602E000BF084864
:101C000000BF00BF05B0F0BD0203040506070809C8
:101C10000A0B0C0D0E0F1010010200000010024004
:101C200000127A0000093D00F8B504460CB9012005
:101C3000F8BD207800F00100002878D0F84840680E
:101C400000F00C0004280CD0F548406800F00C00AF
:101C5000082811D1F248406800F48030B0F5803F88
:101C60000AD1EF48006800F4003000285FD06068B7
:101C700000285CD10120DBE700BF6068B0F5803F41
:101C800006D1E748006840F48030E549086028E064
:101C9000606858B9E248006820F48030E049086084
:101CA0000846006820F4802008601AE06068B0F5FB
:101CB000A02F0BD1DA48006840F48020D849086092
:101CC0000846006840F4803008600AE0D4480068A4
:101CD00020F48030D24908600846006820F4802053
:101CE000086000BF606888B1FFF790FD054606E018
:101CF000FFF78CFD401B642801D9032098E7C848F2
:101D0000006800F400300028F2D010E0FFF77EFDFC
:101D1000054606E0FFF77AFD401B642801D9032041
:101D200086E7BF48006800F400300028F2D1207830
:101D300000F00200022857D1B948406800F00C00BA
:101D400050B1B748406800F00C00082818D1B448DA
:101D5000406800F4803098B9B148006800F0020093
:101D600020B12069012801D0012061E7AC4800685A
:101D700020F0F800616940EAC100A949086033E039
:101D80002069E8B10120A7490860FFF73FFD05463B
:101D900006E0FFF73BFD401B022801D9032047E77F
:101DA0009F48006800F002000028F2D09C480068BC
:101DB00020F0F800616940EAC1009949086013E029
:101DC000002098490860FFF721FD054606E0FFF76F
:101DD0001DFD401B022801D9032029E79048006817
:101DE00000F002000028F2D1207800F00800082856
:101DF0002DD1A069B8B101208B490860FFF706FD1D
:101E0000054606E0FFF702FD401B022801D903202A
:101E10000EE78348406A00F002000028F2D001205B
:101E200001F0C4FF13E000207F490860FFF7EEFCDB
:101E3000054606E0FFF7EAFC401B022801D9032013
:101E4000F6E67748406A00F002000028F2D12078D8
:101E500000F00400042873D100277148C06900F025
:101E6000805070B900BF6E48C06940F080506C4926
:101E7000C8610846C06900F08050009000BF00BFF4
:101E800001276A48006800F48070B0B967480068AC
:101E900040F4807065490860FFF7B8FC054606E02D
:101EA000FFF7B4FC401B642801D90320C0E65F485B
:101EB000006800F480700028F2D000BFE0680128BC
:101EC00006D15748006A40F001005549086227E0F2
:101ED000E06858B95248006A20F001005049086291
:101EE0000846006A20F00400086219E0E06805284E
:101EF0000BD14B48006A40F004004949086208468B
:101F0000006A40F0010008620AE04548006A20F0DB
:101F10000100434908620846006A20F00400086294
:101F200000BFE068A0B1FFF771FC054609E0FFF7CC
:101F30006DFC401B41F28831884202D9032077E6CC
:101F400022E03748006A00F002000028EFD012E0DB
:101F5000FFF75CFC054608E0FFF758FC401B41F228
:101F60008831884201D9032062E62D48006A00F0DA
:101F700002000028F0D1012F05D12948C06920F0C6
:101F800080502749C86100BFE069C8B32448406851
:101F900000F00C00082860D0E069022848D1002039
:101FA00020490866FFF732FC054606E0FFF72EFCE5
:101FB000401B022801D903203AE61948006800F0C6
:101FC00000700028F2D1206AB0F5803F07D1144894
:101FD000406820F40030A168084311494860D4E902
:101FE000080108430E49496821F4741108430C495B
:101FF000486001200B490866FFF708FC054607E02A
:102000003DE0FFF703FC401B022801D903200FE647
:102010000348006800F000700028F2D02FE00000B4
:102020000010024000004242800442420070004022
:10203000002014490866FFF7E9FB054606E0FFF7B4
:10204000E5FB401B022801D90320F1E50E4800689A
:1020500000F000700028F2D111E0E069012800D101
:10206000E6E50948466806F48031206A814204D1D9
:1020700006F47011606A814201D00120D8E5002089
:10208000D6E50000000042420010024010B50446B0
:102090000CB9012010BD606A38B96068B0F5827F64
:1020A00000D105E00021E16102E0002121616161D0
:1020B0000021A16294F8510028B9002084F8500052
:1020C000204600F043F8022084F8510020680068A0
:1020D00020F0400021680860A08800F48270218907
:1020E00001F404410843A18901F400610843217C03
:1020F00001F002010843217D01F001010843218B19
:1021000001F400710843217F01F0380108432021C8
:10211000095D01F080010843218D01F4005108435D
:10212000216808600421A06901EA10402168486024
:102130002068C06920F400602168C86100206065E3
:10214000012084F851000020A4E7000010B586B0FB
:1021500004460020029003900490059019492068DD
:1021600088422DD100BF1848806940F4805016493C
:1021700088610846806900F48050019000BF00BF6C
:1021800000BF0846806940F0040088610846806905
:1021900000F00400019000BF00BFA02002900220C8
:1021A00003900320059002A90848FFF789F9402011
:1021B000029000200390049002A90448FFF780F9E0
:1021C00006B010BD00300140001002400008014080
:1021D0002DE9F84F0446884616461D464FF0000A82
:1021E00000BF94F85000012802D10220BDE8F88F0A
:1021F000012084F8500000BFFFF708FB0746B146F6
:1022000094F85100012802D04FF0020AADE0B8F175
:10221000000F00D016B94FF0010AA6E0032084F8A1
:10222000510000206065C4F83080A686E686A06371
:10223000A087E08760642064A068B0F5004F0BD1F0
:102240002068006820F0400021680860206800686D
:1022500040F48040216808602068006800F0400079
:10226000402805D02068006840F0400021680860E0
:10227000E068B0F5006F2FD1606810B1B9F1010FBF
:1022800009D1206B00882168C860206B801C206306
:10229000E08E401EE0861BE02068806800F00200AF
:1022A00002280AD1206B00882168C860206B801C3E
:1022B0002063E08E401EE0860AE0FFF7A7FAC01B0D
:1022C000A84201D3681C00B915B94FF0030A4CE0CD
:1022D000E08E0028E0D12EE0606810B1B9F1010F66
:1022E00009D1206B007821680873206B401C2063A3
:1022F000E08E401EE0861BE02068806800F002004F
:1023000002280AD1206B007821680873206B401CDA
:102310002063E08E401EE0860AE0FFF777FAC01BDC
:10232000A84201D3681C00B915B94FF0030A1CE09C
:10233000E08E0028E0D13A462946204601F04AFDC9
:1023400008B120206065A06850B900BF002000904F
:102350002068C068009020688068009000BF00BFBF
:10236000606D08B14FF0010A00BF012084F85100F0
:1023700000BF002084F8500000BF504636E72DE92A
:10238000FF5F0446884691461D460E9E012002903E
:102390000020019000BF94F85000012803D10220D2
:1023A00004B0BDE8F09F012084F8500000BFFFF7A3
:1023B0002DFA074694F851B060680390AA46BBF125
:1023C000010F0BD00398B0F5827F04D1A06810B93B
:1023D000BBF1040F02D002200190DBE0B8F1000F46
:1023E00003D0B9F1000F00D015B901200190D1E060
:1023F00094F85100042802D0052084F851000020F0
:102400006065C4F83890E587A587C4F83080E58614
:10241000A586206460642068006800F040004028C1
:1024200005D02068006840F0400021680860E0683E
:10243000B0F5006F4AD1606810B1BAF1010F09D14F
:10244000206B00882168C860206B801C2063E08EB0
:10245000401EE08633E02068806800F00200022819
:1024600010D1E08E70B1029801280BD1206B00884A
:102470002168C860206B801C2063E08E401EE086CF
:10248000002002902068806800F0010068B1E08FB1
:1024900058B12068C068A16B0880A06B801CA06345
:1024A000E08F401EE08701200290FFF7AFF9C01BCC
:1024B000B04204D3701C10B1032001906AE0E08E9A
:1024C0000028C8D1E08F0028C5D14AE0606810B16B
:1024D000BAF1010F09D1206B007821680873206BD5
:1024E000401C2063E08E401EE08634E02068806857
:1024F00000F00200022810D1E08E70B1029801288D
:102500000BD1206B007821680873206B401C20637E
:10251000E08E401EE086002002902068806800F077
:10252000010068B1E08F58B12068C068A16B0870E5
:10253000A06B401CA063E08F401EE087012002904A
:10254000FFF764F9C01BB04201D3701C00B916B983
:10255000032001901EE0E08E0028C7D1E08F002804
:10256000C4D13A463146204601F034FC20B1012066
:102570000190202060650DE0A06850B900BF0020E8
:1025800000902068C068009020688068009000BFBC
:1025900000BF00BF012084F8510000BF002084F874
:1025A000500000BF0198FBE670B504462546681E42
:1025B000B0F1807F01D301200FE0681E4FF0E021D1
:1025C00048610F214FF0FF3004F050FF00204FF022
:1025D000E021886107200861002070BD70477047C6
:1025E00030B502460B4600BF92F83C00012801D1ED
:1025F000022030BD012082F83C0000BF022082F89A
:102600003D00106844681068816824F07004186800
:10261000044310684460144D1068A84213D0134D51
:102620001068A8420FD01068B0F1804F0BD0104D49
:102630001068A84207D00F4D1068A84203D00E4D75
:102640001068A84205D121F0800158680143106844
:102650008160012082F83D0000BF002082F83C002C
:1026600000BF00BFC5E70000002C0140003401405E
:102670000004004000080040000C004010B5044673
:102680000CB9012010BD94F83D0028B9002084F851
:102690003C00204600F026F8022084F83D00211D71
:1026A000206801F05BFD012084F8460000BF84F83B
:1026B0003E0001213F200155402001554120015598
:1026C00000BF00BF012084F8420043200155442090
:1026D00001554520015500BF012084F83D00002030
:1026E000D0E7000038B5044616492068884216D164
:1026F00000BF1548C06940F010001349C861084682
:10270000C06900F01000009000BF00BF0022114619
:102710003620FFF701F93620FFF7EEF811E00B49FC
:10272000206888420DD100BF0748C06940F02000F2
:102730000549C8610846C06900F02000009000BF4C
:1027400000BF38BD001000400010024000140040DF
:10275000014691F83D00012801D001207047022078
:1027600081F83D00164B0868984213D0154B086855
:1027700098420FD00868B0F1804F0BD0124B086818
:10278000984207D0114B0868984203D0104B086854
:1027900098420CD10868806800F00702062A0CD025
:1027A0000868006840F001000B68186005E00868E0
:1027B000006840F001000B6818600020CEE70000C0
:1027C000002C01400034014000040040000800409B
:1027D000000C0040014691F83D00012801D0012085
:1027E0007047022081F83D000868C06840F0010091
:1027F0000B68D860164B0868984213D0154B0868D0
:1028000098420FD00868B0F1804F0BD0124B086887
:10281000984207D0114B0868984203D0104B0868C3
:1028200098420CD10868806800F00702062A0CD094
:102830000868006840F001000B68186005E008684F
:10284000006840F001000B6818600020C8E7000035
:10285000002C01400034014000040040000800400A
:10286000000C0040014600BF0868006A41F21112E6
:10287000104050B90868006A9210104028B90868E2
:10288000006820F001000A68106000BF012081F894
:102890003D0000207047704710B50446206800696D
:1028A000C0F34000D8B12068C068C0F34000B0B1A8
:1028B0006FF002002168086101202077206880699C
:1028C00000F0030018B12046FFF7E5FF05E02046C1
:1028D00000F0ADF8204600F0ABF80020207720682B
:1028E0000069C0F38000D8B12068C068C0F38000E0
:1028F000B0B16FF0040021680861022020772068E1
:10290000806900F4407018B12046FFF7C4FF05E06D
:10291000204600F08CF8204600F08AF8002020774E
:1029200020680069C0F3C000D8B12068C068C0F357
:10293000C000B0B16FF00800216808610420207762
:102940002068C06900F0030018B12046FFF7A3FF1C
:1029500005E0204600F06BF8204600F069F8002002
:10296000207720680069C0F30010D8B12068C068E3
:10297000C0F30010B0B16FF01000216808610820AA
:1029800020772068C06900F4407018B12046FFF736
:1029900082FF05E0204600F04AF8204600F048F8A3
:1029A000002020772068006900F0010058B12068FD
:1029B000C06800F0010030B16FF0010021680861CB
:1029C000204600F037F820680069C0F3C01058B105
:1029D0002068C068C0F3C01030B16FF0800021687B
:1029E00008612046FFF7FAFD20680069C0F38010F7
:1029F00058B12068C068C0F3801030B16FF040005B
:102A000021680861204600F025F820680069C0F3BD
:102A1000401058B12068C068C0F3401030B16FF06A
:102A20002000216808612046FFF7D9FD10BD7047DE
:102A30007047000010B504460448844204D104489D
:102A4000006808B106F0D4F810BD0000F0010020C5
:102A50000000002070477047704700002DE9F84FD4
:102A60000446206805682068C668206847694FF0FA
:102A70000009CA4605F00F09B9F1000F0AD105F0A7
:102A8000200038B106F0200020B1204601F0E9FB1B
:102A9000BDE8F88FB9F1000F71D007F0010018B947
:102AA00006F4907000286AD005F0010030B106F4F9
:102AB000807018B1206C40F00100206405F0040023
:102AC00030B107F0010018B1206C40F00200206422
:102AD00005F0020030B107F0010018B1206C40F0A1
:102AE0000400206405F0080048B106F0200010B989
:102AF00007F0010018B1206C40F008002064206C41
:102B000068B305F0200028B106F0200010B120467F
:102B100001F0A7FB20684069C0F3801A206C00F028
:102B2000080010B9BAF1000F22D0204601F06EFB68
:102B30002068406900F04000B0B12068406920F092
:102B4000400021684861A06B50B15648A16B4863B2
:102B5000A06BFEF7CDFB10B1A06B416B88470CE07A
:102B60002046FFF779FF08E02046FFF775FF04E0F5
:102B70002046FFF771FF0020206489E7FFE7206B04
:102B8000012878D105F01000002874D006F010005C
:102B9000002870D000BF00200090206800680090DE
:102BA00020684068009000BF00BF2068406900F0C6
:102BB0004000C0B3A06B006840681FFA80F8B8F10D
:102BC000000F2FD0A08D40452CDDA4F82E80A06BE7
:102BD000806920281FD02068C06820F48070216898
:102BE000C8602068406920F00100216848612068C1
:102BF000406920F0400021684861202084F83E00B0
:102C0000002020632068C06820F010002168C860A0
:102C1000A06BFEF741FBA08DE28D801A81B22046A9
:102C2000FFF719FF34E7FFE7A08DE18D401A1FFA87
:102C300080F8E08DE8B1B8F1000F1AD02068C068C4
:102C400020F490702168C8602068406920F001007D
:102C500021684861202084F83E000020206320681D
:102C6000C06820F010002168C86041462046FFF788
:102C7000F2FE0DE7FFE705F0800030B106F08000BE
:102C800018B1204601F0DEFB02E705F0400030B14C
:102C900006F0400018B1204601F0D3FAF8E600BF74
:102CA000F6E60000F941000810B504460CB9012011
:102CB00010BDA06900B100E000BF94F83D0028B944
:102CC000002084F83C00204600F028F8242084F8F6
:102CD0003D002068C06820F400502168C86020468C
:102CE00001F032FB2068006920F4904021680861FF
:102CF0002068406920F02A00216848612068C06887
:102D000040F400502168C86000202064202084F82E
:102D10003D0084F83E000020CAE7000010B586B0F0
:102D20000446002002900390049005901E492068FC
:102D3000884236D100BF1D48806940F480401B495D
:102D400088610846806900F48040019000BF00BFA0
:102D500000BF0846806940F0040088610846806929
:102D600000F00400019000BF00BF4815029002204F
:102D700003900320059002A90D48FEF7A1FB4FF434
:102D80008060029000200390049002A90848FEF79A
:102D900097FB002211462520FEF7BEFD2520FEF7F9
:102DA000ABFD06B010BD000000380140001002402D
:102DB0000008014070472DE9F84F04460E461746BB
:102DC00099464FF0000A94F83D0020285AD106B1E8
:102DD00017B90120BDE8F88F00BF94F83C00012826
:102DE00001D10220F6E7012084F83C0000BF00205A
:102DF0002064212084F83D00FEF708FD8246A78468
:102E0000E784A068B0F5805F04D1206910B900257F
:102E1000B04602E035464FF0000800BF002084F8BD
:102E20003C0000BF1BE05346002280212046CDF825
:102E3000009001F037FB08B10320CBE745B9B8F8A3
:102E40000000C0F308002168486008F1020803E0B0
:102E50002878216848606D1CE08C401EE084E08C7E
:102E60000028E0D15346002240212046CDF80090B2
:102E700001F018FB08B10320ACE7202084F83D00E6
:102E80000020A7E70220A5E7704700BFFEE710B5C6
:102E900000217F2005F09EFFAD21612005F09AFF03
:102EA00003217F2005F096FF0021402005F092FFCE
:102EB00005217F2005F08EFFB321412005F08AFF18
:102EC000F121432005F086FF1421452005F082FF03
:102ED00032215B2005F07EFF34215F2005F07AFF70
:102EE00008217B2005F076FF06217F2005F072FF88
:102EF0001B21442005F06EFFBF21402005F06AFF32
:102F00003F214E2005F066FF08217F2005F062FF7B
:102F10002021652005F05EFF18216A2005F05AFF88
:102F200009217F2005F056FFAF214F2005F052FF09
:102F300040215F2005F04EFF8021482005F04AFF28
:102F40008021492005F046FF7721572005F042FFF8
:102F50007821602005F03EFF7821612005F03AFFDE
:102F60000821622005F036FF5021632005F032FF72
:102F70000A217F2005F02EFF6021452005F02AFF61
:102F800000217F2005F026FF11214D2005F022FFB2
:102F90008021552005F01EFF1F21742005F01AFF27
:102FA0001F21752005F016FF78214A2005F012FF39
:102FB00078214B2005F00EFF0821442005F00AFF80
:102FC0005021452005F006FFFF21642005F002FF97
:102FD0001F21652005F0FEFE14217F2005F0FAFE7A
:102FE0006721652005F0F6FE0821662005F0F2FE57
:102FF0007021632005F0EEFE15217F2005F0EAFE2A
:103000004821084605F0E6FE07217F2005F0E2FE94
:103010000D21412005F0DEFE1421432005F0DAFEEB
:103020000E214B2005F0D6FE0F21452005F0D2FEE3
:103030004221442005F0CEFE80214C2005F0CAFE3E
:1030400010217F2005F0C6FE02215B2005F0C2FEA4
:1030500007217F2005F0BEFE4121402005F0BAFE89
:103060000021702005F0B6FE0F20FEF715FA44216E
:10307000322005F0AFFE07217F2005F0ABFE402196
:10308000084605F0A7FE06217F2005F0A3FEF021EB
:10309000622005F09FFE0021632005F09BFE0D21BC
:1030A0007F2005F097FEC021482005F093FED52132
:1030B0006F2005F08FFE00217F2005F08BFEA02100
:1030C0005B2005F087FEA8214E2005F083FE5021ED
:1030D0005A2005F07FFE8021402005F07BFE10BDC8
:1030E0002DE9F04F87B081460C46A1680846FDF7F0
:1030F000E1F8029021680846FDF7DCF8019002999A
:10310000FDF780F80390FDF715FB074605F066FF15
:10311000CDE904016068FDF70DFB0546DDE90423F8
:10312000FDF751FA8246FDF749FBE9490860A168BD
:103130000846FDF7BFF8834661680846FDF7BAF810
:1031400059460190FDF75EF88246FDF7F3FA07460F
:1031500005F044FFCDE902012068FDF7EBFA0546D2
:10316000DDE90223FDF72FFACDE90401FDF726FB87
:10317000D8490860D6480068FDF7DCFACDE90401BB
:1031800004F040FF07460022D34BFDF7AAF905469D
:10319000D24AD34BFDF717FA8246FDF70FFBD14910
:1031A0000860CC480068FDF7C5FA074604F02AFF1E
:1031B00081F0004182460022C74BFDF792F9C74AD1
:1031C000C74BCDE90401FDF7FEF90546FDF7F6FA18
:1031D000C5490860C549D9F808000968FDF764F8D1
:1031E0000646C34801683046FDF764F80546C14805
:1031F00001682846FDF706F8BE490860BE48006829
:10320000FDF798FA0746FDF7A5FD05464FF0333266
:10321000BA4BFDF7BBFA04D80020B9490860B94998
:103220000860B9480068FDF785FA0546B74AB84B0B
:10323000FDF7ACFA02D80020B1490860B548006833
:10324000FDF778FA0546B14AB14BFDF79FFA02D86F
:103250000020AC490860A7480068FDF76BFA0546F6
:10326000AA4AAD4BFDF73DF907468846AB480068D2
:10327000FDF760FA0546AA4AAA4BFDF732F98246E5
:103280003A464346FDF786F8CDE90401FDF796FA84
:10329000A5490860A1480168A3480068FDF704F843
:1032A000A2490860A04800689C490860A049D9F874
:1032B00000000968FCF7FEFF05469E4801684FF0D4
:1032C0007E50FCF7F7FF06462946FCF79BFF9A491C
:1032D00008609749D9F804000968FCF7EBFF054638
:1032E000964801684FF07E50FCF7E4FF06462946F9
:1032F000FCF788FF924908607D4801688B480068A8
:10330000FCF7D8FF05468F4801684FF07E50FCF768
:10331000D1FF06462946FCF775FF8B4908608B48AC
:1033200001688B480068FCF76DFF8A4908608A488D
:1033300001688A480068FCF765FF89490860894888
:10334000016889480068FCF75DFF88490860884883
:10335000016880480068FCF755FF054629467D480E
:103360000068FCF7D9FF66490860824801687C481C
:103370000068FCF747FF0546294679480068FCF7D6
:10338000CBFF604908607C48016878480068FCF71A
:1033900039FF0546294675480068FCF7BDFF7749A7
:1033A0000860654801684F480068FCF77DFF0646E5
:1033B000534801683046FCF77DFF05465E480168CA
:1033C0002846FCF71FFF5B4908605D4801684648D6
:1033D0000068FCF769FF06464A4801683046FCF77A
:1033E00069FF0546564801682846FCF70BFF53491C
:1033F0000860554801683F480068FCF755FF0646DD
:103400005E4801683046FCF755FF05464E480168A6
:103410002846FCF7F7FE4B490860394801684FF031
:103420007E50FCF741FF05464A4801682846FCF7F4
:1034300041FF47490860334801684FF07E50FCF770
:1034400033FF0546464801682846FCF733FF4349E9
:1034500008604A4801684FF07E50FCF725FF05469A
:10346000424801682846FCF725FF3F49086031487B
:10347000006880F00045424801682846FCF714FFC8
:10348000214908602D48006880F000453D480168EA
:103490002846FCF709FF1F4908602A48006880F0A9
:1034A0000045394801682846FCF7FEFE37490860A8
:1034B00020480068324908602048006831490860A7
:1034C000204800683049086007B0BDE8F08F000070
:1034D0008000002084000020008066406F1283C0BE
:1034E000CA2109408C0000208800002064000020D0
:1034F0005400002090000020100100203333F33FDF
:10350000C4000020C8000020680000209A99999902
:103510009999C93F6C0000209999B93F5800002043
:10352000CDCCCCCCCCCCEC3F5C00002060000020AB
:1035300050000020A400002098000020A0000020DF
:1035400094000020A80000209C0000203C000020E7
:10355000BC000020B000002038000020B80000208F
:10356000AC00002040000020C0000020B40000207B
:1035700048000020440000204C000020CC00002027
:1035800074000020780000207C00002070000020E3
:103590002DE9F8430020009069462E4801F081F89B
:1035A00004469DF80000C0B12B492A4801F0FEF8FE
:1035B00004466CB92849B1F91800FDF773F80646BE
:1035C0002649FCF777FE0546FDF7A0F82449088058
:1035D000204800F0BDFF044603E04FF41670BDE83C
:1035E000F8831F480088B0F5CD7F05DA1D480078C4
:1035F000401C1C49087004E01B480078401C1A4914
:103600000870194800781749097808440A281ED11B
:1036100014480078FDF74FF880461449FCF77CFE0B
:103620000746134801683846FCF73EFE06460B493C
:10363000FCF740FE05460E4801682846FCF7E2FD0F
:103640000B490860002007490870074908700448C2
:103650000088C4E79403002050070020CDCCCC3D67
:103660006A0100206701002068010020000020415D
:103670006C01002010B500200E4908600E4800685B
:1036800020F470200C4908600846006840F440307F
:10369000086000200949C1F8B00100F011F80120CC
:1036A0000449086000F00CF800200449C1F8B80192
:1036B00010BD0000B8812142040C0140008021426D
:1036C00010B5032004F0DEFE10BD000010B5002090
:1036D0000E4908600E48006820F470200C4908600C
:1036E0000846006840F44030086001200949C1F8EC
:1036F000B001FFF7E5FF012004490860FFF7E0FF94
:1037000000200449C1F8B80110BD0000B881214271
:10371000040C01400080214270B505460024164883
:10372000006820F47020144908600846006840F4DE
:1037300000200860002614E0002010490860FFF710
:10374000BFFF01200E49C1F8B8016006040E0B4806
:103750008838006808B1601CC4B2FFF7B1FF701C64
:10376000C6B2082EE8DB15B9FFF7B0FF01E0FFF79E
:1037700081FF204670BD0000040C0140B881214249
:103780000080214270B504461248006820F4702081
:10379000104908600846006840F440300860002086
:1037A0000D490860002512E0E0090B49083908605E
:1037B0006006040E01200949C1F8B801FFF780FF37
:1037C000002005490860FFF77BFF681CC5B2082D83
:1037D000EADB70BD040C0140B88121420080214227
:1037E00010B50E48006820F470200C4908600846A7
:1037F000006840F440300860012009490860094928
:10380000C1F8B801FFF75CFF002005490860FFF729
:1038100057FF00200349C1F8B80110BD040C014056
:10382000B08121420080214210B50E48006820F48A
:1038300070200C4908600846006840F44030086079
:103840000020094908600949C1F8B001FFF738FFB5
:103850000120054908600549C1F8B001FFF730FFB4
:1038600010BD0000040C0140B881214200802142BB
:1038700010B500241448006820F470201249086034
:103880000846006840F40020086001200F490860E5
:10389000FFF716FF01200E49C1F8B801FFF710FF2E
:1038A00007E0601CC4B2FA2C03DDFFF7BDFF012066
:1038B00010BD0648803800680028F2D1034908315D
:1038C000086000BFF4E70000040C0140B081214211
:1038D0000080214210B580216B2000F0D7F86420D1
:1038E00004F0C6FD00216B2000F0D0F8002000F0AD
:1038F0008BF8002000F080F8C82000F0AAF8002122
:10390000382000F0C3F800216A2000F0BFF8002141
:10391000232000F0BBF88021372000F0B7F8752095
:1039200000F013F80446702C0BD101216B2000F03D
:10393000ADF800216C2000F0A9F8C82000F089F84B
:1039400001E0012010BD0020FCE770B50446FFF740
:1039500047FFD020FFF716FFFFF78AFF2046FFF74B
:1039600011FFFFF785FFFFF73BFFD120FFF70AFFAD
:10397000FFF77EFF0020FFF7CFFE0546FFF754FF5D
:10398000284670BD2DE9F04106460F4614461D46F7
:10399000FFF726FF002141EA4601C8B2FFF7F2FE19
:1039A000FFF766FF20B1FFF73FFF0120BDE8F08180
:1039B0003846FFF7E7FEFFF75BFFFFF711FF012136
:1039C00001EB4601C8B2FFF7DDFEFFF751FF0DE046
:1039D000012C04D10020FFF79FFE287003E0012096
:1039E000FFF79AFE2870601EC4B26D1C002CEFD148
:1039F000FFF71AFF0020D9E710B50446E006010ED4
:103A00001C2000F043F810BD10B50446E006010E7E
:103A10001B2000F03BF810BD70B504460025BC2CFF
:103A200001DB012510E0622C01DB02250CE02A2CD1
:103A300001DB032508E0142C01DB042504E00A2C3B
:103A400001DB052500E0062529461A2000F01EF8B6
:103A500070BD70B50446B4F57A7F01DD4FF47A7419
:103A6000042C00DA04244FF47A7090FBF4F0401E2A
:103A7000C5B22946192000F009F80546264604EB90
:103A8000D671C1F34F00FFF7C7FF70BD70B5054693
:103A90000C46FFF7A5FED020FFF774FEFFF7E8FE07
:103AA00018B1FFF7C1FE012070BD2846FFF76AFE7E
:103AB000FFF7DEFE2046FFF765FEFFF7D9FE18B1DF
:103AC000FFF7B2FE0120EFE7FFF7AEFE0020EBE7C5
:103AD00000B585B00020019002900390049000BFD3
:103AE0002848806940F0200026498861084680699E
:103AF00000F02000009000BF00BF00BF08468069B2
:103B000040F0040088610846806900F004000090DD
:103B100000BF00BF00BF0846806940F00800886110
:103B20000846806900F00800009000BF00BF012235
:103B30001C211548FDF764FE012211031348FDF70F
:103B40005FFE00224FF480411048FDF759FE1C2013
:103B5000019001200290022003900320049001A90B
:103B60000948FDF7ADFC4FF4A04001900120029000
:103B700003900320049001A90448FDF7A1FC05B0BF
:103B800000BD00000010024000080140000C014090
:103B900010B50E480E4908604FF48270486000214D
:103BA0000B488160C160016141614FF40071816126
:103BB0002021C16100210162416281620A21C1624A
:103BC000FEF764FA08B1FDF792FA10BD003001402B
:103BD000980100201CB50020009001900E480F496C
:103BE000086041F61F40486000210C488160312187
:103BF000C16080218161FEF741FD08B1FDF777FAD0
:103C000000200090019069460448FEF7E9FC08B1E5
:103C1000FDF76DFA1CBD000000100040F00100200F
:103C20001CB50020009001900D480E490860472007
:103C3000486000210B4881600121C1600021816141
:103C4000FEF71CFD08B1FDF752FA0020009001902C
:103C500069460448FEF7C4FC08B1FDF748FA1CBDEC
:103C6000001400403802002010B50B480B490860D2
:103C70004FF4E1304860002108488160C160016173
:103C80000C21416100218161C161FFF70DF808B18C
:103C9000FDF72DFA10BD0000003801408002002021
:103CA00000BFFEE708B504F0DBFE012007236B220E
:103CB00068210090002004F082FEFFF70BFEC8B9D7
:103CC000002338226821184604F0A1FE0120FDF7E8
:103CD000E3FB01200346372268210090002004F016
:103CE0006EFE0120FDF7D8FB10A003F07FFB04F06F
:103CF000B7FE02E014A003F079FB04F06BF930B1D9
:103D0000162004F057F918A003F070FB02E01EA083
:103D100003F06CFB04F086FA18B113A003F066FB05
:103D200002E019A003F062FB08BD00003635303018
:103D30002049324320636F6E6E656374696F6E2035
:103D40005B4F4B5D2E0D0A00363530302049324333
:103D500020636F6E6E656374696F6E205B464149C8
:103D60004C5D2E0D0A000000414B38393633204996
:103D7000324320636F6E6E656374696F6E205B4FB4
:103D80004B5D2E0D0A000000414B38393633204977
:103D9000324320636F6E6E656374696F6E205B469D
:103DA00041494C5D2E0D0A007047704708B508491F
:103DB0000968C9084FF47A72B1FBF2F141430091EE
:103DC00000BF00BF00994A1E00920029F9D108BD2A
:103DD00010000020F8B504460D4616462B4600227A
:103DE00080212046009600F009F828B1606D40F06F
:103DF000200060650320F8BD0020FCE72DE9F84FA6
:103E000004460D4690461E46DDF82890FDF7FEFC60
:103E1000A0EB0900371AFDF7F9FC82462C48006830
:103E2000C0F3CB307843009045E0701C002842D0AE
:103E3000FDF7ECFCA0EB0A00B84200D2A7BB20685B
:103E4000406820F0E000216848606068B0F5827F3B
:103E50000DD1A068B0F5004F03D0A068B0F5806F19
:103E600005D12068006820F0400021680860A06A41
:103E7000B0F5005F0DD100BF2068006820F400504D
:103E8000216808602068006840F4005021680860DC
:103E900000BF012084F8510000BF002084F85000CA
:103EA00000BF0320BDE8F88FFFE7009800B90027A6
:103EB0000098401E0090206880682840A84201D1E8
:103EC000012000E000204045AFD10020EAE70000DB
:103ED0001000002070472DE9F04107460E461446B9
:103EE0004FF0000816B1012E0ED106E0C4F38F3555
:103EF0002946384603F061F809E0C4F34F25294606
:103F0000384603F052F802E06FF0030800BF00BF2C
:103F10004046BDE8F0812DE9F04389B006460C46E5
:103F2000904699460025032C01D0082C01D140274A
:103F300000E0202708AA41462046FDF729F805465B
:103F40005DB904A805A906AB07AACDE900109DF844
:103F50002010304601F02DFB054665B9DDE904105F
:103F60008DE80302BDF81C209DF820103046069B0A
:103F700003F02BF8054605B9B7700DB986F87C43F8
:103F8000284609B0BDE8F0832DE9F04F89B0064618
:103F90008A4693461D46129C00200890686820605F
:103FA00095F83E0000F01F072A4639465046FDF7B7
:103FB00029F86071A88D400202900298A060288EB6
:103FC000400203900398E060288A2082288F4FEAFD
:103FD0004028C4F81480A88F20830020A076BBF16D
:103FE000030F10D006DCBBF1010F0BD0BBF1020FA9
:103FF0000FD106E0BBF10D0F08D0BBF1110F08D1B6
:1040000000BF00BF00BF0520E07605E00D20E07690
:1040100002E00020E07600BF00BFE07E18B938461D
:10402000FDF740F8E076288F4FEA4028C6F89083E5
:10403000A88D4FEA4028C6F8948301AA0021304693
:1040400000F0F6FA062F01D1012000E000200790D1
:1040500005AA0021304600F0DDFA9DF81400012881
:1040600003D10798012800D100E00020049040F21D
:1040700086310498885501AA0121304600F0D8FA0B
:10408000042F01D1012000E00020069005AA0121A3
:10409000304600F0BFFA9DF81400012803D10698BD
:1040A000012800D100E000200490049986F88713CD
:1040B000B4F91890E07E58B9B9F1000F08DA064853
:1040C0004068484502DD0E20E07601E000202083B4
:1040D000089809B0BDE8F08F7001002010B5FDF719
:1040E0009BFB10BD00B58FB0282105A8FCF773F825
:1040F00014216846FCF76FF8012005900004069033
:10410000002007900120099002200C90C1030D911E
:104110004FF4E0110E9105A8FDF786FD08B1FCF7FC
:10412000E6FF0F20009002200190002002904FF443
:10413000806003900020049002216846FDF73EFC59
:1041400008B1FCF7D4FF0FB000BD704710B50248AE
:10415000FEF7A2FB10BD0000F001002010B50268C0
:10416000204B98420ED0204B98420BD0B0F1804F9C
:1041700008D01E4B984205D01D4B984202D01D4BD3
:10418000984203D122F070024B681A43154B9842B3
:104190000ED0154B98420BD0B0F1804F08D0134B86
:1041A000984205D0124B984202D0124B984203D14C
:1041B00022F44072CB681A4322F080034C6943EA30
:1041C000040202608B68C3620B688362054B9842ED
:1041D00002D0054B984201D10B690363012343616F
:1041E00010BD0000002C01400034014000040040DC
:1041F00000080040000C004070B505466C6A0020C5
:10420000E085E0842046FEF727FC70BD0168C968A0
:1042100021F490710268D1600168496921F00101BF
:1042200002685161016B012905D10168C96821F05B
:1042300010010268D160202180F83E100021016346
:10424000704710B504462068C06820F0400021681F
:10425000C860202084F83D002046FEF715FE0020AF
:1042600010BDF8B5044694F83E00222869D1A06834
:10427000B0F5805F0CD1206950B90025A66A20688E
:104280004068C0F308003080A06A801CA06215E07E
:10429000A56A0026A068B0F5805F03D0A06828B9A1
:1042A000206918B920684068287004E020684068D8
:1042B00000F07F002870A06A401CA062E08D401EC4
:1042C00080B2E085A8BB2068C06820F0200021688B
:1042D000C8602068C06820F480702168C8602068C9
:1042E000406920F0010021684861202084F83E00E8
:1042F000206B01281ED1002020632068C06820F0B8
:1043000010002168C8602068006800F010001028C4
:104310000AD100BF0020009020680068009020684B
:104320004068009000BF00BFA18D2046FEF793FBC0
:1043300003E004E02046FEF73DFD0020F8BD00202C
:10434000FCE70220FAE7000070B50446216809691D
:1043500021F44051E2681143226811612269A16889
:104360001143626941EA02052168C96841F20C62A1
:10437000914329432268D1602168496921F4407141
:10438000A2691143226851612D4A2168914202D1EC
:10439000FDF7F0FB01E0FDF7DDFB00EBC00101EBF9
:1043A000001162689200B1FBF2F100EBC00202EB77
:1043B000001263689B00B2FBF3F26423B2FBF3F2DA
:1043C00002EBC20303EB0212A1EB8201322202EBE9
:1043D00001116422B1FBF2F101F0F00100EBC00227
:1043E00002EB001263689B00B2FBF3F26423B2FBA2
:1043F000F3F201EB021200EBC00101EB0011636864
:104400009B00B1FBF3F100EBC00303EB0013666804
:10441000B600B3FBF6F36426B3FBF6F303EBC30677
:1044200006EB0313A1EB8301322303EB0111642399
:10443000B1FBF3F101F00F0111442268916070BDEE
:1044400000380140014691F83D00212828D18868B4
:10445000B0F5805F0BD1086948B90A6A1088C0F3CB
:1044600008000B685860086A801C086205E00B6A47
:10447000581C086218780B685860C88C401E80B2BF
:10448000C88458B90868C06820F080000B68D860FC
:104490000868C06840F040000B68D8600020704792
:1044A0000220FCE72DE9F04104460D4617469846E8
:1044B000069E21E0701CF8B12EB1FDF7A7F9A0EB24
:1044C0000800B04218D92068C06820F4D070216874
:1044D000C8602068406920F0010021684861202000
:1044E00084F83D0084F83E0000BF002084F83C00C2
:1044F00000BF0320BDE8F081206800682840A84282
:1045000001D1012000E00020B842D3D00020F1E723
:1045100010B50248FEF7A2FA10BD0000800200208C
:1045200000BFFEE710B5024600200BE0135C074C0D
:10453000236000BF054B1B1F1B6803F04003002BCB
:10454000F8D0401C8842F1DB10BD00000438014067
:104550002DE9F04104460025A67840F27E30075D43
:10456000401C10F80480B84504D02046FCF7C4FC79
:10457000054604E03146204600F0EEFC054628469C
:10458000BDE8F08170B50646002424B9012130460B
:1045900000F034FE04462CB9012086F87803082088
:1045A00086F87C0300250AE034B90122294630460A
:1045B00000F0C9F9044300E003E0681CC5B2022D15
:1045C000F2DB00BF34B94FF490120021304600F006
:1045D000DEF9044634B94FF480420121304600F040
:1045E000D6F90446204670BDF8B505460C460026AF
:1045F0006946284600F023FF0646009880014FF4E4
:104600007A71B0FBF1F00099081A009000982060D0
:104610003046F8BD30B503460020022903DB001FF9
:104620000025157003E003F561756C5C147030BDF6
:104630002DE9FC4106460C4617464FF0000814B120
:10464000012C12D108E06946304600F017FF804681
:10465000BDF8000085030BE001A9304600F005FF1E
:104660008046BDF80400450202E06FF0030800BF79
:1046700000BFB8F1000F11D145B906F5627050F8CE
:1046800024503D600021001F015507E03D6006F504
:10469000627040F824500121001F01554046BDE8DA
:1046A000FC8170B504460D4600262946204602F0DE
:1046B000D4F80646304670BD2DE9F04786B007466F
:1046C0000D4600240020059004900390029082463D
:1046D000019028602CB905AA0521384600F088F819
:1046E00004462CB904AA0621384600F081F8044695
:1046F00034B902AB03AA01A9384600F0EEFF044624
:10470000002C4CD197F87C83B8F1030F18D0B8F186
:10471000040F03D0B8F1080F3DD127E09DF8140035
:10472000012803D09DF81000012805D141F28831FD
:10473000029800EB010A02E0029800F57A7A2DE077
:104740009DF81400012803D09DF81000012806D11F
:1047500046F2E8710222029802FB001A05E045F2D7
:1047600060410222029802FB001A17E0F5266A4611
:1047700048F23601384600F0FCFF0098002803DDBF
:10478000F521009800FB016606F6DC59022102982B
:1047900001FB009A02E06FF0070400BF00BF0CB9F4
:1047A000C5F800A0204606B0BDE8F0872DE9F0412D
:1047B000A2B080460C46002601ADFF221C212046F7
:1047C000FBF702FD2A460221404600F0E4FD0646C2
:1047D00056B9A87820712F1D0094EA783B46012134
:1047E0004046FFF7D1FB0646304622B0BDE8F081D7
:1047F0002DE9F04104460D4616460027324629466B
:10480000204600F03BFF07463846BDE8F0810146F0
:10481000002000220A6070472DE9F04107460D464E
:1048200014460026234601222946522004F032FE77
:104830003046BDE8F08100002DE9F04107460D4605
:1048400014460026074B02222946522004F022FE7D
:10485000044840780349097800EB01202080304665
:10486000BDE8F081590100202DE9F04180460E4657
:1048700014461D460027EAB223463146522004F072
:1048800009FE3846BDE8F0812DE9FF4706460D4692
:10489000002496F87C93012D07D0022D05D0032D1E
:1048A00003D0201F04B0BDE8F08734B9012D01D03A
:1048B000022D01D12F4600E0032724B96946304676
:1048C00001F086F80446D6F8148034B903AB02AA86
:1048D00001A9304600F001FF044634B943463A4688
:1048E00049463046FFF717FB044634B940F27E30A4
:1048F0008755401C8755801E855544B9304601A90F
:104900000EC902F064FC04460CB90398306124B966
:104910006946304602F083FC04462046C2E72DE992
:10492000F04106460C4600272546A8014FF47A714F
:10493000B0FBF1F005442946304602F021FB074662
:104940003846BDE8F0812DE9F04105460C46164693
:104950000027B846022C01DB3F1F0DE016B94FF0CF
:10496000000803E005F5627050F8248042462146B5
:104970002846FFF7B0FA074637B90EB1012100E02B
:10498000002105F5617001553846BDE8F0812DE93B
:10499000F04105460C4616460027022C01DB3F1F5E
:1049A00015E005F5617010F80480B8F1000F03D12F
:1049B000001D40F824600AE0324621462846FFF7F1
:1049C0008AFA07461FB905F5627040F82460384638
:1049D000BDE8F0812DE9F04F87B006460D46002472
:1049E000DFF810914448854200D9241F2CB906AA4B
:1049F00005213046FFF7FCFE04462CB905AA062126
:104A00003046FFF7F5FE044634B904AB03AA02A909
:104A1000304600F062FE0446002C63D196F87CB369
:104A200000274FF0010ABBF1030F14D0BBF1040FB4
:104A300003D0BBF1080F36D11FE09DF81800012804
:104A400003D09DF81400012802D141F2883701E01B
:104A50004FF47A772AE04FEA49099DF818000128B7
:104A600003D09DF81400012802D146F2E87701E056
:104A700045F260474FF0020A18E04FEA49094FF04B
:104A8000F50801AA48F23601304600F072FE01989E
:104A9000002803DDF521019800FB018808F6DC57AA
:104AA0004FF0020A02E06FF0070400BF00BFBD42F2
:104AB00002D86FF0030401E0E81B049094B9049855
:104AC000484502D96FF0030409E00498B0FBFAF0FE
:104AD0000490304602A90EC902F079FB04460CB9D5
:104AE0000498306114B94FF460708551204607B0C6
:104AF000BDE8F08F70640800809698002DE9F041C1
:104B000007460C46002503264FF47A7332462146A9
:104B10003846FFF700FA0546BDB940F27E30C6556B
:104B2000401CC655042C03D0032C01D0082C06D100
:104B30004AF228013846FFF74DFF054605E048F2E6
:104B400035213846FFF746FF05462DB94FF47A71F7
:104B50003846FFF7E4FE05462846BDE8F0812DE91A
:104B6000FC410446002594F87873042F14D007DC28
:104B70007FB1012F0ED0022F0DD0032F12D106E0EE
:104B8000052F0AD0622F09D0632F0BD107E0002533
:104B90000BE000BF00BF00BF00BF00BF00BF6FF051
:104BA0000D0502E06FF0020500BF00BFA678C5B991
:104BB000402E16D101A92046FFF77EFD80464FF416
:104BC0007A710198B0FBF1F0019069462046FFF739
:104BD0000BFD8046DDE90010001D814201D26FF01F
:104BE00003052DB906223146204601F022FC054678
:104BF00015B9042084F878032846BDE8FC8170B517
:104C000004460025032084F878032026A67003219B
:104C100040F27F300155401E0155401E01550821CC
:104C20002046FFF76BFF0546284670BD70B5044669
:104C30000025204602F018FB054615B9032084F82C
:104C40007803284670BD70B5044600254FF4FA710C
:104C5000204601F0EEFE0546284670BD70B50546BB
:104C60000C46204603F004FC002070BD70B50646DB
:104C70000C464FF47A7094FBF0F5284603F0F8FBED
:104C8000002070BD2DE9FF4FADF5037D0E461746A0
:104C90009846DDF840A2DDF844920024002082907E
:104CA000819083468090002540F2FF121AA1684649
:104CB000FBF79CFA82A8FFF7AAFD1EE02CB980AA98
:104CC00039468398FFF7A8FD04469DF8000200EAE4
:104CD0000A00404500D1012544B93DB9B9F1000FA2
:104CE00004D049468398FFF7B9FF044681A8FFF72F
:104CF0008EFD82998198A0EB010B1CB9B34501D2BE
:104D0000002DDBD015B90CB96FF0060420460DF567
:104D1000077DBDE8F08F0000000000002DE9F041A4
:104D200080460E4614461D460027EAB22346314609
:104D3000522004F0E4FB3846BDE8F081F0B50446AB
:104D40000D4600260027204600F0D2FA06462946E6
:104D5000304600F0BAF807463846F0BDF0B50446D4
:104D60000D46002600272946204600F05BF806463F
:104D7000304600F0E1FA07463846F0BD2DE9F04133
:104D800006460D4600BF00BF00BF304600F00FF8DA
:104D90000746284600F0B3FA804607EBC700040236
:104DA000A40904FB08F4A4092046BDE8F0810146EB
:104DB00000204FF0804292FBF1F070472DE9F04364
:104DC00005460C4600218846002600278C4628010F
:104DD0004FF47A7990FBF9F6002C01DA604207B2C1
:104DE000002A02DA50420FFA80FC4FEA471909EB19
:104DF0004C114FF47A7091FBF0F13144594301F1B9
:104E000010004FEAE07900EBD9694FEA6911B1F57A
:104E1000803F02DB4FF6FF7801E01FFA81F8404641
:104E2000BDE8F08302460020130303EB5103B3FBFC
:104E3000F1F070472DE9FC5F82460F4690461E4612
:104E4000DDE90CB4002001900090814600251EB9D8
:104E50006FF00E00019035E0A1793046FFF78EFF2C
:104E6000009050460099FFF7DDFF8146B9F1FF0F32
:104E700001D94FF0FF098BF8079038460099FFF7EA
:104E80006DFF0546280A2070657040460099FFF7BF
:104E900065FF0546280A20716571617A3046FFF783
:104EA0006DFF009038460099FFF758FF0546280A25
:104EB000A070E57040460099FFF750FF0546280AAC
:104EC000E07125720198BDE8FC9FF0B503460C46E1
:104ED000002000BFA3FB04152A464FF4006C11EB21
:104EE0000C0142F100020D0B45EA02510846F0BDEB
:104EF000F0B5014600200A4602F12C0302F5E774E2
:104F000000250026002794F801C00CF01F05E67864
:104F100094F800C00CF0200C4FEA2C1792F8CCC18A
:104F20000CF0200CBCF1200F15D193F804C0BCF19B
:104F3000060F04D1122D0ED06FF010000BE093F885
:104F400005C0B44501D06FF0110093F806C0BC4510
:104F500001D06FF01200F0BD70B505460E4600247A
:104F60002CB903223146284601F063FA0446204654
:104F700070BD10B5034600200124547000249470C5
:104F80008B244C744FF448441C8202249C7210BD44
:104F900010F8102F0A7042784A7082788A70C278AE
:104FA000CA7002790A7142794A7182798A71C2792A
:104FB000CA71027A0A72427A4A72827A8A72C27A12
:104FC000CA72027B0A73427B4A73827B8A73C27BFA
:104FD000CA73027C0A74427C4A74827C8A74C27CE2
:104FE000CA74027D0A75427D4A75827D8A75C27DCA
:104FF000CA75027E0A76427E4A76827E8A76C27EB2
:10500000CA76027F0A77427F4A77827F8A77C27F99
:105010001038CA7770472DE9F0410746144600253D
:105020000022002691F803C083F802C0181D00BFBB
:10503000B5E005704FF0000CC0F804C091F803C053
:10504000BCF1000F0BD191F801C00CF01F0CBCF1AA
:10505000090F04D14FF0130C80F83EC005E091F821
:1050600001C00CF01F0C80F83EC015B1012D51D1CC
:1050700051E091F802C0BCF1070F04D1B1F812C0A1
:10508000A0F810C00DE091F802C0BCF1080F04D1E7
:10509000B1F814C0A0F810C003E0B1F804C0A0F843
:1050A00010C0B1F810C0A0F82CC0B1F816C0A0F81C
:1050B0002EC0B1F808C0A0F830C0B1F80AC04FEA5D
:1050C0004C16B6F5803F01D34FF6FF760687B1F850
:1050D0000CC0A0F83AC0CA897A4302F580629446AF
:1050E0004FEAE27802EB58584FEAE8220FFA82FCC6
:1050F000A0F83CC0D4F804C0C0F824C0D4F808C05C
:10510000C0F828C0D4F80CC0C0F814C0D4F800C04F
:10511000C0F820C03DE0B1F818C0A0F810C0B1F848
:105120001AC0A0F82CC04FF6FF7CA0F82EC0B1F832
:105130001CC0A0F830C0B1F81EC04FEA4C16B6F53E
:10514000803F01D34FF6FF760687B1F820C0A0F864
:105150003AC04A8C7A4302F5806294464FEAE2787C
:1051600002EB58584FEAE8220FFA82FCA0F83CC044
:10517000D4F814C0C0F824C0D4F818C0C0F828C0AF
:10518000D4F81CC0C0F814C0D4F810C0C0F820C0B7
:1051900000BF00BF403005F1010C0CF0FF05022DEF
:1051A000FFF647AF4FF0000C83F803C091F801C041
:1051B0000CF01F0CBCF1030F10D006DCBCF1010F8A
:1051C0000AD0BCF1020F16D107E0BCF10D0F06D0DA
:1051D000BCF1110F0FD103E000BF00BF00BF00BF43
:1051E00091F801C00CF01F0C83F803C04FF00008C9
:1051F00083F8428000BF00BFBDE8F081FEB50546E0
:105200000F4600262C466221284601F04CFA002069
:105210002070012060700020A0700120E0702071DB
:105220004FF47A70A0604000E06043F2C820206133
:10523000642060614FF420602083002084F8210006
:1052400040F2DB70A4F89C00284601F0C5FA002F5C
:1052500004DD1EB9284601F045FE064604F58870B7
:1052600001F047FA064604F5907001F053FA06463D
:1052700004F5967104F1420001F0BCFA064604F50B
:10528000A27001F023FA064604F1A40001F052FADC
:1052900006462021284601F0D7FF064666B9D4E924
:1052A00003126069CDE900120290228B61782846D2
:1052B000A36801F08AFE0646284601F0F8FA304657
:1052C000FEBD7F280BDDC0F1FF0303F007030833A9
:1052D0000B70A0F18003C3F3C703137007E000F065
:1052E00007030B70C0F17F03C3F3C703137070474C
:1052F00001460020CAB20B0A9A40501C7047014672
:1053000000204A1C5206100E70470311137000F063
:105310000F030B70704710B5072807DD802303EBE0
:10532000C103C0F10F042344137004E0C1F10F0363
:1053300000EBC303137010BD10B50146002000221E
:10534000002361B14A1E02E052085C1CA3B222F0A5
:10535000FF04002CF8D1144663F31F24A0B210BD43
:1053600000EB01131370704770B586B006460D460A
:10537000002434B917236A460D213046FFF774FA2A
:1053800004462CB92A466946172000F078FB0446EB
:10539000204606B070BD2DE9F04707468946904685
:1053A00000253C4607F53D7A564625B9494638461C
:1053B00000F06DF8054645B9B4F89C00334604F595
:1053C000227204F5E771FFF726FE40F2E520005D4A
:1053D000012821D165B940F2E620005D40B9384688
:1053E00001F0A7FA0546012140F2E620015509E047
:1053F00045B940F2E620005D012803D1022140F2C8
:10540000E620015540F2E620005DFF2804D01DB9DA
:10541000384601F0BFFA054694F82C003070302071
:10542000005D7070842231464046FAF7ADFE1DB92A
:105430003846FFF75DFD05462846BDE8F08730B5E4
:1054400002460B46002011464FF42D74645A0CB9E5
:105450006FF00E0040B94FF4D67465584FF42D74B8
:10546000645AB5FBF4F41C6030BD10B50246002050
:1054700013464FF4D474E45A0C8010BD10B50246A4
:10548000002013464FF4D374E45A0C8010BD2DE96C
:10549000F04FC3B004460F460025A04608F5E77A52
:1054A00008F5227B08F52B7002908826A94600207B
:1054B0000190012F06D0022F09D1C6F5877080B266
:1054C000019007E0C6F1D50080B2019002E02C20E7
:1054D000019000BF00BF35B903AA31462046019BA9
:1054E000FFF7C2F90546022F0CDB5DB9C6F1D60005
:1054F0001FFA80F903A800EB09013820029A00F096
:1055000010FB0546012F0CDB5DB9C6F1B4001FFA94
:1055100080F903A800EB09015A46212000F06FFA38
:1055200005464DB94FF0000903A800EB09015246AA
:105530002C2000F0B2FC0546284643B0BDE8F08FB1
:105540002DE9FC4105460C464FF000082E46002090
:1055500001900090002796F82A0201AA6946FFF7F9
:10556000B0FE9DF8040020709DF80000607096F871
:105570002B723811E07007F00F00A0704046BDE8B4
:10558000FC8170B58EB006460D4600243CB931232F
:1055900001AA40F20F113046FFF766F904462CB914
:1055A0002A4601A9312000F0A6FB044620460EB091
:1055B00070BD2DE9F04106460F46DDE906450020A5
:1055C0003146072F2ED007DC072F51D2DFE807F036
:1055D0005013141516172900242F36D006DC082F77
:1055E00021D0112F0CD0122F42D11DE0252F2DD00C
:1055F000262F3DD12BE000BF00BF00BF00BF00BF82
:10560000B1F8CAC0A2F800C0D1F8D0C0C3F800C039
:10561000D1F8D8C0C4F800C0D1F8E4C0C5F800C0C3
:1056200029E000BF00BF00BFB1F8CCC0A2F800C0A5
:10563000D1F8D4C0C3F800C0D1F8DCC0C4F800C0B1
:10564000D1F8E8C0C5F800C015E000BF00BFB1F850
:10565000CCC0A2F800C0D1F8D4C0C3F800C0D1F8C3
:10566000E0C0C4F800C0D1F8ECC0C5F800C002E04A
:105670006FF0030000BF00BFBDE8F08170B50346C6
:1056800000201D46012407290FDC002902DD012628
:105690008E40F4B240F2C516765D264016700029A1
:1056A00005DD16780E41167001E06FF0030070BD45
:1056B000FEB506460D46002434B90B236A46012187
:1056C0003046FFF7D1F804462CB92A4669460B202C
:1056D00000F0B2FB04462046FEBD2DE9F05F054612
:1056E0000E46174698464FF0000A2C46D346D14640
:1056F0004FF4AF70005B08B96FF00E0ABAF1000FFB
:1057000034D14FF4D172115D4FF4AF72105BFFF7DB
:1057100035FB834640F28B11085D5946FFF7D5FBF8
:10572000306094F89C9140F29D10005D00EB0920E0
:105730001FFA80F959464846FFF700FB38604FF4DE
:10574000D07010F80490401C005D00EB09201FFA97
:1057500080F959464846FFF7F1FAC8F8000030686A
:10576000A0603868E060D8F8000020615046BDE8CD
:10577000F09F70B503460C4600201946A4F500457D
:10578000392D6FD2DFE805F01D2125292D3135395E
:105790003D4145494D5155595D61666A6F73777B4F
:1057A0007F83878B8F93989CA1A6ABB0B5B9BEC3FE
:1057B000C8CDD2D7DCE1F1F5F9FDECEBEAE9E8E799
:1057C000E600B1F8A450156000E1A6256D5A1560F9
:1057D000FCE0A8256D5A1560F8E0B0256D5C1560F9
:1057E000F4E0B1256D5C1560F0E0B2256D5A1560EE
:1057F000ECE0B1F89C501560E8E0B4256D5C1560F4
:10580000E4E0B6256D5A1560E0E0B8256D5A1560E4
:10581000DCE0BA256D5A1560D8E0BC256D5A1560DC
:10582000D4E0BE256D5A1560D0E0C0256D5A1560D4
:10583000CCE0C2256D5C1560C8E0C3256D5C1560C9
:10584000C4E091F8C4501560C0E04FF4A0756D5CE1
:105850001560BBE091F8C5501560B7E091F8C750EE
:105860001560B3E0ADE091F8C8501560AEE0B1F955
:105870003E511560AAE0AA256D5C1560A6E0AB2537
:105880006D5C1560A2E0AC256D5C15609EE0AD25F9
:105890006D5C15609AE0AE256D5C156096E0AF25F5
:1058A0006D5C156092E091F8C65015608EE04FF483
:1058B000B0756D5C156089E091F81051156085E058
:1058C00040F211156D5C156080E04FF48A756D58DB
:1058D00015607BE04FF48C756D5A156076E04FF4DF
:1058E0008D756D5A156071E04FF48E756D5A1560A7
:1058F0006CE0B1F84451156068E04FF4A4756D5840
:10590000156063E04FF4A8756D5815605EE04FF4C4
:10591000A6756D58156059E04FF4AA756D5C156059
:1059200054E040F255156D5C15604FE04FF4AB75D7
:105930006D5C15604AE040F221156D5C156045E034
:105940004FF491756D5C156040E04FF494756D5A9D
:1059500015603BE031E02CE027E022E01DE018E09C
:1059600013E00EE009E004E0FFE7CA256D5A156078
:105970002CE0CC256D5A156028E0D0256D581560B7
:1059800024E0D4256D58156020E0D8256D581560A9
:105990001CE0DC256D58156018E0E4256D58156095
:1059A00014E0E8256D58156010E091F8E452156098
:1059B0000CE0E0256D58156008E0EC256D58156089
:1059C00004E06FF000451560A80000BF00BF70BD87
:1059D0002DE9F04105460C4600272E4640F2C31142
:1059E000885D2246611CFFF76CFC4FF4E271885D14
:1059F000E21CA11CFFF789FC3846BDE8F0812DE9C7
:105A0000F04106460D4614460027212E03DA6FF0BA
:105A10000900BDE8F0812946042000F0DFFA20608B
:105A2000291D042000F0DAFA606005F10801042065
:105A300000F04FF9A06005F10C01042000F0CEFA4F
:105A4000E06005F11001042000F0C8FA206105F1C2
:105A50001401042000F0C2FA606105F1180104206D
:105A600000F037F9A06105F11C01042000F0B6FA3E
:105A7000E06195F8200084F820003846C9E72DE958
:105A8000F04106460C4615460027172E03DA6FF044
:105A90000900BDE8F0812078287060786870A078EF
:105AA000A870E078E87020792871607900F00F0024
:105AB0006871A079A871E07900F03F00E871207A60
:105AC00000F00300287204F10901022000F077FAC7
:105AD000688104F10B01022000F0E8F8A88104F1CC
